:100000007810040000000000000000000000000064
:1000100000000000000000000000000000000000E0
:1000200000000000000000000000000000000000D0
:1000300000000000000000000000000000000000C0
:1000400000000000000000000000000000000000B0
:1020F0006F8A2000F0FF270020A0B700100020000A
:1021000034A0B700400020004420B700981002001F
:1021100000000000A21002000000000096FF07006F
:10212000E1FF0700B8FF0700FEFF3700FFFF3700A1
:101F78008A1F78008B1F78008C1F78001CC0B30064
:101F88007BC0B3001420EF004AFF07001820EF00C1
:101F98001BC0B3001420EF0046FF07001820EF0015
:101FA8002BC0B3001420EF0042FF0700A007280051
:101FB800800578001420EF0053FF07000B5822001B
:101FC8000C0020000AC2B300C4FF0700380020003C
:101FD800578D20000E20ED00FEFF3A001020ED0086
:101FE800FCFF3A002BC0B3000A82200057FF07000D
:101FF8004F067800CF0578004F05780000000600EE
:101CBC008A1F78008B1F78000A0037000B457800CC
:101CCC008C45780024FE07000B0037000B4578008C
:101CDC008C457800EEFE07000700370010C0B300FB
:101CEC00050037006054E100F4FF32006154E1005C
:101CFC00F6FF3200F9FF3700CF0578004F0578006A
:041D0C0000000600CD
:10156400F0FF2F002AA3B700F0FF2F002CA3B70031
:10157400F0FF2F006CA3B7003E0037001600AE004A
:10158400C702A9001600AF00C702A8005200370026
:101594001600AE00CC22A9001600AF00CC22A80091
:1015A4004D0037001600AE00CC42A9001600AF0073
:1015B400CC42A800480037001600AE00DEC2A900E5
:1015C4001600AF00DEC2A800430037001600AE00CC
:1015D400DEE2A9001600AF00DEE2A8003E003700FC
:1015E4001600AE00DF02A9001600AF00DF02A8005B
:1015F400390037001600AE00D202A9001600AF0071
:10160400D202A800340037001600AE00C182A9003F
:101614001600AF00C182A8002F0037001600AE00EC
:10162400DE82A9001600AF00DE82A8002A0037007F
:101634001600AE00DEA2A9001600AF00DEA2A800CC
:10164400250037001600AE00C042A9001600AF0006
:10165400C042A800200037001600AE00C062A900F6
:101664001600AF00C062A8001B00370010C0B30012
:101674001A0037006054E100C0FF32006154E100F9
:10168400C3FF32006254E100C6FF32006354E1003C
:10169400C9FF32006454E100CCFF32006554E1001C
:1016A400CFFF32006654E100D2FF32006754E100FC
:1016B400D5FF32006854E100D8FF32006954E100DC
:1016C400DBFF32006A54E100DEFF32006B54E100BC
:1016D400E1FF3200E5FF370000C0B3000000060060
:10189C00F0FF2F002AA3B700F0FF2F002CA3B700F6
:1018AC00F0FF2F006CA3B7003E0037001600AE000F
:1018BC00C722A9001600AF00C722A80052003700AB
:1018CC001600AE00CC62A9001600AF00CC62A800D6
:1018DC004D0037001600AE00CC82A9001600AF00F8
:1018EC00CC82A800480037001600AE00DEC2A9006A
:1018FC001600AF00DEC2A800430037001600AE0091
:10190C00DEE2A9001600AF00DEE2A8003E003700C0
:10191C001600AE00DF02A9001600AF00DF02A8001F
:10192C00390037001600AE00D222A9001600AF0015
:10193C00D222A800340037001600AE00C1A2A900C4
:10194C001600AF00C1A2A8002F0037001600AE0091
:10195C00DF82A9001600AF00DF82A8002A00370042
:10196C001600AE00DFA2A9001600AF00DFA2A8008F
:10197C00250037001600AE00C042A9001600AF00CB
:10198C00C042A800200037001600AE00C062A900BB
:10199C001600AF00C062A8001B00370010C0B300D7
:1019AC001A0037006054E100C0FF32006154E100BE
:1019BC00C3FF32006254E100C6FF32006354E10001
:1019CC00C9FF32006454E100CCFF32006554E100E1
:1019DC00CFFF32006654E100D2FF32006754E100C1
:1019EC00D5FF32006854E100D8FF32006954E100A1
:1019FC00DBFF32006A54E100DEFF32006B54E10081
:101A0C00E1FF3200E5FF370000C0B3000000060024
:101D10008A1F7800080037000B057800BAFE07001C
:101D20000A0037000B05780094FE07000700370013
:101D300010C0B300050037006054E100F6FF320028
:101D40006154E100F7FF3200F9FF37004F057800DA
:041D50000000060089
:101808008A1F78008B1F78008C1F78008D1F780046
:10181800FC00450091037800F800450011037800AA
:10182800F400450091027800F000450011027800AC
:10183800EC00450091017800E800450011017800AE
:10184800E4004500910078001A00780083067800CB
:10185800020678008105780000057800871F780067
:10186800861F7800851F7800841F780045FD0700D3
:101878008F00B10000C0B300CF0678004F06780093
:0C188800CF0578004F0578000000060036
:100D8C000000FA00CEB897003EBA97002EB9970033
:100D9C009EB997004022EF004222EF004033200022
:100DAC0050438800808B2000604388000B00750046
:100DBC000C0070000D007000010070000400700049
:100DCC0082007000202420000388700040C2A9001B
:0C0DDC0041E2A8000080FA0000000600C0
:10177C008A1F78008B1F78008C1F78008D1F7800D3
:10178C00FC00450091037800F80045001103780037
:10179C00F400450091027800F00045001102780039
:1017AC00EC00450091017800E8004500110178003B
:1017BC00E4004500910078001A0078008306780058
:1017CC00020678008105780000057800871F7800F4
:1017DC00861F7800851F7800841F780068FD07003D
:1017EC008F00B10000C0B300CF0678004F06780020
:0C17FC00CF0578004F05780000000600C3
:101EE4008A1F78008B1F78008C1F7800120037003F
:101EF4000B0578008C0578001AFE070019003700DE
:101F04000B0578008C05780061FE0700150037008A
:101F14000B0578008C057800C4FE0700110037001B
:101F24000B0578008C057800BBFE07000D00370018
:101F340010C0B3000B0037006054E100ECFF320026
:101F44006154E100EEFF320000C2B3000054E1002E
:101F5400EFFF320000C3B3000054E100F0FF320091
:101F6400F3FF37004F067800CF0578004F0578005F
:041F74000000060063
:10176800D0FC0700007A2000A04288000020EF008B
:041778000000060067
:100AAC000800FA00007A200030438800C02520009E
:100ABC0010438800A037200020438800803220009B
:100ACC00404388003022EF000000280032A2B7001B
:100ADC003062A90094FF07000001BE00803E200098
:100AEC00010020000BFF07000001BE0091FF070072
:100AFC004100DE0064004000800078006000470088
:100B0C000A88BE008100E900030035001018D000EF
:100B1C001090D200FBFF3700829FBE008A9FBE0060
:100B2C000200BE000E0190009E0190000002EB003E
:100B3C0064FE07004F05BE004F01BE002007980061
:100B4C00310798008A9FBE000200BE000E01900083
:100B5C009E0190000002EB0086FE07004F05BE00D0
:100B6C008001780001027800600047005001D1003C
:100B7C00C080D300640047003008E1002090E10001
:100B8C000700310061804100E0004A0080027800DB
:100B9C000103780005017800860178000200370017
:100BAC0003017800840178000280710033003A0060
:100BBC005DFF07000001BE00803E20000100200008
:100BCC00D4FE07000001BE005AFF07004100DE0002
:100BDC0000A0EC0080007800600047000A88BE008E
:100BEC008100E900030035001018D0001090D200ED
:100BFC00FBFF3700829FBE000200BE000E0190007A
:100C0C009E0190000002EB002EFE07004F01BE007B
:100C1C0020079800310798000200BE000E019000DA
:100C2C009E0190000002EB0052FE0700800178004C
:100C3C0001027800600047005001D100C080D30051
:100C4C00640047003008E1002090E100070031000B
:100C5C0061804100E0004A008002780001037800C6
:100C6C000501780086017800020037000301780046
:100C7C00840178003062A800000037006100510048
:100C8C00E0805900C01188003222A90031E2A8008E
:100C9C003342A80029FF070028FF07000080FA0054
:040CAC00000006003E
:0C09340000F4210001002000000006007B
:08094000200020000000060069
:1009480038002000578D20000E20ED00FEFF3A00F1
:0C0958001020ED00FCFF3A00000006003B
:100720000000FA00020AB800500088000200B80079
:1007300081004200032AB800810042000080FA00D4
:0407400000000600AF
:1004D0000000FA0002000700BC0204000000000057
:1004E0000800E20002003A001000070000000600C9
:1004F000811F78000200E20002003D006000100051
:10050000E08018000600E20002003D0060011100DA
:10051000E0811900050007004F00E00002003B00E9
:1005200060001000E08018000000060002000700D4
:100530000480BE00000006006022B8000602200011
:100540000000D0008180D2000482D2008582D200D7
:100550000000A8000202520083825A0003003B0000
:100560000202420083824A000000A1000603E90063
:10057000F3FF3A00000006000080FA0000000600C9
:100580000000FA00020007000E0304000000000053
:100590000800E20002003A00100007000000060018
:1005A000839F68000200E20002003D00600010002E
:1005B000E08018000600E20002003D00600111002A
:1005C000E0811900050007004F00E00002003B0039
:1005D00060001000E0801800000006006022B800F3
:1005E000060220000000D0008180D2000482D200E8
:1005F0008582D2000000A8000202520083825A00C5
:1006000003003B000202420083824A000000A10076
:100610000603E900F3FF3A00000006000080FA003C
:0406200000000600D0
:0818940060C0B3000000060073
:101A30001EFC0700007A2000A04288000020EF0072
:041A4000000006009C
:101A1C0053FD070020792000A04288000020EF0031
:041A2C0000000600B0
:100F6C000800FA0020792000304388004038200027
:100F7C0010438800C034200020438800E036200055
:100F8C00404388002022EF000000280022A2B70076
:100F9C002062A90064FE07000001BE00803E200014
:100FAC0001002000DBFD07000001BE0061FE070010
:100FBC004100DE00640040008000780060004700C3
:100FCC000A88BE008100E900030035001018D0002B
:100FDC001090D200FBFF3700829FBE008A9FBE009C
:100FEC000200BE000E0190009E0190000002EB007A
:100FFC0034FD07004F05BE004F01BE0020079800CE
:10100C00310798008A9FBE000200BE000E019000BE
:10101C009E0190000002EB0056FD07004F05BE003C
:10102C008001780001027800600047005001D10077
:10103C00C080D300640047003008E1002090E1003C
:10104C000700310061804100E0004A008002780016
:10105C000103780005017800860178000200370052
:10106C0003017800840178000280710033003A009B
:10107C002DFE07000001BE00803E20000100200074
:10108C00A4FD07000001BE002AFE07004100DE009F
:10109C0000A0EC0080007800600047000A88BE00C9
:1010AC008100E900030035001018D0001090D20028
:1010BC00FBFF3700829FBE000200BE000E019000B5
:1010CC009E0190000002EB00FEFC07004F01BE00E9
:1010DC0020079800310798000200BE000E01900016
:1010EC009E0190000002EB0022FD070080017800B9
:1010FC0001027800600047005001D100C080D3008D
:10110C00640047003008E1002090E1000700310046
:10111C0061804100E0004A00800278000103780001
:10112C000501780086017800020037000301780081
:10113C00840178002062A800000037006100510093
:10114C00E0805900401188002222A90021E2A80069
:10115C002342A800F9FD0700F8FD07000080FA0003
:04116C000000060079
:101D54000200FA008A1F78008A007800D000200070
:101D640000479800A0002000104798002500370085
:101D7400010578005AFE07002900370001007800A9
:101D84001004E00008003200801F78008A9FBE0023
:101D94000005780052FE07004F05BE004F00780092
:101DA4000020EC00F6FF37001D003700010078002A
:101DB4001004E00008003200801F78008A9FBE00F3
:101DC4000005780046FE07004F05BE004F0078006E
:101DD4000020EC00F6FF3700600047008A9FBE0039
:101DE400000578003EFE070061004700000578000A
:101DF4003BFE07004F05BE000900370060C0B3007A
:101E040007003700605CE100D9FF3200615CE1004B
:101E1400DAFF3200625CE100E4FF3200F7FF3700D2
:0C1E24004F0578000080FA000000060066
:1016E4008A1F78001A85FB00A042800000000100D8
:0C16F4000020EF004F0578000000060009
:101170000000FA003CFD07000080FA0000000600B5
:100668000000FA0040C2A9004022AE000100370095
:10067800FDFF37004A1288004002AF000100370032
:10068800FDFF37004882BF000080FA000000060026
:100F5C000000FA00D2FD07000080FA000000060035
:1006AC000000FA0060C2A9006022AE000100370011
:1006BC00FDFF37004A1388006002AF0001003700CD
:1006CC00FDFF37006882BF000080FA0000000600C2
:100F24000000FA002302AF0001003700FDFF370084
:0C0F34002A1188000080FA00000006006E
:100F40000000FA003302AF0001003700FDFF370058
:0C0F5000AA1188000080FA0000000600D2
:1020A8008A1F78008B1F7800AB092800AA04280033
:1020B8005DFF0700B8002000D7C222000E20ED0007
:1020C800FEFF3A001020ED00FCFF3A0064FF070015
:1020D8002BC0B3000A8020001CFF0700CF05780042
:0820E8004F057800000006001E
:101E30008A1F78008A1F78000B057800C3FD070011
:101E40004F0578002EFE0700918420000020EF004F
:101E5000804878001AC0B300904280000000010062
:081E60004F05780000000600A8
:10154C001A00780060428800E20045001100780023
:08155C00804288000000060037
:10170000780045006E0040001000780050428800CC
:101710006400450010007800B04288006200450077
:0C172000100078009042880000000600D5
:101754001400AE00CB02A9001400AF00CB02A80015
:04176400000006007B
:101740001400AE00D022A9001400AF00D022A800DF
:04175000000006008F
:10172C001400AE00D042A9001400AF00D042A800B3
:04173C0000000600A3
:101AF8001400AE00E2C2A9001400AF00E2C2A800C0
:041B080000000600D3
:101B0C001400AE00E2E2A9001400AF00E2E2A8006B
:041B1C0000000600BF
:101AD0001400AE00E302A9001400AF00E302A80066
:041AE00000000600FC
:101AE4001400AE00D602A9001400AF00D602A8006C
:041AF40000000600E8
:101B34001400AE00C582A9001400AF00C582A8003D
:041B44000000060097
:101B20001400AE00E282A9001400AF00E282A80017
:041B300000000600AB
:101A6C001400AE00E2A2A9001400AF00E2A2A8008C
:041A7C000000060060
:101A58001400AE00C442A9001400AF00C442A8009C
:041A68000000060074
:101A44001400AE00C462A9001400AF00C462A80070
:041A54000000060088
:101A80001400AE00CB22A9001400AF00CB22A800A6
:041A9000000006004C
:101ABC001400AE00D062A9001400AF00D062A800E0
:041ACC000000060010
:101AA8001400AE00D082A9001400AF00D082A800B4
:041AB8000000060024
:101A94001400AE00E2C2A9001400AF00E2C2A80024
:041AA4000000060038
:101538001400AE00E2E2A9001400AF00E2E2A80045
:041548000000060099
:1011BC001400AE00E302A9001400AF00E302A80083
:0411CC000000060019
:1011D0001400AE00D622A9001400AF00D622A80049
:0411E0000000060005
:1011A8001400AE00C5A2A9001400AF00C5A2A80093
:0411B800000006002D
:101180001400AE00E382A9001400AF00E382A800BF
:041190000000060055
:101194001400AE00E3A2A9001400AF00E3A2A8006B
:0411A4000000060041
:101510001400AE00C442A9001400AF00C442A800E9
:0415200000000600C1
:101524001400AE00C462A9001400AF00C462A80095
:0415340000000600AD
:101E68000200FA008A1F78008B1F78008C1F780008
:101E7800E000470030C6B300804878001CC0B300BB
:101E8800810578000AC6B3003FFD0700ACFA0700D9
:101E9800E0004700C0C8B300804878001CC0B30009
:101EA800810578000AC6B30037FD0700E000470047
:101EB80010C1B300804878001CC0B30081057800C9
:101EC8002AC6B30030FD07004F067800CF0578001A
:0C1ED8004F0578000080FA0000000600B2
:101390000E00FA008D1F7800908420001040780025
:1013A0006004E10029003A00600047000A48780024
:1013B0000420EF000C80FB00E10040000280FB00F5
:1013C0000100E10009003D000280FB00E100400057
:1013D00060004700810040000280FB000080450063
:1013E000904878000460EC00F2FF37008C1F780012
:1013F0008A9FBE001AC0B300904280000000010026
:101400001420EF00B0428000000001004F05BE0034
:101410004F0678000C80FB00E100400060004700B0
:101420008C1F78008A9FBE00810578000005780037
:1014300085FD07001AC0B300B04280000000010023
:101440004F05BE004F0678002E0037009084200024
:10145000104078006104E1002A003A00670147006B
:101460000A4978009280FB0000082000008070008C
:10147000004978000420EF000C80FB00E1004000F0
:101480000280FB000100E10009003D000280FB003A
:10149000E100400067004700810040000280FB003F
:1014A00000804500904878000460EC00F2FF3700AF
:1014B0008C1F78008A9FBE001AC0B300B042800023
:1014C0000000010070FD07004F05BE004F067800C8
:1014D0000C80FB0061014000E7004700E085200030
:1014E0008C1F78008A9FBE001A20EF000206780049
:1014F0008105780010457800EDFD07004F05BE001E
:101500004F067800CF0678000080FA000000060041
:100A48000A0178008B0078006180550080057800E5
:100A58000200E20009003200821F78008A9FBE006F
:100A68001285FB0060428000000001004F05BE00B7
:100A78004F0178000420EC00F2FF37000000060068
:100A88000200FA0000002000000798007142800070
:100A980001000100E0004700110070000080FA002A
:040AA8000000060044
:1008A0000000FA000260EF000602AF000260EC00F8
:1008B0000060EF000642AF000060EC008180FB00AA
:1008C0000080FB00808070000060EF000662AF00D7
:1008D0000060EC000080FB00808070000060EF0092
:1008E0000682AF000060EC000080FB00808070009A
:1008F0000060EF000622AF000060EC000080FB000B
:10090000808070000060EF0009C2AF000060EC0062
:100910000080FB00008070000000E2000060EF003B
:1009200001003A000060EC000080FB000080FA004B
:0409300000000600BD
:100744000000FA000420EF00007122000010E10014
:1007540006003E00510007000000E20001003200E4
:10076400020037000420EC00F7FF3700107122006C
:100774000010E10002003900F00F200003003700F0
:100784000602A8001DFF07000020EF000080FA0009
:04079400000006005B
:100400000000FA008620AF0001003700FDFF370032
:0C0410008620A9000080FA000000060011
:1009B4000000FA000260EF001602AF000260EC00D3
:1009C4000060EF001642AF000060EC008180FB0085
:1009D4000080FB00808070000060EF001662AF00B2
:1009E4000060EC000080FB00808070000060EF007D
:1009F4001682AF000060EC000080FB008080700075
:100A04000060EF001622AF000060EC000080FB00E5
:100A1400808070000060EF0019C2AF000060EC003D
:100A24000080FB00008070000000E2000060EF0026
:100A340001003A000060EC000080FB000080FA0036
:040A440000000600A8
:100464000000FA000420EF00007122000010E100F7
:1004740006003E004E0107000000E20001003200C9
:10048400020037000420EC00F7FF3700107122004F
:100494000010E10002003900F00F200003003700D3
:1004A4001602A800DCFF07000020EF000080FA001D
:0404B400000006003E
:10041C000000FA008A40AF0001003700FDFF3700F2
:0C042C008A40A9000080FA0000000600D1
:100708000000FA0000000000000000002682BF0080
:080718000080FA000000060059
:100698000000FA002282BF00610060000080FA00BA
:0406A8000000060048
:1006DC000000FA000020EF002302AF000020EC0025
:0806EC000080FA000000060086
:1004B8000000FA0000000000000000003682BF00C3
:0804C8000080FA0000000600AC
:1006F4000000FA003282BF00610060000080FA004E
:0407040000000600EB
:100650000000FA000020EF003302AF000020EC00A1
:080660000080FA000000060012
:100CB0000400FA008A1F7800000020001007980046
:100CC0000B0798000A80FB004100DD008C9FBE00EE
:100CD0000045780001438000010001004F06BE007E
:100CE00062014700E2004700920870008C00780023
:100CF00061005600000678000200E2000F0032009A
:100D00000E0090008C9FBE008A9FBE0010457800A8
:100D100001438000010001004F05BE004F06BE00E8
:100D200062014700E2004700920870008E009000C8
:100D30006000470061884000ECFF3700606CE10014
:100D400006003A00C04280008C9FBE008A9FBE0011
:100D5000000001004F05BE004F06BE00616CE100BF
:100D600006003A00704280008C9FBE008A9FBE0041
:100D7000000001004F05BE004F06BE001E0090009F
:0C0D80004F0578000080FA00000006001B
:100438000000FA000A80FB0002A2B70008E2AE0042
:10044800020037001000200002003700EAFF070012
:0C0458000020EF000080FA000000060009
:100624000000FA000A80FB0012A2B70018E2AE0034
:1006340002003700100020000200370076FF070098
:0C0644000020EF000080FA00000006001B
:100964000000FA000682BF007F0060000000E20081
:1009740001003200FBFF37000622A8009FFE07009B
:080984000080FA0000000600EB
:10098C000000FA000682BF007F0060000000E20059
:10099C0001003200FBFF37000642A80095FE07005D
:0809AC000080FA0000000600C3
:1007C0000000FA000682BF007F0060000000E20027
:1007D00001003200FBFF37001622A8000FFF0700C0
:0807E0000080FA000000060091
:100798000000FA001682BF007F0060000000E2003F
:1007A80001003200FBFF37001642A80019FF0700BE
:0807B8000080FA0000000600B9
:102008008A1F78008B1F78000A8A2000F4FE0700D8
:102018001BC0B300DA8320004CFF0700EB862000CA
:102028000A458000C6FE07001BC0B300EA862000F0
:1020380046FF07001BC0B3001A84200043FF0700B7
:10204800EB8620001A458000BDFE07001BC0B300C8
:10205800EA8620003DFF07001BC0B3005A84200019
:102068003AFF0700EB8620002A458000B4FE0700EF
:102078002BC0B300EA86200034FF07003800200098
:10208800578D20000E20ED00FEFF3A001020ED00D5
:10209800FCFF3A00CF0578004F05780000000600E5
:101BE8000600FA008B1F78008C1F78006000470001
:101BF8008A1F78006CC0B300800578008AC6B300DD
:101C08009AFD07004F057800E00147006180410018
:101C18001080FB00000D78001A0078004800DD00F5
:101C2800000D78009A0078001380FB000080700097
:101C3800000D7800E2004500638041001080FB0041
:101C480080087800E2004500110078004800DD00B7
:101C580080087800620145006280410092007800A7
:101C68001080FB000080700000097800E400450047
:101C7800658041001080FB0080087800E400450082
:101C8800110078004800DD008008780064014500F4
:101C980064804100920078001080FB000080700092
:101CA800000978004F067800CF0578000080FA0018
:041CB8000000060022
:101274000200FA008A1F78008B1F78008D1F780007
:1012840090842000104078006004E1001E003A00C1
:10129400600147000A4978009280FB0000082000A2
:1012A40000807000004978008C1F78008B1F780044
:1012B4001AC0B30090428000000001001420EF0027
:1012C400B042800000000100600047001B002000C5
:1012D40000057800DBFD07001420EF009042800039
:1012E40000000100CF0578004F0678000B05780058
:1012F4008C85FB00F9FE07001AC0B300B0428000E1
:10130400000001001C003700908420001040780089
:101314006104E10018003A001A47980001C8B300BC
:1013240061004700014875008C1F78008B1F78000E
:101334001AC0B300B042800000000100D1FD0700D4
:10134400E1004700E08520001DC0B3001C00200020
:10135400810578001045780054FE0700CF05780019
:101364004F067800E08520001A20EF000C86FB0071
:10137400104578009BFE0700CF067800CF05780063
:0C1384004F0578000080FA000000060011
:100EE0000A0178008B007800618055008005780049
:100EF0000200E2000A003200821F78008A9FBE00D2
:100F00001420EF0081428000010001004F05BE0067
:100F10004F017800004978000420EC00F1FF370011
:040F200000000600C7
:100DE8000400FA008A1F780000002000100798000D
:100DF8000B0798000A80FB004100DD0061007000CD
:100E08008C9FBE000045780001438000010001006E
:100E18004F06BE0062014700E200470092087000DA
:100E280061005600000678001800E2000D0032004C
:100E38008C9FBE008A9FBE001420EF00E142800014
:100E4800010001004F05BE004F06BE008E00900055
:100E5800804878008E00900060004700618840005C
:100E6800EFFF37008C9FBE008A9FBE001A0020004B
:100E7800E1428000010001004F05BE004F06BE00A0
:100E88008E00900080487800606CE10006003A000F
:100E9800C04280008C9FBE008A9FBE0000000100F7
:100EA8004F05BE004F06BE00616CE10006003A0027
:100EB800D04280008C9FBE008A9FBE0000000100C7
:100EC8004F05BE004F06BE001E0090004F0578007B
:080ED8000080FA000000060092
:100844000000FA000682BF007F0060000000E200A2
:1008540001003200FBFF37000662A800E7FE070034
:100864000682BF007F0060000000E2000100320049
:10087400FBFF37001400E2000200320006A2A800C9
:100884000100370006A2A9000682A800DBFE0700CB
:0C08940000C2BF000080FA000000060057
:1007E8000000FA001682BF007F0060000000E200EF
:1007F80001003200FBFF37001662A80005FF070062
:100808001682BF007F0060000000E2000100320095
:10081800FBFF37001400E2000200320016A2A80015
:100828000100370016A2A9001682A800F9FE0700E9
:0C08380010C2BF000080FA0000000600A3
:101B48000000FA008A1F78000820EF000A007800D9
:101B58006050E10003003D00140020006000150003
:101B680000003700000578009CFD07006300200096
:101B7800040178006018E100060036008380450003
:101B88006180510000804500904878000620ED00F3
:101B9800F8FF370000C2B300804D78000400E2006F
:101BA8000C0032000420EF000280450090407800CD
:101BB80000C2B300000CE10002003A000420EC006F
:101BC800F9FF37006100510080804500D0C2B300A2
:101BD800804878004F0578000080FA000000060071
:1011E4000200FA000420EF006514E100060031005B
:1011F4000280FB008080450000C2B3008048780074
:101204000460EC00F8FF37000280FB00808045009A
:101214000020EF0080487800E14151000380FB008A
:101224000080450000079800A2002000110009007A
:101234000285D80000032000808040000E0090004A
:1012440001487800A2002000110009000285D8009E
:10125400000578006000E10001003A000200370058
:101264000660ED00EDFF37000080FA000000060084
:102130000A8020000B002000520009000B1D7800CF
:042140000000060095
:10214400018020000000280023000900B018780056
:08215400B058780000000600FD
:020000040001F9
:100000002E2E00002E20000061700000706C000099
:100010006963000061740000696F00006E200000D9
:10002000696E000069740000206400006F6E0000BB
:10003000652000002E2E00002E2000002000000071
:10004000202000002E2E00002E20000073790000DA
:1000500073740000656D0000206900006E69000087
:1000600074200000646F00006E650000202E000008
:100070002E2E00002020000000200000583A000032
:1000800000200000593A0000002000005A3A000009
:04009000000000006C
:10009400AA0B0000A00B0000960B00007C0D0000D2
:1000A400860D0000680D0000720D00009A0D00001E
:1000B400900D0000360D00002C0D0000220D0000F4
:1000C400FFFF0000FFFF0000FFFF0000FFFF000034
:1000D400FFFF0000FFFF0000FFFF0000FFFF000024
:1000E400FFFF0000FFFF0000FFFF0000FFFF000014
:1000F40020000000000000000000000000000000DC
:1001040010000000000000000200000000000000D9
:1001140000000000000000000000000000000000DB
:1001240000000000000000000001000000000000CA
:08013400B808000034030000CC
:0200000401F009
:20000000CF000000CF00000007000000A2000000850000007F000000E7000000C1000000ED
:00000001FF
