:10000000FCFF0320D929000091290000912900005C
:1000100091290000912900009129000091290000F8
:1000200091290000912900009129000091290000E8
:1000300091290000912900009129000091290000D8
:1000400091290000912900009129000091290000C8
:1000500091290000912900009129000091290000B8
:1000600091290000912900009129000091290000A8
:100070009129000091290000912900009129000098
:100080009129000091290000912900009129000088
:100090009129000091290000912900009129000078
:1000A0009129000091290000912900009129000068
:1000B0009129000091290000912900009129000058
:1000C0009129000091290000912900009129000048
:1000D0009129000091290000912900009129000038
:1000E0009129000091290000912900009129000028
:1000F0009129000091290000912900009129000018
:100100009129000091290000912900009129000007
:1001100091290000912900009129000091290000F7
:1001200091290000912900009129000091290000E7
:1001300091290000912900009129000091290000D7
:1001400091290000912900009129000091290000C7
:1001500091290000912900009129000091290000B7
:1001600091290000912900009129000091290000A7
:100170009129000091290000912900009129000097
:100180009129000091290000912900009129000087
:100190009129000091290000912900009129000077
:1001A0009129000091290000912900009129000067
:1001B0009129000091290000912900009129000057
:1001C0009129000091290000912900009129000047
:1001D0009129000091290000912900009129000037
:1001E0009129000091290000912900009129000027
:1001F0009129000091290000912900009129000017
:08020000912900009129000082
:1029D80000F010F8FFF7DCFF00F01AFBFFF7EEFF3E
:1029E80000F0C8FAFFF79CFFFFF776FFFFF724FF18
:0429F800FCE7FEE713
:1027D40081B01CF8019B0BF8019BBBEB0A0FF8D1ED
:0427E40001B0704789
:1028000081B04FF000094FF0000CBDEB0A0F04DC63
:10281000BDEB0B0F01DBD446EA464BF8049BBBEB48
:102820000A0FFAD1BCEB0A0F05DDE246D9F800B079
:0A2830000BF1040BF1E701B0704753
:1029280081B0CDF800E0012207210020FFF740FE2A
:10293800002201210020FFF73BFE00220221002097
:10294800FFF736FE0E4801460020FFF753FE42F21D
:1029580080512020FFF7DAFE40F6FE07C0F23D075F
:102968007F1EFDD100BF00BF00BF00BF00BF0548EC
:102978000221FFF757FEDDF800E001B0704700BF05
:08298800CC0900000000002052
:1025B80081B0CDF800E05FFA81FA5FFA82FB0FE0A4
:1025C8005FFA8BF15FFA8AF0FFF740FD0DE05FFAE2
:1025D8008BF15FFA8AF0FFF747FE06E0012004E07E
:1025E8000028EDD00128F2D0F8E7DDF800E001B0CE
:0225F80070472A
:1020540081B0CDF800E091E0012904D110215A4863
:10206400FFF712FD03E010215748FFF7F7FCA5E046
:10207400012904D101215448FFF706FD03E00121A1
:102084005148FFF7EBFC99E0012904D101214F48A5
:10209400FFF7FAFC03E001214C48FFF7DFFC8DE079
:1020A400012904D104214A48FFF7EEFC03E004218E
:1020B4004748FFF7D3FC81E0012904D1202144489B
:1020C400FFF7E2FC03E020214148FFF7C7FC75E07D
:1020D400012904D110213E48FFF7D6FC03E010216A
:1020E4003B48FFF7BBFC69E0012904D101213948D1
:1020F400FFF7CAFC03E001213648FFF7AFFC5DE0BF
:10210400012904D110213448FFF7BEFC03E010215B
:102114003148FFF7A3FC51E0012904D140212F48A5
:10212400FFF7B2FC03E040212C48FFF797FC45E0A1
:10213400012904D180212948FFF7A6FC03E080216E
:102144002648FFF78BFC39E0012904D104211F48FC
:10215400FFF79AFC03E004211C48FFF77FFC2DE005
:10216400012904D108211948FFF78EFC03E0082156
:102174001648FFF773FC21E0012020E000283FF41B
:102184006BAF01283FF474AF02283FF47DAF0328FE
:102194003FF486AF04283FF48FAF05283FF498AF8F
:1021A40006283FF4A1AF0728AAD00828B4D00928EC
:1021B400BED00A28C8D00B28D2D0DDE70020DDF835
:1021C40000E001B0704700BF00C00540009005402A
:1021D4000080054000B0054000D0054000A0054047
:101A8C0081B0CDF800E0002440F240031BB240F2DC
:101A9C00001212B21A4393B2002210B4FFF758F896
:0A1AAC0001B0DDF800E001B0704762
:100B5C0082B0CDF800E05FFA81F8D5B29FB29DF873
:100B6C000830F54C00EA0404A1462046FFF75AFB76
:100B7C00F24CA54208D109F580666FEA0805EDB282
:100B8C0034682C40346008E0ED4CA54205D109F5E1
:100B9C0080652C6844EA08042C6040F2010407EAE2
:100BAC000404A4B234B109F5A2652C6844EA080423
:100BBC002C6007E009F5A2666FEA0805EDB234680F
:100BCC002C40346040F2020407EA0404A4B234B1AD
:100BDC0009F214552C6844EA08042C6007E009F269
:100BEC0014566FEA0805EDB234682C40346040F2BC
:100BFC00080407EA0404A4B234B109F20C552C68B9
:100C0C0044EA08042C6007E009F20C566FEA080568
:100C1C00EDB234682C40346040F2100407EA04044E
:100C2C00A4B234B109F5A0652C6844EA08042C6020
:100C3C0007E009F5A0666FEA0805EDB234682C40B0
:100C4C00346040F2200407EA0404A4B234B109F27F
:100C5C0004552C6844EA08042C6007E009F2045699
:100C6C006FEA0805EDB234682C40346040F2400461
:100C7C0007EA0404A4B234B109F5A1652C6844EA6E
:100C8C0008042C6007E009F5A1666FEA0805EDB2CF
:100C9C0034682C40346041F2000407EA0404A4B226
:100CAC00012C13D042F2000407EA0404A4B2012C74
:100CBC000CD044F2000407EA0404A4B2012C05D0C1
:100CCC00DEB24B46B8B25FFA88F53CE00020002655
:100CDC00DAB2BBB207465FFA88F04946082E13D247
:100CEC0020FA06F4E4B204F00104E4B24CB175004D
:100CFC002DB2032424B2AC4024B247EA04052F469B
:100D0C00FFE7761CF6B2E9E701F6C476FD433468DA
:100D1C002C40346001F23C56C543EDB234682C4093
:100D2C00346001F5A166C543EDB234682C403460E3
:100D3C0001F20456C543EDB234682C403460C5B2A0
:100D4C0098B20B46D6B2002141F2000400EA04042A
:100D5C00A4B23CB300220F46E9B2082A13D221FAFE
:100D6C0002F4E4B204F00104E4B24CB155002DB22B
:100D7C00012424B2AC4024B247EA04052F46FFE715
:100D8C00521CD2B2E9E703F6C4752C683C432C60C4
:100D9C0003F5A1652C680C432C603D461F4683B2BD
:100DAC00C8B203E01F4683B2E8B20D4642F200041B
:100DBC0003EA0404A4B26CB30022A8463946082AFC
:100DCC0013D220FA02F4E4B204F00104E4B24CB100
:100DDC0055002DB2032424B2AC4024B248EA0405D9
:100DEC00A846FFE7521CD2B2E9E701F6C4752C689D
:100DFC0044EA08042C6001F23C552C6804432C6036
:100E0C0001F5A1652C6804432C60F7B20E46C2B202
:100E1C0098B205E00197C2B298B2F7B2A846019E0B
:100E2C0044F2000400EA0404A4B284B30023D1B257
:100E3C00082B14D221FA03F4E4B204F00104E4B256
:100E4C0054B15D002DB2032424B2AC4024B248EA64
:100E5C00040422469046FFE75B1CDBB2E8E706F68B
:100E6C00C4752C6844EA08042C6006F23C552C68C6
:100E7C000C432C6006F5A1652C680C432C6006F223
:100E8C0004552C680C432C60FBB2324602E0D1B204
:100E9C003246FBB240F2800400EA0404A4B274B1FE
:100EAC0040F2400400EA0404A4B22CB102F5A3659C
:100EBC002C680C432C6001E00120FAE006E002F5FE
:100ECC00A366CD43EDB234682C40346040F200147C
:100EDC0000EA0404A4B22CB102F21C552C680C4399
:100EEC002C6006E002F21C56CD43EDB234682C4067
:100EFC00346040F2002400EA0404A4B2002C3AD07E
:100F0C00104CA24240F2000500D001250E4CA2422A
:100F1C0040F2000400D0012425400C4CA24240F2C7
:100F2C00000400D001242540094CA24240F20004E8
:100F3C0000D0012425400DE000F0FFFF0000000070
:100F4C000100000000C0054000B0054000900540C5
:100F5C0000100640594CA24240F2000400D001247B
:100F6C0005EA04040CB10120A3E002F5A5652C6888
:100F7C000C432C602AE0524CA24240F2000500D1F6
:100F8C000125504CA24240F2000400D1012425431B
:100F9C004D4CA24240F2000400D1012425434B4C9D
:100FAC00A24240F2000400D101242543434CA2424A
:100FBC0040F2000400D1012445EA040434B102F5E6
:100FCC00A566CD43EDB234682C40346040F6000485
:100FDC0000EA0404A4B22CB102F5A6652C680C43FB
:100FEC002C6006E002F5A666CD43EDB234682C40C9
:100FFC00346040F2004400EA0404A4B22CB102F5BF
:10100C0084652C680C432C6006E002F58466CD43A5
:10101C00EDB234682C4034600BB9002049E00F2B42
:10102C0001D9012045E0002700208DF80430C3B21F
:10103C0010469DF80420082B12D221FA03F4E4B2D6
:10104C0004F00104E4B244B19D002DB24FF00F0442
:10105C00AC4047EA04052F46FFE75B1CDBB2EAE72E
:10106C0000F22C56FD4334682C40346000260023DB
:10107C008DF80430CBB29DF80410082913D223FA52
:10108C0001F4E4B204F00104E4B24CB1D5B28C002A
:10109C0024B205FA04F446EA040425462E46FFE77A
:1010AC00491CC9B2E9E700F22C552C6834432C607A
:1010BC000020DDF800E002B0704700BF0050064091
:1010CC0000C0054000B005400090054000100640EF
:1002300081B0664900EA010108467DE06449096829
:1002400041F0010262490A60BEE06149096841F07B
:1002500002025F490A60B7E05D49096841F00402A3
:100260005B490A60B0E05A49096841F00802584900
:100270000A60A9E05649096841F0100254490A6031
:10028000A2E05349096841F0200251490A609BE00D
:100290004F49096841F040024D490A6094E04C49D9
:1002A000096841F080024A490A608DE048490968BE
:1002B00041F4807246490A6086E04549096841F484
:1002C000007243490A607FE04149096841F4806255
:1002D0003F490A6078E03E49096841F400623C49C0
:1002E0000A6071E03A49096841F4805238490A606D
:1002F0006AE03749096841F4005235490A6063E011
:100300003349096841F4804231490A605CE0304970
:10031000096841F400422E490A6055E02C490968F9
:1003200041F480322A490A604EE02949096841F4C3
:10033000003227490A6047E0264988423FF47EAFF1
:10034000254988423FF481AF244988423FF484AF75
:10035000234988423FF487AF224988423FF48AAF5D
:10036000214988423FF48DAF204988423FF490AF45
:100370001F4988423FF493AF1E4988423FF496AF2D
:100380001D4988423FF499AF1C4988423FF49CAF15
:100390001B4988423FF49FAF1A4988423FF4A2AFFD
:1003A000194988423FF4A5AF184988423FF4A8AFE5
:1003B000174988423FF4ABAF164988423FF4AEAFCD
:1003C000154988423FF4B1AF01B0704700F0FFFF1C
:1003D00008E60F40008005400090054000A0054061
:1003E00000B0054000C0054000D0054000E00540D9
:1003F00000F00540000006400010064000200640C6
:1004000000300640004006400050064000600640B4
:0C0410000070064000800640009006408E
:101A600081B0CDF800E0002440F240031BB240F208
:101A7000001212B21A4393B2012210B4FFF76EF8AB
:0A1A800001B0DDF800E001B070478E
:1022700081B0CDF800E091E0012904D120215A4835
:10228000FFF704FC03E020215748FFF7E9FBA5E036
:10229000012904D102215448FFF7F8FB03E0022191
:1022A0005148FFF7DDFB99E0012904D120214F4877
:1022B000FFF7ECFB03E020214C48FFF7D1FB8DE05A
:1022C000012904D104214A48FFF7E0FB03E004217F
:1022D0004748FFF7C5FB81E0012904D1202144488C
:1022E000FFF7D4FB03E020214148FFF7B9FB75E07D
:1022F000012904D110213E48FFF7C8FB03E010215B
:102300003B48FFF7ADFB69E0012904D102213948C0
:10231000FFF7BCFB03E002213648FFF7A1FB5DE0BD
:10232000012904D140213348FFF7B0FB03E04021ED
:102330003048FFF795FB51E0012904D110212E48C8
:10234000FFF7A4FB03E010212B48FFF789FB45E0D2
:10235000012904D120212848FFF798FB03E0202120
:102360002548FFF77DFB39E0012904D104211F48EE
:10237000FFF78CFB03E004211C48FFF771FB2DE005
:10238000012904D108211948FFF780FB03E0082147
:102390001648FFF765FB21E0012020E000283FF40C
:1023A0006BAF01283FF474AF02283FF47DAF0328E0
:1023B0003FF486AF04283FF48FAF05283FF498AF71
:1023C00006283FF4A1AF0728AAD00828B4D00928CE
:1023D000BED00A28C8D00B28D2D0DDE70020DDF817
:1023E00000E001B0704700BF00C00540009005400C
:0C23F0000080054000B0054000A0054042
:1025FC0081B0CDF800E009E00846FFF71BFF0AE0C8
:10260C000846FFF70DFE06E0012004E00028F3D099
:0E261C000128F5D0F8E7DDF800E001B07047C6
:1024400081B0CDF800E0016808460449FFF734FB8D
:102450000020DDF800E001B0704700BFC02D000093
:101AB80081B0CDF800E00A4601460348FFF77AFBFB
:0C1AC800DDF800E001B0704700000240B3
:1011BC0083B0CDF800E001920A46014601985C4BE1
:1011CC00994216D100245B4B1C60012464B25A4B2B
:1011DC001C605A4C5A4B1C605A4C5B4B1C605B4C51
:1011EC005B4B1C605B4C5C4B1C605C4C5C4B1C603C
:1011FC0065E15C4B994216D100245B4B1C600124C9
:10120C0064B25A4B1C605A4C4D4B1C60594C4E4BA3
:10121C001C60594C4E4B1C60584C4F4B1C60584C2E
:10122C004F4B1C604BE1574B994216D10024564B47
:10123C001C60012464B2554B1C60554C404B1C6027
:10124C00544C414B1C60544C414B1C60534C424B16
:10125C001C60534C424B1C6031E1524B994216D1ED
:10126C000024514B1C60012464B2504B1C60504C48
:10127C00334B1C604F4C344B1C604F4C344B1C603C
:10128C004E4C354B1C604E4C354B1C6017E14D4B96
:10129C00994216D100244C4B1C60012464B24B4B78
:1012AC001C604B4C264B1C604A4C274B1C604A4C18
:1012BC00274B1C60494C284B1C60494C284B1C602C
:1012CC00FDE0484B994216D10024474B1C60012489
:1012DC0064B2464B1C60464C194B1C60454C1A4B77
:1012EC001C60454C1A4B1C60444C1B4B1C60444C02
:1012FC001B4B1C60E3E0434B994216D10024424B3C
:10130C001C60012464B2414B1C60414C0C4B1C60B2
:10131C00404C0D4B1C60404C0D4B1C603F4C0E4B1D
:10132C001C603F4C0E4B1C60C9E03E4B99427BE06D
:10133C00000002404C00002000C4FC43FFFFFFFFF4
:10134C00FC000020F910000000010020B10A000090
:10135C00040100206D16000008010020FFFFFFFFB4
:10136C000C010020001002405000002004C4FC437B
:10137C00FFFFFFFF51160000250B0000891600002F
:10138C00FFFFFFFF002002405400002008C4FC4374
:10139C00FFFFFFFFB5150000090B00001511000041
:1013AC00FFFFFFFF00300240580000200CC4FC433C
:1013BC00FFFFFFFF11160000ED0A0000DD1000001A
:1013CC00FFFFFFFF00000C405C00002010C4FC433A
:1013DC00FFFFFFFFD1150000210A0000410B0000A8
:1013EC00FFFFFFFF00100C406000002014C4FC4302
:1013FC00FFFFFFFFB9080000050A0000851100007F
:10140C00FFFFFFFF00200C406400002018C4FC43C9
:10141C00FFFFFFFFB1090000E9090000A111000066
:10142C00FFFFFFFF00300C4016D10024414B1C6025
:10143C00012464B2404B1C60404C414B1C60414C3D
:10144C00414B1C60414C424B1C60424C424B1C605B
:10145C00424C434B1C6032E0424B994216D1002463
:10146C00414B1C60012464B2404B1C60404C344B1B
:10147C001C60404C344B1C603F4C354B1C603F4C4B
:10148C00354B1C603E4C364B1C6018E03D4B994272
:10149C0015D100243C4B1C60012464B23B4B1C60F6
:1014AC003B4C274B1C603B4C274B1C603A4C284B4D
:1014BC001C603A4C284B1C60394C294B1C60019227
:1014CC000291FFF7A7F80299019A01F22004102368
:1014DC002360344B9A4207D106260D1D01242B683C
:1014EC0064F304132B6006E014260D1D00242B68F6
:1014FC0064F304132B60FFF787F840F2E83300FB2A
:10150C0003F506FB02F4B5FBF4F318466343EB1A40
:10151C000BB9401EFFE77F2801D97F20FFE7012888
:10152C0001D20120FFE701F20C031860DDF800E0A6
:10153C0003B07047680000201CC4FC43FFFFFFFF92
:10154C00FC00002095090000000100203D0A00006D
:10155C00040100206911000008010020FFFFFFFFBB
:10156C000C01002000800B406C00002020C4FC43C8
:10157C00FFFFFFFF79090000590A0000311100003C
:10158C00FFFFFFFF00900B407000002024C4FC43C1
:10159C00FFFFFFFFF5080000750A00004D11000069
:0815AC00FFFFFFFFD0CF32006A
:1006200081B0CDF800E040F2000B82460AF1D8011B
:1006300009788B4539D20C210BFB01F10AEB010142
:100640008C460CF108010978A9B90CF10801097868
:10065000CCB20CF1060109888BB20CF104010978C7
:10066000CAB2DCF800100846D1B2002210B400F083
:1006700075FA01B014E00CF108010978CCB20CF164
:10068000060109888BB20CF104010978CAB2DCF8C2
:1006900000100846D1B20F2210B400F05FFA01B08A
:1006A0000BF1010B5FFA8BFBC0E7DDF800E001B056
:0206B000704791
:0C06140001480068704700BFD0000020C3
:10222C0081B0CDF800E0016808460449FFF73EFC98
:10223C000020DDF800E001B0704700BFC02D0000A9
:1027140081B0CDF800E011E00846FFF795FD16E022
:102724000846FFF75DFD12E00846FFF76BFD0EE07B
:102734000846FFF771FE0AE0012008E00028EBD00C
:102744000128EDD02028EFD03028F1D0F4E7DDF8CF
:0627540000E001B0704737
:10224C0081B0CDF800E0FFF7D1FC044A04490A60E4
:10225C000020DDF800E001B0704700BF4D1D00000C
:04226C00AC000020A2
:101BF80082B0CDF800E00346214A22490A60224A11
:101C080022490A60224A23490A60234A23490A6072
:101C180001932348FEF700FD019B012252B221499E
:101C28000A6000BF00BF00BFFFF738FDFEF7EEFCFB
:101C380040F2E83100FB01F210461901914205D942
:101C4800012252B218490A605A0804E0002252B22E
:101C580015490A601A46C100B1FBF2F1491C4B084C
:101C68009A0912490A6003F03F0211490A6060228A
:101C780010490A60FFF724FDDDF800E002B0704764
:101C88004D1D000010010020FFFFFFFF1401002080
:101C9800FFFFFFFF18010020FFFFFFFF1C010020CE
:101CA8002C2B000014C3FC431406224224100140CC
:081CB800281001402C1001402E
:1016A40081B0002149B20448016004480160044843
:1016B400016001B0704700BF0006224220062242AA
:0416C4002406224294
:1016C80081B0012149B2044801600448016004481E
:1016D800016001B0704700BF000622422006224286
:0416E8002406224270
:1021E40081B0CDF800E0FFF75DFB044A04490A60C2
:1021F4000020DDF800E001B0704700BF151D0000AD
:04220400AC0000200A
:1018A80082B0CDF800E00346214A22490A60224A64
:1018B80022490A60224A23490A60234A23490A60C6
:1018C80001932348FEF7A8FE019B012252B2214949
:1018D8000A6000BF00BF00BFFFF784FEFEF796FE58
:1018E80040F2E83100FB01F210461901914205D996
:1018F800012252B218490A605A0804E0002252B282
:1019080015490A601A46C100B1FBF2F1491C4B089F
:101918009A0912490A6003F03F0211490A606022DD
:1019280010490A60FFF77EFEDDF800E002B070475C
:10193800151D000010010020FFFFFFFF140100200B
:10194800FFFFFFFF18010020FFFFFFFF1C01002021
:10195800082C00001CC3FC43140626422430014016
:08196800283001402C30014041
:1015EC0081B0002149B204480160044801600448FC
:1015FC00016001B0704700BF00062642200626425B
:04160C002406264248
:10162C0081B0012149B204480160044801600448BA
:10163C00016001B0704700BF00062642200626421A
:04164C002406264208
:1022080081B0CDF800E0FFF7AFFB044A04490A604B
:102218000020DDF800E001B0704700BFF91C0000A5
:04222800AC000020E6
:1019700082B0CDF800E00346214A22490A60224A9B
:1019800022490A60224A23490A60234A23490A60FD
:1019900001932348FEF744FE019B012252B22149E4
:1019A0000A6000BF00BF00BFFEF7B2FFFEF732FEC5
:1019B00040F2E83100FB01F210461901914205D9CD
:1019C000012252B218490A605A0804E0002252B2B9
:1019D00015490A601A46C100B1FBF2F1491C4B08D7
:1019E0009A0912490A6003F03F0211490A60602215
:1019F00010490A60FEF79EFFDDF800E002B0704774
:101A0000F91C000010010020FFFFFFFF140100205F
:101A1000FFFFFFFF18010020FFFFFFFF1C01002058
:101A2000E42C000008C3FC4314061C4224E00040E0
:081A300028E000402CE000401A
:1009100081B0002149B204480160044801600448E4
:10092000016001B0704700BF00061C4220061C4257
:0409300024061C423B
:1009340081B0012149B204480160044801600448BF
:10094400016001B0704700BF00061C4220061C4233
:0409540024061C4217
:10241C0081B0CDF800E0FFF741FA044A04490A60A4
:10242C000020DDF800E001B0704700BF151D000072
:04243C00AC000020D0
:10262C0083B0CDF800E0024610460D228DF808204C
:10263C000A228DF809201FE0FFF7DAFE23E002786A
:10264C002AB10190FFF7D4FE0198401CF7E71AE07D
:10265C0002782AB10190FFF7CBFE0198401CF7E7F6
:10266C0002AA1046FFF7C4FE0DF109021046FFF74F
:10267C00BFFE08E0062007E00029DDD00129DED0EE
:10268C000229E5D0F6E70020DDF800E003B0704742
:1023FC0081B0CDF800E00178CCB2A0B2034C2468D7
:10240C00A0470020DDF800E001B07047AC000020D0
:101A4C0081B0CDF800E0FEF781FFDDF800E001B0D9
:021A5C007047D1
:1009580081B0054908600549096801B9FBE7024902
:10096800086801B0704700BF088000408801104245
:101A380081B0CDF800E0FEF749FFDDF800E001B025
:021A48007047E5
:1008D40081B0054908600549096801B9FBE7024987
:1008E400086801B0704700BF0890004088011242B8
:101D680081B0CDF800E0FEF7ADFEDDF800E001B08F
:021D78007047B2
:100ACC0081B0054908600549096801B9FBE702498D
:100ADC00086801B0704700BF08A0004088011442AC
:101D7C0081B0CDF800E0FEF785FEDDF800E001B0A3
:021D8C0070479E
:100A900081B0054908600549096801B9FBE70249C9
:100AA000086801B0704700BF08B0004088011642D6
:101DAC0081B00449096801B1FBE70349086001B03F
:0C1DBC00704700BF1403184200C0004034
:101D900081B00449096801B1FBE70349086001B05B
:0C1DA000704700BF14031A4200D000403E
:101CF80081B00449096801B1FBE70349086001B0F4
:0C1D0800704700BF14031C4200E00040C4
:101CDC0081B00449096801B1FBE70349086001B010
:0C1CEC00704700BF14031E4200F00040CF
:101CC00081B00449096801B1FBE70349086001B02C
:0C1CD000704700BF1403204200000140D8
:101D4C0081B00449096801B1FBE70349086001B09F
:0C1D5C00704700BF140322420010014039
:101D300081B00449096801B1FBE70349086001B0BB
:0C1D4000704700BF140324420020014043
:101D140081B00449096801B1FBE70349086001B0D7
:0C1D2400704700BF14032642003001404D
:1028E00081B0CDF800E01E220C490D48FFF7F4FE40
:1028F00042F6FE47C0F231177F1EFDD100BF00BF78
:1029000000BF00BF00BFFFF7C9FE06480221FFF766
:102910008DFEDDF800E001B0704700BF702F0000B1
:082920009C2E00001D000020A8
:1026D80081B0CDF800E00446094B1A700846FFF7B0
:1026E800DFFE2046FFF76CFC0124064B1C7001201E
:1026F800054C2468A047DDF800E001B0704700BF32
:0C2708004B0000204A000020C000002010
:0C200C0001490860704700BF907FB84297
:0C20180001490860704700BF807FB8429B
:0C1FF40001490860704700BF807FB242C6
:0C20000001490860704700BF887FB042B3
:0C203C0001490860704700BF947FB0426B
:0C20480001490860704700BF907FB04263
:0C20240001490860704700BF807FB64291
:0C20300001490860704700BF907FBA4271
:0C24600001490860704700BF987FB4423B
:0C250C0001490860704700BF9C7FB4428A
:0C25180001490860704700BF887FB24294
:0C25000001490860704700BF8C7FB242A8
:0C24E80001490860704700BF947FB842B3
:0C24F40001490860704700BF847FB842B7
:0C253C0001490860704700BF947FB24264
:0C25240001490860704700BF887FB0428A
:0C25300001490860704700BF947FB04272
:0C24840001490860704700BF907FB04223
:0C24900001490860704700BF847FB6421D
:0C246C0001490860704700BF987FB6422D
:0C24780001490860704700BF907FB4422B
:0C24D00001490860704700BF947FB442CF
:0C24DC0001490860704700BF887FB242D1
:0C249C0001490860704700BF8C7FB2420D
:1024A800026806490A60011D0A6805490A6000F2C7
:1024B80008010A6803490A60704700BFB00000209D
:0824C800B4000020B800002060
:101FC80000F230011C310A6805490A6000F2080174
:101FD8000A6804490A60011D0A6803490A607047D3
:0C1FE800C8000020C0000020BC00002049
:10269C0082B0CDF800E001A9602008700122602012
:1026AC00FFF78CFBFFF77EFC01A98C200870012240
:1026BC006020FFF783FB01A9112008700122622022
:0C26CC00FFF77CFBDDF800E002B0704777
:101DC80086B0CDF800E08DF814200A46304B1B7819
:101DD80043BB01AB187000209DF814305B1C1BB28C
:101DE80098420ADA441C24B201AB1C1913181B7858
:101DF8002370431CD9B2C8B2EEE70120254C2468F1
:101E0800A0470020244C2468A0479DF814305C1C8F
:101E180001ABA1B21846FFF765FC01201E4C2468EF
:101E2800A04730E01A4B1B78012B2CD10DF10B0485
:101E38002070237843F080032370002011469DF81A
:101E480014305B1C1BB298420ADA441C24B20DF110
:101E58000B031C190B181B782370431CD8B2EEE730
:101E680001200D4C2468A047FFF7F2FC9DF81430C0
:101E78005D1C0DF10B04094B1B78AAB22146D8B2A0
:101E88000023FFF74DFCDDF800E006B0704700BF07
:101E98004A000020BC000020C00000204B000020A9
:1016EC0083B0CDF800E08AB2014690B283B2421EBC
:1016FC0090B26BB10A78D4B2ADF804000291A0B2EA
:10170C00054C2468A0470299BDF80400491CEDE77C
:0C171C00DDF800E003B07047CC000020B6
:1018580040F2000212B201210148017010B2704733
:041868004900002013
:1017280085B0CDF800E0ADF80C200A468DF81030F1
:1017380040F20004ADF808401146424C247854B1F8
:1017480001910021404C2468A0470199FFF73CF91A
:1017580000253C4C2570BDF80C40012C0DD10C78AF
:101768000721E0B2394C2468A047BDF9084004437A
:10177800ADF80840FFF728F957E0BDF80C40022CF7
:101788001CD10C7801910321E0B2304C2468A047A9
:101798000199BDF908400443ADF808404C1C2046A7
:1017A800FFF712F904780521E0B2284C2468A04715
:1017B800BDF908400443ADF8084036E00C780191C3
:1017C8000321E0B2214C2468A0470199BDF90840E3
:1017D8000443ADF808404B1CFFF7F6F81946BDF86E
:1017E8000C40641EA4B2ADF80C40012C12D90C7840
:1017F80001910121E0B2154C2468A0470199BDF977
:1018080008400443ADF808404C1C2346FFF7DCF8B9
:101818001946E4E70C780521E0B20C4C2468A0478F
:10182800BDF908400443ADF808409DF81040012C6C
:1018380002D10125034C2570BDF90800DDF800E050
:1018480005B0704749000020B0000020B400002017
:1010F80081B0CDF800E0CAB2C1B20348FFF78CF85E
:0C110800DDF800E001B07047000002407C
:1002200081B04B009BB213439BB2036001B0704797
:1016500081B0CDF800E0CAB2C1B20348FEF7E0FDA8
:0C166000DDF800E001B07047001002400F
:1015B40081B0CDF800E0CAB2C1B20348FEF72EFEF6
:0C15C400DDF800E001B07047002002409C
:1016100081B0CDF800E0CAB2C1B20348FEF700FEC7
:0C162000DDF800E001B07047003002402F
:1015D00081B0CDF800E0CAB2C1B20348FEF720FEE8
:0C15E000DDF800E001B0704700000C4096
:1008B80081B0CDF800E0CAB2C1B20348FFF7ACFC82
:0C08C800DDF800E001B0704700100C40AB
:1009B00081B0CDF800E0CAB2C1B20348FFF730FC05
:0C09C000DDF800E001B0704700200C40A2
:1009940081B0CDF800E0CAB2C1B20348FFF73EFC13
:0C09A400DDF800E001B0704700300C40AE
:1009780081B0CDF800E0CAB2C1B20348FFF74CFC21
:0C098800DDF800E001B0704700800B407B
:1008F40081B0CDF800E0CAB2C1B20348FFF78EFC64
:0C090400DDF800E001B0704700900B40EF
:100AB00081B0CDF800E0CAB2C1B20348FFF7AEFC86
:0C0AC000DDF800E001B0704700000240CB
:10041C0082B0CDF800E04FF000045D4B984205D15E
:10042C005C4B1D685C4B1B6801935BE05B4B98421B
:10043C0006D15B4B1C685B4B1B680193254651E056
:10044C00594B984206D1594B1C68594B1B68019368
:10045C00234646E0574B984206D1574B1C68574BE6
:10046C001B68019323463CE0554B984206D1554BF3
:10047C001C68554B1B680193234632E0534B984242
:10048C0006D1534B1C68534B1B680193234628E041
:10049C00514B984206D1514B1C68514B1B68019330
:1004AC0023461EE04F4B984206D14F4B1C684F4BD6
:1004BC001B680193234614E04D4B984206D14D4BDB
:1004CC001C684D4B1B68019323460AE04B4B98422A
:1004DC0006D14B4B1C684B4B1B680193234600E029
:1004EC0023461D4600F208031960072A05D0032A8B
:1004FC0003D004462846D1B215E02E46D1B20246AE
:10050C002846131D1C68C4F380135BB148B126B98F
:10051C000420019CA047012036E0731E1C46264691
:10052C00FFE7EEE71446231D1960FFF767FEFFF7A0
:10053C0065FEFFF763FE024625462B1D1C68C4F3BF
:10054C0000034BB138B122B90420019CA047012013
:10055C001AE0521EFFE7F0E72B1D1C68C4F34003A2
:10056C006BB1012902D0032900D008E02B1D1C68B7
:10057C00C4F300131BB92C1D40F2040323602B1D84
:10058C001C68C4F34003D8B2DDF800E002B0704739
:10059C00000002404C000020D4000020001002405B
:1005AC0050000020D8000020002002405400002001
:1005BC00DC0000200030024058000020E000002049
:1005CC0000000C405C000020E400002000100C40F7
:1005DC0060000020E800002000200C406400002097
:1005EC00EC00002000300C4068000020F0000020DF
:1005FC0000800B406C000020F400002000900B40A9
:08060C0070000020F80000203E
:1002080040F22607C0F200077F1EFDD100BF00BFE5
:0802180000BF00BF00BF7047EA
:100B240081B0CDF800E0CAB2C1B20348FFF774FC4B
:0C0B3400DDF800E001B070470010024046
:100B080081B0CDF800E0CAB2C1B20348FFF782FC59
:0C0B1800DDF800E001B070470020024052
:100AEC0081B0CDF800E0CAB2C1B20348FFF790FC68
:0C0AFC00DDF800E001B07047003002405F
:100A200081B0CDF800E0CAB2C1B20348FFF7F6FCCE
:0C0A3000DDF800E001B0704700000C4051
:100A040081B0CDF800E0CAB2C1B20348FFF704FDDB
:0C0A1400DDF800E001B0704700100C405D
:1009E80081B0CDF800E0CAB2C1B20348FFF712FDEA
:0C09F800DDF800E001B0704700200C406A
:100A3C0081B0CDF800E0CAB2C1B20348FFF7E8FCC0
:0C0A4C00DDF800E001B0704700300C4005
:100A580081B0CDF800E0CAB2C1B20348FFF7DAFCB2
:0C0A6800DDF800E001B0704700800B409A
:100A740081B0CDF800E0CAB2C1B20348FFF7CCFCA4
:0C0A8400DDF800E001B0704700900B406E
:1009D00049F63E47C0F200077F1EFDD100BF00BFB1
:0809E00000BF00BF00BF70471B
:101FB00040F6FE07C0F23D077F1EFDD100BF00BF07
:081FC00000BF00BF00BF704725
:1028400081B0CDF800E01E48FFF788FF1D48012148
:10285000FFF7ECFE1A48B0F900001B49FFF774FEC1
:1028600001211948FFF7E2FE18480121FFF7DEFEBB
:102870001748B0F900001449FFF766FE012112481D
:10288000FFF7D4FE13480121FFF7D0FE1248B0F93C
:1028900000000D49FFF758FE02210B48FFF7C6FE66
:1028A00040F6FE07C0F23D077F1EFDD100BF00BF0E
:1028B00000BF00BF00BFDDF800E001B0704700BFFF
:1028C000740000203D0000207A000020410000201C
:0C28D00076000020450000207800002069
:10275C0084B0CDF800E002A9019006226820FFF7B2
:10276C00C5FB019802AC611C09780180B0F900101E
:10277C00090201802278B0F9001011430180821CFB
:10278C00E11C09781180821CB2F900100902118039
:10279C00831CA11C0A78B3F9001011431980021D87
:1027AC00611D09781180021DB2F900100902118017
:1027BC00031D211D0A78B3F9001011431980DDF8AF
:0627CC0000E004B07047BC
:101EF80084B0CDF800E002918DF80C20254B1B78BA
:101F080003BB01AC2070237843F0800323700120C9
:101F1800214C2468A0470020204C2468A04701AB2E
:101F280001211846FFF7DEFB00201B4C2468A04760
:101F38009DF80C100298FFF795FC0120174C2468B7
:101F4800A04722E0134B1B78012B1ED18DF805000A
:101F580040F080038DF805300120104C2468A0471C
:101F6800FFF776FC0DF105040D4B1B780122214685
:101F7800D8B20123FFF7D4FB094B1B789DF80C203E
:101F88000299D8B20023FFF7A1FDDDF800E004B004
:101F9800704700BF4A000020BC000020C00000209D
:041FA8004B000020CA
:10186C0083B0CDF800E0ADF808100190BDF8083059
:10187C00BDF80820521EADF808204BB10020064CD4
:10188C002468A047019A1070019A521C0192EDE74E
:0C189C00DDF800E003B07047C40000203D
:101AD40085B0CDF800E0ADF80C200A468DF8103042
:101AE40040F20004ADF8084011463F4C247854B14C
:101AF400019101213D4C2468A0470199FEF766FF3E
:101B04000025394C2570BDF80C40012C0CD1084639
:101B14000721374C2468A047BDF908400443ADF8B9
:101B24000840FEF753FF51E0BDF80C40022C19D1D8
:101B3400019108460B212E4C2468A0470199BDF958
:101B440008400443ADF808404C1C2046FEF73EFF15
:101B54000521274C2468A047BDF908400443ADF88B
:101B6400084033E0019108460B21214C2468A0472A
:101B74000199BDF908400443ADF808404B1CFEF739
:101B840025FF1946BDF80C40641EA4B2ADF80C4004
:101B9400012C11D9019108460921154C2468A0474C
:101BA4000199BDF908400443ADF808404C1C234694
:101BB400FEF70CFF1946E5E7084605210C4C24689E
:101BC400A047BDF908400443ADF808409DF8104013
:101BD400012C02D10125044C2570BDF90800DDF863
:101BE40000E005B0704700BF49000020B0000020AD
:041BF400B800002015
:10166C0081B0CDF800E0CAB201460348FFF71CF880
:0C167C00DDF800E001B070470000024003
:1006B40084B0CDF800E0044603914FF000030293A8
:1006C4005E4B9C4206D15E4B1B6802935D4B1B68DC
:1006D400019358E05C4B9C4206D15C4B1B6802932F
:1006E4005B4B1B6801934EE05A4B9C4206D15A4B1C
:1006F4001B680293594B1B68019344E0584B9C427E
:1007040006D1584B1B680293574B1B6801933AE080
:10071400564B9C4206D1564B1B680293554B1B68A3
:10072400019330E0544B9C4206D1544B1B68029316
:10073400534B1B68019326E0524B9C4206D1524B0B
:100744001B680293514B1B6801931CE0504B9C4265
:1007540006D1504B1B6802934F4B1B68019312E068
:100764004E4B9C4206D14E4B1B6802934D4B1B686B
:10077400019308E04C4B9C4205D14C4B1B680293FF
:100784004B4B1B680193072A03D00B2A01D0204648
:1007940017E0029E2046D1B2031D1C68C4F38013E7
:1007A40073B1029B4BB126B90320019CA0470120E1
:1007B40040E0731E1A46134600E033461E46EBE73C
:1007C400CAB2031D1A60FFF71DFDFFF71BFDFFF7FB
:1007D40019FD029E031D1C68C4F3000363B1029B50
:1007E4003BB126B90320019CA047012022E0711EE1
:1007F40000E031460E46EDE7031D1C68C4F34003D8
:1008040073B1092A02D00B2A00D008E0031D1C682A
:10081400C4F300131BB9041D40F20403236004E075
:1008240000F208031C68039B1C70031D1C68C4F3BE
:100834004003D8B2DDF800E004B070470000024085
:100844004C000020D4000020001002405000002082
:10085400D80000200020024054000020DC000020CA
:100864000030024058000020E000002000000C404E
:100874005C000020E400002000100C406000002018
:10088400E800002000200C4064000020EC00002060
:1008940000300C4068000020F000002000800B4075
:1008A4006C000020F400002000900B407000002039
:0408B400F800002028
:1016880081B0CDF800E0CAB201460348FFF70EF872
:0C169800DDF800E001B0704700100240D7
:1011140081B0CDF800E0CAB201460348FFF7C8FA2F
:0C112400DDF800E001B070470020024040
:1010DC0081B0CDF800E0CAB201460348FFF7E4FA4C
:0C10EC00DDF800E001B070470030024069
:100B400081B0CDF800E0CAB201460348FFF7B2FD1C
:0C0B5000DDF800E001B0704700000C4030
:1011840081B0CDF800E0CAB201460348FFF790FAF7
:0C119400DDF800E001B0704700100C40D6
:1011A00081B0CDF800E0CAB201460348FFF782FAE9
:0C11B000DDF800E001B0704700200C40AA
:1011680081B0CDF800E0CAB201460348FFF79EFA05
:0C117800DDF800E001B0704700300C40D2
:1011300081B0CDF800E0CAB201460348FFF7BAFA21
:0C114000DDF800E001B0704700800B40BB
:10114C0081B0CDF800E0CAB201460348FFF7ACFA13
:0C115C00DDF800E001B0704700900B408F
:1025480081B0CDF800E00E46002183B2002805DAFC
:102558000121404280B280B28FB201E098B28FB2BE
:102568003146FFF79DFC06213446B8B2002908D948
:1025780063184A1E92B2A21812781A70491E89B2BC
:10258800F4E72022227070B1002081B22046421860
:102598001278202A02D1491C89B2F8E74A1E92B261
:0E25A80083182D221A70DDF800E001B0704794
:101EA80081B00A4681B200208DB21146052805D2BC
:101EB8000B1820221A70401CC0B2F7E70B1800223A
:101EC8001A70401EC0B20C180A23B5FBF3F203FBCC
:101ED800125292B2303222700A22B5FBF2F292B25A
:101EE80095B202B902E0401EC0B2ECE701B07047FB
:1029FC0081B0CDF800E0344A344B354C354D364E71
:102A0C004FF03011354801600021354801606FF0FE
:102A1C00010003EA000133480160C3F3C00018B998
:102A2C00FFF7DCFEFFF7DAFEC3F3000018B101215B
:102A3C0049B22D4801602D48864203D92C492748BC
:102A4C00016021E02B48864203D92B4923480160C1
:102A5C001AE04CF25030864203D928491F480160D5
:102A6C0012E047F23050864203D925491B480160D9
:102A7C000AE0B6F57A5F03D922491848016003E0F1
:102A8C004FF03011154801601F4804601F48056065
:102A9C006FF0805002EA000111480160012149B237
:102AAC001B4801601B48016002F0805038B11A4885
:102ABC00006800B9FBE7012149B218480160DDF854
:102ACC0000E001B0704700BF04003033110000007B
:102ADC001800800000000000C0D40100C0E00F40CE
:102AEC00B0E00F407CE00F40800FFC43A08601005B
:102AFC00960130008038010055013000D3003000C1
:102B0C00B20030007100300060E10F4064E10F4012
:102B1C007C16FC437816FC43002DFC437016FC43DA
:1027E80041F67E27C0F206077F1EFDD100BF00BF5D
:0827F80000BF00BF00BF7047E5
:1029C40081B002490248016001B07047C0D40100DF
:0429D400D00000200F
:0829900081B0FEE701B07047C1
:1029980081B04EF68850CEF20000016841F4700113
:1029A800016000BF00BF00BF00BFF1EE100A40F495
:0A29B8004000E1EE100A01B0704784
:102F7C0000B5DFF824B0DFF824A0DFF824C0FFF799
:102F8C0023FCDFF820B0DFF820A0DFF820C0FFF72B
:102F9C001BFC00BD704700BF000000204A00002051
:102FAC00FC2E00004C00002074000020482F000074
:1030180000B5DFF810B0DFF810A0FFF7EDFB00BD3A
:0C302800704700BF0000002020010020C5
:0409CC00A086010000
:102B2C0000F00540400040050100000000F00540A9
:102B3C0080004005010000000000000000000000C3
:102B4C000000000000000000000000000000000079
:102B5C000000000000000000000000000000000069
:102B6C000000000000000000000000000000000059
:102B7C000000000000000000000000000000000049
:102B8C000000000000000000000000000000000039
:102B9C000000000000000000000000000000000029
:102BAC000000000000000000000000000000000019
:102BBC000000000000000000000000000000000009
:102BCC0000000000000000000000000000000000F9
:102BDC0000000000000000000000000000000000E9
:102BEC0000000000000000000000000000000000D9
:0C2BFC00000000000000000002000000CB
:102C080000A00540100040050100000000A005409C
:102C18002000400501000000000000000000000046
:102C2800000000000000000000000000000000009C
:102C3800000000000000000000000000000000008C
:102C4800000000000000000000000000000000007C
:102C5800000000000000000000000000000000006C
:102C6800000000000000000000000000000000005C
:102C7800000000000000000000000000000000004C
:102C8800000000000000000000000000000000003C
:102C9800000000000000000000000000000000002C
:102CA800000000000000000000000000000000001C
:102CB800000000000000000000000000000000000C
:102CC80000000000000000000000000000000000FC
:0C2CD800000000000000000002000000EE
:102CE40000B00540100040050100000000B00540A0
:102CF400200040050100000000000000000000006A
:102D040000000000000000000000000000000000BF
:102D140000000000000000000000000000000000AF
:102D2400000000000000000000000000000000009F
:102D3400000000000000000000000000000000008F
:102D4400000000000000000000000000000000007F
:102D5400000000000000000000000000000000006F
:102D6400000000000000000000000000000000005F
:102D7400000000000000000000000000000000004F
:102D8400000000000000000000000000000000003F
:102D9400000000000000000000000000000000002F
:102DA400000000000000000000000000000000001F
:0C2DB40000000000000000000200000011
:102DC000009005400400400502000000009005400E
:102DD00008000805020000000000000000000000DC
:102DE00000000000000000000000000000000000E3
:102DF00000000000000000000000000000000000D3
:102E000000000000000000000000000000000000C2
:102E100000000000000000000000000000000000B2
:102E200000000000000000000000000000000000A2
:102E30000000000000000000000000000000000092
:102E40000000000000000000000000000000000082
:102E50000000000000000000000000000000000072
:102E60000000000000000000000000000000000062
:102E70000000000000000000000000000000000052
:102E80000000000000000000000000000000000042
:0C2E900000000000000000000200000034
:102E9C000D20000019200000F51F0000012000008B
:102EAC003D200000492000002520000031200000BA
:102EBC00612400000D2500001925000001250000EB
:102ECC00FFFFFFFFFFFFFFFFFFFFFFFFFFFFFFFF06
:102EDC00FFFFFFFFFFFFFFFFFFFFFFFFFFFFFFFFF6
:102EEC00FFFFFFFFFFFFFFFFFFFFFFFFFFFFFFFFE6
:102EFC0020202E2E2E2073797374656D20696E69D7
:102F0C007420646F6E65202E2E2E2020002E2E2E07
:102F1C00206170706C69636174696F6E20696E6991
:102F2C007420646F6E65202E2E2E20200020583ABF
:0A2F3C000020593A00205A3A000024
:042F48000000000085
:042F4C000000000081
:042F5000000000007D
:042F54000000000079
:042F58000000000075
:042F5C000000000071
:042F6000000000006D
:042F64000000000069
:042F68000000000065
:042F6C000000000061
:0C2F7000F9100000B10A00006D1600000E
:00000001FF
