:1000000090EF10F00000000000EF00F00000000092
:0A0010000000000000000000F3D71C
:0E001C0001012DB102D08B9601D08B8612000F
:0E002A0001012DB102D08B9C01D08B8C1200F5
:0E00380001012DB102D08B9801D08B881200EF
:0E00460001012DB102D08D9601D08D861200E1
:0E00540001012DB102D0899401D089841200DF
:0E00620001012DB102D08B9A01D08B8A1200C1
:0E00700001012DB102D08B9801D08B881200B7
:0E007E0001012DB102D08B9401D08B841200B1
:0E008C0001012DB102D08B9E01D08B8E12008F
:0E009A0001012DB102D08A9201D08A8212009B
:0E00A80001012DB102D08F9401D08F8412007F
:0E00B60001012DB102D08A9401D08A8412007B
:0E00C40001012DB102D08F9201D08F82120067
:0E00D20001012DB102D08B9801D08B88120055
:0E00E00001012DB102D08B9601D08B8612004B
:0E00EE0001012DB102D08B9601D08B8612003D
:0E00FC0001012DB102D08D9401D08D8412002F
:0E010A0001012DB102D08B9801D08B8812001C
:0E01180001012DB102D08F9001D08F80120016
:0E01260001012DB102D08B9A01D08B8A1200FC
:0E01340001012DB102D08D9001D08D801200FE
:0E01420001012DB102D08B9001D08B801200F4
:0E01500001012DB102D08B9601D08B861200DA
:0E015E0001012DB102D08B9A01D08B8A1200C4
:0E016C0001012DB102D08B9801D08B881200BA
:10017A002DC16AFF016A0150000A05E1000E68B04C
:0C018A00010E016EF8D76ACF01F01200E0
:100196002DC1C9FF016A0150000A05E1000EC7B072
:0C01A600010E016EF8D7C9CF01F0120065
:0E01B200ACB202D00000FCD72DC1ADFF120090
:0E01C00001012DB102D0899001D0898012007A
:1001CE000F0121B302D00000FBD72DC11CFF12007E
:0E01DE0001012DB102D0899201D08982120058
:0E01EC0001012DB102D08B9801D08B8812003A
:0E01FA0001012DB102D0899801D08988120030
:0E02080001012DB102D08B9601D08B86120021
:0E02160001012DB102D08D9201D08D82120017
:0E02240001012DB102D08A9001D08A80120013
:0E02320001012DB102D08B9201D08B821200FF
:0E02400001012DB102D08B9E01D08B8E1200D9
:0E024E0001012DB102D08B9601D08B861200DB
:0E025C0001012DB102D08B9C01D08B8C1200C1
:10026A00C7B409D01F0EC514016E0150000A03E17C
:0A027A00010E006E01D0006A1200B0
:10028400F250026EF29E0500FF6A0150FE6E0050AD
:08029400FD6E02BEF28E1200A5
:10029C0068B409D01F0E6614016E0150000A03E108
:0A02AC00010E006E01D0006A12007E
:0C02B600000E0F0121B3010E006E1200BB
:0A02C200000EA4BA010E006E120037
:0A02CC00000EACB2010E006E12002D
:0A02D600000E84B0010E006E12004D
:0A02E000000E82B0010E006E120045
:0A02EA00000E80B0010E006E12003D
:1002F400AECF01F0ABA202D0AB98AB8801C000F046
:020304001200E5
:1003060065C029F166C02AF167C02BF168C02CF1DF
:100316000101276B286B2851120802E127518E082C
:1003260008E3B9DF005201E004D00101274B282B76
:10033600F2D70101120E285D02E18F0E275D03E35D
:100346007B0E006E26D0668066A022D00001655125
:100356006611671168111BE0010129512A112B1141
:100366002C110EE1F3C0E1FFF4C0E2FF050EE66ECC
:10037600F1C000F0F2C001F082DF010E006E09D07C
:10038600010E0101295F000E2A5B2B5B2C5BDCD77B
:04039600006A1200E7
:0A039A00000E82B4010E006E120086
:1003A4001DCF01F00F0122A302D02299228901C09E
:0403B40000F0120043
:0A03B800000E82BA010E006E120062
:0A03C200000E9EBA010E006E12003C
:0A03CC00000E82B6010E006E120052
:0A03D600000E80B2010E006E12004E
:0A03E000000E82B8010E006E12003C
:0A03EA00000E82B6010E006E120034
:0A03F400000E82B6010E006E12002A
:0A03FE00000E84B2010E006E120022
:0A040800000E80B8010E006E120015
:0A041200000E82B2010E006E12000F
:0A041C00000E82BA010E006E1200FD
:0A042600000E82B8010E006E1200F5
:0A043000000E82BC010E006E1200E7
:0A043A00000E82BE010E006E1200DB
:0A044400000E81B0010E006E1200E0
:10044E0061C029F162C02AF163C02BF164C02CF1A6
:10045E009E96C5869EB620D0000161516211631131
:10046E00641119E0010129512A112B112C110CE1F3
:10047E00BBC0E1FFBCC0E2FF030EE66EB9C000F0E8
:10048E00BAC001F0F8DE08D0010E0101295F000E9E
:10049E002A5B2B5B2C5BDED70101C9CF28F12751DC
:1004AE00000A02E1C58A01D0C59A9E96C58861C030
:1004BE0029F162C02AF163C02BF164C02CF19EB603
:1004CE0020D00001615162116311641119E0010124
:1004DE0029512A112B112C110CE1BBC0E1FFBCC01C
:1004EE00E2FF030EE66EB9C000F0BAC001F0C3DE43
:1004FE0008D0010E0101295F000E2A5B2B5B2C5BDD
:08050E00DED728C100F0120045
:100516009E9627C1C9FF61C028F162C029F163C058
:100526002AF164C02BF1C7A422D0000161516211E7
:10053600631164111BE00101285129112A112B11A5
:100546000EE1BBC0E1FFBCC0E2FF040EE66EB9C01F
:1005560000F0BAC001F093DE010E006E3BD0010E32
:100566000101285F000E295B2A5B2B5BDCD761C08B
:1005760028F162C029F163C02AF164C02BF19EB64E
:1005860022D0000161516211631164111BE0010167
:10059600285129112A112B110EE1BBC0E1FFBCC065
:1005A600E2FF040EE66EB9C000F0BAC001F067DEE5
:1005B600010E006E0FD0010E0101285F000E295BAF
:1005C6002A5B2B5BDCD7C5BC02D0006A03D0C5848E
:0605D600020E006E12008F
:1005DC0065C029F166C02AF167C02BF168C02CF107
:1005EC00A19A6686A1BA20D00001655166116711E7
:1005FC00681119E0010129512A112B112C110CE160
:10060C00F3C0E1FFF4C0E2FF030EE66EF1C000F0B0
:10061C00F2C001F031DE08D0010E0101295F000E9D
:10062C002A5B2B5B2C5BDED701016ACF28F12751AB
:10063C00000A02E1668A01D0669AA19A668865C0B2
:10064C0029F166C02AF167C02BF168C02CF1A1BA60
:10065C0020D00001655166116711681119E0010184
:10066C0029512A112B112C110CE1F3C0E1FFF4C01C
:10067C00E2FF030EE66EF1C000F0F2C001F0FCDD0B
:10068C0008D0010E0101295F000E2A5B2B5B2C5B4D
:08069C00DED728C100F01200B6
:0A06A400000E86B2010E006E120077
:1006AE0027C16AFF016A0150000A05E1000E68B019
:0C06BE00010E016EF8D76ACF00F01200A8
:0A06CA00000E82B8010E006E12004F
:0A06D400000E86B4010E006E120045
:1006DE00A19A27C16AFF65C028F166C029F167C0DB
:1006EE002AF168C02BF168A422D000016551661171
:1006FE00671168111BE00101285129112A112B11D4
:10070E000EE1F3C0E1FFF4C0E2FF040EE66EF1C0AD
:10071E0000F0F2C001F0AFDD010E006E3BD0010E15
:10072E000101285F000E295B2A5B2B5BDCD765C0BD
:10073E0028F166C029F167C02AF168C02BF1A1BA71
:10074E0022D0000165516611671168111BE001018D
:10075E00285129112A112B110EE1F3C0E1FFF4C02B
:10076E00E2FF040EE66EF1C000F0F2C001F083DD90
:10077E00010E006E0FD0010E0101285F000E295BE5
:10078E002A5B2B5BDCD766BC02D0006A03D0668482
:06079E00020E006E1200C5
:1007A40065C027F166C028F167C029F168C02AF145
:1007B400668266A220D00001655166116711681136
:1007C40019E001012751281129112A110CE1F3C064
:1007D400E1FFF4C0E2FF060EE66EF1C000F0F2C0E5
:1007E40001F04EDD08D0010E0101275F000E285BE9
:0807F400295B2A5BDED712002D
:0407FC0066841200FD
:1008000027C1C9FF016A0150000A05E1000EC7B007
:0C081000010E016EF8D7C9CF00F01200F5
:0A081C00000E82B6010E006E1200FD
:1008260061C029F162C02AF163C02BF164C02CF1CA
:100836000101276B286B2851120802E127518E0807
:1008460008E310DD005201E004D00101274B282BFC
:10085600F2D70101120E285D02E18F0E275D03E338
:100866007B0E006E26D0C580C5A022D00001615146
:100876006211631164111BE0010129512A112B1128
:100886002C110EE1BBC0E1FFBCC0E2FF050EE66E17
:10089600B9C000F0BAC001F0F2DC010E006E09D05A
:1008A600010E0101295F000E2A5B2B5B2C5BDCD756
:0408B600006A1200C2
:0408BA00C5841200DF
:0A08BE00000E81B4010E006E12005E
:0A08C800000E82B6010E006E120051
:1008D20061C027F162C028F163C029F164C02AF126
:1008E200C582C5A220D00001615162116311641159
:1008F20019E001012751281129112A110CE1BBC06D
:10090200E1FFBCC0E2FF060EE66EB9C000F0BAC05D
:1009120001F0B7DC08D0010E0101275F000E285B51
:08092200295B2A5BDED71200FD
:0A092A00000E80B4010E006E1200F2
:0A093400000E82B8010E006E1200E2
:0A093E00000E81B2010E006E1200DF
:0A094800000E82B8010E006E1200CE
:0A095200000E84B6010E006E1200C4
:0A095C00000E82B8010E006E1200BA
:0A096600000E82BA010E006E1200AE
:0A097000000E86B0010E006E1200AA
:0A097A00000E82B6010E006E12009E
:0A098400000E82BE010E006E12008C
:0A098E00000E82BC010E006E120084
:0A099800000E84B4010E006E120080
:1009A200CE0E0001F56F010EF66F2D0EF76F010EE0
:1009B200F86FA40EE16F030EE26F000EE36F000EFC
:1009C200E46FC20EE56F020EE66F000EE76F000ED7
:1009D200E86FB60ED16F020ED26F000ED36F000E0B
:1009E200D46F0F01218B900E226F98849892A4AA43
:0A09F20003D01DCF00F0FBD7120068
:1009FC000101256B266B1EC123F11FC124F11DC102
:100A0C0000F00036009000806BC0E1FF6CC0E2FF8C
:100A1C0000C0E6FF69C000F06AC001F02DDC005098
:100A2C0001012513000E2613010E205F000E215B21
:100A3C002051211115E0C7C0E1FFC8C0E2FF010E33
:100A4C00E66EC5C000F0C6C001F016DC23C1E1FFA4
:100A5C0024C1E2FF00C0E6FF0101234B242BE4D7A5
:100A6C00C7C0E1FFC8C0E2FFE66AC5C000F0C6C05F
:100A7C0001F002DC23C1E1FF24C1E2FF00C0E6FF6C
:100A8C0001012251000A06E175C000F076C001F0A8
:100A9C0042EC01F001012251010A06E1CDC000F047
:100AAC00CEC001F042EC01F025C100F026C101F0EE
:020ABC00120026
:100ABE00086A096A100E0C6E0134083609360450A5
:100ACE00085E0550D8A0053C095ED8B007D004508A
:100ADE0008260550D8B0053C0926D89000360136B8
:060AEE000C2EEAD71200F5
:100AF4001DC121F11EC122F11FC100F020C101F06E
:100B0400010E01011F5F000E205B0050011014E074
:100B1400B7C0E1FFB8C0E2FF21C1E9FF22C1EAFF8B
:100B2400EECFE6FFB5C000F0B6C001F042EC01F034
:0A0B34000101214B222BE0D7120033
:100B3E0001011D6B1E6B71C000F072C001F042EC22
:100B4E0001F000C01DF1000E01011E6F1DC100F06D
:060B5E001EC101F01200AF
:100B64006A0E0001F96F020EFA6F000EFB6F000EA1
:100B7400FC6F260EED6F080EEE6F000EEF6F000E89
:100B8400F06FD20ED96F080EDA6F000EDB6F000E15
:100B9400DC6F4E0ED56F040ED66F270ED76F010E85
:100BA400D86F160EDD6F050EDE6F270EDF6F010E98
:100BB400E06FBA0EE96F080EEA6F000EEB6F000EDD
:100BC400EC6F949894968B988B9694889486C79E91
:080BD400C79C380EC66E12002A
:100BDC000101256B266B1EC123F11FC124F11DC120
:100BEC0000F0003600906BC0E1FF6CC0E2FF00C06B
:100BFC00E6FF69C000F06AC001F042EC01F0005061
:100C0C0001012513000E261320C100F021C101F0B3
:100C1C00010E205F000E215B0050011018E06BC02C
:100C2C00E1FF6CC0E2FF23C1E9FF24C1EAFFEECF74
:100C3C00E6FF69C000F06AC001F042EC01F0005020
:100C4C0001012513000E2613234B242BDDD7225133
:100C5C00000A06E175C000F076C001F042EC01F02C
:100C6C0001012251010A06E171C000F072C001F0CD
:0E0C7C0042EC01F025C100F026C101F012008B
:100C8A00B20E0001F56F010EF66F2D0EF76F010E11
:100C9A00F86FF40EE16F020EE26F000EE36F000EC2
:100CAA00E46FC20EE56F030EE66F000EE76F000EEB
:100CBA00E86FCC0ED16F020ED26F000ED36F000E0A
:100CCA00D46FAC8A900EAB6E948E949C9EAA03D07D
:080CDA00AECF00F0FBD71200C1
:100CE2001DC121F11EC122F11FC100F020C101F07E
:100CF200010E01011F5F000E205B0050011015E084
:100D0200CBC0E1FFCCC0E2FFE66AC9C000F0CAC0B6
:100D120001F042EC01F021C1E1FF22C1E2FF00C07B
:0C0D2200E6FF0101214B222BDFD712005D
:100D2E0009C10CF10AC10DF10BC10EF10BD0A00ED1
:100D3E00C86E11DF44D0280EC86E0DDF40D0040EF1
:100D4E00006E3FD00CC1F6FF0DC1F7FF0EC1F8FFCC
:100D5E000900F5CF01F00900F5CF02F00900F5CF3B
:100D6E0003F00900F5CF04F00450000A08E1035027
:100D7E00010A05E10250860A02E10150A00AD7E0FD
:100D8E000CC1F6FF0DC1F7FF0EC1F8FF0900F5CF3C
:100D9E0001F00900F5CF02F00900F5CF03F00900CC
:100DAE00F5CF04F00450000A08E10350060A05E1ED
:100DBE0002501A0A02E10150800ABDE0C0D7000EAF
:040DCE00006E1200A1
:100DD20021D0CF0EAF6EAC9457DF6BD0670EAF6EE3
:100DE200AC9452DF66D0CF0EAF6EAC844DDF61D0D3
:100DF200670EAF6EAC8448DF5CD0440EAF6EAC843D
:100E020043DF57D0220EAF6EAC843EDF52D0060EC7
:100E1200006E59D0000E006E01010C1908E100505D
:100E22000B1905E1120E0A1902E10951C00AD1E0BB
:100E3200000E006E0C1908E100500B1905E1250E99
:100E42000A1902E10951800AC9E0000E006E0C196C
:100E520008E100500B1905E14B0E0A1902E1095194
:100E6200000AC1E0000E006E0C1908E100500B19D7
:100E720005E1960E0A1902E10951000AB9E0000ED5
:100E8200006E0C1908E100500B1905E1E10E0A1978
:100E920002E10951000AB1E00C51000A08E10B51CC
:100EA200010A05E10A51C20A02E10951000AAAE057
:100EB200AED7B20E00016D6F010E6E6F2D0E6F6F09
:080EC200010E706F006A1200BE
:100ECA006FC0E1FF70C0E2FF09C1E9FF0AC1EAFF92
:100EDA00EECFE6FF6DC000F06EC001F042EC01F00B
:040EEA00006A120088
:100EEE0009C10CF10AC10DF10BC10EF10BD0A00E10
:100EFE00C86E31DE44D0280EC86E2DDE40D0040EF2
:100F0E00006E3FD00CC1F6FF0DC1F7FF0EC1F8FF0A
:100F1E000900F5CF01F00900F5CF02F00900F5CF79
:100F2E0003F00900F5CF04F00450000A08E1035065
:100F3E00010A05E10250860A02E10150A00AD7E03B
:100F4E000CC1F6FF0DC1F7FF0EC1F8FF0900F5CF7A
:100F5E0001F00900F5CF02F00900F5CF03F009000A
:100F6E00F5CF04F00450000A08E10350060A05E12B
:100F7E0002501A0A02E10150800ABDE0C0D7000EED
:040F8E00006E1200DF
:100F920009C10CF10AC10DF10BC10EF10BD0A00E6B
:100FA200C86EDFDD44D0280EC86EDBDD40D0040EF3
:100FB200006E3FD00CC1F6FF0DC1F7FF0EC1F8FF66
:100FC2000900F5CF01F00900F5CF02F00900F5CFD5
:100FD20003F00900F5CF04F00450000A08E10350C1
:100FE200010A05E10250860A02E10150A00AD7E097
:100FF2000CC1F6FF0DC1F7FF0EC1F8FF0900F5CFD6
:1010020001F00900F5CF02F00900F5CF03F0090065
:10101200F5CF04F00450000A08E10350060A05E186
:1010220002501A0A02E10150800ABDE0C0D7000E48
:04103200006E12003A
:1010360021D0CF0EAF6EAC9425DE6BD0670EAF6EAF
:10104600AC9420DE66D0CF0EAF6EAC841BDE61D0D2
:10105600670EAF6EAC8416DE5CD0440EAF6EAC8409
:1010660011DE57D0220EAF6EAC840CDE52D0060EC7
:10107600006E59D0000E006E01010C1908E10050F7
:101086000B1905E1120E0A1902E10951C00AD1E055
:10109600000E006E0C1908E100500B1905E1250E33
:1010A6000A1902E10951800AC9E0000E006E0C1906
:1010B60008E100500B1905E14B0E0A1902E109512E
:1010C600000AC1E0000E006E0C1908E100500B1971
:1010D60005E1960E0A1902E10951000AB9E0000E6F
:1010E600006E0C1908E100500B1905E1E10E0A1912
:1010F60002E10951000AB1E00C51000A08E10B5166
:10110600010A05E10A51C20A02E10951000AAAE0F0
:10111600AED7B20E00016D6F010E6E6F2D0E6F6FA2
:08112600010E706F006A120057
:10112E0038D00F0120870D0E1F6F040E1E6F218504
:10113E0031DC7ED00F012087060E1F6F820E1E6FD0
:10114E00218528DC75D00F012087030E1F6F400EFE
:10115E001E6F21851FDC6CD00F012087010E1F6FC3
:10116E00A00E1E6F218516DC63D00F012087010EA5
:10117E001F6F150E1E6F21850DDC5AD00F012087B3
:10118E001F6B8A0E1E6F218505DC52D0060E006E77
:10119E0059D0000E006E01010C1908E100500B1918
:1011AE0005E1120E0A1902E10951C00ABAE0000E59
:1011BE00006E0C1908E100500B1905E1250E0A19F5
:1011CE0002E10951800AB6E0000E006E0C1908E12A
:1011DE0000500B1905E14B0E0A1902E10951000AE4
:1011EE00B2E0000E006E0C1908E100500B1905E17B
:1011FE00960E0A1902E10951000AAEE0000E006EC9
:10120E000C1908E100500B1905E1E10E0A1902E173
:10121E000951000AAAE00C51000A08E10B51010A1B
:10122E0005E10A51C20A02E10951000AA7E0AED750
:10123E00CE0E00016D6F010E6E6F2D0E6F6F010ED3
:06124E00706F006A12003F
:1012540021D0CF0EAF6EAC9416DD6BD0670EAF6E9F
:10126400AC9411DD66D0CF0EAF6EAC840CDD61D0D2
:10127400670EAF6EAC8407DD5CD0440EAF6EAC84F9
:1012840002DD57D0220EAF6EAC84FDDC52D0060EC8
:10129400006E59D0000E006E01010C1908E10050D7
:1012A4000B1905E1120E0A1902E10951C00AD1E035
:1012B400000E006E0C1908E100500B1905E1250E13
:1012C4000A1902E10951800AC9E0000E006E0C19E6
:1012D40008E100500B1905E14B0E0A1902E109510E
:1012E400000AC1E0000E006E0C1908E100500B1951
:1012F40005E1960E0A1902E10951000AB9E0000E4F
:10130400006E0C1908E100500B1905E1E10E0A19F1
:1013140002E10951000AB1E00C51000A08E10B5145
:10132400010A05E10A51C20A02E10951000AAAE0D0
:10133400AED7B20E00016D6F010E6E6F2D0E6F6F82
:08134400010E706F006A120037
:10134C0059D001010AB102D0929201D092820F01C0
:10135C00259376D001010AB102D0929801D09288DF
:10136C006FD001010AB102D0969201D0968268D05A
:10137C0001010AB102D0949601D0948661D001018A
:10138C000AB102D0949801D094885AD001010AB1C4
:10139C0002D0949A01D0948A53D001010AB102D0A0
:1013AC00949401D094844CD001010AB102D0939250
:1013BC0001D0938245D001010AB102D0949E01D094
:1013CC00948E3ED001010AB102D0949C01D0948C31
:1013DC0037D001010AB102D0949601D0948630D056
:1013EC0001010AB102D0949801D0948829D0010E41
:1013FC00006E28D001010951000AA3E00951010A2D
:10140C00A9E00951020AADE00951030AB1E0095102
:10141C00040AB5E00951050AB9E00951060ABDE014
:10142C000951070AC1E00951080AC5E00951090A26
:10143C00C9E009510A0ACDE009510B0AD1E0D7D70E
:06144C00000E006E12000C
:1014520001010D6B050E0D5D0AE20D510B25E16ECA
:10146200000E0C21E26E200EE66E0D2BF3D70D510D
:101472000B25E16E000E0C21E26EE66A0D070D519E
:101482000B250E6F000E0C210F6F0A0E046E000E5C
:10149200056E09C100F00AC101F05FEC05F008C059
:1014A20000F009C001F0300E00260EC1E1FF0FC1AD
:1014B200E2FF00C0E6FF0A0E046E000E056E09C1CF
:1014C20000F00AC101F05FEC05F000C009F101C0B3
:1014D2000AF1000E011802E1000E001801E102D02B
:0614E2000D07CDD712003A
:1014E8005F50000A4BE109C10DF1800E010109119D
:1014F8000D6FBFC0E1FFC0C0E2FF010EE66EBDC0C8
:1015080000F0BEC001F042EC01F0C3C0E1FFC4C06E
:10151800E2FFE66AC1C000F0C2C001F042EC01F08F
:101528000D0E01011D6F010E1E6F010E1F6F000EC3
:10153800206F7AEC05F0BFC0E1FFC0C0E2FFE66AA9
:10154800BDC000F0BEC001F042EC01F00AC11DF1BF
:101558000BC11EF10CC11FF1000E0101206F71ECCF
:1015680006F0C3C0E1FFC4C0E2FF010EE66EC1C0D1
:1015780000F0C2C001F042EC01F033D05F50010A24
:1015880030E109C10EF1800E010109110E6FC3C0CF
:10159800E1FFC4C0E2FF010EE66EC1C000F0C2C0A8
:1015A80001F042EC01F09FEC05F05EC01DF10E0E5B
:1015B8001E6F010E1F6F010E206F000E216F010EAE
:1015C800226FEEEC05F05EC01DF10AC11EF10BC1E1
:1015D8001FF10CC120F1000E0101216F226BFEECFE
:0415E80004F01200F9
:1015EC00090E0B6E1E0E0C6EE40E0D6E0D2EFED73C
:0C15FC000C2EFCD70B2EFAD700001200BA
:1016080059D001010AB102D0929001D092800F0105
:10161800259176D001010AB102D0949001D094802E
:101628006FD001010AB102D0969001D0968068D09F
:1016380001010AB102D0949601D0948661D00101CB
:101648000AB102D0949801D094885AD001010AB105
:1016580002D0949A01D0948A53D001010AB102D0E1
:10166800949201D094824CD001010AB102D0939097
:1016780001D0938045D001010AB102D0949E01D0D7
:10168800948E3ED001010AB102D0949C01D0948C72
:1016980037D001010AB102D0949601D0948630D097
:1016A80001010AB102D0949801D0948829D0010E82
:1016B800006E28D001010951000AA3E00951010A6E
:1016C800A9E00951020AADE00951030AB1E0095144
:1016D800040AB5E00951050AB9E00951060ABDE056
:1016E8000951070AC1E00951080AC5E00951090A68
:1016F800C9E009510A0ACDE009510B0AD1E0D7D750
:06170800000E006E12004D
:10170E00300E01010925006E000E0A21016E000E39
:10171E000B21026E1C0E0024F66E000E0120F76ED9
:10172E00000E0220F86E0900F5CFB1F00900F5CFDA
:10173E00B2F00900F5CFB3F00900F5CFB4F0080E02
:10174E000925F66E000E0A21F76E000E0B21F86EBB
:10175E000900F5CFC1F00900F5CFC2F00900F5CFB1
:10176E00C3F00900F5CFC4F0040E0925F66E000E85
:10177E000A21F76E000E0B21F86E0900F5CFBDF0B1
:10178E000900F5CFBEF00900F5CFBFF00900F5CF87
:04179E00C0F0120085
:1017A20009C1F6FF0AC1F7FF0BC1F8FF0900F5CF27
:1017B20071F00900F5CF72F00900F5CF73F009005E
:1017C200F5CF74F0040E01010925F66E000E0A2110
:1017D200F76E000E0B21F86E0900F5CF75F00900C7
:1017E200F5CF76F00900F5CF77F00900F5CF78F064
:1017F200080E0925F66E000E0A21F76E000E0B2167
:10180200F86E0900F5CFCDF00900F5CFCEF0090052
:10181200F5CFCFF00900F5CFD0F00C0E0925F66E0A
:10182200000E0A21F76E000E0B21F86E0900F5CFAB
:1018320069F00900F5CF6AF00900F5CF6BF00900F5
:10184200F5CF6CF0100E0925F66E000E0A21F76E28
:10185200000E0B21F86E0900F5CFC5F00900F5CF97
:10186200C6F00900F5CFC7F00900F5CFC8F01200A5
:101872005F50000A5AE109C10DF10101146B0C51CC
:10188200010F016E026A000E0222800E006E800EAF
:101892000218005C02E10150145D16E21451010FBE
:1018A200006E016A000E01220D0E0024E16E010E8F
:1018B2000120E26E14510A25E96E000E0B21EA6E38
:1018C200EECFE6FF142BDBD7BFC0E1FFC0C0E2FFC3
:1018D200010EE66EBDC000F0BEC001F042EC01F0A8
:1018E200C3C0E1FFC4C0E2FFE66AC1C000F0C2C0EB
:1018F20001F042EC01F00D0E01011D6F010E1E6F91
:101902000C51010F1F6F206B000E20237AEC05F0A3
:10191200C3C0E1FFC4C0E2FF010EE66EC1C000F029
:10192200C2C001F042EC01F04CD05F50010A49E123
:1019320009C115F1800E01010911156F1C6B0C51C3
:10194200010F016E026A000E0222800E006E800EEE
:101952000218005C02E101501C5D16E21C51010FED
:10196200006E016A000E0122150E0024E16E010EC6
:101972000120E26E1C510A25E96E000E0B21EA6E6F
:10198200EECFE6FF1C2BDBD7C3C0E1FFC4C0E2FFF2
:10199200010EE66EC1C000F0C2C001F042EC01F0DF
:1019A2009FEC05F05EC01DF1150E1E6F010E1F6F3C
:1019B2000C51010F206F216B000E2123226BEEECE4
:0419C20005F012001A
:1019C6005DD001010AB102D0929401D092840F0138
:1019D60025957AD001010AB102D0969601D0968655
:1019E60073D001010AB102D0969401D096846CD0CE
:1019F60001010AB102D0949601D0948665D0010106
:101A06000AB102D0949801D094885ED001010AB13F
:101A160002D0949A01D0948A57D001010AB102D01B
:101A2600989001D0988050D001010AB102D09394C9
:101A360001D0938449D001010AB102D0989401D013
:101A460098840F01239540D001010AB102D09892E3
:101A560001D098820F01239337D001010AB102D039
:101A6600949601D0948630D001010AB102D09498A0
:101A760001D0948829D0010E006E28D001010951A9
:101A8600000A9FE00951010AA5E00951020AA9E0EE
:101A96000951030AADE00951040AB1E00951050AEA
:101AA600B5E00951060AB9E00951070ABDE0095136
:101AB600080AC1E00951090AC7E009510A0ACDE03E
:0E1AC60009510B0AD1E0D7D7000E006E1200B6
:101AD4001ED002C109F103C10AF104C10BF197EC54
:101AE40006F020D002C109F103C10AF104C10BF1CF
:101AF40077EC07F017D002C109F103C10AF104C160
:101B04000BF1C9EC07F00ED0010E006E0BD00101F1
:101B14000151000ADEE00151010AE4E00151020A28
:061B2400EAE0F2D7120016
:101B2A0015D0FEC009F1FFC00AF169DD1AD0FEC066
:101B3A0009F1FFC00AF105DC14D0FEC009F1FFC0AB
:101B4A000AF13CDF0ED0010E006E0BD00001FD51F0
:101B5A00000AE7E0FD51010AEAE0FD51020AEDE060
:041B6A00F2D712009C
:101B6E00600E0001606F600E0101096F600E0A6F5A
:101B7E00000E0B6F010E0C6F75DE31DD8C0E000149
:101B8E00606F600E0101096F600E0A6F000E0B6F21
:101B9E00010E0C6F67DE110E0001606F620E010107
:101BAE00096F600E0A6F000E0B6F010E0C6F5ADE7E
:021BBE00120013
:101BC0000101056B066B01C107F102C108F1800E2E
:101BD0000219006E800E005C02E1000E015D0BE256
:101BE000010E056F000E066F01510008076F02C15C
:101BF00008F1000E085707C109F108C10AF103C135
:101C00000BF104C10CF125DC060E0001FD6F000E86
:101C1000FE6F000E006EFE51005C02E1FD510008F7
:101C20001FE2FD5101010325E16E0001FE5101019A
:101C30000421E26E010E0001FD5D006E000EFE59F2
:101C4000016E005001010325E96E01500421EA6E86
:101C5000EECFE6FF010E0001FD5F000EFE5BD9D75F
:101C600003C1E1FF04C1E2FF200EE66E0101055150
:101C7000061123E00001FD6BFE6BFD510101032500
:101C8000E96E0001FE5101010421EA6EEE50200AC6
:101C900004E10001FD4BFE2BF0D70001010EFD5FBA
:101CA000000EFE5BFD5101010325E16E0001FE51B6
:0C1CB00001010421E26E2D0EE66E120010
:101CBC00680E0101096FFF0E0A6F000E0B6F060E06
:101CCC000C6F0CDCFDC0E1FFFEC0E2FF00C1E6FFC3
:101CDC00000EE66EFDC0E9FFFEC0EAFFEECF03F09A
:101CEC00EECF04F003C001F0006AFDC0E1FFFEC0BE
:101CFC00E2FF00C0E6FF01C0E6FFFDC0E9FFFEC049
:101D0C00EAFF0001FF51EE10006EEECF01F0000E65
:101D1C000112FDC0E1FFFEC0E2FF00C0E6FF01C002
:101D2C00E6FF020EFD25E16E000EFE21E26E02C101
:101D3C00E6FF000EE66E020EFD25056E000EFE217E
:101D4C00066E05C0E9FF06C0EAFFEECF03F0EECF4A
:101D5C0004F003C001F0006A05C0E1FF06C0E2FF19
:101D6C0000C0E6FF01C0E6FF020EFD25026E000E6C
:101D7C00FE21036E02C0E9FF03C0EAFF010101511D
:101D8C00EE10006EEECF01F0000E011202C0E1FF6A
:101D9C0003C0E2FF00C0E6FF01C0E6FF040E000135
:101DAC00FD25E16E000EFE21E26E04C1E6FF000E81
:101DBC00E66E040EFD25056E000EFE21066E05C0B6
:101DCC00E9FF06C0EAFFEECF03F0EECF04F003C04C
:101DDC0001F0006A05C0E1FF06C0E2FF00C0E6FFAB
:101DEC0001C0E6FF040EFD25026E000EFE21036EFF
:101DFC0002C0E9FF03C0EAFF01010351EE10006EBF
:101E0C00EECF01F0000E011202C0E1FF03C0E2FFB1
:0A1E1C0000C0E6FF01C0E6FF12005F
:101E260007C15EF004C109F105C10AF106C10BF153
:101E3600B5DC01C109F102C10AF103C10BF164DC91
:101E4600010E5F6EC3C0E1FFC4C0E2FF010EE66E85
:0E1E5600C1C000F0C2C001F042EC01F0120069
:101E64002FD002C109F103C10AF104C10BF105C16C
:101E74000CF11BEC08F032D002C109F103C10AF1E4
:101E840004C10BF105C10CF12AEC09F027D002C101
:101E940009F103C10AF104C10BF105C10CF197EC7E
:101EA40008F01CD002C109F103C10AF104C10BF10D
:101EB40005C10CF1E9EC06F011D0010E006E0ED054
:101EC40001010151000ACDE00151010AD5E001519F
:0E1ED400020ADDE00151100AE5E0EFD712002E
:101EE200FDC001F1FEC002F10D0E0001606F0A0E8D
:101EF2000101006F3AD001C109F102C10AF165EC9A
:101F020007F03ED001C1E9FF02C1EAFFEE520AE04A
:101F120001C109F102C10AF165EC07F00101014BAF
:101F2200022BF0D72DD001C1E9FF02C1EAFFEE5228
:101F32000AE001C109F102C10AF165EC07F00101F1
:101F4200014B022BF0D70101600E096F000E0A6FE0
:101F520065EC07F0000E0101096F010E0A6F65ECD6
:101F620007F00ED0060E006E0CD00001FF51000AE1
:101F7200C2E0FF51010AC6E0FF51020AD4E0F2D7E3
:041F8200006A1200DF
:101F86000001FD6B070EFE6F010EFF6FCBDD00013A
:101F9600FD6B010EFE6FFF6BC5DD0001FD6B020ED2
:101FA600FE6FFF6BBFDD0101016BF30E026F210EA9
:101FB600036F000E046F8BDD100E0101016F800EA2
:101FC600026F250E036F000E046F056F48DF090EC2
:101FD6000B6E1E0E0C6EE40E0D6E0D2EFED70C2E25
:101FE600FCD70B2EFAD700003D0E0001FD6F000E48
:0A1FF600FE6F020EFF6F72DF120093
:102000000900F5CFE6FF0006FBE10106F9E1120049
:102010002E0E0101016F210E026F000E036FD70E0D
:10202000046F210E056F000E066F1E0E076FFBDE9C
:10203000290E0B6E960E0C6E7F0E0D6E0D2EFED7BA
:102040000C2EFCD70B2EFAD792DD1D0E0001FD6F72
:0C205000000EFE6F020EFF6F44DF120056
:10205C00790E0001FD6F000EFE6F2ADE5A0E000194
:10206C00FD6F000EFE6F010EFF6F35DF79C001F1C1
:10207C007AC002F17F0E0101036F000E046F9ADD2E
:10208C007F0E0001FD6F000EFE6F010EFF6F23DF50
:10209C00190E0001FD6F000EFE6F010EFF6F1BDFAE
:1020AC007BC001F17CC002F17F0E0101036F000EB9
:1020BC00046F80DD7F0E0001FD6F000EFE6F010EC0
:1020CC00FF6F09DF150E0001FD6F000EFE6F010E94
:1020DC00FF6F01DF7DC001F17EC002F17F0E0101B7
:1020EC00036F000E046F66DD7F0E0001FD6F000EA6
:1020FC00FE6F020EFF6FEFDE090E0B6E1E0E0C6EE6
:10210C00E40E0D6E0D2EFED70C2EFCD70B2EFAD72F
:04211C0000001200AD
:0E212000FCEC10F030DF74DF99DFFED7FFD744
:1021F80010EE15F0490E006E010E016E8E0EF66E91
:10220800210EF76E000EF86E00EC10F010EE61F083
:10221800080E006E010E016EEB0EF66E210EF76EC3
:0A222800000EF86E00EC10F012003A
:10212E00C0012D0142012D0134012D0150012D015F
:10213E006C012D015E012D0132022D0124022D01B3
:10214E0040022D015C022D014E022D01EC012D01EC
:10215E00EA020000E0020000D6020000CC030000FC
:10216E00260400001C0400001204000044040000B9
:10217E003A04000030040000EA030000E00300000F
:04218E00205A3A0099
:0421920020593A0096
:102196002E2E2E206170706C69636174696F6E20DB
:1021A600696E697420646F6E65202E2E2E202000C5
:1021B60020202E2E2E2073797374656D20696E692A
:0D21C6007420646F6E65202E2E2E202000E8
:0421D30020583A0056
:1021D70026080000BA080000D208000016052701EB
:0421E7004E0427017A
:0421EB0000000000F0
:0421EF0000000000EC
:0421F300A0860100C1
:020000040030CA
:0E00000015137F7CF98B91FFFFC0FFE0FF40DE
:00000001FF
