:10000000FCFF022021290000D9280000D928000087
:10001000D9280000D9280000D9280000D9280000DC
:10002000D9280000D9280000D9280000D9280000CC
:10003000D9280000D9280000D9280000D9280000BC
:10004000D9280000D9280000D9280000D9280000AC
:10005000D9280000D9280000D9280000D92800009C
:10006000D9280000D9280000D9280000D92800008C
:10007000D9280000D9280000D9280000D92800007C
:10008000D9280000D9280000D9280000D92800006C
:10009000D9280000D9280000D9280000D92800005C
:1000A000D9280000D9280000D9280000D92800004C
:1000B000D9280000D9280000D9280000D92800003C
:1000C000D9280000D9280000D9280000D92800002C
:1000D000D9280000D9280000D9280000D92800001C
:1000E000D9280000D9280000D9280000D92800000C
:1000F000D9280000D9280000D9280000D9280000FC
:10010000D9280000D9280000D9280000D9280000EB
:10011000D9280000D9280000D9280000D9280000DB
:10012000D9280000D9280000D9280000D9280000CB
:10013000D9280000D9280000D9280000D9280000BB
:10014000D9280000D9280000D9280000D9280000AB
:10015000D9280000D9280000D9280000D92800009B
:10016000D9280000D9280000D9280000D92800008B
:10017000D9280000D9280000D9280000D92800007B
:10018000D9280000D9280000D9280000D92800006B
:08019000D9280000D928000065
:1029200000F010F8FFF7DCFF00F0F4FCFFF7EEFF1B
:1029300000F0A2FCFFF79CFFFFF776FFFFF708FF10
:04294000FCE7FEE7CB
:10273C0081B01CF8019B0BF8019BBBEB0A0FF8D185
:04274C0001B0704721
:1027EC0081B04FF000094FF0000CBDEB0A0F04DC78
:1027FC00BDEB0B0F01DBD446EA464BF8049BBBEB5D
:10280C000A0FFAD1BCEB0A0F05DDE246D9F800B08D
:0A281C000BF1040BF1E701B0704767
:1028700081B0CDF800E0012207210020FFF77EFEA5
:10288000002201210020FFF779FE00220221002012
:10289000FFF774FE0E4801460020FFF7FBFD42F2F1
:1028A00080511020FFF794FE40F6FE07C0F23D076E
:1028B00000BF00BF7F1EFDD100BF00BF00BF0548A5
:1028C0000221FFF7E5FEDDF800E001B0704700BF30
:0828D000743200000000FF1F3C
:10257C0081B0CDF800E05FFA81F85FFA82F916E0DD
:10258C005FFA89F15FFA88F0FFF7CAFC16E05FFA90
:10259C0089F15FFA88F0FFF7A7FD0FE05FFA89F188
:1025AC005FFA88F0FFF7D8FB08E0012006E000286E
:1025BC00E6D00128EBD00228F0D0F6E7DDF800E0F9
:0425CC0001B07047A3
:101F2C0081B0CDF800E0A9E0012905D14FF0040102
:101F3C006548FFF7C1FC04E04FF004016348FFF76C
:101F4C00AFFCBBE0012905D14FF400615E48FFF7FF
:101F5C00B3FC04E04FF400615C48FFF7A1FCADE07A
:101F6C00012905D14FF010015948FFF7A5FC04E0F9
:101F7C004FF010015748FFF793FC9FE0012905D162
:101F8C004FF020015248FFF797FC04E04FF020017E
:101F9C005048FFF785FC91E0012905D14FF08001F5
:101FAC004B48FFF789FC04E04FF080014948FFF7EC
:101FBC0077FC83E0012905D14FF040014448FFF73D
:101FCC007BFC04E04FF040014248FFF769FC75E0F0
:101FDC00012905D14FF480613F48FFF76DFC04E007
:101FEC004FF480613D48FFF75BFC67E0012905D1A8
:101FFC004FF400513448FFF75FFC04E04FF40051FC
:10200C003248FFF74DFC59E0012905D14FF004018E
:10201C003348FFF751FC04E04FF004013148FFF75F
:10202C003FFC4BE0012905D14FF008012C48FFF78C
:10203C0043FC04E04FF008012A48FFF731FC3DE077
:10204C00012905D14FF480712548FFF735FC04E0D8
:10205C004FF480712348FFF723FC2FE0012905D1B1
:10206C004FF400711E48FFF727FC04E04FF4007199
:10207C001C48FFF715FC21E0012020E000283FF46C
:10208C0053AF01283FF45EAF02283FF469AF032839
:10209C003FF474AF04283FF47FAF05283FF48AAFB8
:1020AC0006283FF495AF0728A0D00828ACD0092803
:1020BC00B8D00A28C4D00B28D0D0DDE70020DDF83A
:1020CC0000E001B0704700BF50F00F4040F00F40EF
:1020DC0090F00F4080F00F4010F00F4000F00F40D8
:0820EC00D0F00F40C0F00F40DE
:1018C40081B0CDF800E0034AFFF716FFDDF800E031
:0818D40001B07047040102009D
:1016FC0081B0CDF800E0FFF78BFBDDF800E001B026
:02170C00704724
:100E1C0083B0CDF800E006460C4615463046FFF789
:100E2C0049FB40F2FF1306EA030080090026224624
:100E3C002946202E39D24FF0010303FA06F402EAB8
:100E4C0004031F46A3422ED104031A4B1C19B300F2
:100E5C00E51801952C68184B04EA03032B60174B1B
:100E6C0001EA0304019B1B6843EA0404019B1C6018
:100E7C0001F48033B3F5803F15D08401104B1B195E
:100E8C001433029301F400333BB1FC43029B1B6807
:100E9C0003EA0404029B1C6005E0029B1B6843EA06
:100EAC000704029B1C60761CC3E7DDF800E003B06E
:100EBC00704700BF009004400000FFFFFFFF0000E0
:040ECC0000F00F40E3
:1004C00081B040F2FF1100EA01018909084600F2FB
:1004D00009024FF0010101FA02F20449096841EAF8
:1004E000020202490A6001B0704700BF3880044030
:1018AC0081B0CDF800E0034AFFF722FFDDF800E03D
:0818BC0001B0704704010400B3
:1020F40081B0CDF800E0A9E0012905D14FF0080135
:102104006548FFF7DDFB04E04FF008016348FFF783
:10211400CBFBBBE0012905D14FF400215E48FFF75A
:10212400CFFB04E04FF400215C48FFF7BDFBADE0BA
:10213400012905D14FF008015948FFF7C1FB04E01C
:102144004FF008015748FFF7AFFB9FE0012905D185
:102154004FF020015248FFF7B3FB04E04FF0200199
:102164005048FFF7A1FB91E0012905D14FF0800110
:102174004B48FFF7A5FB04E04FF080014948FFF707
:1021840093FB83E0012905D14FF040014448FFF758
:1021940097FB04E04FF040014248FFF785FB75E0F0
:1021A400012905D14FF400613F48FFF789FB04E0A2
:1021B4004FF400613D48FFF777FB67E0012905D143
:1021C4004FF480713448FFF77BFB04E04FF48071D7
:1021D4003248FFF769FB59E0012905D14FF48031FA
:1021E4002F48FFF76DFB04E04FF480312D48FFF7D3
:1021F4005BFB4BE0012905D14FF400312848FFF780
:102204005FFB04E04FF400312648FFF74DFB3DE04F
:10221400012905D14FF480712548FFF751FB04E0F3
:102224004FF480712348FFF73FFB2FE0012905D1CC
:102234004FF400711E48FFF743FB04E04FF40071B4
:102244001C48FFF731FB21E0012020E000283FF487
:1022540053AF01283FF45EAF02283FF469AF03286F
:102264003FF474AF04283FF47FAF05283FF48AAFEE
:1022740006283FF495AF0728A0D00828ACD0092839
:10228400B8D00A28C4D00B28D0D0DDE70020DDF870
:1022940000E001B0704700BF50F00F4040F00F4025
:1022A40090F00F4080F00F4010F00F4000F00F400E
:0822B400D0F00F40C0F00F4014
:101D640081B0CDF800E0A9E0012905D14FF0400190
:101D74006548FFF7A5FD04E04FF040016348FFF715
:101D840093FDBBE0012905D14FF480615E48FFF764
:101D940097FD04E04FF480615C48FFF785FDADE0FA
:101DA400012905D14FF004015948FFF789FD04E0EA
:101DB4004FF004015748FFF777FD9FE0012905D153
:101DC4004FF020015248FFF77BFD04E04FF0200163
:101DD4005048FFF769FD91E0012905D14FF08001DA
:101DE4004B48FFF76DFD04E04FF080014948FFF7D1
:101DF4005BFD83E0012905D14FF040014448FFF722
:101E04005FFD04E04FF040014248FFF74DFD75E0EF
:101E1400012905D14FF010013F48FFF751FD04E0BF
:101E24004FF010013D48FFF73FFD67E0012905D160
:101E34004FF080013448FFF743FD04E04FF0800188
:101E44003248FFF731FD59E0012905D14FF48031C3
:101E54002F48FFF735FD04E04FF480312D48FFF79C
:101E640023FD4BE0012905D14FF400312848FFF749
:101E740027FD04E04FF400312648FFF715FD3DE04F
:101E8400012905D14FF480712548FFF719FD04E0BD
:101E94004FF480712348FFF707FD2FE0012905D196
:101EA4004FF400711E48FFF70BFD04E04FF400717E
:101EB4001C48FFF7F9FC21E0012020E000283FF452
:101EC40053AF01283FF45EAF02283FF469AF032803
:101ED4003FF474AF04283FF47FAF05283FF48AAF82
:101EE40006283FF495AF0728A0D00828ACD00928CD
:101EF400B8D00A28C4D00B28D0D0DDE70020DDF804
:101F040000E001B0704700BF50F00F4040F00F40B8
:101F140090F00F4080F00F4010F00F4000F00F40A1
:081F2400D0F00F40C0F00F40A7
:1024940081B0CDF800E00DE00846FFF741FC10E004
:1024A4000846FFF74DFC0CE00846FFF705FF08E07F
:1024B400012006E00028EFD00128F1D00228F3D053
:0A24C400F6E7DDF800E001B0704714
:101D240081B0CDF800E0016808460449FFF7D4FD0E
:101D34000020DDF800E001B0704700BF443100002E
:1018DC0081B0CDF800E00A4601460348FFF784FDCD
:0C18EC00DDF800E001B07047006006402D
:1013F4008AB0CDF800E0504B984210D100244F4BF6
:101404001C60012464B24E4B1C604E4C4E4B1C605D
:101414004E4C4F4B1C604F4C4F4B1C6026E04F4BC7
:10142400984210D100244E4B1C60012464B24D4BF1
:101434001C604D4C444B1C604C4C454B1C604C4C4C
:10144400454B1C6012E04B4B98420FD100244A4B91
:101454001C60012464B2494B1C60494C3A4B1C602B
:10146400484C3B4B1C60484C3B4B1C600191029028
:101474001046FFF781FB06AB1846FFF727FD0298DD
:1014840001994FF0FF39002740F200080022022A98
:1014940037D8B9F1000F34D001231BB203FA02F597
:1014A4002DB20026322E28D2F400384B1B191B1DF6
:1014B4001B6805FB03F4079BB3FBF4F30493994205
:1014C40003D9049BCB1A039302E0049B5B1A039396
:1014D400039B0593039B4B450BD21746F4002B4B00
:1014E4001B19D3F80080059C059B002B00D105E057
:1014F40000E04C46761CA146D4E74C46521CA1465B
:10150400C5E7441CBB0143EA08032370851C01247E
:101514002B7864F3C7132B70851C01242B7864F398
:1015240086132B70851D01242B7864F345132B70CF
:10153400DDF800E00AB07047006006404C00FF1F71
:10154400980690423D160000C400FF1F6D1600006F
:10155400C800FF1FC1100000CC00FF1F0070064030
:101564005000FF1F9C06904225160000B51600008F
:101574001117000000600E405400FF1F1805904230
:101584000D16000091160000D9160000702E000000
:100ED00081B0CDF800E00446FFF736FB40F2E83180
:100EE00000FB01F3194909680A0F1849096801F064
:100EF0007061090EC8B21549096801F47001090D45
:100F0000CDB21249096801F47021090CCEB2D1B2F8
:100F1000491C09B259430F462360221D411C09B2E6
:100F2000B7FBF1F1116004F20802691C09B2B7FBCA
:100F3000F1F1116004F20C02711C09B2B7FBF1F17E
:100F40001160DDF800E001B0704700BF448004404C
:0C05480001480068704700BFB400FF1FAE
:100B7C0081B0CDF800E040F2000C83464FEA8C01C6
:100B8C000BEB01010968B1F1FF3F12D00BF13401FD
:100B9C004FEA8C03C91809680A460BEB0301096874
:100BAC0008461146FFF79EFC0CF1010C1FFA8CFC59
:0A0BBC00E4E7DDF800E001B0704747
:1004F00082B0CDF800E080464FEA581202F00702C1
:10050000914608F01F04A24693010D4AD3184FF0FC
:100510000102A240019218460A46019901F0EEF844
:100520004FEA0933074AD3184FEA8A029C1808F4A5
:10053000E06322681A432260DDF800E002B07047F1
:0805400000F00F4000900440A0
:101D440081B0CDF800E0016808460449FFF7C4FDFE
:101D54000020DDF800E001B0704700BF443100000E
:1022BC0081B0CDF800E0016808460449FFF708FB3F
:1022CC000020DDF800E001B0704700BF4431000091
:1025D00081B0CDF800E011E00846FFF7B3FE16E049
:1025E0000846FFF7C1FE12E00846FFF799FE0EE02D
:1025F0000846FFF773FE0AE0012008E00028EBD050
:102600000128EDD00228EFD01028F1D0F4E7DDF852
:0626100000E001B070477C
:1023440081B0CDF800E0FFF745FA044A04490A6079
:102354000020DDF800E001B0704700BF391900002B
:042364009000FF1FC7
:1017D80081B0CDF800E003460A48FFF7DDFC0A4A6D
:1017E80040F2000104B402B440F20002194640F28B
:1017F80000030448FFF7A0FC02B0DDF800E001B0E8
:0C180800704700BF00C00640D830000050
:1011A00081B0304988420CD12F4A30490A60304A18
:1011B00030490A60304A31490A60314A31490A608F
:1011C0004EE0314988420CD1304A28490A60304A01
:1011D00028490A602F4A29490A602F4A29490A608A
:1011E0003EE02E4988420CD12D4A20490A602D4A02
:1011F00020490A602C4A21490A602C4A21490A6088
:101200002EE02B4988420CD12A4A18490A602A4A02
:1012100018490A60294A19490A60294A19490A6085
:101220001EE0284988420CD1274A10490A60274A03
:1012300010490A60264A11490A60264A11490A6083
:101240000EE0254988420BD1244A08490A60244A05
:1012500008490A60234A09490A60234A09490A6081
:1012600001B0704700A00640B5190000D000FF1F74
:10127000DD130000D400FF1F55160000D800FF1F2B
:10128000C90F0000DC00FF1F00B00640111A00006B
:10129000B10F0000E10F0000690F000000C0064020
:1012A00039190000510F0000810F0000990F000054
:1012B00000D006401D190000FD10000019100000AC
:1012C000A910000000A00E40551900009110000068
:1012D000611000007910000000B00E409919000064
:0C12E0003110000049100000E510000073
:1011400085B0CDF800E001900291ADF80C20ADF82B
:101150001030BDF81440ADF814400698FFF70EFDAE
:101160000198FFF733FB02990198FFF779FBBDF86F
:101170000C100198FFF7D0FCBDF810100198FFF794
:10118000DBFCBDF814100198FFF7F2FC0198FFF7A3
:10119000A7FC0198FFF7ACFCDDF800E005B0704754
:1007CC0081B01849884204D1012252B216490A60FC
:1007DC0026E01649884204D1012252B214490A601B
:1007EC001EE01449884204D1012252B212490A6017
:1007FC0016E01249884204D1012252B210490A6013
:10080C000EE01049884204D1012252B20E490A600E
:10081C0006E00E49884203D1012252B20C490A600B
:10082C0001B0704700A00640A806904200B00640F8
:10083C00AC06904200C00640B006904200D0064084
:10084C00B406904200A00E402805904200B00E4025
:04085C002C05904295
:1008600085B0CDF800E08046894601AA104600F028
:100870002FFB164A904503D0154A904500D001E061
:10088000019800E002984FEA0912B0FBF2F291B22F
:1008900092B2130A9BB298F800201A4388F80020FD
:1008A00008F10103CAB21A7043014FEA0912B3FBFF
:1008B000F2F34A0192B29A1AD0B208F10A031A78F6
:1008C00002431A70DDF800E005B0704700A0064052
:0408D00000B006402E
:100B180081B0841C23784FF6EF7212B203EA020206
:100B28002270841C0B0122781A43227001B070478E
:100B380081B001F0020262B1841C01F00203227844
:100B48001A432270841C01F0010322781A43227090
:100B580007E0841C23784FF6FD7212B203EA020202
:060B6800227001B070478D
:0C0B700081B002780A43027001B07047A7
:100AE00081B0C21C117841F00401117001B070474F
:100AF00081B0C21C117841F00801117001B070473B
:1023680081B0CDF800E0FFF715FA044A04490A6085
:102378000020DDF800E001B0704700BF1D19000023
:042388009000FF1FA3
:10179C0081B0CDF800E003460A48FFF7FBFC0A4A8B
:1017AC0040F2000104B402B440F20002194640F2C7
:1017BC0000030448FFF7BEFC02B0DDF800E001B006
:0C17CC00704700BF00D006400030000055
:1023200081B0CDF800E0FFF739FA044A04490A60A9
:102330000020DDF800E001B0704700BF1D1900006B
:042340009000FF1FEB
:1022DC0081B0CDF800E0FFF7A7FA044A04490A6080
:1022EC000020DDF800E001B0704700BFB519000018
:0422FC009000FF1F30
:1018340081B0CDF800E003460A48FFF7AFFC0A4A3E
:1018440040F2000104B402B440F20002194640F22E
:1018540000030448FFF772FC02B0DDF800E001B0B9
:0C186400704700BF00A006406C30000080
:1026900083B0CDF800E0024610460D228DF80820E8
:1026A0000A228DF809201FE0FFF72AFE23E00278B6
:1026B0002AB10190FFF724FE0198401CF7E71AE0C9
:1026C00002782AB10190FFF71BFE0198401CF7E742
:1026D00002AA1046FFF714FE0DF109021046FFF79B
:1026E0000FFE08E0062007E00029DDD00129DED03A
:1026F0000229E5D0F6E70020DDF800E003B07047DE
:1023000081B0CDF800E00178CCB2A0B2034C2468D3
:10231000A0470020DDF800E001B070479000FF1FEB
:1018140081B0CDF800E082B24FF080610348FFF759
:1018240077FCDDF800E001B0704700BF00C0024063
:1011140081B000F22C044FF00043236000F2340449
:1011240093B241EA0303236000F22C031C68C4F366
:0A113400C07303B9F8E701B070477B
:1019F00081B0CDF800E082B24FF080610348FFF77C
:101A000089FBDDF800E001B0704700BF00D0024064
:1019D00081B0CDF800E082B24FF080610348FFF79C
:1019E00099FBDDF800E001B0704700BF00C00A407D
:1019B40081B0CDF800E081B20348FFF71BFBDDF8EE
:0C19C40000E001B0704700BF00A006402A
:100FF80081B0ADF800100146BDF800000A1D137855
:10100800C3F3C01202B9F9E7CA1D107001B07047E6
:101A100081B0CDF800E081B20348FFF7EDFADDF8C0
:0C1A200000E001B0704700BF00B00640BD
:1019380081B0CDF800E081B20348FFF759FBDDF82C
:0C19480000E001B0704700BF00C0064086
:10191C0081B0CDF800E081B20348FFF767FBDDF83A
:0C192C0000E001B0704700BF00D0064092
:1019540081B0CDF800E081B20348FFF74BFBDDF81E
:0C19640000E001B0704700BF00A00E4082
:1019980081B0CDF800E081B20348FFF729FBDDF8FC
:0C19A80000E001B0704700BF00B00E402E
:1028280081B0CDF800E01E220C490D48FFF74CFEA0
:1028380042F6FE47C0F2311700BF00BF7F1EFDD130
:1028480000BF00BF00BFFFF757FF06480221FFF790
:102858001BFFDDF800E001B0704700BF68320000E0
:08286800B03100001D00FF1F4C
:1024D00081B0CDF800E00446094B1A700846FFF7BA
:1024E000A5FA2046FFF7B6FA0124064B1C7001201E
:1024F000054C2468A047DDF800E001B0704700BF3C
:0C2500004A00FF1F4900FF1F9C00FF1F46
:0C1D180001490860704700BF0808FE4346
:0C1CB80001490860704700BF2C08FE4383
:0C1CC40001490860704700BF1010FE438B
:0C1CAC0001490860704700BF1410FE439F
:0C1C940001490860704700BF1C10FE43AF
:0C1CA00001490860704700BF1810FE43A7
:0C1CD00001490860704700BF2800FE4377
:0C1D000001490860704700BF3408FE4332
:0C1D0C0001490860704700BF0818FE4342
:0C1CF40001490860704700BF0C18FE4357
:0C1CDC0001490860704700BF2018FE435B
:0C1CE80001490860704700BF2418FE434B
:0C24400001490860704700BF0C08FE4313
:0C244C0001490860704700BF4C08FE43C7
:0C24580001490860704700BF0C10FE43F3
:0C24340001490860704700BF1410FE430F
:0C24100001490860704700BF1C10FE432B
:0C241C0001490860704700BF1810FE4323
:0C24280001490860704700BF2C00FE4313
:0C247C0001490860704700BF2008FE43C3
:0C24880001490860704700BF4010FE438F
:0C24640001490860704700BF4410FE43AF
:0C24700001490860704700BF2018FE43BF
:0C23B00001490860704700BF2418FE437C
:0C23BC0001490860704700BF1808FE438C
:0C23A40001490860704700BF2808FE4394
:0C238C0001490860704700BF0810FE43C4
:0C23980001490860704700BF1410FE43AC
:0C23C80001490860704700BF1C10FE4374
:0C23F80001490860704700BF1810FE4348
:0C24040001490860704700BF1000FE4353
:0C23EC0001490860704700BF1C08FE4358
:0C23D40001490860704700BF4010FE4344
:0C23E00001490860704700BF4410FE4334
:0C1A800001490860704700BF2018FE43B9
:0C1A8C0001490860704700BF2418FE43A9
:101A2C00026806490A60011D0A6805490A6000F24D
:101A3C0008010A6803490A60704700BFAC00FF1F29
:081A4C009400FF1FA000FF1F22
:101A540000F230011C310A6805490A6000F20801ED
:101A64000A6804490A60011D0A6803490A6070474C
:0C1A7400A800FF1F9C00FF1F9800FF1F30
:1027000082B0CDF800E001A96320087001226020AA
:10271000FFF728FAFFF71AFA01A98C2008700122A6
:102720006020FFF71FFA01A9112008700122622022
:0C273000FFF718FADDF800E002B0704777
:101B640086B0CDF800E08DF814200A46304B1B787F
:101B740043BB01AB187000209DF814305B1C1BB2F2
:101B840098420ADA441C24B201AB1C1913181B78BE
:101B94002370431CD9B2C8B2EEE70120254C246857
:101BA400A0470020244C2468A0479DF814305C1CF6
:101BB40001ABA1B21846FFF7BBFD01201E4C2468FF
:101BC400A04730E01A4B1B78012B2CD10DF10B04EC
:101BD4002070237843F080032370002011469DF881
:101BE40014305B1C1BB298420ADA441C24B20DF177
:101BF4000B031C190B181B782370431CD8B2EEE797
:101C040001200D4C2468A047FFF7B0FD9DF8143067
:101C14005D1C0DF10B04094B1B78AAB22146D8B206
:101C24000123FFF7A3FEDDF800E006B0704700BF14
:101C34004900FF1F9800FF1F9C00FF1F4A00FF1F61
:1017340083B0CDF800E08AB2014690B283B2421E73
:1017440090B26BB10A78D4B2ADF804000291A0B2A1
:10175400054C2468A0470299BDF80400491CEDE734
:0C176400DDF800E003B07047B000FF1F8C
:1017700082B0CDF800E040F20004ADF80440064C21
:101780002468A047BDF9041041EA000000B2DDF86A
:0C17900000E002B0704700BFAC00FF1F7B
:10163C0081B0CDF800E00348FFF7C0FADDF800E018
:08164C0001B070470060064088
:100BC80084B0CDF800E04FF000024349884205D1D7
:100BD80042490C6842490968039115E04149884235
:100BE80006D141490A6841490968039114460BE056
:100BF8003F49884206D13F490A683F49096803913D
:100C0800114600E011460C4601940290FFF708FCDB
:100C18000298019C831C0122197862F3451119700E
:100C2800C11C0A78C2F30011C9B1C31C012219788A
:100C380062F304111970811D0A78C2F3001129B1F9
:100C4800831D0122197862F304111970C31C012253
:100C5800197862F3410119704FF6FF7038E02346A6
:100C6800019404460198E11C0A78C2F3400151B985
:100C780040B123B90520039CA047012028E05A1E53
:100C88001346FFE7EFE7A11D0A78C2F3001129B167
:100C9800A31D0122197862F304111970E31C0122C3
:100CA800197862F34101197005462346D91C0A7860
:100CB800C2F3400159B148B125B90520039CA047AA
:100CC800012005E0691E0A461546FFE7EEE7002009
:100CD800DDF800E004B07047006006404C00FF1FDC
:100CE800B800FF1F007006405000FF1FBC00FF1F28
:0C0CF80000600E405400FF1FC000FF1FF2
:1004280082B0CDF800E04FF000021A49884205D1A9
:1004380019490B6819490968019115E0184988425A
:1004480006D118490A6818490968019113460BE052
:100458001649884206D116490A6816490968019161
:10046800114600E011460B461D4604462046FFF79C
:10047800CBFF50B943B11DB90720019CA04704E048
:10048800691E08460546FFE7F0E7DDF800E002B020
:10049800704700BF006006404C00FF1FB800FF1FF8
:1004A800007006405000FF1FBC00FF1F00600E4098
:0804B8005400FF1FC000FF1FEC
:1004100081B0C11C0A78C2F3401181F00101C9B258
:06042000C8B201B07047F4
:1016240081B0CDF800E00348FFF7CCFADDF800E024
:0816340001B070470070064090
:10160C0081B0CDF800E00348FFF7D8FADDF800E030
:08161C0001B0704700600E40B0
:1013DC0081B0CDF800E00348FFF78CFBDDF800E0AE
:0813EC0001B0704700A00640AB
:100B000081B0011D0A78C2F3401101B9F9E7C11D96
:080B10000978C8B201B070477A
:1016540081B0CDF800E00348FFF738FADDF800E088
:0816640001B0704700A0064030
:0E0AD00081B0011D0978C1F3401001B07047DC
:100FC80081B0CDF800E00348FFF780FCDDF800E0D1
:080FD80001B0704700A00640C3
:0E08D40081B0011D0978C1F3801001B070479A
:100FB00081B0CDF800E00348FFF7A2FDDDF800E0C6
:080FC00001B0704700B00640CB
:100FE00081B0CDF800E00348FFF772FDDDF800E0C6
:080FF00001B0704700B006409B
:100F680081B0CDF800E00348FFF7B0FCDDF800E001
:080F780001B0704700B0064013
:100F500081B0CDF800E00348FFF7D2FDDDF800E0F6
:080F600001B0704700C006401B
:100F800081B0CDF800E00348FFF7A2FDDDF800E0F6
:080F900001B0704700C00640EB
:100F980081B0CDF800E00348FFF798FCDDF800E0E9
:080FA80001B0704700C00640D3
:1010FC0081B0CDF800E00348FFF7FCFCDDF800E020
:08110C0001B0704700D006405D
:1010180081B0CDF800E00348FFF756FDDDF800E0A9
:0810280001B0704700D0064042
:1010A80081B0CDF800E00348FFF710FCDDF800E060
:0810B80001B0704700D00640B2
:1010900081B0CDF800E00348FFF732FDDDF800E055
:0810A00001B0704700A00E40F2
:1010600081B0CDF800E00348FFF732FDDDF800E085
:0810700001B0704700A00E4022
:1010780081B0CDF800E00348FFF728FCDDF800E078
:0810880001B0704700A00E400A
:1010300081B0CDF800E00348FFF762FDDDF800E085
:0810400001B0704700B00E4042
:1010480081B0CDF800E00348FFF73EFDDDF800E091
:0810580001B0704700B00E402A
:1010E40081B0CDF800E00348FFF7F2FBDDF800E043
:0810F40001B0704700B00E408E
:1019700082B0CDF800E040F20004ADF80440054C20
:101980002468A047BDF90440044320B2DDF800E01C
:0819900002B070479400FF1F34
:1010C00081B0CDF800E008B413460A46C1B2044826
:1010D000FFF708FC01B0DDF800E001B0704700BF89
:0410E0000060064066
:1008E40087B0CDF800E005920246C8B20693079C93
:1008F40007944FF000016C4CA24206D16B4C266861
:100904006B4C24680494314614E06A4CA24205D12D
:10091400694C2668694C246804940AE0684CA24235
:1009240006D1684C2168684C246804940E4600E0A3
:100934000E463146440001910292E1B21046FFF79F
:1009440089FE029A019920B91046FFF701FE0020A2
:10095400A5E000273B46069CA34216D2059CE4185A
:100964002478019202910393E1B21046FFF772FEDC
:10097400039B0299019A20B91046FFF7E9FD002074
:100984008DE05C1C27463B46E5E7079C012C48D1DB
:100994000B461046C41C2578C5F3400464B141B12C
:1009A40023B90420049CA047012078E05A1E144671
:1009B40000E01C462346EDE7861C0025347865F3E9
:1009C400451434700A46C41C2578C5F340045CB948
:1009D40039B122B90420049CA04701205FE0531ED2
:1009E40000E013461A46EEE7841D2578C5F300148B
:1009F4002CB1861D0125347865F304143470841DEC
:100A04002578C5F380142CB1861D0125347865F34F
:100A140086143470C61C0125347865F3410434709F
:100A24002AE0961C0125347865F3820434700B4661
:100A34001046C41C2578C5F3400464B941B123B9F8
:100A44000420049CA047012029E05A1E144600E01B
:100A54001C462346EDE7841D2578C5F300142CB10C
:100A6400861D0125347865F304143470C61C0125F1
:100A7400347865F3410434700A46C41C2578C5F300
:100A840040045CB139B122B90420049CA047012080
:100A940005E0531E00E013461A46EEE70020DDF899
:100AA40000E007B0704700BF006006404C00FF1F25
:100AB400B800FF1F007006405000FF1FBC00FF1F5E
:0C0AC40000600E405400FF1FC000FF1F28
:1006580082B0CDF800E04FF00003264A904205D161
:10066800254A1568254A1268019215E0244A9042E5
:1006780006D1244A1368244A126801921D460BE0E9
:10068800224A904206D1224A1368224A12680192ED
:100698001A4600E01A461546841C0123227863F3A3
:1006A80004122270021D11702C462946C21C1378B0
:1006B800C3F340025AB949B124B90420019CA047A8
:1006C800012012E0621E13461C46FFE7EEE7C41C39
:1006D8000123227863F341022270C21C1378C3F30A
:1006E800000282F00102D2B2D0B2DDF800E002B01E
:1006F800704700BF006006404C00FF1FB800FF1F96
:10070800007006405000FF1FBC00FF1F00600E4035
:080718005400FF1FC000FF1F89
:1005540084B0CDF800E04FF000023549884205D15F
:1005640034490C6834490968039115E033498842D9
:1005740006D133490A6833490968039114460BE0EC
:100584003149884206D131490A68314909680391E1
:10059400114600E011460C46831C0022197862F3D0
:1005A40045111970831C0022197862F30411197023
:1005B40001940290FFF736FF0298019C2346C11C68
:1005C4000A78C2F3400151B944B123B90620039C0F
:1005D400A047012027E05A1E1346FFE7EFE7811DDD
:1005E4000A78C2F3801129B1831D0122197862F3BC
:1005F40086111970C31C0122197862F34101197024
:100604002346C11C0A78C2F3400159B14CB123B945
:100614000620039CA047012005E0591E0A46134604
:10062400FFE7EEE70020DDF800E004B0704700BF0C
:10063400006006404C00FF1FB800FF1F007006401A
:100644005000FF1FBC00FF1F00600E405400FF1F3E
:04065400C000FF1FC4
:1017100081B0CDF800E008B413460A46C1B20448CF
:10172000FFF7E0F801B0DDF800E001B0704700BF5E
:0417300000700640FF
:1016D80081B0CDF800E008B413460A46C1B2044808
:1016E800FFF7FCF801B0DDF800E001B0704700BF7B
:0416F80000600E4040
:101B4C0040F6FE07C0F23D0700BF00BF7F1EFDD16F
:081B5C0000BF00BF00BF70478D
:1027500081B0CDF800E01E48FFF75EFF1D48012163
:10276000FFF796FF1A48B0F900001B49FFF7CEFEAD
:1027700001211948FFF78CFF18480121FFF788FF56
:102780001748B0F900001449FFF7C0FE01211248B4
:10279000FFF77EFF13480121FFF77AFF1248B0F9D7
:1027A00000000D49FFF7B2FE02210B48FFF770FF52
:1027B00040F6FE07C0F23D0700BF00BF7F1EFDD1FF
:1027C00000BF00BF00BFDDF800E001B0704700BFF0
:1027D0005800FF1F3D00FF1F5E00FF1F4100FF1F4D
:0C27E0005A00FF1F4500FF1F5C00FF1F98
:1026180084B0CDF800E002A9019006226820FFF7F7
:1026280037FA019802AC611C09780180B0F90010F2
:10263800090201802278B0F9001011430180821C40
:10264800E11C09781180821CB2F90010090211807E
:10265800831CA11C0A78B3F9001011431980021DCC
:10266800611D09781180021DB2F90010090211805C
:10267800031D211D0A78B3F9001011431980DDF8F4
:0626880000E004B0704701
:101A980084B0CDF800E002918DF80C20254B1B781E
:101AA80003BB01AC2070237843F08003237001202E
:101AB800214C2468A0470020204C2468A04701AB93
:101AC80001211846FFF732FE00201B4C2468A0476E
:101AD8009DF80C100298FFF7C7FE0120174C2468E8
:101AE800A04722E0134B1B78012B1ED18DF805006F
:101AF80040F080038DF805300120104C2468A04781
:101B0800FFF732FE0DF105040D4B1B78012221462B
:101B1800D8B20023FFF728FF094B1B789DF80C204B
:101B28000299D8B20123FFF7E3FEDDF800E004B024
:101B3800704700BF4900FF1F9800FF1F9C00FF1F50
:041B48004A00FF1F31
:1018700083B0CDF800E0ADF808100190BDF8083055
:10188000BDF80820521EADF808204BB10020064CD0
:101890002468A047019A1070019A521C0192EDE74A
:0C18A000DDF800E003B07047A400FF1F5B
:1015940081B0CDF800E01749096841F0010215490E
:1015A4000A6014490A686FF4406102EA010141F4D7
:1015B400406210490A60104A10490A6010490A68DA
:1015C40010490A400E490A600A490A686FF001018D
:1015D4000A4008490A6082B24FF080610548FFF76B
:1015E40097FD0448FFF78CFB80B2DDF800E001B002
:1015F400704700BF00C0024000000A9A2CC002409D
:0816040008C00240FFFF0000D6
:100D040081B000F22C010A68C2F3404101B9F8E74E
:100D140000F2380109688BB200F22C024FF4003162
:080D2400116098B201B07047A4
:1013640081B0CDF800E01749096841F00102154940
:101374000A6014490A686FF4406102EA010141F409
:10138400406210490A60104A10490A6010490A680C
:1013940010490A400E490A600A490A686FF00101BF
:1013A4000A4008490A6082B24FF080610548FFF79D
:1013B400AFFE0448FFF7A4FC80B2DDF800E001B002
:1013C400704700BF00D0024000000A9A2CD00240AF
:0813D40008D00240FFFF0000F9
:1012EC0081B0CDF800E01749096841F001021549B9
:1012FC000A6014490A686FF4406102EA010141F482
:10130C00406210490A60104A10490A6010490A6884
:10131C0010490A400E490A600A490A686FF0010137
:10132C000A4008490A6082B24FF080610548FFF715
:10133C00EBFE0448FFF7E0FC80B2DDF800E001B002
:10134C00704700BF00C00A4000000A9A2CC00A4037
:08135C0008C00A40FFFF000079
:1018F80082B0CDF800E040F20004ADF80440044C9A
:101908002468A047BDF90400DDF800E002B0704784
:04191800A000FF1F0D
:10166C0081B0CDF800E008B413460A46C1B2044874
:10167C00FFF756FB01B0DDF800E001B0704700BF8A
:04168C0000600640B4
:100D2C0085B0CDF800E08DF8041001469DF8040064
:100D3C0003920493059C05944400A4B244F001046E
:100D4C0001910846E1B2FFF781FC019918B90846F8
:100D5C00FFF7FAFB58E08E1C0025347865F3041479
:100D6C003470049C012C06D18E1C0125347865F35B
:100D7C00C304347005E08E1C0025347865F3C3047D
:100D8C00347001910846FFF7C5FC0199049C621E62
:100D9C00002A34DB15E0019102920846FFF7D4FBE0
:100DAC00029A019912E08E1C0125347865F3C30474
:100DBC0034700BE08E1C0025347865F3C30434705A
:100DCC0004E0002AE7D0012AEDD0F3E73AB90C1D74
:100DDC002578039C2570039C641C03940BE0019103
:100DEC0002920846FFF796FC029A0199039C207028
:100DFC00039C641C0394541E23461A46C8E7059CA6
:100E0C0014B90846FFF7DAFEDDF800E005B07047CC
:1007200082B0CDF800E04FF000021F49884205D1A9
:100730001E490B681E490968019115E01D49884250
:1007400006D11D490A681D490968019113460BE04D
:100750001B49884206D11B490A681B490968019157
:10076000114600E011460B46011D0C781D46C11CC8
:100770000A78C2F3400159B94BB125B90320019C55
:10078000A04701200BE0691E0A461546FFE7EEE789
:10079000C31C0122197862F341011970E0B2DDF83F
:1007A00000E002B0704700BF006006404C00FF1F31
:1007B000B800FF1F007006405000FF1FBC00FF1F65
:0C07C00000600E405400FF1FC000FF1F2F
:1016B40081B0CDF800E008B413460A46C1B204482C
:1016C400FFF732FB01B0DDF800E001B0704700BF66
:0416D400007006405C
:1016900081B0CDF800E008B413460A46C1B2044850
:1016A000FFF744FB01B0DDF800E001B0704700BF78
:0416B00000600E4088
:10250C0081B0CDF800E00E46002183B2002805DA38
:10251C000121404280B280B28FB201E098B28FB2FA
:10252C003146FFF789FB06213446B8B2002908D999
:10253C0063184A1E92B2A21812781A70491E89B2F8
:10254C00F4E72022227070B1002081B2204642189C
:10255C001278202A02D1491C89B2F8E74A1E92B29D
:0E256C0083182D221A70DDF800E001B07047D0
:101C440081B00A4681B200208DB21146052805D222
:101C54000B1820221A70401CC0B2F7E70B180022A0
:101C64001A70401EC0B20C180A23B5FBF3F203FB32
:101C7400125292B2303222700A22B5FBF2F292B2C0
:101C840095B202B902E0401EC0B2ECE701B0704761
:1029440090B072B6974801909748029097480390C8
:1029540097480490974805909748069097480790A1
:10296400974808909748099097480A9097480B9081
:1029740097480C90974998480D9098480E900D9858
:1029840000F007000F9001F0010050B94CF2205004
:10299400934908804DF62810088040F2D2119148DE
:1029A40001809148007800F0010050B18F48007810
:1029B40000F0080020B18D49087840F00800087044
:1029C40021E08B48006840F0005189480160894843
:1029D400006800F48070B0B9864801686FF47050E4
:1029E40001EA000040F440718248016081480068B7
:1029F40040F480717F4801607E4801686FF4007084
:102A040001407C480160AA217B4801700D9800F0C8
:102A1400100060B9794801786FF060000140774890
:102A2400017077480078012800D0FAE71CE00D987F
:102A340000F01000C0B10E997248814208D960219B
:102A44006E4801706E480078802800D0FAE70BE0E9
:102A54006A4801786FF06000014068480170684876
:102A64000078012800D0FAE70499674801606748B4
:102A740001686FF440200140029800F440200143B3
:102A840062480160624801686FF440300140039875
:102A940000F4403001435E4801600F9830B10F9854
:102AA400012803D00F98022800D061E0019800F0BB
:102AB400800050B9089800F0400028B10B9800F04D
:102AC4000300002800D100E015E05248006840F4FB
:102AD40000715048016050480168504801404E4818
:102AE4000160069800F0040028B14D4801684B4885
:102AF40001404B4801600A994A48017005994A48C7
:102B04000170059800F0040038B14848007800F0DE
:102B14001000002800D1F8E705E04448007800F0F0
:102B2400100000B1F9E74248007800F0BF01C9B2D3
:102B3400069800F0FD0001433D480170079800F03D
:102B4400E0013C48007800F01F000143394801705F
:102B54000199394801700B99384801700F9802287F
:102B640005D13348007840F0020131480170B8E0E3
:102B7400019800F0800020B90B9800F0030000B128
:102B840065E02448006840F400712248016022484E
:102B940001682248014020480160069800F00400C2
:102BA40000F04EB80000000000000C00000001001E
:102BB40000001401220000002400000000000000B6
:102BC40002000000460000000000000000000000B9
:102BD400000000000000000007000000C0D4010055
:102BE4000E2005400020054000F0074002D00740B9
:102BF4003C80044010D0034000E0074001E007405F
:102C040003E0074080380100448004400070044021
:102C1400048004403880044048900440FFF8FFFEDC
:102C24004C900440084006400040064006400640E0
:102C34000140064003400640005006400C40064058
:102C440028B17A4801687A480140784801600A99B5
:102C5400784801707848007800F0BF01C9B206983E
:102C640000F0FD000143744801700199734801703C
:102C74000B99734801700F98072805D1059840F007
:102C840080017048017002E005996E480170069851
:102C940000F0040048B10B9800F0030028B96A481A
:102CA400007800F0020000B9F9E7059800F004008C
:102CB40038B16548007800F01000002800D1F8E72A
:102CC40005E06148007800F0100000B1F9E70798CA
:102CD40000F0E0015D48007800F01F0001435B480C
:102CE4000170089800F0BF0159480170099800F07C
:102CF400BF0158480170089800F0400028B15448BA
:102D0400007840F04001524801700F98052806D120
:102D14004948007840F00201474801701BE00F98D1
:102D2400062803D00F98072800D014E049480078FB
:102D340040F04001474801704348007800F04000EB
:102D440000B9F9E70F98072805D13E48007800F04C
:102D54003F013C4801700F9818B10F98032800D028
:102D64002CE03948007800F00C0000B1F9E73A484B
:102D7400006840F00101384801604FF00001374815
:102D840001604FF08001364801604FF0050135487D
:102D940001604FF00101324801603148006800F0E1
:102DA400800000B9F9E700212D4801602A48016834
:102DB4006FF001000140284801602AE00F980128C3
:102DC40003D00F98022800D007E01F48007800F0D5
:102DD4000C00042800D0F8E71BE00F98042806D064
:102DE4000F98062803D00F98052800D007E016484E
:102DF400007800F00C00082800D0F8E709E00F98EC
:102E0400072806D11048007800F00C000C2800D0E8
:102E1400F8E7154801686FF00F0001400C9800F0C6
:102E24000F0001431048016010B070474C900440FB
:102E3400FFF8FFFE084006400140064000500640EF
:102E44000C40064000400640064006400340064051
:102E54000440064005400640388004400800044011
:0C2E6400000004400400044048800440CA
:10290C0081B002490248016001B07047C0D4010097
:04291C00B400FF1FE5
:0828D80081B0FEE701B070477A
:1028E00081B072B60849086840F47000086000BF03
:1028F00000BF00BF00BFF1EE100A40F44000E1EE5F
:0C290000100A62B601B0704788ED00E0DC
:1032780000B5DFF824B0DFF824A0DFF824C0FFF79A
:1032880059FADFF820B0DFF820A0DFF820C0FFF7F8
:1032980051FA00BD704700BF0000FF1F4900FF1F23
:1032A800103200004C00FF1F5800FF1F5C32000066
:1033140000B5DFF810B0DFF810A0FFF765FA00BDC4
:0C332400704700BF0000FF1FE000FF1F0B
:100400000000000000000000FFFFFFFF02FDFFFFF3
:102E70000000000014000000010000001600000027
:102E80000200000018000000030000001A0000000B
:102E9000040000001C000000050000001E000000EF
:102EA00009000000200000000600000022000000D1
:102EB0000A000000240000000700000028000000B5
:102EC0000C0000002C00000010000000300000008A
:102ED0001100000038000000120000004000000057
:102EE0000F00000044000000130000004800000034
:102EF0001400000050000000150000005800000001
:102F000019000000600000001600000068000000CA
:102F10001A00000070000000170000008000000090
:102F20001C000000900000001D000000A000000038
:102F30001E000000C000000022000000E0000000B1
:102F40001F000000F000000023000000000100004E
:102F500024000000200100002500000040010000C6
:102F600026000000800100002A000000C0010000CF
:102F700027000000E00100002B000000000200001C
:102F80002C000000400200002D0000008002000024
:102F90002E0000000003000032000000800300004B
:102FA0002F000000C00300003300000000040000F8
:102FB000340000008004000035000000000500001F
:102FC00036000000000600003A0000000007000084
:102FD00037000000800700003B00000000080000F0
:102FE0003C000000000900003D000000000A000055
:102FF0003E000000000C00003F000000000F000039
:103000005103000050030000FFFFFFFF000000001D
:1030100000000000000000000000000000000000B0
:1030200000000000000000000000000000000000A0
:10303000000000000000080000000800FFFFFFFF84
:103040000000000000000000000000000000000080
:103050000000000000000000000000000000000070
:0C30600000000000000000000000000064
:10306C003103000030030000FFFFFFFF00000000F1
:10307C000000000000000000000000000000000044
:10308C000000000000000000000000000000000034
:10309C00000000000000080000000800FFFFFFFF18
:1030AC000000000000000000000000000000000014
:1030BC000000000000000000000000000000000004
:0C30CC00000000000000000000000000F8
:1030D8006303000062030000FFFFFFFF0000000021
:1030E80000000000000000000000000000000000D8
:1030F80000000000000000000000000000000000C8
:10310800000000000000080000000800FFFFFFFFAB
:1031180000000000000000000000000000000000A7
:103128000000000000000000000000000000000097
:0C3138000000000000000000000000008B
:103144006802000069020000FFFFFFFF00000000AA
:10315400000000000000000000000000000000006B
:10316400000000000000000000000000000000005B
:10317400000000000000080000000800FFFFFFFF3F
:10318400000000000000000000000000000000003B
:10319400000000000000000000000000000000002B
:0C31A4000000000000000000000000001F
:1031B000191D0000B91C0000C51C0000AD1C00005A
:1031C000951C0000A11C0000D11C0000011D000086
:1031D0000D1D0000F51C0000DD1C0000E91C0000B6
:1031E000FFFFFFFFFFFFFFFFFFFFFFFFFFFFFFFFEF
:1031F000FFFFFFFFFFFFFFFFFFFFFFFFFFFFFFFFDF
:10320000FFFFFFFFFFFFFFFFFFFFFFFFFFFFFFFFCE
:1032100020202E2E2E2073797374656D20696E69BF
:103220007420646F6E65202E2E2E2020002E2E2EF0
:10323000206170706C69636174696F6E20696E697A
:103240007420646F6E65202E2E2E20200020583AA8
:093250000020593A00205A3A000E
:04325C00000000006E
:04326000000000006A
:043264000000000066
:0C3268003D160000C11000006D160000B3
:04327400A08601002F
:00000001FF
