:020000040800F2
:10000000FCFF0020152400000D2400000D2400003A
:100010000D2400000D2400000D2400000D2400001C
:100020000D2400000D2400000D2400000D2400000C
:100030000D2400000D2400000D2400000D240000FC
:100040000D2400000D2400000D2400000D240000EC
:100050000D2400000D2400000D2400000D240000DC
:100060000D2400000D2400000D2400000D240000CC
:100070000D2400000D2400000D2400000D240000BC
:100080000D2400000D2400000D2400000D240000AC
:100090000D2400000D2400000D2400000D2400009C
:1000A0000D2400000D2400000D2400000D2400008C
:1000B0000D2400000D2400000D2400000D2400007C
:1000C0000D2400000D2400000D2400000D2400006C
:1000D0000D2400000D2400000D2400000D2400005C
:1000E0000D2400000D2400000D2400000D2400004C
:1000F0000D2400000D2400000D2400000D2400003C
:100100000D2400000D2400000D2400000D2400002B
:100110000D2400000D2400000D2400000D2400001B
:100120000D2400000D2400000D2400000D2400000B
:100130000D2400000D2400000D2400000D240000FB
:100140000D2400000D2400000D2400000D240000EB
:1001500081B000F218010A68C2F3400181F0010188
:10016000C9B2C8B201B0704781B000F214010A6888
:1001700000F218010968090442EA0101084601B0C9
:100180007047FFFF81B0CDF800E00B46FFF7ECFFB2
:1001900000EA03029A4240F2000200D10122D0B2EA
:1001A000DDF800E001B0704781B0CDF800E04FF01D
:1001B00000021949884207D118490B6818490A6892
:1001C00018490A601C460BE01749884207D11749B5
:1001D0000B6817490A6813490A601C4600E0144678
:1001E00014490C6003461846FFF7B2FF70B9114975
:1001F000096851B12CB905200A4C2468A047002099
:1002000005E0611E08460446FFE7ECE70120DDF843
:1002100000E001B0704700BF005400404C000020D7
:10022000BC000020B8000020005800405000002012
:10023000C00000205400002083B0CDF800E000F0A2
:10024000FF031A09104603F00F02134614E0194A7F
:1002500002921FE0184A02921CE0184A029219E02A
:10026000174A029216E0174A029213E0164A0292C7
:1002700010E0164A02920DE00028E8D00128E9D0EB
:100280000228EAD00328EBD00428ECD00528EDD0D2
:100290000628EED0012212B29A40ADF8042002984E
:1002A0000A46BDF8041000F071FDDDF800E003B06F
:1002B000704700BF00080140000C014000100140E1
:1002C0000014014000180140001C014000200140C2
:1002D00001480068704700BFB400002083B0CDF82B
:1002E00000E003464FF0000026498B4206D1264924
:1002F0000C6826490A6826490A600BE025498B42AA
:1003000007D12549086825490A6821490A60044639
:1003100000E0044622490C60019402931846FFF75E
:1003200043FF029B019C10B94FF6FF7025E00122AC
:10033000196862F30821196003F214010A68C2F314
:10034000402111B14FF6FF7017E025461C461549B4
:100350002046FFF717FF78B91149096859B135B937
:1003600006200B4C2468A0474FF6FF7005E0691E7D
:1003700008460546FFE7EAE70020DDF800E003B0A5
:10038000704700BF005400404C000020BC0000201B
:10039000B80000200058004050000020C00000209D
:1003A000540000200100030082B0CDF800E00346B5
:1003B00019460191FFF78CFF40F2E83100FB01F292
:1003C00001990A601F490978C1F30311C8B21E4997
:1003D00009180878C0B21A1D1968C140116019497E
:1003E0000988C1F3022188B2174909180878C0B2F8
:1003F00003F20802191D0968C140116011490988FA
:10040000C1F3C22188B2104909180878C0B203F2BA
:100410000C02191D0968C14011600A490988C1F31D
:10042000813188B2094909180978C8B203F210026B
:1004300003F20C010968B1FBF0F11160DDF800E096
:1004400002B0704704100240D1270000442300008E
:1004500081B0CDF800E0012252B23E490A6000F2BC
:1004600068010B686FF0006103EA0102144603F0B3
:100470000061C90E0B4602F00041B1F1004F02D1FC
:1004800035490A6801E035490A6804F47021090C0D
:100490000E464FF6FF7104EA01010D4604F44011C7
:1004A000B1F5401F0DD16FF0706102EA01010E46F7
:1004B0002A490A686FF070610A4028490A6032468A
:1004C00016E004F48011B1F5801F09D14FF003014B
:1004D000B140C94302EA010141F070610A4607E0F8
:1004E000610D090105FA01F1C9430A4042F0706249
:1004F0002BB1610D090105FA01F10A43FFE704F090
:100500000041B1F1004F02D113490A6001E01349E3
:100510000A6040F2000A81464FEA8A0109EB0101B4
:100520000968B1F1FF3F10D009F134014FEA8A03A5
:10053000C91809680A4609EB03010968084611460B
:10054000FFF77AFE0AF1010AE6E7DDF800E001B004
:10055000704700BF000342421C00014004000140FC
:1005600081B00168C1F3401001B0704782B0CDF88E
:1005700000E0029E4FF00005564CA04206D1564CBA
:100580002768564C2568564C25600AE0554CA04219
:1005900006D1554C2768554C2568514C256000E024
:1005A0002F46534C276000F210054C00A4B22C607B
:1005B000B9460746904635461E464E493846FFF72F
:1005C000E1FD88B94A4C24686CB1B9F1000F06D13D
:1005D0000420434C2468A0474FF6FF7076E0A9F151
:1005E00001008146FFE7E8E70020019729463746EA
:1005F000019E7C1EA04226D206F2100508EB0004E4
:1006000024782C603A4CD4F8009082460D463A4942
:100610003046FFF7B7FD88B9354C24686CB1B9F1A5
:10062000000F06D104202E4C2468A0474FF6FF701F
:100630004CE0A9F101008146FFE7E8E70AF1010477
:1006400020462946D5E706F2100508EB0004247879
:100650002C60274C27680D4628493046FFF792FD4D
:1006600070B9234C246854B137B904201C4C246859
:10067000A0474FF6FF7029E0781E0746FFE7EBE73B
:10068000012D05D10125346865F3492434601CE04F
:100690000125346865F308243460154C2768354615
:1006A00017492846FFF76EFD78B9114C24685CB1F4
:1006B00037B904200A4C2468A0474FF6FF7005E0C4
:1006C0007C1E20460746FFE7EAE70020DDF800E051
:1006D00002B07047005400404C000020BC000020D5
:1006E000B80000200058004050000020C00000204A
:1006F00054000020820007008000070084000700EB
:100700000100030081B00268C2F3401101B9FAE7A9
:10071000011D096888B201B07047FFFF82B0CDF8B3
:1007200000E0CFB201469846029B4FF000064FF022
:100730000005C44CA14207D1C34CD4F80090C34C6F
:100740002568C34C25600BE0C24CA14207D1C24CC6
:100750002068C24C2568BE4C2560814600E0A94651
:10076000BF4CC4F80090F4E101F210057C00A4B283
:1007700044F00104A4B22C60019616464F46019A3B
:1007800001F214042568C5F3400464B9B44C24682C
:1007900044B127B90320AE4C2468A047E2E1781E9B
:1007A0000746FFE7ECE700250C6865F38A240C6038
:1007B00001F21404206800BF01F218042468240424
:1007C00040EA04042046012B05D101250C6865F39D
:1007D00049240C6004E001250C6865F308240C60D2
:1007E0009F4C25689146984637460E469D493046AF
:1007F000FFF7C8FC68B99A4C24684CB125B90320AE
:10080000934C2468A047ADE16C1E20460546FFE7E7
:10081000ECE707EB090506F2100424682C70B8F128
:10082000010F13D18E4C216830460568C5F3402472
:100830005CB98B4C24683CB121B90320844C2468FA
:10084000A0478FE1491EFFE7EFE712E0844C2168E3
:1008500030460568C5F300245CB9814C24683CB17E
:1008600021B903207A4C2468A0477BE1491EFFE7A9
:10087000EFE777E101250C6865F38A240C60012518
:100880000C6865F3CB240C6001F210057C00A4B267
:1008900044F00104A4B22C604F4601F21404256810
:1008A000C5F3400464B96E4C246844B127B90320F1
:1008B000674C2468A04755E1781E0746FFE7ECE740
:1008C00001F21404206800BF01F218042468240413
:1008D000204300250C6865F38A240C60604C27686F
:1008E00001F214042568C5F3800464B95C4C2468E3
:1008F00044B127B90320564C2468A04732E1781E42
:100900000746FFE7ECE7012B05D101250C6865F3ED
:1009100049240C6004E001250C6865F308240C6090
:10092000951901F2100424682C70741C151901F239
:10093000100424682C70012B14D1494C22680D68D6
:10094000C5F3402464B9464C246844B122B903205D
:100950003F4C2468A04705E1501E0246FFE7EEE742
:10096000084613E03E4C22680D68C5F3002464B9C4
:100970003B4C246844B122B90320354C2468A0477D
:10098000F0E0501E0246FFE7EEE708460025046847
:1009900065F3CB240460E5E001250C6865F38A2447
:1009A0000C6001F210057C00A4B244F00104A4B272
:1009B0002C604646C846894617461D462A49484681
:1009C000FFF7E0FB78B9264C24685CB1B8F1000F62
:1009D00004D103201E4C2468A047C3E0A8F1010005
:1009E0008046FFE7EAE70021A8464A46B1463B4673
:1009F000A9F10304A14222D2194C25688A46174660
:100A00001E4618493846FFF7BDFB60B9144C2468F0
:100A100044B125B903200E4C2468A047A2E0681E0B
:100A20000546FFE7EDE706EB0A0507F21004246828
:100A30002C700AF10104214633463A46D8E7084CA7
:100A400000F014B8005400404C000020BC0000200E
:100A5000B80000200058004050000020C0000020D6
:100A600054000020400003000200030027680193A7
:100A70000B4616464246019906F214042568C5F352
:100A8000800464B9394C246844B127B90320384C38
:100A90002468A04766E0781E0746FFE7ECE70025DC
:100AA000346865F38A243460CD1806F21004246893
:100AB0002C70581C2D4C23681746024606F214046D
:100AC0002568C5F3800464B9284C246844B123B96F
:100AD0000320274C2468A04744E0581E0346FFE744
:100AE000ECE7012F07D10125346865F34924346010
:100AF0001046324621E00125346865F3082434604D
:100B00001A4CD4F8008017460D461A493046FFF7B4
:100B100039FB78B9154C24685CB1B8F1000F04D1E9
:100B20000320134C2468A0471CE0A8F10100804674
:100B3000FFE7EAE72946324638460D1802F210046C
:100B400024682C70441C0D1902F2100424682C70C7
:100B500008E0B8F1010F3FF407AEB8F1020F3FF41F
:100B600089AE19E7DDF800E002B0704754000020BC
:100B7000B80000200100030081B00168C1F38010BB
:100B800001B0704781B0194900EA0101084600220E
:100B90000EE0042022E0082020E010201EE02020AB
:100BA0001CE040201AE0802018E040F2001015E020
:100BB0000F498842EDD00F498842ECD00E49884257
:100BC000EBD00E498842EAD00D498842E9D00D4960
:100BD0008842E8D00C498842E7D010460B490968A2
:100BE00041EA000209490A6001B0704700FCFFFFBA
:100BF00000080140000C01400010014000140140B9
:100C000000180140001C0140002001401810024063
:100C100081B0CDF800E00348FFF7AEFFDDF800E05B
:100C200001B070470038014081B0CDF800E00348C2
:100C3000FFF796FCDDF800E001B07047005000407F
:100C400081B000F20C02116000F208021368C3F3D5
:100C5000000202B9F8E700F20C02126890B201B08B
:100C60007047FFFF81B0CDF800E00348FFF74AFD71
:100C7000DDF800E001B070470044004081B0CDF8DD
:100C800000E00348FFF778FFDDF800E001B07047AF
:100C9000004C004081B0CDF800E00348FFF732FD82
:100CA000DDF800E001B070470050004081B0CDF8A1
:100CB00000E00348FFF754FCDDF800E001B07047A6
:100CC000004C004081B0CDF800E00348FFF754FF2E
:100CD000DDF800E001B070470048004081B0CDF879
:100CE00000E00348FFF70EFDDDF800E001B07047BB
:100CF000004C004081B0CDF800E00348FFF730FC25
:100D0000DDF800E001B070470044004081B0ADF86C
:100D100000100146BDF800000B68C3F3C01202B911
:100D2000FAE70A1D106001B07047FFFF81B0CDF8EF
:100D300000E00348FFF720FFDDF800E001B0704756
:100D40000044004081B0CDF800E00348FFF708FC04
:100D5000DDF800E001B070470048004081B0CDF8F8
:100D600000E00348FFF7CEFCDDF800E001B070477B
:100D70000048004081B0CDF800E00348FFF7FCFEDA
:100D8000DDF800E001B070470050004081B0CDF8C0
:100D900000E08CB21546774B00EA03031E46184666
:100DA000FFF7F0FEB4F1FF0F0CD1734B9D4203D15E
:100DB0004FF033333360D9E0422D03D14FF0443349
:100DC0003360D3E04FF6FF739C4214D16A4B9D42CF
:100DD00007D14FF033333360341D4FF0333323608A
:100DE000C4E0422D07D14FF044333360341D4FF03F
:100DF00044332360BAE00021002005F001030BB169
:100E000000211DE005F0020333B105F4C0730BB1FE
:100E1000082100E0042113E005F0040333B105F0DC
:100E200020030BB1042100E0002109E005F00803D4
:100E300033B105F020030BB10C2100E00821FFE7DE
:100E40004E4B05EA03030BB1032009E005F40073E0
:100E50000BB1022004E005F480630BB10120FFE731
:100E600005F00C030BB10143FFE704F0FF039BB255
:100E7000002B3BD0376800201FFA84F832462E46FC
:100E800008282CD24FF0010303FA00F408EA040307
:100E9000A34222D185004FF00F03AB40DB4307EAAA
:100EA000030401FA05F344EA03031D4606F48173C3
:100EB000B3F5817F05D102F214044FF001038340A2
:100EC000236006F08203822B05D102F210044FF05A
:100ED0000103834023602F46FFE7401CD0E71760E3
:100EE0001FFA88F00F463146164602E00F462946A3
:100EF000A0B2B0F1FF0F39D9331DD3F80080002222
:100F0000082A30D202F208044FF0010303FA04F475
:100F100000EA0403A34224D195004FF00F03AB4035
:100F2000DB4308EA030807FA05F348EA030801F47B
:100F30008173B3F5817F07D106F2140502F208042C
:100F40004FF00103A3402B6001F08203822B07D1F5
:100F500006F2100502F208044FF00103A3402B60D3
:100F6000FFE7521CCCE7331DC3F80080DDF800E03A
:100F700001B0704700FCFFFF1400080000080800E3
:100F800081B0CDF800E081B20348FFF759FEDDF8EB
:100F900000E001B0704700BF0038004081B0CDF8DC
:100FA00000E081B20348FFF74BFEDDF800E001B03E
:100FB000704700BF0030014081B0CDF800E0034829
:100FC000FFF78CF9DDF800E001B0704700540040F5
:100FD00081B0CDF800E008B413460A46C1B2044817
:100FE000FFF79CFB01B0DDF800E001B0704700BFE7
:100FF0000058004081B0CDF800E008B413460A461E
:10100000C1B20448FFF78AFB01B0DDF800E001B08F
:10101000704700BF0054004081B0CDF800E081B2BD
:101020000348FFF70DFEDDF800E001B0704700BF98
:10103000003C004081B0CDF800E00348FFF762FBC0
:10104000DDF800E001B070470038014081B0CDF814
:1010500000E008B413460A46C1B20448FFF786FA16
:1010600001B0DDF800E001B0704700BF005400405F
:1010700081B0CDF800E00348FFF772FADDF800E038
:1010800001B070470038014089B0CDF800E08346D8
:1010900098B28C46BDF824100A9E04ACADF804103A
:1010A000ADF808002046FFF77FF9BDF80800BDF84D
:1010B0000410644CA34512D101256DB2624C256029
:1010C000624D634C2560634D634C2560634D644CF9
:1010D0002560644D644C2560079C039456E0634C86
:1010E000A34512D101256DB2614C2560614D584C6C
:1010F0002560614D584C2560604D594C2560604D10
:10110000594C2560069C039440E05E4CA34512D1E7
:1011100001256DB25C4C25605C4D4D4C25605C4DED
:101120004D4C25605B4D4E4C25605B4D4E4C256013
:10113000069C03942AE0594CA34512D101256DB2B7
:10114000574C2560574D424C2560574D424C256009
:10115000564D434C2560564D434C2560069C0394E8
:1011600014E0544CA34511D101256DB2524C2560B9
:10117000524D374C2560524D374C2560514D384CFF
:101180002560514D384C2560069C0394ADF8041041
:10119000ADF808003046FFF75BF9BDF80800BDF870
:1011A00004100BF1100500242C600BF110052C68C5
:1011B0000C432C600BF10C0500242C6018B140F49A
:1011C000806080B2FFE70BF10C052C6804432C60B3
:1011D0000BF10C060125346865F34D3434600BF1D6
:1011E0000C060125346865F3C30434600BF10C066A
:1011F0000125346865F3820434600BF11405002482
:101200002C60039D192465434FEA8C04B5FBF4F769
:101210006424B7FBF4F42601350964246C433C1BB9
:10122000240104F232056424B5FBF4F404F00F0445
:1012300046EA04040BF10805A4B22C60DDF800E0D6
:1012400009B0704700380140380342427916000067
:10125000D000002035100000D400002071100000E4
:10126000D8000020110C0000DC00002000440040E9
:10127000C40342425D160000650C0000F50C00003E
:101280002D0D000000480040C803424295160000A2
:101290005D0D0000450D0000C50C0000004C004035
:1012A000CC034242CD160000DD0C0000AD0C000066
:1012B0007D0C000000500040D0034242B1160000F7
:1012C000950C0000290C0000750D000081B0CDF8D0
:1012D00000E008B413460A46C1B20448FFF746F9D5
:1012E00001B0DDF800E001B0704700BF00580040D9
:1012F00088B0CDF800E00E46554B98420DD1012440
:1013000064B2544B1C60544C544B1C60544C554BB1
:101310001C60554C554B1C600FE0554B98420CD14E
:10132000012464B2534B1C60534C4C4B1C60534C17
:101330004C4B1C60524C4D4B1C6001960290104669
:10134000FFF786F80298019E031D1B689CB26FF0A0
:101350003F0304EA03039DB203AB01901846FFF775
:1013600023F80198059F059C464BB4FBF3F399B213
:101370009BB245EA0304A4B2031D1C600024036869
:1013800064F30003036000223F4B9E4212D87300B7
:10139000B7FBF3F4A4B2042C02D204231C46FFE7EB
:1013A00042EA04039AB200F220044B1C9BB2236071
:1013B00091B23FE0032306FB03F4B7FBF4F31FFAFB
:1013C00083F8192306FB03F5B7FBF5F31FFA83F93E
:1013D00008FB04F409FB05F33C1BFB1A9C4205D2F5
:1013E00003237343B7FBF3F4A4B206E0192373435A
:1013F000B7FBF3F4A4B244F4804440F6FF7304EA6C
:10140000030313B944F00104FFE744F400439BB223
:101410001A4392B200F2200540F22C1301FB03F4B0
:10142000A4B240F2E833B4FBF3F39BB25B1C9BB273
:101430002B6091B200F21C031960002303600124A9
:10144000036864F300030360DDF800E008B0704750
:1014500000540040D4034242B90F0000C4000020F1
:10146000F50F0000C80000204D100000CC00002047
:1014700000580040D80342428D140000D10F0000F4
:10148000CD12000040420F00A086010081B0CDF8CF
:1014900000E00348FEF722FFDDF800E001B07047EE
:1014A0000058004083B0CDF800E08AB2014690B207
:1014B00083B2421E90B26BB10A78D4B2ADF8040088
:1014C0000291A0B2054C2468A0470299BDF804001F
:1014D000491CEDE7DDF800E003B07047B0000020E4
:1014E00082B0CDF800E040F20004ADF80440064CB4
:1014F0002468A047BDF9041041EA000000B2DDF8FD
:1015000000E002B0704700BFA400002081B0CDF819
:1015100000E0019D2C4610B408B493B28AB2014693
:101520000348FFF7B1FD02B0DDF800E001B07047FD
:101530000048004081B0CDF800E00A46014603486B
:10154000FFF7D6FEDDF800E001B070470054004020
:1015500081B0CDF800E0019D2C4610B408B493B2E0
:101560008AB201460348FFF78FFD02B0DDF800E0C4
:1015700001B070470038014081B0CDF800E0019D16
:101580002C4610B408B493B28AB201460348FFF760
:101590007BFD02B0DDF800E001B070470044004080
:1015A00081B0CDF800E04FF0420289B2FFF7EEFBC8
:1015B000DDF800E001B0704782B0CDF800E040F205
:1015C0000004ADF80440044C2468A047BDF90400B1
:1015D000DDF800E002B07047A800002083B0CDF82D
:1015E00000E0ADF808100190BDF80830BDF8082003
:1015F000521EADF808204BB10020064C2468A047CD
:10160000019A1070019A521C0192EDE7DDF800E09A
:1016100003B07047AC00002081B0CDF800E0044A70
:1016200089B2FFF7B3FBDDF800E001B0704700BFFF
:101630001400080082B0CDF800E040F20004ADF8DC
:101640000440054C2468A047BDF90440044320B27F
:10165000DDF800E002B07047A000002081B0CDF8B6
:1016600000E081B20348FFF751FBDDF800E001B074
:10167000704700BF0044004081B0CDF800E081B267
:101680000348FFF743FBDDF800E001B0704700BFFF
:101690000038014081B0CDF800E081B20348FFF787
:1016A00035FBDDF800E001B0704700BF00480040A6
:1016B00081B0CDF800E081B20348FFF727FBDDF8E9
:1016C00000E001B0704700BF0050004081B0CDF88D
:1016D00000E081B20348FFF719FBDDF800E001B03C
:1016E000704700BF004C004081B0CDF800E081B2EF
:1016F0000348FFF7A5FADDF800E001B0704700BF2E
:101700000038004081B0CDF800E081B20348FFF717
:1017100097FADDF800E001B0704700BF00300140EB
:1017200081B0CDF800E081B20348FFF789FADDF817
:1017300000E001B0704700BF003C004086B0CDF82B
:1017400000E08DF814200A46304B1B7843BB01ABF8
:10175000187000209DF814305B1C1BB298420ADA06
:10176000441C24B201AB1C1913181B782370431CB2
:10177000D9B2C8B2EEE70120254C2468A04700206A
:10178000244C2468A0479DF814305C1C01ABA1B226
:101790001846FFF787FE01201E4C2468A04730E062
:1017A0001A4B1B78012B2CD10DF10B0420702378E0
:1017B00043F080032370002011469DF814305B1C19
:1017C0001BB298420ADA441C24B20DF10B031C1917
:1017D0000B181B782370431CD8B2EEE701200D4C88
:1017E0002468A047FFF77CFE9DF814305D1C0DF1C6
:1017F0000B04094B1B78AAB22146D8B20123FFF78C
:1018000019FFDDF800E006B0704700BF4900002076
:101810009C000020980000204A00002000F23001C7
:101820001C310A6805490A6000F208010A68044987
:101830000A60011D0A6803490A607047940000208D
:10184000980000209C00002081B00A4681B2002050
:101850008DB21146052805D20B1820221A70401CA3
:10186000C0B2F7E70B1800221A70401EC0B20C1865
:101870000A23B5FBF3F203FB125292B2303222700C
:101880000A22B5FBF2F292B295B202B902E0401E12
:10189000C0B2ECE701B0704744F67F77C0F21207A0
:1018A0007F1EFDD100BF00BF00BF00BF00BF70475B
:1018B00084B0CDF800E002918DF80C20254B1B7808
:1018C00003BB01AC2070237843F080032370012018
:1018D000214C2468A0470020204C2468A04701AB7D
:1018E00001211846FFF7DEFD00201B4C2468A047AD
:1018F0009DF80C100298FFF771FE0120174C246828
:10190000A04722E0134B1B78012B1ED18DF8050058
:1019100040F080038DF805300120104C2468A0476A
:10192000FFF7DEFD0DF105040D4B1B78012221466A
:10193000D8B20023FFF77EFE094B1B789DF80C20E0
:101940000299D8B20123FFF737FEDDF800E004B0BA
:10195000704700BF490000209C0000209800002034
:101960004A00002001490860704700BFB48122424C
:1019700001490860704700BFA80122420149086080
:10198000704700BF9001214201490860704700BFC5
:101990008801224201490860704700BF800121424E
:1019A00001490860704700BFA881224201490860D0
:1019B000704700BFAC01224201490860704700BF78
:1019C000B001224281B0CDF800E00178CCB2A0B2E3
:1019D000034C2468A0470020DDF800E001B0704708
:1019E0009000002081B0CDF800E00168084604496D
:1019F000FFF7A0FD0020DDF800E001B0704700BF58
:101A0000BC26000081B0CDF800E00168084604491A
:101A1000FFF790FD0020DDF800E001B0704700BF47
:101A2000BC26000081B0CDF800E0A9E0012905D175
:101A300040F210016548FFF7B3FD04E040F21001E9
:101A40006248FFF7E9FDBBE0012905D140F204013E
:101A50005F48FFF7A5FD04E040F204015C48FFF792
:101A6000DBFDADE0012905D142F200015948FFF745
:101A700097FD04E042F200015648FFF7CDFD9FE0DC
:101A8000012905D140F200415148FFF789FD04E0EA
:101A900040F200414E48FFF7BFFD91E0012905D11A
:101AA00040F600014A48FFF77BFD04E040F60001E4
:101AB0004748FFF7B1FD83E0012905D141F200015C
:101AC0004348FFF76DFD04E041F200014048FFF795
:101AD000A3FD75E0012905D140F201013B48FFF764
:101AE0005FFD04E040F201013848FFF795FD67E033
:101AF000012905D140F200413648FFF751FD04E0CD
:101B000040F200413348FFF787FD59E0012905D134
:101B100040F200212F48FFF743FD04E040F200218E
:101B20002C48FFF779FD4BE0012905D140F2001167
:101B30002848FFF735FD04E040F200112548FFF783
:101B40006BFD3DE0012905D140F240012248FFF73D
:101B500027FD04E040F240011F48FFF75DFD2FE044
:101B6000012905D140F280011B48FFF719FD04E06F
:101B700040F280011848FFF74FFD21E0012020E0EE
:101B800000283FF453AF01283FF45EAF02283FF432
:101B900069AF03283FF474AF04283FF47FAF0528F2
:101BA0003FF48AAF06283FF495AF0728A0D0082855
:101BB000ACD00928B8D00A28C4D00B28D0D0DDE793
:101BC0000020DDF800E001B0704700BF00080140D0
:101BD0000010014000140140000C014081B0CDF81C
:101BE00000E0A9E0012905D140F220016548FFF796
:101BF000D7FC04E040F220016248FFF70DFDBBE096
:101C0000012905D140F208015F48FFF7C9FC04E053
:101C100040F208015C48FFF7FFFCADE0012905D167
:101C200044F200015948FFF7BBFC04E044F2000114
:101C30005648FFF7F1FC9FE0012905D140F2004131
:101C40005148FFF7ADFC04E040F200414E48FFF779
:101C5000E3FC91E0012905D140F600014A48FFF775
:101C60009FFC04E040F600014748FFF7D5FC83E005
:101C7000012905D141F200014348FFF791FC04E03E
:101C800041F200014048FFF7C7FC75E0012905D18A
:101C900041F200013D48FFF783FC04E041F20001FE
:101CA0003A48FFF7B9FC67E0012905D140F6000189
:101CB0003648FFF775FC04E040F600013348FFF7B3
:101CC000ABFC59E0012905D140F240012F48FFF754
:101CD00067FC04E040F240012C48FFF79DFC4BE01C
:101CE000012905D140F220012848FFF759FC04E002
:101CF00040F220012548FFF78FFC3DE0012905D186
:101D000040F240012248FFF74BFC04E040F2400162
:101D10001F48FFF781FC2FE0012905D140F2800127
:101D20001B48FFF73DFC04E040F280011848FFF734
:101D300073FC21E0012020E000283FF453AF01288C
:101D40003FF45EAF02283FF469AF03283FF474AF5D
:101D500004283FF47FAF05283FF48AAF06283FF4FC
:101D600095AF0728A0D00828ACD00928B8D00A28F9
:101D7000C4D00B28D0D0DDE70020DDF800E001B0B2
:101D8000704700BF000801400010014000140140EE
:101D9000000C014081B0CDF800E0094902B440F2E6
:101DA000000340F2000240F20001FFF7D1FB01B056
:101DB000044A05490A600020DDF800E001B07047E0
:101DC000E4250000791600009000002081B0CDF8D5
:101DD00000E0094902B440F2000340F2000240F280
:101DE0000001FFF7C9FB01B0044A05490A60002061
:101DF000DDF800E001B07047502600005D160000DD
:101E00009000002081B0CDF800E0094902B440F212
:101E1000000340F2000240F20001FFF777FB01B03F
:101E2000044A05490A600020DDF800E001B070476F
:101E300078250000951600009000002081B0CDF8B4
:101E400000E0094902B440F2000340F2000240F20F
:101E50000001FFF791FB01B0044A05490A60002028
:101E6000DDF800E001B07047502600005D1600006C
:101E70009000002001490860704700BFA481224201
:101E800001490860704700BFB0012242026806495C
:101E90000A60011D0A6805490A6000F208010A6823
:101EA00003490A60704700BFA4000020A000002082
:101EB000A800002001490860704700BF98812142B6
:101EC00001490860704700BF9C81214201490860B8
:101ED000704700BF9881224201490860704700BFE7
:101EE0009481224201490860704700BFB0812242BC
:101EF00001490860704700BFAC8122420149086077
:101F0000704700BF9C81214201490860704700BFB3
:101F10009401214201490860704700BFA08122421C
:101F200001490860704700BF98812142014908605B
:101F3000704700BFA801224201490860704700BFF6
:101F4000AC01224201490860704700BF8C01224267
:101F500001490860704700BFB881224281B0CDF8C6
:101F600000E08B4609E05846FFF73CFD0AE0584682
:101F7000FFF748FD06E0012004E00028F3D0012827
:101F8000F5D0F8E7DDF800E001B0704781B0CDF89A
:101F900000E00E46002183B2002805DA012140420C
:101FA00080B280B28FB201E098B28FB23146FFF7B3
:101FB0004BFC06213446B8B2002908D963184A1EE2
:101FC00092B2A21812781A70491E89B2F4E7202240
:101FD000227070B1002081B2204642181278202A67
:101FE00002D1491C89B2F8E74A1E92B283182D2209
:101FF0001A70DDF800E001B07047FFFF81B0CDF846
:1020000000E05FFA81F95FFA82FA0FE05FFA8AF185
:102010005FFA89F0FFF706FD0DE05FFA8AF15FFADB
:1020200089F0FFF7DBFD06E0012004E00028EDD099
:102030000128F2D0F8E7DDF800E001B07047FFFFBB
:1020400082B0CDF800E001A9602008700122602074
:10205000FFF774FBFFF720FC01A98C200870012218
:102060006020FFF76BFB01A911200870012262209C
:10207000FFF764FBDDF800E002B0704783B0CDF8F5
:1020800000E0024610460D228DF808200A228DF845
:1020900009201FE0FFF796FC23E002782AB10190A7
:1020A000FFF790FC0198401CF7E71AE002782AB18C
:1020B0000190FFF787FC0198401CF7E702AA104641
:1020C000FFF780FC0DF109021046FFF77BFC08E0EA
:1020D000062007E00029DDD00129DED00229E5D065
:1020E000F6E70020DDF800E003B0704781B0CDF8DE
:1020F00000E00446094B1A700846FFF7C7FE204669
:10210000FFF78CFB0124064B1C700120054C246852
:10211000A047DDF800E001B0704700BF4A00002092
:10212000490000209800002081B0CDF800E011E0C7
:102130000846FFF767FE16E00846FFF77FFE12E04D
:102140000846FFF727FE0EE00846FFF73FFE0AE0CD
:10215000012008E00028EBD00128EDD02028EFD0A6
:102160003028F1D0F4E7DDF800E001B07047FFFF60
:1021700084B0CDF800E002A9019006226820FFF7A4
:1021800097FB019802AC611C09780180B0F900103E
:10219000090201802278B0F9001011430180821CED
:1021A000E11C09781180821CB2F90010090211802B
:1021B000831CA11C0A78B3F9001011431980021D79
:1021C000611D09781180021DB2F900100902118009
:1021D000031D211D0A78B3F9001011431980DDF8A1
:1021E00000E004B07047FFFF81B01CF8019B0BF8C2
:1021F000019BBBEB0A0FF8D101B0704781B01548C5
:10220000006840F001011348016013491348016060
:1022100010480168124801400E4801600D480168ED
:102220006FF4802001400B4801600C4801686FF496
:10223000FE00014009480160064801686FF0A050A7
:102240000140044801604FF000010648016001B000
:10225000704700BF001002400000FFF00410024071
:10226000FFFFF6FE2C10024081B04FF000094FF046
:10227000000CBDEB0A0F04DCBDEB0B0F01DBD446F9
:10228000EA464BF8049BBBEB0A0FFAD1BCEB0A0FF2
:1022900005DDE246D9F800B00BF1040BF1E701B01F
:1022A0007047FFFFA086010081B0CDF800E01E4816
:1022B000FFF75EFF1D480121FFF7E0FE1A48B0F965
:1022C00000001B49FFF762FE01211948FFF7D6FE07
:1022D00018480121FFF7D2FE1748B0F90000144951
:1022E000FFF754FE01211248FFF7C8FE13480121F1
:1022F000FFF7C4FE1248B0F900000D49FFF746FE93
:1023000002210B48FFF7BAFE44F67F77C0F21207AE
:102310007F1EFDD100BF00BF00BF00BF00BFDDF8C2
:1023200000E001B0704700BF580000203D000020D1
:102330005E000020410000205A00002045000020DF
:102340005C0000200204060881B0CDF800E01E22E7
:102350000C490D48FFF7CAFE48F67F57C0F25B07ED
:102360007F1EFDD100BF00BF00BF00BF00BFFFF751
:1023700067FE06480221FFF781FEDDF800E001B0AC
:10238000704700BFE4270000282700001D00002040
:1023900081B0CDF800E0012207210020FFF72EFEDA
:1023A000002201210020FFF729FE00220221002047
:1023B000FFF724FE0E4801460020FFF7CFFD42F252
:1023C00080512020FFF7B0FE44F67F77C0F212075D
:1023D0007F1EFDD100BF00BF00BF00BF00BF05488A
:1023E0000221FFF74BFEDDF800E001B0704700BFAF
:1023F000A42200000000002081B0024902480160D0
:1024000001B0704740190100B400002081B0FEE720
:1024100001B0704700F00EF800F03EFAFFF7ECFF55
:1024200000F0ECF9FFF7B4FFFFF78EFFFFF73CFF7A
:10243000FCE7FEE781B0CDF800E0464A464B474C4A
:1024400047494BF68030814206D94648006840F043
:1024500002014448016011E045F6C050814206D9AE
:102460004048006840F001013E48016006E03D48F8
:1024700001686FF0070001403A480160FFF7BEFEB7
:102480003948036039480460394802EA0001394894
:10249000016002F0010040B119463648006800F0C2
:1024A0000200002800D1F8E700E0194602F480306D
:1024B00040B10B462F48006800F40030002800D1DE
:1024C000F8E700E00B4602F0805068B12948006848
:1024D00040F08051274801602648006800F0005015
:1024E000002800D1F8E7FFE702F0806078B12148CA
:1024F000006840F080611F48016011461A461D487F
:10250000006800F00060002800D1F8E701E0114603
:102510001A4601F0807070B11648006840F0807172
:102520001448016011461348006800F0007000B9BB
:10253000F9E70A46FFE70C48006800F00C0190003C
:1025400000F00C00814200D0F5E7DDF800E001B0BA
:10255000704700BF8100010502841D004406010090
:102560004019010000200240041002402C100240DB
:10257000FFFF0F000010024038000000390000008B
:10258000FFFFFFFF0000000000000000000000004F
:10259000000000000000000000000000000000003B
:1025A000000000000000000000000000180800000B
:1025B0001800000000000000000000000000000003
:1025C000000000000000000000000000000000000B
:1025D00000000000000000000000000000000000FB
:1025E00030001408090000000A000000FFFFFFFF90
:1025F00000000000000000000000000000000000DB
:1026000000000000000000000000000000000000CA
:102610000000000000000000180800001800000082
:1026200000000000000000000000000000000000AA
:10263000000000000000000000000000000000009A
:102640000000000000000000000000000400000086
:102650003500000036000000FFFFFFFF0000000013
:10266000000000000000000000000000000000006A
:10267000000000000000000000000000000000005A
:102680000000000018080000180000000000000012
:10269000000000000000000000000000000000003A
:1026A000000000000000000000000000000000002A
:1026B00000000000000000000800000816000000F4
:1026C00017000000FFFFFFFF0000000000000000F7
:1026D00000000000000000000000000000000000FA
:1026E00000000000000000000000000000000000EA
:1026F000280800002808000000000000000000007A
:1027000000000000000000000000000000000000C9
:1027100000000000000000000000000000000000B9
:1027200000000000020000007D190000891900006F
:102730006519000071190000AD190000B9190000F9
:1027400095190000A1190000751E0000151F00005A
:10275000211F0000FD1E0000FFFFFFFFFFFFFFFF26
:10276000FFFFFFFFFFFFFFFFFFFFFFFFFFFFFFFF79
:10277000FFFFFFFFFFFFFFFFFFFFFFFFFFFFFFFF69
:10278000FFFFFFFFFFFFFFFF20202E2E2E2073797B
:102790007374656D20696E697420646F6E65202E98
:1027A0002E2E2020002E2E2E206170706C69636109
:1027B00074696F6E20696E697420646F6E65202E77
:1027C0002E2E20200020583A0020593A00205A3A54
:1027D00000000000000102030401020304060708D0
:1027E00009FFFFFFB90F00004D100000F50F0000BA
:1027F00000000000000000000000000000B5DFF84D
:1028000024B0DFF824A0DFF824C0FFF7EDFCDFF8E8
:1028100020B0DFF820A0DFF820C0FFF7E5FC00BD06
:10282000704700BF000000204900002088270000FA
:102830004C00002058000020F0270000FFFFFFFFA1
:10284000FFFFFFFFFFFFFFFFFFFFFFFFFFFFFFFF98
:10285000FFFFFFFFFFFFFFFFFFFFFFFFFFFFFFFF88
:10286000FFFFFFFFFFFFFFFFFFFFFFFFFFFFFFFF78
:10287000FFFFFFFFFFFFFFFFFFFFFFFFFFFFFFFF68
:10288000FFFFFFFFFFFFFFFFFFFFFFFFFFFFFFFF58
:10289000FFFFFFFFFFFFFFFF00B5DFF810B0DFF81D
:1028A00010A0FFF7E1FC00BD704700BF0000002052
:1028B000E0000020FFFFFFFFFFFFFFFFFFFFFFFF24
:00000001FF
