:10000000FCFF0020A12D0000592D0000592D0000FB
:10001000592D0000592D0000592D0000592D0000C8
:10002000592D0000592D0000592D0000592D0000B8
:10003000592D0000592D0000592D0000592D0000A8
:10004000592D0000592D0000592D0000592D000098
:10005000592D0000592D0000592D0000592D000088
:10006000592D0000592D0000592D0000592D000078
:10007000592D0000592D0000592D0000592D000068
:10008000592D0000592D0000592D0000592D000058
:10009000592D0000592D0000592D0000592D000048
:1000A000592D0000592D0000592D0000592D000038
:1000B000592D0000592D0000592D0000592D000028
:1000C000592D0000592D0000592D0000592D000018
:1000D000592D0000592D0000592D0000592D000008
:1000E000592D0000592D0000592D0000592D0000F8
:1000F000592D0000592D0000592D0000592D0000E8
:102DA00000F010F8FFF7DCFF00F0DAFBFFF7EEFFB2
:102DB00000F088FBFFF79CFFFFF772FFFFF720FF93
:042DC000FCE7FEE747
:102B840081B01CF8019B0BF8019BBBEB0A0FF8D139
:042B940001B07047D5
:102BB80081B04FF000094FF0000CBDEB0A0F04DCA8
:102BC800BDEB0B0F01DBD446EA464BF8049BBBEB8D
:102BD8000A0FFAD1BCEB0A0F05DDE246D9F800B0BE
:0A2BE8000BF1040BF1E701B0704798
:102CF00081B0CDF800E0012207210020FFF72EFE71
:102D0000002201210020FFF729FE002202210020DD
:102D1000FFF724FE0E4801460020FFF7D3FE42F2E3
:102D200080510120FFF7A4FE44F67D77C0F2120720
:102D300000BF00BF7F1EFDD100BF00BF00BF054820
:102D40000221FFF73FFEDDF800E001B0704700BF51
:082D5000903400002000002077
:10295C0081B0CDF800E05FFA81F95FFA82FA1DE0F0
:10296C005FFA8AF15FFA89F0FFF7FEFB1FE05FFA6E
:10297C008AF15FFA89F0FFF7DFFC18E05FFA8AF161
:10298C005FFA89F0FFF7C0FD11E05FFA8AF15FFA98
:10299C0089F0FFF7A5FA0AE0012008E00028DFD053
:1029AC000128E4D00228E9D00328EED0F4E7DDF8C2
:0629BC0000E001B07047CD
:1021740081B0CDF800E0A9E0012905D140F20101C8
:102184006548FFF70FFC04E040F201016348FFF7E4
:10219400EBFBBBE0012905D140F240016048FFF7A9
:1021A40001FC04E040F240015E48FFF7DDFBADE0D6
:1021B400012905D140F201015948FFF7F3FB04E07E
:1021C40040F201015748FFF7CFFB9FE0012905D1F9
:1021D40040F220015448FFF7E5FB04E040F22001FF
:1021E4005248FFF7C1FB91E0012905D140F280017B
:1021F4004D48FFF7D7FB04E040F280014B48FFF75E
:10220400B3FB83E0012905D140F240014648FFF7C2
:10221400C9FB04E040F240014448FFF7A5FB75E028
:10222400012905D140F280014148FFF7BBFB04E0DE
:1022340040F280013F48FFF797FB67E0012905D191
:1022440040F210013A48FFF7ADFB04E040F2100100
:102254003848FFF789FB59E0012905D140F2040110
:102264003548FFF79FFB04E040F204013348FFF7D1
:102274007BFB4BE0012905D140F208012E48FFF712
:1022840091FB04E040F208012C48FFF76DFB3DE0B0
:10229400012905D140F220011F48FFF783FB04E028
:1022A40040F220011D48FFF75FFB2FE0012905D113
:1022B40040F210011848FFF775FB04E040F21001EA
:1022C4001648FFF751FB21E0012020E000283FF4ED
:1022D40053AF01283FF45EAF02283FF469AF0328EF
:1022E4003FF474AF04283FF47FAF05283FF48AAF6E
:1022F40006283FF495AF0728A0D00828ACD00928B9
:10230400B8D00A28C4D00B28D0D0DDE70020DDF8EF
:1023140000E001B0704700BF414C0040434C004016
:10232400404C0040424C0040004C0040024C0040F5
:10233400014C0040034C0040204C0040224C004023
:1019A80081B0CDF800E0002424B240F240031BB21D
:1019B80040F2040212B242EA03031BB240F20102EF
:1019C80012B243EA020293B2002210B4FFF75CFDA0
:0A19D80001B0DDF800E001B0704737
:1014900083B0CDF800E08DB20146D0B2BDF90C208A
:1014A00001F0010414B12F02BFB200E0AFB28F4CC3
:1014B0000C1B640965018D4C6419A0468C4CA0423C
:1014C00007D108F10406FD43ADB234882C403480C6
:1014D00007E0884CA04204D108F104052C883C4365
:1014E0002C8040F2010403EA0404A4B23CB108F1E8
:1014F0000606FD43ADB234882C4034800AE040F249
:10150000020403EA0404A4B224B108F106052C88FD
:101510003C432C8040F2040403EA0404A4B23CB12E
:1015200008F10806FD43ADB234882C4034800AE04F
:1015300040F2080403EA0404A4B224B108F1080547
:101540002C883C432C8040F2100403EA0404A4B22B
:101550003CB108F11806FD43ADB234882C4034800C
:101560000AE040F2200403EA0404A4B224B108F122
:1015700018052C883C432C8040F2400403EA040404
:10158000A4B23CB108F11A06FD43ADB234882C4038
:1015900034800AE040F2800403EA0404A4B224B1D7
:1015A00008F11A052C883C432C8003F48074A4B203
:1015B0007CB908F10A06FD43ADB234882C40348072
:1015C00008F10C06FD43ADB234882C403480002075
:1015D00087E01F2A01DD012083E0FFF7A3FC002044
:1015E000B9B2C7B24046102F80F07A8021FA07F4D2
:1015F000A4B204F00104A4B2002C00F06E8000F24A
:101600000A06CD43ADB234882C40348000F20C067B
:10161000CD43ADB234882C40348003F48064A4B24E
:101620002CB1ADF806100024ADF808400DE003F42D
:101630000064A4B22CB10024ADF80640ADF8081047
:1016400003E0ADF80610ADF8081000F20A06358880
:10165000BDF8064045EA0404348000F20C063588E3
:10166000BDF8084045EA04043480234C041B640997
:10167000ADF80440214CA24218D0BDF80440E4006B
:10168000A4B265001E4C65197C08E4B264002E19F2
:1016900007F00104E4B2E5002DB240F2FF04AC40D3
:1016A000A4B2E543ADB234882C403480BDF8044088
:1016B000E400A4B26500124C65197C08E4B2640031
:1016C0002E1907F00104E4B2E5002DB294B204FA39
:1016D00005F5ADB234882C4334807F1CFFB282E71D
:1016E0000020DDF800E003B0704700BF004C004070
:1016F0000000000001000000004C0040000000005D
:04170000085000404D
:100F240081B042F6525103480180022102480180F7
:0C0F340001B07047005000400250004027
:10196C0081B0CDF800E0002424B240F240031BB259
:10197C0040F2040212B242EA03031BB240F201022B
:10198C0012B243EA020293B2012210B4FFF77AFDBD
:0A199C0001B0DDF800E001B0704773
:1023440081B0CDF800E0A9E0012905D140F20801EF
:102354006548FFF727FB04E040F208016348FFF7F4
:1023640003FBBBE0012905D140F280016048FFF77F
:1023740019FB04E040F280015E48FFF7F5FAADE096
:10238400012905D140F204015B48FFF70BFB04E08F
:1023940040F204015948FFF7E7FA9FE0012905D10B
:1023A40040F220015648FFF7FDFA04E040F2200114
:1023B4005448FFF7D9FA91E0012905D140F2800190
:1023C4004F48FFF7EFFA04E040F280014D48FFF771
:1023D400CBFA83E0012905D140F240014848FFF7D8
:1023E400E1FA04E040F240014648FFF7BDFA75E027
:1023F400012905D140F240014348FFF7D3FA04E034
:1024040040F240014148FFF7AFFA67E0012905D1E6
:1024140040F240013648FFF7C5FA04E040F24001BB
:102424003448FFF7A1FA59E0012905D140F204012B
:102434003548FFF7B7FA04E040F204013348FFF7E8
:1024440093FA4BE0012905D140F208012E48FFF729
:10245400A9FA04E040F208012C48FFF785FA3DE0B0
:10246400012905D140F220012148FFF79BFA04E03D
:1024740040F220011F48FFF777FA2FE0012905D128
:1024840040F210011A48FFF78DFA04E040F21001FF
:102494001848FFF769FA21E0012020E000283FF402
:1024A40053AF01283FF45EAF02283FF469AF03281D
:1024B4003FF474AF04283FF47FAF05283FF48AAF9C
:1024C40006283FF495AF0728A0D00828ACD00928E7
:1024D400B8D00A28C4D00B28D0D0DDE70020DDF81E
:1024E40000E001B0704700BF214C0040234C004085
:1024F400414C0040434C0040404C0040424C0040A2
:10250400004C0040024C0040014C0040034C004091
:1025140081B0CDF800E0A9E0012905D140F2020123
:102524006548FFF73FFA04E040F202016348FFF711
:102534001BFABBE0012905D140F280016048FFF796
:1025440031FA04E040F280015E48FFF70DFAADE095
:10255400012905D140F240015948FFF723FA04E06C
:1025640040F240015748FFF7FFF99FE0012905D1E8
:1025740040F220015448FFF715FA04E040F220012C
:102584005248FFF7F1F991E0012905D140F24001E9
:102594004D48FFF707FA04E040F240014B48FFF7CB
:1025A400E3F983E0012905D140F280014648FFF7B1
:1025B400F9F904E040F280014448FFF7D5F975E0E9
:1025C400012905D140F220014148FFF7EBF904E06D
:1025D40040F220013F48FFF7C7F967E0012905D120
:1025E40040F201013C48FFF7DDF904E040F201014B
:1025F4003A48FFF7B9F959E0012905D140F204013D
:102604003548FFF7CFF904E040F204013348FFF7FF
:10261400ABF94BE0012905D140F208012E48FFF740
:10262400C1F904E040F208012C48FFF79DF93DE0B0
:10263400012905D140F280012948FFF7B3F904E0EC
:1026440040F280012748FFF78FF92FE0012905D1D7
:1026540040F240012248FFF7A5F904E040F24001AE
:102664002048FFF781F921E0012020E000283FF411
:1026740053AF01283FF45EAF02283FF469AF03284B
:102684003FF474AF04283FF47FAF05283FF48AAFCA
:1026940006283FF495AF0728A0D00828ACD0092815
:1026A400B8D00A28C4D00B28D0D0DDE70020DDF84C
:1026B40000E001B0704700BF404C0040424C004075
:1026C400214C0040234C0040804C0040824C004090
:1026D400604C0040624C0040014C0040034C004000
:0826E400204C0040224C004094
:101EEC0081B0CDF800E0A9E0012905D140F208014C
:101EFC006548FFF753FD04E040F208016348FFF723
:101F0C002FFDBBE0012905D140F220016048FFF70D
:101F1C0045FD04E040F220015E48FFF721FDADE0F5
:101F2C00012905D140F210015948FFF737FD04E0B3
:101F3C0040F210015748FFF713FD9FE0012905D12E
:101F4C0040F220015048FFF729FD04E040F2200147
:101F5C004E48FFF705FD91E0012905D140F2400103
:101F6C004948FFF71BFD04E040F240014748FFF7EA
:101F7C00F7FC83E0012905D140F280014248FFF7CC
:101F8C000DFD04E040F280014048FFF7E9FC75E0EC
:101F9C00012905D140F220013F48FFF7FFFC04E086
:101FAC0040F220013D48FFF7DBFC67E0012905D139
:101FBC0040F202013848FFF7F1FC04E040F2020164
:101FCC003648FFF7CDFC59E0012905D140F2040158
:101FDC003148FFF7E3FC04E040F204012F48FFF71F
:101FEC00BFFC4BE0012905D140F208012A48FFF75C
:101FFC00D5FC04E040F208012848FFF7B1FC3DE0B5
:10200C00012905D140F280012548FFF7C7FC04E007
:10201C0040F280012348FFF7A3FC2FE0012905D1F2
:10202C0040F240011E48FFF7B9FC04E040F24001C9
:10203C001C48FFF795FC21E0012020E000283FF42C
:10204C0053AF01283FF45EAF02283FF469AF032879
:10205C003FF474AF04283FF47FAF05283FF48AAFF8
:10206C0006283FF495AF0728A0D00828ACD0092843
:10207C00B8D00A28C4D00B28D0D0DDE70020DDF87A
:10208C0000E001B0704700BF804C0040824C004023
:10209C00214C0040234C0040014C0040034C0040BC
:0820AC00204C0040224C0040D2
:102AC40081B0CDF800E011E00846FFF7F1FA16E016
:102AD4000846FFF71DFB12E00846FFF73BFE0EE039
:102AE4000846FFF741FE0AE0012008E00028EBD089
:102AF4000128EDD00228EFD00328F1D0F4E7DDF867
:062B040000E001B0704783
:1020B40081B0CDF800E0DFF8549000F218010B680D
:1020C40000F214010A6800F21001D1F8008000F255
:1020D4000C010F6800F208010E68011D0D68046808
:1020E4001BB212B20FFA88F14DF8049D08B404B47F
:1020F40002B43BB232B229B220B2FFF771FC04B091
:102104000020DDF800E001B0704700BF7832000025
:1019E40084B0CDF800E00FFA80FCADF80410ADF837
:1019F4000820ADF80C30BDF91040ADF81040BDF929
:101A04001440ADF81440BDF91840ADF81840079CD7
:101A14002046FFF7E1FB0F4D0F4C25600F4D104C96
:101A24002560BDF91860BDF91450BDF91040BDF929
:101A34000C30BDF90820BDF904100FFA8CF040B445
:101A440020B410B4FFF712FC03B0DDF800E004B0DA
:101A5400704700BF11130000D0000020211B0000BC
:041A6400D40000208A
:1011DC0081B0CDF800E040F2000A814609F1D80157
:1011EC0009788A453AD20C210AFB01F109EB01017D
:1011FC008B460BF1080109781F2915D10BF1080159
:10120C000978CCB20BF1060109888BB20BF1040101
:10121C0009888AB2DBF80010084691B2002210B49B
:10122C0000F030F901B014E00BF108010978CCB2F0
:10123C000BF1060109888BB20BF1040109888AB203
:10124C00DBF80010084691B2FF2210B400F01AF936
:10125C0001B00AF1010A5FFA8AFABFE7DDF800E093
:04126C0001B0704716
:1012700081B0BDF90460BDF90870BDF90C80184C4F
:10128000258841F23F042540154C2580144C2488C4
:1012900044F00105124C258040EA030424B2344393
:1012A00024B23C4324B244EA080424B244F48075D6
:1012B0002DB20B4C248844EA0505094C2580084CC6
:1012C000248844EA0205064C2580064C2180044C03
:1012D00025884FF6FE742540014C258001B07047EB
:0812E000002000400620004040
:1021140081B0CDF800E0DFF8549000F218010B68AC
:1021240000F214010A6800F21001D1F8008000F2F4
:102134000C010F6800F208010E68011D0D680468A7
:102144001BB212B20FFA88F14DF8049D08B404B41E
:1021540002B43BB232B229B220B2FFF741FC04B060
:102164000020DDF800E001B0704700BF78320000C5
:1027580081B0CDF800E0FFF7E9F80020DDF800E0EF
:0427680001B0704705
:1019340081B0CDF800E00748FFF74EFC06490748A0
:101944000160074907480160FFF726FDDDF800E064
:1019540001B07047E42F000059140000D0000020AB
:08196400F91A0000D400002074
:10139C0081B00021134801801348018841F23F00BD
:1013AC000140114801801048008840F001010E48AE
:1013BC0001800D48008840F429410B4801800A48FF
:1013CC00008840F080010848018002210748018014
:1013DC00054801884FF6FE7001400348018001B0BA
:1013EC00704700BF081C0040001C0040061C004059
:10276C0081B0CDF800E0FFF7DFF80020DDF800E0E5
:04277C0001B07047F1
:102A700081B0CDF800E015E00846FFF781FE1CE0CC
:102A80000846FFF733FE18E00846FFF741FE14E062
:102A90000846FFF74FFE10E00846FFF7DBF90CE0B1
:102AA00001200AE00028E7D00128E9D00228EBD075
:102AB0000328EDD01028EFD0F2E7DDF800E001B0F8
:022AC00070475D
:1027800081B0CDF800E0FFF76BF8044A04490A6015
:102790000020DDF800E001B0704700BF2117000005
:0427A00064000020B1
:1018600081B0CDF800E084460B4A0C490A600C4A6E
:101870000C490A600C4A0D490A600D4A0D490A607C
:101880000D48FFF7ABFC61460C48FFF74BFDDDF858
:1018900000E001B0704700BF21170000E400002005
:1018A000FFFFFFFFE8000020FFFFFFFFEC0000202C
:1018B000FFFFFFFFF0000020082F0000001800408D
:1013240081B0CDF800E007460C463846FFF7C8FA0E
:1013340040F280013846FFF7CBFA40F2000138460C
:10134400FFF778FA40F200013846FFF795FA40F2C9
:1013540000013846FFF796FB40F200013846FFF7DC
:10136400B7FB40F200013846FFF7C4FB214638467C
:10137400FFF7BAFA3846FFF767FBDDF800E001B083
:021384007047B0
:0E08C40081B0018841F00101018001B0704750
:1008D40081B003884FF63F7203EA02020280028865
:0808E4000A43028001B07047D5
:1008380081B031B903884DF6FF7203EA02020280E3
:0C08480002E002880A43028001B0704701
:10087C0081B0B1F5006F03D102880A43028005E014
:10088C0003884FF2FF7203EA0202028001B0704744
:100A880081B019E0038847F6FF7203EA0202028088
:100A980019E0028842F40042028002880A43028078
:100AA80011E0028842F40042028003884BF6FF728C
:100AB80003EA0202028006E00029E3D0B1F5804F84
:0A0AC800E7D00029EDD001B070471F
:100AD40081B0B1F5807F04D1028842F48072028033
:100AE40005E003884FF6FF6203EA0202028001B0C8
:020AF400704749
:100AF80081B0B1F5805F03D102880A43028005E026
:100B080003884EF6FF7203EA0202028001B07047C2
:1008EC0088B0CDF800E005460E4604AA1046FFF786
:1008FC00D1FE04AA11462846FFF77CFF00EE900AB1
:10090C00F8EE600A00EE106AB8EE400A80EE800A3B
:10091C00B0EE401A01AA1046FFF714FFDDED010AF4
:10092C00FCEE600A10EE902A92B291B2414A00EEAF
:10093C00902A20EE200ABCEE400A10EE100A80B27B
:10094C0005F2080423884FF6FE7203EA02022280A5
:10095C0010292ED905F208031A8842F001021A80D8
:10096C00B3EE000A81EE000ABCEE400A10EE102A2B
:10097C0092B2ADF80820B3EE000AC1EE000AB3EE55
:10098C00000A81EE000ABCEE400A10EE102A92B268
:10099C0000EE102AB8EE400A70EEC00AB3EE000A60
:1009AC0020EE800ABCEE400A10EE102A92B2ADF88E
:1009BC000A2020B90022ADF80C20284616E00124AC
:1009CC002946242C11D263001B4AD218128890425B
:1009DC0008D2621E12B25300184AD2181288ADF80F
:1009EC000C2002E0641CE4B2EBE70846831D0022F5
:1009FC001A80841D2388BDF8082043EA0202228055
:100A0C0000F208031A8802F001021A8000F20804AE
:100A1C00BDF80C2013029BB2BDF80A20120192B251
:100A2C0013439BB222881A432280DDF800E008B001
:100A3C00704700BF00401C4646340000FE330000E7
:1006A00082B0CDF800E004462849096801F4E06111
:1006B000090A08462549096801F0E061090E0A4661
:1006C000214601911146FFF7EFFD019908601F498E
:1006D000096801F07001090908461C49096801F41C
:1006E000E001090D0A4604F2080101911146FFF7E5
:1006F000DBFD019908601549096801F070010909DD
:1007000008461249096801F0E041090F0A4604F25F
:100710000C0101911146FFF7C7FD019908600B49D3
:10072000096801F0070108460849096801F4E02159
:10073000090C0A46211D01911146FFF7B5FD0199EB
:100740000860DDF800E002B0704700BF0804014017
:1002A80081B0CDF800E002460846FFF779FFC3B2F7
:1002B80071E0424A126802F00102D2B140F2010034
:1002C800FFF758FF3D4A126802F001028AB13C4A22
:1002D800126802F400422AB14FF4FA3292FBF3F2A8
:1002E800104666E048F20002B2FBF3F292B290B216
:1002F8005FE0344A1268B2FBF3F2104659E02F4A25
:10030800126802F00202D2B140F20200FFF732FF97
:100318002A4A126802F002028AB1294A126802F4D3
:1003280000422AB14FF4FA3292FBF3F2104640E051
:1003380048F20002B2FBF3F292B290B239E0224ADC
:100348001268B2FBF3F2104633E0204A1268B2FB9F
:10035800F3F210462DE01A4A126802F400422AB15C
:100368004FF4FA3292FBF3F2104622E048F2000210
:10037800B2FBF3F292B290B21BE0FFF7BDFEB0FB06
:10038800F3F2104615E0124A1268B2FBF3F2104677
:100398000FE000200DE0002A3FF48BAF052AAED015
:1003A800012AD2D0022AD6D0032AE6D0042AEAD0DB
:1003B800EFE7DDF800E001B0704700BF48040140F6
:1003C80030040140D8000020DC0000205C00002040
:0403D80060000020A1
:1001A80081B0012109B2814009B208B201B070479B
:10017C0081B0074A07490A600749096841EA000249
:10018C0005490A60012203490A6001B0704700BFAB
:0C019C005A6900000004014050040140BA
:1001000082B01748006800F4E02114E0154801901F
:1001100023E01548019020E0144801901DE01448A8
:1001200001901AE01348019017E01348019014E081
:100130000020019011E00029E8D0B1F5803FE8D01F
:10014000B1F5003FE8D0B1F5403FE8D0B1F5802FE0
:10015000E8D0B1F5A02FE8D0EAE7019802B07047E7
:100160000404014060E31600C0C62D00808D5B00D2
:0C017000001BB70000366E01006CDC02C2
:1008000081B0028802F0C00292B2920992B290B214
:100810000AB900200EE0012802D10A68104609E05A
:10082000022802D0032800D004E001F20C02126872
:080830001046FFE701B070471C
:1007500082B08DED010A9DED010AB5EEC00AF1EE01
:1007600010FA0ADBDDED010AB7EE000AF4EEC00A6A
:10077000F1EE10FA01DA012100E0002189B9DDED86
:10078000010ABFEE000AF4EEC00AF1EE10FA07DD2E
:100790009DED010AB5EEC00AF1EE10FA00DC00E0B2
:1007A00008E04FF0000100EE101A00ED000A9DED88
:1007B000010A23E001A90968C90D01F0FF017F3991
:1007C00089B2182908D99DED010A00ED000A4FF001
:1007D000000100EE101A11E09DED010ABDEE400A85
:1007E00010EE101A00EE101AB8EEC00A00ED000A62
:1007F00050ED000A9DED010A30EE600A02B070472C
:100A4C0081B002884FF6FE7102EA0101018001B00B
:020A5C007047E1
:1026EC0081B0CDF800E0FFF785F8044A04490A6090
:1026FC000020DDF800E001B0704700BFE5170000D6
:04270C006400002045
:1018000081B0CDF800E084460B4A0C490A600C4ACE
:101810000C490A600C4A0D490A600D4A0D490A60DC
:101820000D48FFF7DBFC61460C48FFF77BFDDDF858
:1018300000E001B0704700BFE5170000E4000020A1
:10184000FFFFFFFFE8000020FFFFFFFFEC0000208C
:10185000FFFFFFFFF0000020C03000000014004038
:1027100081B0CDF800E0FFF773F8044A04490A607D
:102720000020DDF800E001B0704700BFE5170000B1
:042730006400002021
:1027340081B0CDF800E0FFF761F8044A04490A606B
:102744000020DDF800E001B0704700BFE51700008D
:0427540064000020FD
:101E540081B0CDF800E0FFF73BFD044A04490A6075
:101E64000020DDF800E001B0704700BFC91A00008F
:041E740064000020E6
:1018D40081B0CDF800E084460B4A0C490A600C4AFA
:1018E4000C490A600C4A0D490A600D4A0D490A6008
:1018F4000D48FFF771FC61460C48FFF711FDDDF858
:1019040000E001B0704700BFC91A0000E4000020E5
:10191400FFFFFFFFE8000020FFFFFFFFEC000020B7
:10192400FFFFFFFFF00000209C310000001000408A
:1029C40083B0CDF800E0024610460D228DF80820B1
:1029D4000A228DF809201FE0FFF74CFA23E0027861
:1029E4002AB10190FFF746FA0198401CF7E71AE074
:1029F40002782AB10190FFF73DFA0198401CF7E7ED
:102A040002AA1046FFF736FA0DF109021046FFF745
:102A140031FA08E0062007E00029DDD00129DED0E4
:102A24000229E5D0F6E70020DDF800E003B07047A6
:101E780081B0CDF800E00178CCB2A0B2034C246860
:101E8800A0470020DDF800E001B0704764000020A2
:1018C00081B0CDF800E0FFF7CBFBDDF800E001B020
:0218D00070475F
:1010600081B00649098801B1FBE7054908800349B9
:10107000098801B1FBE701B0704700BF400102429F
:041080000E1000400E
:101A8C0081B0CDF800E0FFF791FADDF800E001B08D
:021A9C00704791
:100FB80081B00649098801B1FBE705490880034962
:100FC800098801B1FBE701B0704700BF40810242C8
:040FD8000E140040B3
:101B0C0081B0CDF800E0FFF7C9FADDF800E001B0D4
:021B1C00704710
:1010A80081B00649098801B1FBE705490880034971
:1010B800098801B1FBE701B0704700BF4001034256
:0410C8000E180040BE
:101AF80081B0CDF800E0FFF75BFBDDF800E001B056
:021B0800704724
:1011B80081B00649098801B1FBE705490880034960
:1011C800098801B1FBE701B0704700BF40810342C5
:0411D8000E1C0040A9
:101B200081B0CDF800E0FFF7D1FADDF800E001B0B8
:021B30007047FC
:1010CC0081B00649098801B1FBE70549088003494D
:1010DC00098801B1FBE701B0704700BF0001044271
:0410EC000E20004092
:101AB40081B0CDF800E0FFF735FBDDF800E001B0C0
:021AC400704769
:1011280081B00649098801B1FBE7054908800349F0
:10113800098801B1FBE701B0704700BF0081044294
:041148000E24004031
:101AA00081B0CDF800E0FFF723FBDDF800E001B0E6
:021AB00070477D
:1010F00081B00649098801B1FBE705490880034929
:10110000098801B1FBE701B0704700BF000105424B
:041110000E28004065
:101AE40081B0CDF800E0FFF72FFBDDF800E001B096
:021AF400704739
:10114C0081B00649098801B1FBE7054908800349CC
:10115C00098801B1FBE701B0704700BF008105426F
:04116C000E2C004005
:101AC80081B0CDF800E081B20348FFF783FADDF872
:0C1AD80000E001B0704700BF00100040AB
:100FDC0081B0ADF800100146BDF8000001F20A0224
:100FEC00128802F0010292B202B1F7E701F20E028E
:060FFC00108001B07047F7
:1017E40081B0CDF800E081B20348FFF7F5FBDDF8E6
:0C17F40000E001B0704700BF001400408E
:1017200081B0CDF800E081B20348FFF757FCDDF847
:0C17300000E001B0704700BF001800404E
:1017040081B0CDF800E081B20348FFF765FCDDF855
:0C17140000E001B0704700BF001C004066
:102CA00081B0CDF800E00C490C48FFF705FE48F66E
:102CB0007D57C0F25B0700BF7F1EFDD100BF00BF84
:102CC00000BF00BFFFF7B6FE05480221FFF77AFEFE
:102CD000DDF800E001B07047081D0000543300002B
:042CE00000000020D0
:1028B80081B0CDF800E003460846FFF79DFA1846B8
:1028C800FFF7E0F90023054A13700120044C24683F
:1028D800A047DDF800E001B0704700BF4A000020C3
:0428E800AC00002020
:0C1E980001490870704700BF60880942D3
:0C1E300001490870704700BF5888094243
:0C1E3C0001490870704700BF408809424F
:0C1E480001490870704700BF5480094237
:0C1EC80001490870704700BF5C800942AF
:0C1ED40001490870704700BF58800942A7
:0C1EE00001490870704700BF7C80094277
:0C1EA40001490870704700BF70800942BF
:0C1EB00001490870704700BF48840942D7
:0C1EBC0001490870704700BF4C840942C7
:0C287C0001490870704700BF74880942D1
:0C28880001490870704700BF70880942C9
:0C28940001490870704700BF6C840942C5
:0C28700001490870704700BF7C880942D5
:0C284C0001490870704700BF488809422D
:0C28580001490870704700BF548009421D
:0C28640001490870704700BF5C80094209
:0C28A00001490870704700BF58800942D1
:0C28AC0001490870704700BF78800942A5
:0C27D40001490870704700BF7888094276
:0C27E00001490870704700BF6880094282
:0C27EC0001490870704700BF6C80094272
:0C27C80001490870704700BF7488094286
:0C27A40001490870704700BF70880942AE
:0C27B00001490870704700BF44880942CE
:0C27BC0001490870704700BF7C8409428E
:0C28280001490870704700BF7884094225
:0C28340001490870704700BF5490094231
:0C28400001490870704700BF5890094221
:0C281C0001490870704700BF5C90094241
:0C27F80001490870704700BF548C094272
:0C28040001490870704700BF6080094265
:0C28100001490870704700BF6880094251
:0C1E240001490870704700BF6C80094243
:0C1B700001490870704700BF5C84094206
:0C1B7C0001490870704700BF58840942FE
:0C1B880001490870704700BF4C900942F2
:0C1BA00001490870704700BF74840942BE
:0C1B940001490870704700BF70840942CE
:0C1B400001490870704700BF5490094232
:0C1B340001490870704700BF589009423A
:0C1B4C0001490870704700BF5C9009421E
:0C1B580001490870704700BF748009420A
:0C1B640001490870704700BF648009420E
:0C1DE80001490870704700BF6880094284
:0C1DDC0001490870704700BF6C8009428C
:0C1DF40001490870704700BF5C84094280
:0C1E180001490870704700BF588409425F
:101E0000026803490A60011D0A6802490A607047B6
:081E1000B8000020A80000202A
:101C8C0000F230011C310A6805490A6000F20801B3
:101C9C000A6804490A60011D0A6803490A60704712
:0C1CAC00B4000020B0000020AC000020BC
:102A340082B0CDF800E001A9632008700122602073
:102A4400FFF7B2F8FFF762F901A98C2008700122A0
:102A54006020FFF7A9F801A9112008700122622063
:0C2A6400FFF7A2F8DDF800E002B07047B8
:101BAC0086B0CDF800E08DF814200A46304B1B7837
:101BBC0043BB01AB187000209DF814305B1C1BB2AA
:101BCC0098420ADA441C24B201AB1C1913181B7876
:101BDC002370431CD9B2C8B2EEE70120254C24680F
:101BEC00A0470020244C2468A0479DF814305C1CAE
:101BFC0001ABA1B21846FFF7D1FD01201E4C2468A1
:101C0C00A04730E01A4B1B78012B2CD10DF10B04A3
:101C1C002070237843F080032370002011469DF838
:101C2C0014305B1C1BB298420ADA441C24B20DF12E
:101C3C000B031C190B181B782370431CD8B2EEE74E
:101C4C0001200D4C2468A047FFF7A4FD9DF814302B
:101C5C005D1C0DF10B04094B1B78AAB22146D8B2BE
:101C6C000123FFF783FDDDF800E006B0704700BFED
:101C7C004A000020AC000020B00000204B000020E7
:1017A80083B0CDF800E08AB2014690B283B2421EFF
:1017B80090B26BB10A78D4B2ADF804000291A0B22D
:1017C800054C2468A0470299BDF80400491CEDE7C0
:0C17D800DDF800E003B07047B80000200E
:0817A00040F2000000B27047A6
:1017780082B0CDF800E040F20004ADF80440054C1A
:101788002468A047BDF90440044320B2DDF800E016
:0817980002B07047A000002020
:1013FC0081B0CDF800E008B413460A46C1B20448E7
:10140C00FFF798FB01B0DDF800E001B0704700BFBA
:04141C00002000406C
:100B400087B0CDF800E08DF8041001469DF8040050
:100B500005920693079C07944C4CA1420AD14C4D38
:100B60002C6803942C46246804944A4C25684A4C0B
:100B7000256028E0494CA1420AD1494D2C680394D4
:100B80002C4624680494474C2568434C25601AE0A1
:100B9000454CA1420AD1454D2C6803942C4624684B
:100BA0000494434C25683C4C25600CE0414CA14228
:100BB00009D1414D2C6803942C46246804943F4C81
:100BC0002568354C256001910291C1B20298FFF76A
:100BD0004BFD01993A4C247854B901910846012102
:100BE000FFF796FC019908B101204BE00D461FE08C
:100BF00001250C8865F304140C8008460588C5F3AC
:100C000080046CB1049C54B1039C2CB90720224C85
:100C10002468A047012035E0039C641E0394EDE79F
:100C2000048844F0020404800025254C2570054604
:100C300000262A463146069CA14214D2059C64181F
:100C4000247801920291E1B21046FFF7C7FB0299A6
:100C5000019A20B11046FFF749FC012012E04C1C1C
:100C600026463146E7E7079C012C07D11046FFF7DF
:100C70003DFC002801D0012004E002E00125104CD9
:100C800025700020DDF800E007B07047002000402C
:100C90004C000020C0000020BC00002000240040C8
:100CA00050000020C4000020002800405400002014
:100CB000C8000020002C004058000020CC0000207C
:040CC00049000020C7
:1006680081B000F2140212888A420FD000F21602FA
:1006780012888A420AD000F2180212888A4205D0EB
:1006880000F21A0212888A4200D000E002E000F26A
:080698002002118001B070473F
:1005100085B0CDF800E0CCB20146464A91420AD1FE
:10052000454B1A6803921A4612680492434A1368AC
:10053000434A136028E0434A91420AD1424B1A6869
:1005400003921A4612680492404A13683C4A1360A8
:100550001AE03F4A91420AD13E4B1A6803921A466A
:10056000126804923C4A1368354A13600CE03B4A17
:10057000914209D13A4B1A6803921A4612680492C2
:10058000384A13682E4A13608DF8044002910846D9
:10059000FFF71EFE02999DF8044008B1012044E0D7
:1005A000E3B20A8863F304120A800A8842F0020266
:1005B0000A80012C1CD1084600F22C021388C3F3D8
:1005C00040026AB9049A52B1039A2AB906201C4C17
:1005D0002468A047012028E0039A521E0392EBE70B
:1005E00000F22C040023228863F3410222801BE0E6
:1005F000084600F22C021388C3F300026AB9049A79
:1006000052B1039A2AB906200D4C2468A047012054
:100610000BE0039A521E0392EBE700F22C04002336
:10062000228863F3000222800020DDF800E005B09C
:10063000704700BF002000404C000020C000002098
:10064000BC0000200024004050000020C400002016
:100650000028004054000020C8000020002C00406A
:0806600058000020CC0000202E
:1001D00083B0CDF800E0274988420AD1264A116849
:1001E000019111460968029124490A6824490A606C
:1001F00028E0244988420AD1234A11680191114616
:100200000968029121490A681D490A601AE02049DB
:1002100088420AD11F4A116801911146096802916A
:100220001D490A6816490A600CE01C49884209D138
:100230001B4A1168019111460968029119490A681F
:100240000F490A6003461846FFF7B6FF68B90299DE
:1002500051B1019929B90520094C2468A047012012
:1002600004E00199491E0191EDE70020DDF800E06E
:1002700003B07047002000404C000020C000002068
:10028000BC0000200024004050000020C4000020DA
:100290000028004054000020C8000020002C00402E
:0802A00058000020CC000020F2
:1001B80081B000F208010A88C2F3001181F0010140
:0801C800C9B2C8B201B07047D2
:1003DC0083B0CDF800E0354A90420AD1344B1A680C
:1003EC0001921A4612680292324A1368324A13601A
:1003FC0028E0324A90420AD1314B1A6801921A46CF
:10040C00126802922F4A13682B4A13601AE02E4A84
:10041C0090420AD12D4B1A6801921A461268029228
:10042C002B4A1368244A13600CE02A4A904209D1E3
:10043C00294B1A6801921A4612680292274A1368CD
:10044C001D4A136000F22C021388C3F3401232B120
:10045C0000F22C040023228863F34512228000F260
:10046C000E02118000F22C021388C3F340026AB909
:10047C00029A52B1019A2AB904200F4C2468A04761
:10048C0001200FE0019A521E0192EBE700F22C04BE
:10049C000023228863F34102228000F22C0213888D
:1004AC00C3F34010DDF800E003B0704700200040BB
:1004BC004C000020C0000020BC00002000240040A4
:1004CC0050000020C40000200028004054000020F0
:1004DC00C8000020002C004058000020CC00002058
:1004EC0081B0CDF800E00122018862F38201018025
:1004FC00FFF768FE08B1012000E00020DDF800E005
:04050C0001B0704783
:1010040081B0CDF800E008B413460A46C1B20448E2
:10101400FFF794FD01B0DDF800E001B0704700BFB8
:041024000024004064
:1011700081B0CDF800E008B413460A46C1B2044875
:10118000FFF7DEFC01B0DDF800E001B0704700BF02
:0411900000280040F3
:1011940081B0CDF800E008B413460A46C1B2044851
:1011A400FFF7CCFC01B0DDF800E001B0704700BFF0
:0411B400002C0040CB
:101D100044F67D77C0F2120700BF00BF7F1EFDD1E1
:081D200000BF00BF00BF7047C7
:102C000081B0CDF800E01E48FFF780FF1D4801218C
:102C1000FFF7D8FE1A48B0F900001B49FFF766FE1F
:102C200001211948FFF7CEFE18480121FFF7CAFE1F
:102C30001748B0F900001449FFF758FE0121124867
:102C4000FFF7C0FE13480121FFF7BCFE1248B0F9A0
:102C500000000D49FFF74AFE02210B48FFF7B2FEC4
:102C600044F67D77C0F2120700BF00BF7F1EFDD182
:102C700000BF00BF00BFDDF800E001B0704700BF3B
:102C8000680000203D0000206E0000204100002070
:0C2C90006A000020450000206C000020BD
:102B0C0084B0CDF800E002A9019006226820FFF7FE
:102B1C0005F9019802AC611C09780180B0F900102C
:102B2C00090201802278B0F9001011430180821C47
:102B3C00E11C09781180821CB2F900100902118085
:102B4C00831CA11C0A78B3F9001011431980021DD3
:102B5C00611D09781180021DB2F900100902118063
:102B6C00031D211D0A78B3F9001011431980DDF8FB
:062B7C0000E004B0704708
:101D280084B0CDF800E002918DF80C20254B1B788B
:101D380003BB01AC2070237843F08003237001209B
:101D4800214C2468A0470020204C2468A04701AB00
:101D580001211846FFF724FD00201B4C2468A047EA
:101D68009DF80C100298FFF7E5FC0120174C246839
:101D7800A04722E0134B1B78012B1ED18DF80500DC
:101D880040F080038DF805300120104C2468A047EE
:101D9800FFF702FD0DF105040D4B1B7801222146CA
:101DA800D8B20023FFF7E4FC094B1B789DF80C2000
:101DB8000299D8B20123FFF753FEDDF800E004B022
:101DC800704700BF4A000020AC000020B00000208F
:041DD8004B0000209C
:10173C0083B0CDF800E0ADF808100190BDF808308A
:10174C00BDF80820521EADF808204BB10020064C05
:10175C002468A047019A1070019A521C0192EDE77F
:0C176C00DDF800E003B07047A80000208A
:1011140081B0CDF800E0FFF7A1FCDDF800E001B0FC
:02112400704712
:100A600081B0CDF800E000F0FBFA0549098801B13A
:100A7000FBE704490888DDF800E001B0704700BFDB
:080A8000400102420C1000408D
:10104C0081B0CDF800E0FFF723FCDDF800E001B043
:02105C007047DB
:10089C0081B0CDF800E000F089FB0549098801B171
:1008AC00FBE704490888DDF800E001B0704700BFA1
:0808BC00408102420C140040CF
:1014440081B0CDF800E0FFF703FADDF800E001B069
:021454007047DF
:1008540081B0CDF800E000F025FC0549098801B11C
:10086400FBE704490888DDF800E001B0704700BFE9
:08087400400103420C18004092
:1014580081B0CDF800E0FFF783FDDDF800E001B0D2
:021468007047CB
:100F680081B0CDF800E000F023F90549098801B106
:100F7800FBE704490888DDF800E001B0704700BFCE
:080F8800408103420C1C0040F3
:1013100081B0CDF800E0FFF73BFEDDF800E001B062
:02132000704714
:100F900081B0CDF800E000F099F80549098801B169
:100FA000FBE704490888DDF800E001B0704700BFA6
:080FB000000104420C20004086
:1013880081B0CDF800E0FFF799FCDDF800E001B08E
:0213980070479C
:100CC40081B0CDF800E000F02DFA0549098801B1A2
:100CD400FBE704490888DDF800E001B0704700BF75
:080CE400008104420C240040D1
:1012FC0081B0CDF800E0FFF709FCDDF800E001B0AB
:02130C00704728
:100B180081B0CDF800E000F0E7FA0549098801B195
:100B2800FBE704490888DDF800E001B0704700BF22
:080B3800000105420C280040F9
:1012E80081B0CDF800E0FFF727FEDDF800E001B09F
:0212F80070473D
:100F400081B0CDF800E000F001F90549098801B150
:100F5000FBE704490888DDF800E001B0704700BFF6
:080F6000008105420C2C004049
:101A680082B0CDF800E040F20004ADF80440044C28
:101A78002468A047BDF90400DDF800E002B0704713
:041A8800A400002096
:1014200081B0CDF800E008B413460A46C1B20448C2
:10143000FFF75CFC01B0DDF800E001B0704700BFD1
:041440000020004048
:100CEC0087B0CDF800E08DF8041001469DF80400A3
:100CFC00079E7B4CA1420AD17A4D2C6805942C4658
:100D0C0024680694784C2568784C256028E0784C4B
:100D1C00A1420AD1774D2C6805942C462468069480
:100D2C00754C2568714C25601AE0744CA1420AD1AF
:100D3C00734D2C6805942C4624680694714C2568D8
:100D4C006A4C25600CE0704CA14209D16F4D2C68A7
:100D5C0005942C46246806946D4C2568634C2560DC
:100D6C00019202910391C1B20398FFF777FC0299AB
:100D7C00019A684C24787CB90196029303920491F1
:100D8C0008460021FFF7BEFB0499039A029B019EC3
:100D9C0000B1A0E0304661E000250C8865F3041436
:100DAC000C80012B39D130460D88C5F3800464B119
:100DBC00069C4CB1059C24B907204C4C2468A047D8
:100DCC0089E0059C641E0594EEE7069C05940C884E
:100DDC0044F002040C80019111461A460346019816
:100DEC000588C5F3400464B1069C4CB1059C24B93C
:100DFC0006203E4C2468A0476DE0059C641E0594BB
:100E0C00EEE7069C0594048844F0040404800192E7
:100E1C000A4601461846019B1DE001930B463046DD
:100E2C0001991D88C5F3800464B1069C4CB1059CE6
:100E3C0024B907202D4C2468A0474CE0059C641E67
:100E4C000594EEE7069C05941C8844F002041C8073
:100E5C0001930B46019900252E4C25705C1E2346F0
:100E6C0001931346019A002A31DB01F22C042588E8
:100E7C00C5F3000464B9069C4CB1059C24B903204D
:100E8C001A4C2468A04726E0059C641E0594ECE7E8
:100E9C0016E001F20C0424881C705B1C15E0012583
:100EAC000C8865F382040C8001F20C0424881C70FD
:100EBC005B1C0AE001F20C0424881C705B1C04E02F
:100ECC00002AE6D0012AEAD0F4E7521ECBE710B98B
:100EDC000125104C2570DDF800E007B0704700BF0D
:100EEC00002000404C000020C0000020BC0000206E
:100EFC000024004050000020C400002000280040C6
:100F0C0054000020C8000020002C00405800002095
:080F1C00CC0000204900002078
:10146C0081B0CDF800E008B413460A46C1B2044876
:10147C00FFF736FC01B0DDF800E001B0704700BFAB
:04148C0000240040F8
:1010280081B0CDF800E008B413460A46C1B20448BE
:10103800FFF758FE01B0DDF800E001B0704700BFCF
:04104800002800403C
:1010840081B0CDF800E008B413460A46C1B2044862
:10109400FFF72AFE01B0DDF800E001B0704700BFA1
:0410A400002C0040DC
:1028EC0081B0CDF800E00E46002183B2002805DA55
:1028FC000121404280B280B28FB201E098B28FB217
:10290C003146FFF7D3F906213446B8B2002908D96D
:10291C0063184A1E92B2A21812781A70491E89B214
:10292C00F4E72022227070B1002081B220464218B8
:10293C001278202A02D1491C89B2F8E74A1E92B2B9
:0E294C0083182D221A70DDF800E001B07047EC
:101CB80081B00A4681B200208DB21146052805D2AE
:101CC8000B1820221A70401CC0B2F7E70B1800222C
:101CD8001A70401EC0B20C180A23B5FBF3F203FBBE
:101CE800125292B2303222700A22B5FBF2F292B24C
:101CF80095B202B902E0401EC0B2ECE701B07047ED
:102DC40083B0CDF800E0374B374C384D384E394F8F
:102DD400394845F680213948018004F00700052868
:102DE40004D004F07000502800D00BE0012252B24D
:102DF40033480280002149B23248018032480280BF
:102E040032480180802132480160019502961E46B5
:102E140025463A46029B019C2E48006800F48070C7
:102E240000B1F9E72C492D4801600195114632465D
:102E34001D46019B2748006800F4807000B1F9E743
:102E4400274801602748016027492848016028482D
:102E5400026028480360200D00F0070028B944F000
:102E64000301254801602A4610E044F4803040F014
:102E74000301214801602A462048006830B1FFF769
:102E84008DFE012149B21E480160F5E70021174873
:102E9400016042F4B44109480180DDF800E003B068
:102EA400704700BF0000050033000000030001006C
:102EB400840000000010000080BB00000C480040AB
:102EC4004CA509428CA5094248A5094288A5094296
:102ED400143004E00400014001005A69000001407C
:102EE40010100140141001405A6900000004014010
:102EF40004040140080401400C04014004892042F8
:042F0400048A2042D9
:102BA00040F20907C0F2000700BF00BF7F1EFDD141
:082BB00000BF00BF00BF704729
:102D8C0081B002490248016001B0704780BB00006D
:042D9C00E000002033
:082D580081B0FEE701B07047F5
:102D600081B04EF68850CEF20000016841F4700147
:102D7000016000BF00BF00BF00BFF1EE100A40F4C9
:0A2D80004000E1EE100A01B07047B8
:1034C40000B5DFF824B0DFF824A0DFF824C0FFF74C
:1034D40057FBDFF820B0DFF820A0DFF820C0FFF7AB
:1034E4004FFB00BD704700BF000000204A000020D1
:1034F400B43300004C00002064000020AC34000011
:1035600000B5DFF810B0DFF810A0FFF725FB00BDB5
:0C357000704700BF00000020F4000020A5
:081D0800211B00001113000073
:102F0800204C00400400050500000000204C004053
:102F18000800050500000000000000000000000097
:102F28000000000000000000000000000000000099
:102F38000000000000000000000000000000000089
:102F48000000000000000000000000000000000079
:102F58000000000000000000000000000000000069
:102F68000000000000000000000000000000000059
:102F78000000000000000000000000000000000049
:102F88000000000000000000000000000000000039
:102F98000000000000000000000000000000000029
:102FA8000000000000000000000000000000000019
:102FB8000000000000000000000000000000000009
:102FC80000000000000000000000000000000000F9
:0C2FD800000000000000000002000000EB
:102FE400804C00402000050500000000804C00409B
:102FF4004000050500000000804C004080000505ED
:1030040000000000000000000000000000000000BC
:1030140000000000000000000000000000000000AC
:10302400000000000000000000000000000000009C
:10303400000000000000000000000000000000008C
:10304400000000000000000000000000000000007C
:10305400000000000000000000000000000000006C
:10306400000000000000000000000000000000005C
:10307400000000000000000000000000000000004C
:10308400000000000000000000000000000000003C
:10309400000000000000000000000000000000002C
:1030A400000000000000000000000000000000001C
:0C30B4000000000000000000030000000D
:1030C000004C00400004050500000000004C0040DA
:1030D00000080505000000000000000000000000DE
:1030E00000000000000000000000000000000000E0
:1030F00000000000000000000000000000000000D0
:1031000000000000000000000000000000000000BF
:1031100000000000000000000000000000000000AF
:10312000000000000000000000000000000000009F
:10313000000000000000000000000000000000008F
:10314000000000000000000000000000000000007F
:10315000000000000000000000000000000000006F
:10316000000000000000000000000000000000005F
:10317000000000000000000000000000000000004F
:10318000000000000000000000000000000000003F
:0C31900000000000000000000200000031
:10319C00004C00400400050500000000004C0040FD
:1031AC000800050500000000000000000000000001
:1031BC000000000000000000000000000000000003
:1031CC0000000000000000000000000000000000F3
:1031DC0000000000000000000000000000000000E3
:1031EC0000000000000000000000000000000000D3
:1031FC0000000000000000000000000000000000C3
:10320C0000000000000000000000000000000000B2
:10321C0000000000000000000000000000000000A2
:10322C000000000000000000000000000000000092
:10323C000000000000000000000000000000000082
:10324C000000000000000000000000000000000072
:10325C000000000000000000000000000000000062
:0C326C0000000000000000000200000054
:10327800004C00402000050500000000004C004004
:103288008000050500000000004C004040000505D6
:103298000000000000000000000000000000000026
:1032A8000000000000000000000000000000000016
:1032B8000000000000000000000000000000000006
:1032C80000000000000000000000000000000000F6
:1032D80000000000000000000000000000000000E6
:1032E80000000000000000000000000000000000D6
:1032F80000000000000000000000000000000000C6
:1033080000000000000000000000000000000000B5
:1033180000000000000000000000000000000000A5
:103328000000000000000000000000000000000095
:103338000000000000000000000000000000000085
:0C33480000000000000000000300000076
:10335400991E0000311E00003D1E0000491E0000A1
:10336400C91E0000D51E0000E11E0000A51E0000BD
:10337400B11E0000BD1E00007D2800008928000049
:10338400FFFFFFFFFFFFFFFFFFFFFFFFFFFFFFFF49
:10339400FFFFFFFFFFFFFFFFFFFFFFFFFFFFFFFF39
:1033A400FFFFFFFFFFFFFFFFFFFFFFFFFFFFFFFF29
:1033B4002E2E2E206170706C69636174696F6E20AB
:1033C400696E697420646F6E65202E2E2E20200095
:1033D40020202E2E2E2073797374656D20696E69FA
:1033E4007420646F6E65202E2E2E20200020583A03
:0A33F4000020593A00205A3A000068
:1033FE00000001000200040008001000200011006F
:10340E00210022004400250049004A00520092008B
:10341E0053005500AA006B00AD00B500B600D600F3
:10342E00B700BB00DD00ED00EE00BF00DF00EF00D7
:08343E00F700FB00FD00FE0099
:1034460000001102CB024303E903E4049605860655
:103456006308B008C709B80B070DF70DA90EA30F2F
:10346600BE101A118A13531673176E1820190B1AE9
:10347600591BEB1B4F1DB51E441F8D2010217C21AF
:083486002F222C23D22348243D
:103490000008000040000000800000000020000044
:0C34A000000000000040000000000000E0
:0434AC00000000001C
:0434B0000000000018
:0434B4000000000014
:0434B8000000000010
:0434BC0010270000D5
:0434C00000366E0163
:00000001FF
