:02000004000BEF
:10000000FCFF002049220B00F1210B00F1210B0025
:10001000F1210B00F1210B00F1210B00F1210B006C
:10002000F1210B00F1210B00F1210B00F1210B005C
:10003000F1210B00F1210B00F1210B00F1210B004C
:10004000F1210B00F1210B00F1210B00F1210B003C
:10224800FFF7ECFF00F010F8FFF7D2FF00F096F967
:1022580000F05AF800F044F9FFF726FFFFF702FFF5
:08226800FFF756FFFCE7FEE75B
:1020580081B01CF8019B0BF8019BBBEB0A0FF8D170
:0420680001B070470C
:1021B40081B04FF000094FF0000CBDEB0A0F04DCB6
:1021C400BDEB0B0F01DBD446EA464BF8049BBBEB9B
:1021D4000A0FFAD1BCEB0A0F05DDE246D9F800B0CC
:0A21E4000BF1040BF1E701B07047A6
:1020B00081B0CDF800E0012207210020FFF7A8FE43
:1020C000002201210020FFF7A3FE002202210020B0
:1020D000FFF79EFE0E4801460020FFF775FF42F213
:1020E00080510120FFF794FF46F6FE17C0F2180753
:1020F00000BF00BF7F1EFDD100BF00BF00BF05486D
:102100000221FFF7F1FEDDF800E001B0704700BFEB
:08211000D4240B0000000020A4
:101E100081B0CDF800E05FFA81F95FFA82FA1DE047
:101E20005FFA8AF15FFA89F0FFF7C0FE1FE05FFA00
:101E30008AF15FFA89F0FFF775FB18E05FFA8AF123
:101E40005FFA89F0FFF78CFA11E05FFA8AF15FFA26
:101E500089F0FFF7C5FC0AE0012008E00028DFD088
:101E60000128E4D00228E9D00328EED0F4E7DDF819
:061E700000E001B0704724
:101BAC0081B0CDF800E0A9E0012905D140F2010196
:101BBC006548FFF7E1FA04E040F201016248FFF7E3
:101BCC00EFF9BBE0012905D140F220015F48FFF796
:101BDC00D3FA04E040F220015C48FFF7E1F9ADE0F4
:101BEC00012905D140F208015948FFF7C5FA04E074
:101BFC0040F208015648FFF7D3F99FE0012905D1BF
:101C0C0040F210015348FFF7B7FA04E040F210011C
:101C1C005048FFF7C5F991E0012905D140F2400188
:101C2C004C48FFF7A9FA04E040F240014948FFF79D
:101C3C00B7F983E0012905D140F210014448FFF7C0
:101C4C009BFA04E040F210014148FFF7A9F975E056
:101C5C00012905D140F210013F48FFF78DFA04E04D
:101C6C0040F210013C48FFF79BF967E0012905D1D0
:101C7C0040F201013748FFF77FFA04E040F201011E
:101C8C003448FFF78DF959E0012905D140F22001C4
:101C9C003248FFF771FA04E040F220012F48FFF7B9
:101CAC007FF94BE0012905D140F210012B48FFF7D9
:101CBC0063FA04E040F210012848FFF771F93DE0A7
:101CCC00012905D140F201012548FFF755FA04E03E
:101CDC0040F201012248FFF763F92FE0012905D1F9
:101CEC0040F280011A48FFF747FA04E040F2800105
:101CFC001748FFF755F921E0012020E000283FF4B8
:101D0C0053AF01283FF45EAF02283FF469AF0328BC
:101D1C003FF474AF04283FF47FAF05283FF48AAF3B
:101D2C0006283FF495AF0728A0D00828ACD0092886
:101D3C00B8D00A28C4D00B28D0D0DDE70020DDF8BD
:101D4C0000E001B0704700BF00120840801008404E
:101D5C000010084060100840601108400011084055
:041D6C0020100840FB
:1011840081B0CDF800E0044AC9B2FFF785FCDDF870
:0C11940000E001B0704700BF0004100034
:100A9C0081B01446314B984203D8314B984200D365
:100AAC0000E058E02E4BC31A03F01F0303B152E0D1
:100ABC00064600F5A0624FF6FF7304EA03031846DE
:100ACC00284B04EA03031B0C40F20008CFB201468A
:100ADC001846B8F1080F3ED201231BB203FA08F3F3
:100AEC001BB21CB207EA0403A34231D101F44053F8
:100AFC008BB14FEA8803F5182C686FF4405304EA65
:100B0C0003032B604FEA8803F51801F440542B685B
:100B1C0023432B601CE04FEA8803F5182C68114B1B
:100B2C0004EA03032B604FEA8803F41823680B4391
:100B3C0023604FEA8803D5182C686FF0FF0304EA92
:100B4C0003032B604FEA8803D41823680343236004
:100B5C0008F10108BDE701B0704700BFC0120840A2
:080B6C00001008400000FFFF2B
:100FAC0081B0CDF800E0044AC9B2FFF771FDDDF85D
:0C0FBC0000E001B0704700BF00062000FC
:1015240081B0CDF800E0A9E0012905D140F2020123
:101534006548FFF725FE04E040F202016248FFF728
:1015440033FDBBE0012905D140F280015F48FFF77C
:1015540017FE04E040F280015C48FFF725FDADE092
:10156400012905D140F220015948FFF709FE04E0A2
:1015740040F220015648FFF717FD9FE0012905D1ED
:1015840040F210015348FFF7FBFD04E040F2100164
:101594005048FFF709FD91E0012905D140F24001CF
:1015A4004C48FFF7EDFD04E040F240014948FFF7E5
:1015B400FBFC83E0012905D140F210014648FFF706
:1015C400DFFD04E040F210014348FFF7EDFC75E055
:1015D400012905D140F204013F48FFF7D1FD04E0A1
:1015E40040F204013C48FFF7DFFC67E0012905D124
:1015F40040F204013948FFF7C3FD04E040F204015E
:101604003648FFF7D1FC59E0012905D140F2200109
:101614003348FFF7B5FD04E040F220013048FFF7FE
:10162400C3FC4BE0012905D140F210012C48FFF71F
:10163400A7FD04E040F210012948FFF7B5FC3DE0A6
:10164400012905D140F201012648FFF799FD04E084
:1016540040F201012348FFF7A7FC2FE0012905D13F
:1016640040F280011C48FFF78BFD04E040F280014A
:101674001948FFF799FC21E0012020E000283FF4FD
:1016840053AF01283FF45EAF02283FF469AF03284B
:101694003FF474AF04283FF47FAF05283FF48AAFCA
:1016A40006283FF495AF0728A0D00828ACD0092815
:1016B400B8D00A28C4D00B28D0D0DDE70020DDF84C
:1016C40000E001B0704700BF0012084080100840DD
:1016D400C011084060100840001008402011084064
:0816E40000110840201008402D
:1013600081B0CDF800E0A9E0012905D140F20801E3
:101370006548FFF707FF04E040F208016248FFF705
:1013800015FEBBE0012905D140F220015F48FFF7BF
:10139000F9FE04E040F220015C48FFF707FEADE0F3
:1013A000012905D140F201015948FFF7EBFE04E0A5
:1013B00040F201015648FFF7F9FD9FE0012905D1F0
:1013C00040F220015348FFF7DDFE04E040F2200127
:1013D0005048FFF7EBFD91E0012905D140F20401EF
:1013E0004C48FFF7CFFE04E040F204014948FFF704
:1013F000DDFD83E0012905D140F202014548FFF7F8
:10140000C1FE04E040F202014248FFF7CFFD75E063
:10141000012905D140F208013D48FFF7B3FE04E081
:1014200040F208013A48FFF7C1FD67E0012905D104
:1014300040F201013848FFF7A5FE04E040F2010147
:101440003548FFF7B3FD59E0012905D140F22001ED
:101450003248FFF797FE04E040F220012F48FFF7E3
:10146000A5FD4BE0012905D140F210012B48FFF703
:1014700089FE04E040F210012848FFF797FD3DE0A7
:10148000012905D140F220012548FFF77BFE04E049
:1014900040F220012248FFF789FD2FE0012905D104
:1014A00040F210011E48FFF76DFE04E040F210010B
:1014B0001B48FFF77BFD21E0012020E000283FF4DE
:1014C00053AF01283FF45EAF02283FF469AF032811
:1014D0003FF474AF04283FF47FAF05283FF48AAF90
:1014E00006283FF495AF0728A0D00828ACD00928DB
:1014F000B8D00A28C4D00B28D0D0DDE70020DDF812
:1015000000E001B0704700BF00120840C011084061
:10151000A010084040110840601008400011084029
:04152000A0110840CE
:1017E00081B0CDF800E0A9E0012905D140F28001E7
:1017F0006548FFF7C7FC04E040F280016248FFF74C
:10180000D5FBBBE0012905D140F210015F48FFF78D
:10181000B9FC04E040F210015C48FFF7C7FBADE003
:10182000012905D140F280015948FFF7ABFC04E0E3
:1018300040F280015648FFF7B9FB9FE0012905D12E
:1018400040F220015348FFF79DFC04E040F22001E4
:101850005048FFF7ABFB91E0012905D140F20401AC
:101860004C48FFF78FFC04E040F204014948FFF7C1
:101870009DFB83E0012905D140F202014548FFF7B5
:1018800081FC04E040F202014248FFF78FFB75E063
:10189000012905D140F210013F48FFF773FC04E035
:1018A00040F210013C48FFF781FB67E0012905D1B8
:1018B00040F204013948FFF765FC04E040F20401FE
:1018C0003648FFF773FB59E0012905D140F22001AA
:1018D0002D48FFF757FC04E040F220012A48FFF7AB
:1018E00065FB4BE0012905D140F210012648FFF7C6
:1018F00049FC04E040F210012348FFF757FB3DE0AC
:10190000012905D140F220012048FFF73BFC04E00B
:1019100040F220011D48FFF749FB2FE0012905D1C6
:1019200040F210011948FFF72DFC04E040F21001CD
:101930001648FFF73BFB21E0012020E000283FF4A0
:1019400053AF01283FF45EAF02283FF469AF03288C
:101950003FF474AF04283FF47FAF05283FF48AAF0B
:1019600006283FF495AF0728A0D00828ACD0092856
:10197000B8D00A28C4D00B28D0D0DDE70020DDF88D
:1019800000E001B0704700BF00110840A0110840FE
:101990008010084040110840A01008402011084065
:101FC80081B0CDF800E011E00846FFF797FB16E076
:101FD8000846FFF7ADF912E00846FFF7A7F90EE04B
:101FE8000846FFF7A1F90AE0012008E00028EBD035
:101FF8000128EDD00228EFD00328F1D0F4E7DDF86E
:0620080000E001B070478A
:1017040081B0CDF800E000F208010B68011D0A6801
:101714000168084691B2DAB2FFF754FC0020DDF804
:0617240000E001B0704777
:100FC80081B0CDF800E0064C064B1C60064C074B80
:100FD8001C60FFF721FEDDF800E001B0704700BF9C
:100FE800B9060B00E000002081090B00E400002096
:100C200082B0CDF800E08346D0B21FFA81FC8DF887
:100C300004002348FFF7EEFB9DF80400214B1B68DE
:100C400043EA00041F4B1C601E4B1868BCF1000FE8
:100C500008D01D4B1B6843F001041B4B1C601A4B52
:100C6000186805E0184B1B6803F0FE04164B1C6067
:100C70001648B0FBFBF080280BD2002809D9114B95
:100C80001B6803F0EF040F4B1C604408104B1C6002
:100C90000CE0104BB3FBFBF00A4B1B6843F0100455
:100CA000084B1C6043081846094B18600A4B1B6828
:100CB00043F00104084B1C60DDF800E002B070470F
:100CC00034230B001494004004940040006CDC02B8
:0C0CD0001894004080841E000094004036
:1004140081B0CDF800E040F2000A81464FEA8A013B
:1004240009EB01010968B1F1FF3F12D009F1340170
:100434004FEA8A03C91809680A4609EB03010968E7
:1004440008461146FFF7ACFF0AF1010A1FFA8AFABF
:0A045400E4E7DDF800E001B07047B6
:1003A40082B0CDF800E000F0FF02130902F00F0262
:1003B4001446D8B2FFF778FF012212B2A240ADF87A
:1003C400042000460A469DF8041000F065FBDDF8A1
:0603D40000E002B07047DA
:1002AC0081B027E028484DE028484BE0284849E039
:1002BC00284847E0284845E0284843E0284841E0E2
:1002CC0028483FE028483DE028483BE0284839E0F2
:1002DC00284837E0284835E0284833E0284831E002
:1002EC0028482FE028482DE028482BE0284829E012
:1002FC00284827E00028D5D00128D5D00228D5D011
:10030C000328D5D00428D5D00528D5D00628D5D09B
:10031C000728D5D00828D5D00928D5D00A28D5D07B
:10032C000B28D5D00C28D5D00D28D5D00E28D5D05B
:10033C000F28D5D01028D5D01128D5D01228D5D03B
:10034C001328D5D001B07047001008402010084089
:10035C00401008406010084080100840A010084071
:10036C00C0100840E010084000110840201108405F
:10037C00401108406011084080110840A01108404D
:10038C00C0110840E011084000120840201208403B
:08039C00401208406012084005
:1013380081B0CDF800E000F208010B68011D0A68D1
:101348000168084691B2DAB2FFF73AFE0020DDF8EC
:0613580000E001B0704747
:0413340001207047DD
:0413300001207047E1
:1020100081B0CDF800E011E00846FFF7B3FD16E00F
:102020000846FFF79BFD12E00846FFF783FD0EE030
:102030000846FFF79DFE0AE0012008E00028EBD0EB
:102040000128EDD00228EFD00328F1D0F4E7DDF825
:0620500000E001B0704742
:101B840081B0CDF800E0002300220321FFF732FAF0
:101B9400034A04490A600020DDF800E001B0704700
:081BA400A1110B0070000020EC
:100FF80084B0CDF800E01FFA82FB1FFA83FC0022C0
:101008008DF80420ADF8081003904A48FFF7FEF960
:101018000398BDF808109DF80420ADF8041002905C
:10102800FFF734FC0298BDF804100025424C2570E7
:101038000025424C2570B0F5E13F06D9404CA0424E
:1010480003D83F4CB4FBF0F308E0B0F5E13F04D817
:101058004FF4E134B4FBF0F300E00123ADF80410E1
:101068000290FFF72DFC0298BDF8041003F0FF046E
:10107800E5B2344C25701C0A04F07F04E5B2324C0A
:101088002570B0F5E13F06D92F4C247844F080054F
:101098002D4C257005E02C4C247804F07F052A4C53
:1010A8002570ADF80410FFF7F1FBBDF8041000251A
:1010B800264C25700BE042F00100C0B20EE042F071
:1010C8000200C0B20AE042F00300C0B206E0012903
:1010D800F1D00229F3D00329F5D0F4E74FEA8C04C4
:1010E800A4B240EA04044FEACB05ADB2E4B22C4303
:1010F800E4B204F07F05154C25700025144C2570CA
:101108000025144C2570144D144C2560144D154CB5
:101118002560154D154C2560154D164C2560164C4F
:10112800247844F00105144C2570DDF800E004B083
:10113800704700BF9C230B00F0270F4001240F408D
:1011480060E3160000240F4001240F4003240F40E1
:1011580004240F4002240F40FD080B00F00000207B
:10116800A1110B00F4000020E1080B00F80000209A
:0C117800150A0B00FC00002030270F407F
:1008940081B00448007800F07F010248017001B083
:0808A400704700BF03240F4060
:1008C80081B00448007840F080010248017001B00E
:0808D800704700BF03240F402C
:101B5C0081B0CDF800E0002300220321FFF746FA04
:101B6C00034A04490A600020DDF800E001B0704728
:081B7C00A1110B007000002014
:101B340081B0CDF800E0002300220321FFF75AFA18
:101B4400034A04490A600020DDF800E001B0704750
:081B5400A1110B00700000203C
:101D700081B0CDF800E0002300220321FFF73CF9F9
:101D8000034A04490A600020DDF800E001B0704712
:081D9000A1110B0070000020FE
:101EE80083B0CDF800E0024610460D228DF8082098
:101EF8000A228DF809201FE0FFF7BEFD23E00278D3
:101F08002AB10190FFF7B8FD0198401CF7E71AE0E5
:101F180002782AB10190FFF7AFFD0198401CF7E75E
:101F280002AA1046FFF7A8FD0DF109021046FFF7B7
:101F3800A3FD08E0062007E00029DDD00129DED056
:101F48000229E5D0F6E70020DDF800E003B070478D
:101A800081B0CDF800E00178CCB2E0B2034C24681C
:101A9000A0470020DDF800E001B070477000002092
:1011A00082B0CDF800E08DF80400FFF773FB08492A
:1011B000097801F02001C9B201B9F8E79DF80410DF
:1011C00001F0FF0203490A70DDF800E002B0704749
:0811D00005240F4000240F402C
:1011F80082B0CDF800E08DF80400FFF7B1FB084994
:10120800097801F02001C9B201B9F8E79DF8041086
:1012180001F0FF0203490A70DDF800E002B07047F0
:0812280005280F4000280F40CB
:1009680081B00448007800F07F010248017001B0AE
:08097800704700BF03280F4087
:1011E800024A117860F300011170704790130840AB
:1011D800024A117860F34511117070478413084072
:100F5C00024A117860F3C301117070478013084086
:100F4C00024A117860F30411117070478313084042
:100F3C00024A117860F386111170704783130840D0
:100F6C00024A117860F30411117070478013084025
:100F9C00024A117860F30411117070478B130840EA
:100F8C00024A117860F30001117070478313084016
:100F7C00024A117860F345111170704788130840CC
:10123000024A117860F30411117070478813084056
:10132000024A117860F30001117070478113084080
:1012F000024A117860F3C7111170704780130840DB
:1012C000024A117860F34101117070479013084091
:1012E000024A117860F3C7111170704784130840E7
:1012D000024A117860F34511117070478E1308406F
:10131000024A117860F3041111707047831308407A
:10130000024A117860F38611117070478313084008
:10126000024A117860F3041111707047801308402E
:10124000024A117860F382011170704780130840E0
:10127000024A117860F382011170704789130840A7
:1012A000024A117860F345111170704788130840A5
:10129000024A117860F304111170704788130840F6
:10128000024A117860F30001117070478113084021
:10125000024A117860F3C71111707047801308407B
:1012B000024A117860F3C30111707047901308401F
:100D7C00024A117860F34511117070478E130840C8
:100D6C00024A117860F30001117070478513084036
:100D5C00024A117860F34511117070478A130840EC
:100D4C00024A117860F38201117070478A130840CF
:100DAC00024A117860F34101117070478A130840B0
:100D9C00024A117860F3C301117070478513084043
:100D8C00024A117860F30001117070478313084018
:100CFC00024A117860F3451111707047881308404F
:100CEC00024A117860F304111170704788130840A0
:100CDC00024A117860F34511117070478D1308406A
:100D1C00024A117860F30411117070478D1308406A
:100D3C00024A117860F3C71111707047881308408C
:100D2C00024A117860F30411117070478D1308405A
:100D0C00024A117860F3C7111170704784130840C0
:100EEC00024A117860F34511117070478A1308405B
:100EDC00024A117860F38201117070478A1308403E
:100ECC00024A117860F34101117070478A1308408F
:100EFC00024A117860F30411117070478513084091
:100F2C00024A117860F382011170704789130840EE
:100F1C00024A117860F3451111707047881308402C
:100F0C00024A117860F3041111707047881308407D
:100E0800024A117860F34511117070478D1308403C
:100DF800024A117860F30411117070478D1308408E
:10206C0081B0CDF800E00C490C48FFF78DFF41F230
:10207C00FE17C0F27A0700BF00BF7F1EFDD100BF64
:10208C0000BF00BFFFF762FF05480221FFF726FFE4
:10209C00DDF800E001B07047E0240B0004240B00D5
:0420AC0029000020E7
:101F940081B0CDF800E003460846FFF7BDFD1846C2
:101FA400FFF77CFD0023054A13700120044C2468CC
:101FB400A047DDF800E001B0704700BF49000020F1
:041FC400AC0000204D
:101B1C00026803490A60011D0A6802490A6070479D
:081B2C00B0000020B40000200D
:101AA00000F230011C310A6805490A6000F20801A1
:101AB0000A6804490A60011D0A6803490A60704700
:0C1AC000C4000020BC000020AC0000208E
:101F580082B0CDF800E001A963200870012260205A
:101F6800FFF71AFDFFF7BEFB01A98C2008700122BC
:101F78006020FFF711FD01A91120087001226220DD
:0C1F8800FFF70AFDDDF800E002B0704732
:1019A00086B0CDF800E08DF814200A46304B1B7845
:1019B00043BB01AB187000209DF814305B1C1BB2B8
:1019C00098420ADA441C24B201AB1C1913181B7884
:1019D0002370431CD9B2C8B2EEE70120254C24681D
:1019E000A0470020244C2468A0479DF814305C1CBC
:1019F00001ABA1B21846FFF7E1F901201E4C2468A3
:101A0000A04730E01A4B1B78012B2CD10DF10B04B1
:101A10002070237843F080032370002011469DF846
:101A200014305B1C1BB298420ADA441C24B20DF13C
:101A30000B031C190B181B782370431CD8B2EEE75C
:101A400001200D4C2468A047FFF7E6F99DF81430FB
:101A50005D1C0DF10B04094B1B78AAB22146D8B2CC
:101A60000123FFF701FADDF800E006B0704700BF80
:101A700049000020AC000020BC0000204A000020EB
:100DBC0083B0CDF800E08AB2014690B283B2421EF5
:100DCC0090B26BB10A78D4B2ADF804000291A0B223
:100DDC00054C2468A0470299BDF80400491CEDE7B6
:0C0DEC00DDF800E003B07047B00000200C
:1009800081B0CDF800E0FFF797FEDDF800E001B0A0
:020990007047AE
:1006B80081B0CDF800E0FFF78DFEDDF800E001B075
:0206C800704779
:1003DC0081B00A49096801F004010849096801F073
:1003EC000201074908600549096801F0020101B9D9
:1003FC00F9E70449086801B0704700BF0894004051
:08040C000C9400401094004024
:100E180082B0CDF800E040F20004ADF80440064C82
:100E28002468A047BDF9041041EA000000B2DDF8CB
:0C0E380000E002B0704700BFB8000020CE
:1009F80081B0CDF800E004480068FFF7EFFD002063
:0C0A0800DDF800E001B070475000002055
:1005E40081B0CDF800E04FF0000224490968884248
:1005F40007D123490B6823490A6823490A601A462C
:1006040025E022490968884207D121490B6821491C
:100614000A681D490A601A4619E01F490968884298
:1006240007D11E490B681E490A6817490A60194612
:100634000CE01C490968884207D11B490B681B4917
:100644000A6811490A60194600E011460A46184929
:100654000A60017801F00101C9B259B91449096865
:1006640039B122B90520084C2468A04702E0521E83
:10067400FFE7EEE7DDF800E001B07047500000202E
:1006840054000020D0000020CC000020580000209E
:100694005C000020D40000204C00002060000020FA
:1006A400D80000206400002068000020DC00002046
:0406B4006C000020B6
:1009B80081B0CDF800E004480068FFF70FFE002082
:0C09C800DDF800E001B07047580000208E
:1008AC0081B0CDF800E004480068FFF795FE002009
:0C08BC00DDF800E001B070474C000020A7
:1009280081B0CDF800E004480068FFF757FE0020CA
:0C093800DDF800E001B070476400002012
:1008FC0081B0CDF800E0FFF7C7FF0648007800F0A4
:10090C000100C0B200B9F8E703480078DDF800E058
:0C091C0001B0704705240F4000240F407C
:1008E00081B00548007800F00100C0B208B10120D5
:0C08F00000E0002001B0704705240F401C
:100A140081B00548007800F04000C0B208B1012060
:0C0A240000E0002001B0704705240F40E6
:100BF40081B0CDF800E0FFF7B5FE0648007800F0BC
:100C04000100C0B200B9F8E703480078DDF800E05D
:0C0C140001B0704705280F4000280F4079
:100BD80081B00548007800F00100C0B208B10120DA
:0C0BE80000E0002001B0704705280F401D
:100B980081B00548007800F04000C0B208B10120DB
:0C0BA80000E0002001B0704705280F405D
:100E680082B0CDF800E040F20004ADF80440054C33
:100E78002468A047BDF90440044320B2DDF800E02F
:080E880002B07047C000002019
:100A540081B0CDF800E0064C246808B413460A4679
:100A64002146FFF7FBFC01B0DDF800E001B0704760
:040A7400500000200E
:1004600082B0CDF800E0029E40F200074FF0000598
:100470004E4C2468A14208D14D4CD4F800804D4C1C
:1004800025684D4C2560454628E04C4C2468A14227
:1004900008D14B4CD4F800804A4C2568464C256066
:1004A00045461BE0484C2468A14208D1474CD4F88B
:1004B0000080474C2568404C256044460DE0454C83
:1004C0002468A14208D1444CD4F80080434C2568EC
:1004D000394C2560444600E02C462546404C2560BA
:1004E00001F2080544002C70C5240C70B8B20F4608
:1004F0001D46A84231D23A4CD4F8008033463946E2
:1005000017462A460C7804F08004E4B27CB1344CDF
:1005100024685CB1B8F1000F04D10420264C246893
:10052000A0473FE0A8F10105A846FFE7EAE70C78FD
:1005300004F00804E4B23CB901F208053C18247840
:100540002C70401C80B203E001911146019A07E033
:1005500015463A460F461E46CBE73A4629463346ED
:100560001F4C2568147804F08004E4B25CB11C4C84
:1005700024683CB125B904200F4C2468A04711E041
:100580006D1EFFE7EEE733B1C324147002F20805D5
:1005900000242C7001E045241470884201D201200F
:1005A00000E00020DDF800E002B0704750000020BD
:1005B00054000020D0000020CC0000205800002073
:1005C0005C000020D40000204C00002060000020CF
:1005D000D80000206400002068000020DC0000201B
:0405E0006C0000208B
:100A300081B0CDF800E0064C246808B413460A469D
:100A40002146FFF70DFD01B0DDF800E001B0704771
:040A5000580000202A
:100A780081B0CDF800E0064C246808B413460A4655
:100A88002146FFF7E9FC01B0DDF800E001B070474E
:040A98004C000020EE
:100B740081B0CDF800E0064C246808B413460A4658
:100B84002146FFF76BFC01B0DDF800E001B07047CF
:040B940064000020D9
:1016EC0046F6FE17C0F2180700BF00BF7F1EFDD1E3
:0816FC0000BF00BF00BF7047F2
:1021180081B0CDF800E01E48FFF73AFE1D480121C6
:10212800FFF7DEFE1A48B0F900001B49FFF7A0FED2
:1021380001211948FFF7D4FE18480121FFF7D0FE06
:102148001748B0F900001449FFF792FE0121124820
:10215800FFF7C6FE13480121FFF7C2FE1248B0F987
:1021680000000D49FFF784FE02210B48FFF7B8FE77
:1021780046F6FE17C0F2180700BF00BF7F1EFDD14C
:1021880000BF00BF00BFDDF800E001B0704700BF2E
:10219800740000201D0000207A000020210000208B
:0C21A800760000202500002078000020B8
:101D980084B0CDF800E002A9019006226820FFF780
:101DA800C1FC019802AC611C09780180B0F90010EF
:101DB800090201802278B0F9001011430180821CC9
:101DC800E11C09781180821CB2F900100902118007
:101DD800831CA11C0A78B3F9001011431980021D55
:101DE800611D09781180021DB2F9001009021180E5
:101DF800031D211D0A78B3F9001011431980DDF87D
:061E080000E004B0704789
:10172C0084B0CDF800E002918DF80C20254B1B788D
:10173C0003BB01AC2070237843F08003237001209D
:10174C00214C2468A0470020204C2468A04701AB02
:10175C0001211846FFF72CFB00201B4C2468A047E6
:10176C009DF80C100298FFF78DFB0120174C246894
:10177C00A04722E0134B1B78012B1ED18DF80500DE
:10178C0040F080038DF805300120104C2468A047F0
:10179C00FFF73CFB0DF105040D4B1B780122214694
:1017AC00D8B20023FFF75AFB094B1B789DF80C208D
:1017BC000299D8B20123FFF73FFBDDF800E004B03B
:1017CC00704700BF49000020AC000020BC00002086
:0417DC004A0000209F
:100E900083B0CDF800E0ADF808100190BDF808303F
:100EA000BDF80820521EADF808204BB10020064CBA
:100EB0002468A047019A1070019A521C0192EDE734
:0C0EC000DDF800E003B07047B400002033
:100E440082B0CDF800E040F20004ADF80440044C58
:100E54002468A047BDF90400DDF800E002B0704743
:040E6400C8000020A2
:100BB40081B0CDF800E0064C246808B413460A4618
:100BC4002146FFF781FD01B0DDF800E001B0704778
:040BD40050000020AD
:1006CC0082B0CDF800E0029C40F2000601274FF00A
:1006DC0000055F4C2468A14208D15E4CD4F8008020
:1006EC005D4C25685D4C2560454628E05C4C2468D3
:1006FC00A14208D15B4CD4F800805B4C2568574C68
:10070C00256045461BE0594C2468A14208D1584C41
:10071C00D4F80080574C2568504C256044460DE0B9
:10072C00554C2468A14208D1544CD4F80080544C48
:10073C0025684A4C2560444600E02C462546514C21
:10074C00256001F208054400A4B244F001042C70A9
:10075C000846B5B21E46FBB24A4C2168019131469F
:10076C00AEB2019D047804F08004E4B25CB1454C57
:10077C0024683CB125B90320384C2468A04762E0BA
:10078C006D1EFFE7EEE7047804F00804E4B28CB9C0
:10079C00B41CA4B28C420DD2951900F20804247832
:1007AC002C70751CADB223B1002400239DB2E3B2B2
:1007BC00FFE746E0047804F00804E4B2002C38D1DA
:1007CC00022902D04024047002E00BB940240470CA
:1007DC00951900F2080424782C70741C3BB100238A
:1007EC000025022901D10E46B6E7A9B200E0A1B25C
:1007FC00244C2368ADF8041011460246BDF80400E1
:10080C00147804F08004E4B25CB11E4C24683CB152
:10081C0023B90320114C2468A04714E05B1EFFE7AA
:10082C00EEE7C32414700D1802F2080424782C701F
:10083C0009E0C3240470951900F2080424782C7084
:10084C0001E00E4688E7DDF800E002B0704700BF1B
:10085C005000002054000020D0000020CC000020CC
:10086C00580000205C000020D40000204C00002028
:10087C0060000020D80000206400002068000020E8
:08088C00DC0000206C000020DC
:1009D40081B0CDF800E0064C246808B413460A46FA
:1009E4002146FFF771FE01B0DDF800E001B0704769
:0409F4005800002087
:1009940081B0CDF800E0064C246808B413460A463A
:1009A4002146FFF791FE01B0DDF800E001B0704789
:0409B4004C000020D3
:1009440081B0CDF800E0064C246808B413460A468A
:100954002146FFF7B9FE01B0DDF800E001B07047B1
:04096400640000200B
:101E780081B0CDF800E00E46002183B2002805DAD3
:101E88000121404280B280B28FB201E098B28FB295
:101E98003146FFF717FE06213446B8B2002908D9A3
:101EA80063184A1E92B2A21812781A70491E89B293
:101EB800F4E72022227070B1002081B22046421837
:101EC8001278202A02D1491C89B2F8E74A1E92B238
:0E1ED80083182D221A70DDF800E001B070476B
:101ACC0081B00A4681B200208DB21146052805D29C
:101ADC000B1820221A70401CC0B2F7E70B1800221A
:101AEC001A70401EC0B20C180A23B5FBF3F203FBAC
:101AFC00125292B2303222700A22B5FBF2F292B23A
:101B0C0095B202B902E0401EC0B2ECE701B07047DA
:1022700081B0CDF800E01F4B1F4A204C2048006879
:1022800040F002011E480160012A08D0032A06D04E
:10229000042A04D0102A02D0302A00D002E01948C3
:1022A000026002E0012117480160C4F3C002164930
:1022B000086862F3C3000860C4F38002124908682A
:1022C00062F382000860C4F340020F49086862F3B9
:1022D00041000860C4F300020B49086862F3000083
:1022E0000860FFF703FA09480360DDF800E001B079
:1022F000704700BFE0010000010000000000000086
:1023000008E000E00401084008A40040080108407B
:1023100081B004490448016004490548016001B0E6
:10232000704700BF80BB0000E800002000000000F4
:04233000EC0000209D
:0821F00081B0FEE701B0704769
:1021F80081B04EF68850CEF20000016841F47001BB
:10220800016000BF00BF00BF00BFF1EE100A40F43C
:0A2218004000E1EE100A01B070472B
:1022240081B0DFF81000DFF810100860D0F800D09B
:1022340000F004B800000B0008ED00E000BF01B09E
:022244007047E1
:1024E80000B5DFF824B0DFF824A0DFF824C0FFF738
:1024F800AFFDDFF820B0DFF820A0DFF820C0FFF73D
:10250800A7FD00BD704700BF000000204900002063
:1025180064240B004C00002070000020B0240B0045
:1025840000B5DFF810B0DFF810A0FFF711FE00BDB2
:0C259400704700BF000000200001002084
:10233400340000003600000004000000FFFFFFFF2F
:102344000000000000000000000000000000000089
:102354000000000000000000000000000000000079
:102364000000000000200000002000000020000009
:102374000000000000000000000000000000000059
:102384000000000000000000000000000000000049
:08239400000000000000000041
:10239C008500000084000000FFFFFFFF000000002C
:1023AC000000000000000000000000000000000021
:1023BC000000000000000000000000000000000011
:1023CC0000000000001000000010000000000000E1
:1023DC0000000000000000000000000000000000F1
:1023EC0000000000000000000000000000000000E1
:0823FC000000000000000000D9
:10240400E9110B00D9110B005D0F0B004D0F0B00F0
:102414003D0F0B006D0F0B009D0F0B008D0F0B007C
:102424007D0F0B0031120B0021130B00F1120B0076
:10243400FFFFFFFFFFFFFFFFFFFFFFFFFFFFFFFFA8
:10244400FFFFFFFFFFFFFFFFFFFFFFFFFFFFFFFF98
:10245400FFFFFFFFFFFFFFFFFFFFFFFFFFFFFFFF88
:1024640020202E2E2E2073797374656D20696E6979
:102474007420646F6E65202E2E2E20200020583A82
:102484000020593A00205A3A002E2E2E20617070F6
:102494006C69636174696F6E20696E697420646F1E
:0924A4006E65202E2E2E20200072
:0424B00000480040A0
:0424B40000400040A4
:0424B8000000000020
:0424BC000044004098
:0424C0000000000018
:0424C4000000000014
:0424C800004C004084
:0424CC00000000000C
:0424D0000000000008
:0C24D40040420F0000000000000000006B
:0824E00081090B00B9060B0095
:00000001FF
