:02000004000BEF
:10000000FCFF0020F5220B009D220B009D220B001F
:100010009D220B009D220B009D220B009D220B00B8
:100020009D220B009D220B009D220B009D220B00A8
:100030009D220B009D220B009D220B009D220B0098
:100040009D220B009D220B009D220B009D220B0088
:1022F400FFF7ECFF00F010F8FFF7D2FF00F094F9BD
:1023040000F05AF800F042F9FFF726FFFFF700FF4C
:08231400FFF756FFFCE7FEE7AE
:1021000081B01CF8019B0BF8019BBBEB0A0FF8D1C7
:0421100001B0704763
:1022600081B04FF000094FF0000CBDEB0A0F04DC09
:10227000BDEB0B0F01DBD446EA464BF8049BBBEBEE
:102280000A0FFAD1BCEB0A0F05DDE246D9F800B01F
:0A2290000BF1040BF1E701B07047F9
:10215C0081B0CDF800E0012207210020FFF7A2FE9C
:10216C00002201210020FFF79DFE00220221002009
:10217C00FFF798FE0E4801460020FFF773FF42F26E
:10218C0080510120FFF792FF46F6FE17C0F21807A8
:10219C0000BF00BF7F1EFDD100BF00BF00BF0548C0
:1021AC000221FFF7EBFEDDF800E001B0704700BF45
:0821BC008C250B00000000203F
:101EB00081B0CDF800E05FFA81F95FFA82FA1DE0A7
:101EC0005FFA8AF15FFA89F0FFF7C0FE1FE05FFA60
:101ED0008AF15FFA89F0FFF771FB18E05FFA8AF187
:101EE0005FFA89F0FFF788FA11E05FFA8AF15FFA8A
:101EF00089F0FFF7BDFC0AE0012008E00028DFD0F0
:101F00000128E4D00228E9D00328EED0F4E7DDF878
:061F100000E001B0704783
:101C4C0081B0CDF800E0A9E0012905D140F20101F5
:101C5C006548FFF7C5FA04E040F201016248FFF75E
:101C6C00BFF9BBE0012905D140F220015F48FFF725
:101C7C00B7FA04E040F220015C48FFF7B1F9ADE09F
:101C8C00012905D140F208015948FFF7A9FA04E0EF
:101C9C0040F208015648FFF7A3F99FE0012905D14E
:101CAC0040F210015348FFF79BFA04E040F2100198
:101CBC005048FFF795F991E0012905D140F2400118
:101CCC004C48FFF78DFA04E040F240014948FFF719
:101CDC0087F983E0012905D140F210014448FFF750
:101CEC007FFA04E040F210014148FFF779F975E002
:101CFC00012905D140F210013F48FFF771FA04E0C9
:101D0C0040F210013C48FFF76BF967E0012905D15F
:101D1C0040F201013748FFF763FA04E040F2010199
:101D2C003448FFF75DF959E0012905D140F2200153
:101D3C003248FFF755FA04E040F220012F48FFF734
:101D4C004FF94BE0012905D140F210012B48FFF768
:101D5C0047FA04E040F210012848FFF741F93DE052
:101D6C00012905D140F201012548FFF739FA04E0B9
:101D7C0040F201012248FFF733F92FE0012905D188
:101D8C0040F280011A48FFF72BFA04E040F2800180
:101D9C001748FFF725F921E0012020E000283FF447
:101DAC0053AF01283FF45EAF02283FF469AF03281C
:101DBC003FF474AF04283FF47FAF05283FF48AAF9B
:101DCC0006283FF495AF0728A0D00828ACD00928E6
:101DDC00B8D00A28C4D00B28D0D0DDE70020DDF81D
:101DEC0000E001B0704700BF0012084080100840AE
:101DFC0000100840601008406011084000110840B5
:041E0C00201008405A
:1011EC0081B0CDF800E0044AC9B2FFF741FCDDF84C
:0C11FC0000E001B0704700BF00041000CC
:100A7C0081B01446314B984203D8314B984200D385
:100A8C0000E058E02E4BC31A03F01F0303B152E0F1
:100A9C00064600F5A0624FF6FF7304EA03031846FE
:100AAC00284B04EA03031B0C40F20008CFB20146AA
:100ABC001846B8F1080F3ED201231BB203FA08F313
:100ACC001BB21CB207EA0403A34231D101F4405318
:100ADC008BB14FEA8803F5182C686FF4405304EA85
:100AEC0003032B604FEA8803F51801F440542B687C
:100AFC0023432B601CE04FEA8803F5182C68114B3C
:100B0C0004EA03032B604FEA8803F41823680B43B1
:100B1C0023604FEA8803D5182C686FF0FF0304EAB2
:100B2C0003032B604FEA8803D41823680343236024
:100B3C0008F10108BDE701B0704700BFC0120840C2
:080B4C00001008400000FFFF4B
:100FEC0081B0CDF800E0044AC9B2FFF741FDDDF84D
:0C0FFC0000E001B0704700BF00062000BC
:1015BC0081B0CDF800E0A9E0012905D140F202018B
:1015CC006548FFF70DFE04E040F202016248FFF7A8
:1015DC0007FDBBE0012905D140F280015F48FFF710
:1015EC00FFFD04E040F280015C48FFF7F9FCADE040
:1015FC00012905D140F220015948FFF7F1FD04E023
:10160C0040F220015648FFF7EBFC9FE0012905D181
:10161C0040F210015348FFF7E3FD04E040F21001E3
:10162C005048FFF7DDFC91E0012905D140F2400163
:10163C004C48FFF7D5FD04E040F240014948FFF764
:10164C00CFFC83E0012905D140F210014648FFF799
:10165C00C7FD04E040F210014348FFF7C1FC75E000
:10166C00012905D140F204013F48FFF7B9FD04E020
:10167C0040F204013C48FFF7B3FC67E0012905D1B7
:10168C0040F204013948FFF7ABFD04E040F20401DD
:10169C003648FFF7A5FC59E0012905D140F220019D
:1016AC003348FFF79DFD04E040F220013048FFF77E
:1016BC0097FC4BE0012905D140F210012C48FFF7B3
:1016CC008FFD04E040F210012948FFF789FC3DE052
:1016DC00012905D140F201012648FFF781FD04E004
:1016EC0040F201012348FFF77BFC2FE0012905D1D3
:1016FC0040F280011C48FFF773FD04E040F28001CA
:10170C001948FFF76DFC21E0012020E000283FF490
:10171C0053AF01283FF45EAF02283FF469AF0328B2
:10172C003FF474AF04283FF47FAF05283FF48AAF31
:10173C0006283FF495AF0728A0D00828ACD009287C
:10174C00B8D00A28C4D00B28D0D0DDE70020DDF8B3
:10175C0000E001B0704700BF001208408010084044
:10176C00C0110840601008400010084020110840CB
:08177C00001108402010084094
:1013F80081B0CDF800E0A9E0012905D140F208014B
:101408006548FFF7EFFE04E040F208016248FFF785
:10141800E9FDBBE0012905D140F220015F48FFF753
:10142800E1FE04E040F220015C48FFF7DBFDADE09F
:10143800012905D140F201015948FFF7D3FE04E024
:1014480040F201015648FFF7CDFD9FE0012905D183
:1014580040F220015348FFF7C5FE04E040F22001A6
:101468005048FFF7BFFD91E0012905D140F2040182
:101478004C48FFF7B7FE04E040F204014948FFF783
:10148800B1FD83E0012905D140F202014548FFF78B
:10149800A9FE04E040F202014248FFF7A3FD75E00F
:1014A800012905D140F208013D48FFF79BFE04E001
:1014B80040F208013A48FFF795FD67E0012905D198
:1014C80040F201013848FFF78DFE04E040F20101C7
:1014D8003548FFF787FD59E0012905D140F2200181
:1014E8003248FFF77FFE04E040F220012F48FFF763
:1014F80079FD4BE0012905D140F210012B48FFF797
:1015080071FE04E040F210012848FFF76BFD3DE052
:10151800012905D140F220012548FFF763FE04E0C8
:1015280040F220012248FFF75DFD2FE0012905D197
:1015380040F210011E48FFF755FE04E040F210018A
:101548001B48FFF74FFD21E0012020E000283FF471
:1015580053AF01283FF45EAF02283FF469AF032878
:101568003FF474AF04283FF47FAF05283FF48AAFF7
:1015780006283FF495AF0728A0D00828ACD0092842
:10158800B8D00A28C4D00B28D0D0DDE70020DDF879
:1015980000E001B0704700BF00120840C0110840C9
:1015A800A010084040110840601008400011084091
:0415B800A011084036
:1018700081B0CDF800E0A9E0012905D140F2800156
:101880006548FFF7B3FC04E040F280016248FFF7CF
:10189000ADFBBBE0012905D140F210015F48FFF725
:1018A000A5FC04E040F210015C48FFF79FFBADE0AF
:1018B000012905D140F280015948FFF797FC04E067
:1018C00040F280015648FFF791FB9FE0012905D1C6
:1018D00040F220015348FFF789FC04E040F2200168
:1018E0005048FFF783FB91E0012905D140F2040144
:1018F0004C48FFF77BFC04E040F204014948FFF745
:1019000075FB83E0012905D140F202014548FFF74C
:101910006DFC04E040F202014248FFF767FB75E00E
:10192000012905D140F210013F48FFF75FFC04E0B8
:1019300040F210013C48FFF759FB67E0012905D14F
:1019400040F204013948FFF751FC04E040F2040181
:101950003648FFF74BFB59E0012905D140F2200141
:101960002D48FFF743FC04E040F220012A48FFF72E
:101970003DFB4BE0012905D140F210012648FFF75D
:1019800035FC04E040F210012348FFF72FFB3DE057
:10199000012905D140F220012048FFF727FC04E08F
:1019A00040F220011D48FFF721FB2FE0012905D15E
:1019B00040F210011948FFF719FC04E040F2100151
:1019C0001648FFF713FB21E0012020E000283FF438
:1019D00053AF01283FF45EAF02283FF469AF0328FC
:1019E0003FF474AF04283FF47FAF05283FF48AAF7B
:1019F00006283FF495AF0728A0D00828ACD00928C6
:101A0000B8D00A28C4D00B28D0D0DDE70020DDF8FC
:101A100000E001B0704700BF00110840A01108406D
:101A20008010084040110840A010084020110840D4
:1020700081B0CDF800E011E00846FFF78FFB16E0D5
:102080000846FFF7A9F912E00846FFF795F90EE0B8
:102090000846FFF781F90AE0012008E00028EBD0AC
:1020A0000128EDD00228EFD00328F1D0F4E7DDF8C5
:0620B00000E001B07047E2
:10179C0081B0CDF800E0016808460449FFF72EFC43
:1017AC000020DDF800E001B0704700BF48240B00BA
:1010080081B0CDF800E083468C4600230D4A13607A
:101018006046FFF759FE0C4C0C4B0D4A194610461A
:101028002246FFF7B3FD0CF10C021268D3B2094A4D
:10103800126859461046DAB2FFF7B8FDDDF800E04D
:1010480001B0704758000020350A0B00AD0C0B00AA
:08105800C9090B00540000203F
:100CD00081B0CDF800E040F2000A81464FEA8A0177
:100CE00009EB01010968B1F1FF3F12D009F13401AC
:100CF0004FEA8A03C91809680A4609EB0301096823
:100D000008461146FFF72CFC0AF1010A1FFA8AFA7D
:0A0D1000E4E7DDF800E001B07047F1
:1005600082B0CDF800E000F0FF02130902F00F02A4
:100570001446D8B2FFF79AFE012212B2A240ADF89B
:10058000042000460A469DF8041000F077FADDF8D2
:0605900000E002B070471C
:1002AC0081B027E028484DE028484BE0284849E039
:1002BC00284847E0284845E0284843E0284841E0E2
:1002CC0028483FE028483DE028483BE0284839E0F2
:1002DC00284837E0284835E0284833E0284831E002
:1002EC0028482FE028482DE028482BE0284829E012
:1002FC00284827E00028D5D00128D5D00228D5D011
:10030C000328D5D00428D5D00528D5D00628D5D09B
:10031C000728D5D00828D5D00928D5D00A28D5D07B
:10032C000B28D5D00C28D5D00D28D5D00E28D5D05B
:10033C000F28D5D01028D5D01128D5D01228D5D03B
:10034C001328D5D001B07047001008402010084089
:10035C00401008406010084080100840A010084071
:10036C00C0100840E010084000110840201108405F
:10037C00401108406011084080110840A01108404D
:10038C00C0110840E011084000120840201208403B
:08039C00401208406012084005
:100B940081B0044B1860044B1960044B1A6001B017
:100BA400704700BFE0000020E4000020E8000020BF
:100BB40081B000F2280440F20023236000F22804EC
:100BC4000023236080230370041D01232380012953
:100BD40015D100F22C0444F64F73238000F2400434
:100BE400234B236000F22404224B236000F24404CC
:100BF400214B236000F218044D2323702EE00429B6
:100C040015D100F22C0440F61773238000F240043F
:100C14001A4B236000F22404194B236000F24404AD
:100C2400184B236000F218040A23237016E01029DD
:100C340014D100F22C0440F20953238000F2400442
:100C4400114B236000F224040D4B236000F2440492
:100C54000C4B236000F2180406232370C123037095
:100C640000F2280442F4E0531BB2236001B0704741
:100C740006434D0CED01FC01C7C29C4B010A0A045A
:0C0C840050000001C7C29C1401060606C7
:1013D80081B0CDF800E0016808460449FFF710FE27
:1013E8000020DDF800E001B0704700BF48240B0082
:1013B80081B0CDF800E0016808460449FFF720FE37
:1013C8000020DDF800E001B0704700BF48240B00A2
:1013980081B0CDF800E0016808460449FFF730FE47
:1013A8000020DDF800E001B0704700BF48240B00C2
:1020B80081B0CDF800E011E00846FFF7AFFD16E06B
:1020C8000846FFF797FD12E00846FFF77FFD0EE090
:1020D8000846FFF799FE0AE0012008E00028EBD047
:1020E8000128EDD00228EFD00328F1D0F4E7DDF87D
:0620F80000E001B070479A
:101C240081B0CDF800E0002300220321FFF716FA6B
:101C3400034A04490A600020DDF800E001B070475F
:081C440009120B0070000020E2
:1010600084B0CDF800E01FFA82FB1FFA83FC002257
:101070008DF80420ADF8081003904A48FFF728FEC9
:101080000398BDF808109DF80420ADF804100290F4
:10109000FFF7E8FB0298BDF804100025424C2570CC
:1010A0000025424C2570B0F5E13F06D9404CA042E6
:1010B00003D83F4CB4FBF0F308E0B0F5E13F04D8AF
:1010C0004FF4E134B4FBF0F300E00123ADF8041079
:1010D0000290FFF7D3FB0298BDF8041003F0FF0461
:1010E000E5B2344C25701C0A04F07F04E5B2324CA2
:1010F0002570B0F5E13F06D92F4C247844F08005E7
:101100002D4C257005E02C4C247804F07F052A4CEA
:101110002570ADF80410FFF7A5FBBDF804100025FD
:10112000264C25700BE042F00100C0B20EE042F008
:101130000200C0B20AE042F00300C0B206E001299A
:10114000F1D00229F3D00329F5D0F4E74FEA8C045B
:10115000A4B240EA04044FEACB05ADB2E4B22C439A
:10116000E4B204F07F05154C25700025144C257061
:101170000025144C2570144D144C2560144D154C4D
:101180002560154D154C2560154D164C2560164CE7
:10119000247844F00105144C2570DDF800E004B01B
:1011A000704700BFE0230B00F0270F4001240F40E1
:1011B00060E3160000240F4001240F4003240F4079
:1011C00004240F4002240F40B1080B00F40000205B
:1011D00009120B00F800002095080B00FC0000200D
:0C11E000DD080B000001002030270F404C
:1008640081B00448007800F07F010248017001B0B3
:08087400704700BF03240F4090
:10087C0081B00448007840F080010248017001B05A
:08088C00704700BF03240F4078
:101BFC0081B0CDF800E0002300220321FFF72AFA80
:101C0C00034A04490A600020DDF800E001B0704787
:081C1C0009120B00700000200A
:101BD40081B0CDF800E0002300220321FFF73EFA94
:101BE400034A04490A600020DDF800E001B07047B0
:081BF40009120B007000002033
:101E100081B0CDF800E0002300220321FFF720F974
:101E2000034A04490A600020DDF800E001B0704771
:081E300009120B0070000020F4
:101F880083B0CDF800E0024610460D228DF80820F7
:101F98000A228DF809201FE0FFF7B6FD23E002783A
:101FA8002AB10190FFF7B0FD0198401CF7E71AE04D
:101FB80002782AB10190FFF7A7FD0198401CF7E7C6
:101FC80002AA1046FFF7A0FD0DF109021046FFF71F
:101FD8009BFD08E0062007E00029DDD00129DED0BE
:101FE8000229E5D0F6E70020DDF800E003B07047ED
:101B100081B0CDF800E00178CCB2E0B2034C24688B
:101B2000A0470020DDF800E001B070477000002001
:1012080082B0CDF800E08DF80400FFF727FB08490D
:10121800097801F02001C9B201B9F8E79DF8041076
:1012280001F0FF0203490A70DDF800E002B07047E0
:0812380005240F4000240F40C3
:1012600082B0CDF800E08DF80400FFF765FB084977
:10127000097801F02001C9B201B9F8E79DF804101E
:1012800001F0FF0203490A70DDF800E002B0704788
:0812900005280F4000280F4063
:1009380081B00448007800F07F010248017001B0DE
:08094800704700BF03280F40B7
:10125000024A117860F30001117070479013084042
:10124000024A117860F34511117070478413084009
:100F9C00024A117860F3C301117070478013084046
:100F8C00024A117860F30411117070478313084002
:100F7C00024A117860F38611117070478313084090
:100FAC00024A117860F304111170704780130840E5
:100FDC00024A117860F30411117070478B130840AA
:100FCC00024A117860F300011170704783130840D6
:100FBC00024A117860F3451111707047881308408C
:10129800024A117860F304111170704788130840EE
:10138800024A117860F30001117070478113084018
:10135800024A117860F3C711117070478013084072
:10132800024A117860F34101117070479013084028
:10134800024A117860F3C71111707047841308407E
:10133800024A117860F34511117070478E13084006
:10137800024A117860F30411117070478313084012
:10136800024A117860F386111170704783130840A0
:1012C800024A117860F304111170704780130840C6
:1012A800024A117860F38201117070478013084078
:1012D800024A117860F3820111707047891308403F
:10130800024A117860F3451111707047881308403C
:1012F800024A117860F3041111707047881308408E
:1012E800024A117860F300011170704781130840B9
:1012B800024A117860F3C711117070478013084013
:10131800024A117860F3C3011170704790130840B6
:100DAC00024A117860F34511117070478E13084098
:100D9C00024A117860F30001117070478513084006
:100D8C00024A117860F34511117070478A130840BC
:100DBC00024A117860F38201117070478A1308405F
:100DEC00024A117860F34101117070478A13084070
:100DDC00024A117860F3C301117070478513084003
:100DCC00024A117860F300011170704783130840D8
:100D2C00024A117860F3451111707047881308401E
:100D3C00024A117860F3041111707047881308404F
:100D1C00024A117860F34511117070478D13084029
:100D4C00024A117860F30411117070478D1308403A
:100D5C00024A117860F3C71111707047881308406C
:100D6C00024A117860F30411117070478D1308401A
:100D7C00024A117860F3C711117070478413084050
:100F2C00024A117860F34511117070478A1308401A
:100F1C00024A117860F38201117070478A130840FD
:100F0C00024A117860F34101117070478A1308404E
:100F3C00024A117860F30411117070478513084050
:100F6C00024A117860F382011170704789130840AE
:100F5C00024A117860F345111170704788130840EC
:100F4C00024A117860F3041111707047881308403D
:100E4800024A117860F34511117070478D130840FC
:100E3800024A117860F30411117070478D1308404D
:1021140081B0CDF800E01E220C490D48FFF788FF7E
:1021240041F2FE17C0F27A0700BF00BF7F1EFDD147
:1021340000BF00BF00BFFFF75DFF06480221FFF7A5
:1021440021FFDDF800E001B0704700BF80250B00DF
:08215400B0240B00290000205B
:1020340081B0CDF800E00446094B1A700846FFF75A
:10204400B3FD2046FFF772FD0124064B1C700120EE
:10205400054C2468A047DDF800E001B0704700BFDC
:0C206400490000204A000020AC000020D1
:101BAC00026806490A60011D0A6805490A6000F2CC
:101BBC0008010A6803490A60704700BFB80000209A
:081BCC00C0000020B000002061
:101B300000F230011C310A6805490A6000F2080110
:101B40000A6804490A60011D0A6803490A6070476F
:0C1B5000C4000020AC000020BC000020FD
:101FF80082B0CDF800E001A96320087001226020BA
:10200800FFF712FDFFF7BAFB01A98C200870012227
:102018006020FFF709FD01A9112008700122622044
:0C202800FFF702FDDDF800E002B0704799
:101A300086B0CDF800E08DF814200A46304B1B78B4
:101A400043BB01AB187000209DF814305B1C1BB227
:101A500098420ADA441C24B201AB1C1913181B78F3
:101A60002370431CD9B2C8B2EEE70120254C24688C
:101A7000A0470020244C2468A0479DF814305C1C2B
:101A800001ABA1B21846FFF7B9F901201E4C24683A
:101A9000A04730E01A4B1B78012B2CD10DF10B0421
:101AA0002070237843F080032370002011469DF8B6
:101AB00014305B1C1BB298420ADA441C24B20DF1AC
:101AC0000B031C190B181B782370431CD8B2EEE7CC
:101AD00001200D4C2468A047FFF702FA9DF814304E
:101AE0005D1C0DF10B04094B1B78AAB22146D8B23C
:101AF0000123FFF7CFF9DDF800E006B0704700BF23
:101B00004A000020BC000020AC000020490000205A
:100DFC0083B0CDF800E08AB2014690B283B2421EB5
:100E0C0090B26BB10A78D4B2ADF804000291A0B2E2
:100E1C00054C2468A0470299BDF80400491CEDE775
:0C0E2C00DDF800E003B07047C8000020B3
:1009500081B0CDF800E0FFF71FFEDDF800E001B048
:020960007047DE
:1005980081B0CDF800E0FFF701FFDDF800E001B021
:0205A80070479A
:1003A40081B00A49096801F004010849096801F0AB
:1003B4000201074908600549096801F0020101B911
:1003C400F9E70449086801B0704700BF0894004089
:0803D4000C940040109400405D
:100EE00082B0CDF800E040F20004ADF80440064CBA
:100EF0002468A047BDF9041041EA000000B2DDF803
:0C0F000000E002B0704700BFB800002005
:1009C80081B0CDF800E004480068FFF7EBFD002097
:0C09D800DDF800E001B070475400002082
:1005AC0081B0CDF800E04FF0000224490968884280
:1005BC0007D123490B6823490A6823490A601A4664
:1005CC0025E022490968884207D121490B68214955
:1005DC000A681D490A601A4619E01F4909688842D1
:1005EC0007D11E490B681E490A6817490A6019464B
:1005FC000CE01C490968884207D11B490B681B4950
:10060C000A6811490A60194600E011460A46184961
:10061C000A60017801F00101C9B259B9144909689D
:10062C0039B122B90520084C2468A04702E0521EBB
:10063C00FFE7EEE7DDF800E001B070475400002062
:10064C0058000020D0000020CC00002050000020DA
:10065C005C000020D40000204C0000206000002032
:10066C00D80000206400002068000020DC0000207E
:04067C006C000020EE
:1009880081B0CDF800E004480068FFF70BFE0020B6
:0C099800DDF800E001B0704750000020C6
:1008F80081B0CDF800E004480068FFF753FE0020FF
:0C090800DDF800E001B070474C0000205A
:1008480081B0CDF800E004480068FFF7ABFE002057
:0C085800DDF800E001B0704764000020F3
:1008B00081B0CDF800E0FFF7D5FF0648007800F0E2
:1008C0000100C0B200B9F8E703480078DDF800E0A5
:0C08D00001B0704705240F4000240F40C9
:1008940081B00548007800F00100C0B208B1012021
:0C08A40000E0002001B0704705240F4068
:1008DC0081B00548007800F04000C0B208B101209A
:0C08EC0000E0002001B0704705240F4020
:1009E40081B0CDF800E0FFF7A5FF0648007800F0DD
:1009F4000100C0B200B9F8E703480078DDF800E070
:0C0A040001B0704705280F4000280F408B
:100C900081B00548007800F00100C0B208B1012021
:0C0CA00000E0002001B0704705280F4064
:100B780081B00548007800F04000C0B208B10120FB
:0C0B880000E0002001B0704705280F407D
:100E940082B0CDF800E040F20004ADF80440054C07
:100EA4002468A047BDF90440044320B2DDF800E003
:080EB40002B07047C0000020ED
:100A340081B0CDF800E0064C246808B413460A4699
:100A44002146FFF7C9FC01B0DDF800E001B07047B2
:040A5400540000202A
:1003DC0082B0CDF800E0029E40F200074FF000051D
:1003EC004E4C2468A14208D14D4CD4F800804D4CA1
:1003FC0025684D4C2560454628E04C4C2468A142AC
:10040C0008D14B4CD4F800804A4C2568464C2560EA
:10041C0045461BE0484C2468A14208D1474CD4F80F
:10042C000080474C2568404C256044460DE0454C07
:10043C002468A14208D1444CD4F80080434C256870
:10044C00394C2560444600E02C462546404C25603E
:10045C0001F2080544002C70C5240C70B8B20F468C
:10046C001D46A84231D23A4CD4F800803346394666
:10047C0017462A460C7804F08004E4B27CB1344C64
:10048C0024685CB1B8F1000F04D10420264C246818
:10049C00A0473FE0A8F10105A846FFE7EAE70C7882
:1004AC0004F00804E4B23CB901F208053C182478C5
:1004BC002C70401C80B203E001911146019A07E0B8
:1004CC0015463A460F461E46CBE73A462946334672
:1004DC001F4C2568147804F08004E4B25CB11C4C09
:1004EC0024683CB125B904200F4C2468A04711E0C6
:1004FC006D1EFFE7EEE733B1C324147002F208055A
:10050C0000242C7001E045241470884201D2012093
:10051C0000E00020DDF800E002B07047540000203D
:10052C0058000020D0000020CC00002050000020FB
:10053C005C000020D40000204C0000206000002053
:10054C00D80000206400002068000020DC0000209F
:04055C006C0000200F
:100A100081B0CDF800E0064C246808B413460A46BD
:100A20002146FFF7DBFC01B0DDF800E001B07047C4
:040A30005000002052
:100A580081B0CDF800E0064C246808B413460A4675
:100A68002146FFF7B7FC01B0DDF800E001B07047A0
:040A78004C0000200E
:100B540081B0CDF800E0064C246808B413460A4678
:100B64002146FFF739FC01B0DDF800E001B0704721
:040B740064000020F9
:1017840046F6FE17C0F2180700BF00BF7F1EFDD14A
:0817940000BF00BF00BF704759
:1021C40081B0CDF800E01E48FFF734FE1D48012120
:1021D400FFF7D8FE1A48B0F900001B49FFF79AFE32
:1021E40001211948FFF7CEFE18480121FFF7CAFE66
:1021F4001748B0F900001449FFF78CFE012112487A
:10220400FFF7C0FE13480121FFF7BCFE1248B0F9E6
:1022140000000D49FFF77EFE02210B48FFF7B2FED6
:1022240046F6FE17C0F2180700BF00BF7F1EFDD19F
:1022340000BF00BF00BFDDF800E001B0704700BF81
:10224400740000201D0000207A00002021000020DE
:0C2254007600002025000020780000200B
:101E380084B0CDF800E002A9019006226820FFF7DF
:101E4800B9FC019802AC611C09780180B0F9001056
:101E5800090201802278B0F9001011430180821C28
:101E6800E11C09781180821CB2F900100902118066
:101E7800831CA11C0A78B3F9001011431980021DB4
:101E8800611D09781180021DB2F900100902118044
:101E9800031D211D0A78B3F9001011431980DDF8DC
:061EA80000E004B07047E9
:1017BC0084B0CDF800E002918DF80C20254B1B78FD
:1017CC0003BB01AC2070237843F08003237001200D
:1017DC00214C2468A0470020204C2468A04701AB72
:1017EC0001211846FFF704FB00201B4C2468A0477E
:1017FC009DF80C100298FFF729FB0120174C246868
:10180C00A04722E0134B1B78012B1ED18DF805004D
:10181C0040F080038DF805300120104C2468A0475F
:10182C00FFF758FB0DF105040D4B1B7801222146E7
:10183C00D8B20023FFF728FB094B1B789DF80C202E
:10184C000299D8B20123FFF733FBDDF800E004B0B6
:10185C00704700BF4A000020BC000020AC000020F4
:04186C00490000200F
:100E580083B0CDF800E0ADF808100190BDF8083077
:100E6800BDF80820521EADF808204BB10020064CF2
:100E78002468A047019A1070019A521C0192EDE76C
:0C0E8800DDF800E003B07047B40000206B
:100EBC0082B0CDF800E040F20004ADF80440044CE0
:100ECC002468A047BDF90400DDF800E002B07047CB
:040EDC00B000002042
:100CAC0081B0CDF800E0064C246808B413460A461F
:100CBC002146FFF7DFFC01B0DDF800E001B0704722
:040CCC0054000020B0
:1006800082B0CDF800E0029C40F2000601274FF056
:1006900000055F4C2468A14208D15E4CD4F800806C
:1006A0005D4C25685D4C2560454628E05C4C24681F
:1006B000A14208D15B4CD4F800805B4C2568574CB4
:1006C000256045461BE0594C2468A14208D1584C8E
:1006D000D4F80080574C2568504C256044460DE006
:1006E000554C2468A14208D1544CD4F80080544C95
:1006F00025684A4C2560444600E02C462546514C6E
:10070000256001F208054400A4B244F001042C70F5
:100710000846B5B21E46FBB24A4C216801913146EB
:10072000AEB2019D047804F08004E4B25CB1454CA3
:1007300024683CB125B90320384C2468A04762E006
:100740006D1EFFE7EEE7047804F00804E4B28CB90C
:10075000B41CA4B28C420DD2951900F2080424787E
:100760002C70751CADB223B1002400239DB2E3B2FE
:10077000FFE746E0047804F00804E4B2002C38D126
:10078000022902D04024047002E00BB94024047016
:10079000951900F2080424782C70741C3BB10023D6
:1007A0000025022901D10E46B6E7A9B200E0A1B2A8
:1007B000244C2368ADF8041011460246BDF804002D
:1007C000147804F08004E4B25CB11E4C24683CB19F
:1007D00023B90320114C2468A04714E05B1EFFE7F7
:1007E000EEE7C32414700D1802F2080424782C706C
:1007F00009E0C3240470951900F2080424782C70D1
:1008000001E00E4688E7DDF800E002B0704700BF67
:100810005400002058000020D0000020CC00002010
:10082000500000205C000020D40000204C0000207C
:1008300060000020D8000020640000206800002034
:08084000DC0000206C00002028
:1009A40081B0CDF800E0064C246808B413460A462A
:1009B4002146FFF763FE01B0DDF800E001B07047A7
:0409C40050000020BF
:1009640081B0CDF800E0064C246808B413460A466A
:100974002146FFF783FE01B0DDF800E001B07047C7
:040984004C00002003
:1009140081B0CDF800E0064C246808B413460A46BA
:100924002146FFF7ABFE01B0DDF800E001B07047EF
:04093400640000203B
:101F180081B0CDF800E00E46002183B2002805DA32
:101F28000121404280B280B28FB201E098B28FB2F4
:101F38003146FFF70FFE06213446B8B2002908D90A
:101F480063184A1E92B2A21812781A70491E89B2F2
:101F5800F4E72022227070B1002081B22046421896
:101F68001278202A02D1491C89B2F8E74A1E92B297
:0E1F780083182D221A70DDF800E001B07047CA
:101B5C0081B00A4681B200208DB21146052805D20B
:101B6C000B1820221A70401CC0B2F7E70B18002289
:101B7C001A70401EC0B20C180A23B5FBF3F203FB1B
:101B8C00125292B2303222700A22B5FBF2F292B2A9
:101B9C0095B202B902E0401EC0B2ECE701B070474A
:10231C0081B0CDF800E01F4B1F4A204C20480068CC
:10232C0040F002011E480160012A08D0032A06D0A1
:10233C00042A04D0102A02D0302A00D002E0194816
:10234C00026002E0012117480160C4F3C002164983
:10235C00086862F3C3000860C4F38002124908687D
:10236C0062F382000860C4F340020F49086862F30C
:10237C0041000860C4F300020B49086862F30000D6
:10238C000860FFF7F9F909480360DDF800E001B0D7
:10239C00704700BFE00100000100000000000000D9
:1023AC0008E000E00401084008A4004008010840CF
:1023BC0081B004490448016004490548016001B03A
:1023CC00704700BF80BB0000EC0000200000000044
:0423DC00F0000020ED
:08229C0081B0FEE701B07047BC
:1022A40081B04EF68850CEF20000016841F470010E
:1022B400016000BF00BF00BF00BFF1EE100A40F490
:0A22C4004000E1EE100A01B070477F
:1022D00081B0DFF81000DFF810100860D0F800D0EF
:1022E00000F004B800000B0008ED00E000BF01B0F2
:0222F000704735
:1025900000B5DFF824B0DFF824A0DFF824C0FFF78F
:1025A000AFFDDFF820B0DFF820A0DFF820C0FFF794
:1025B000A7FD00BD704700BF0000002049000020BB
:1025C00010250B004C000020700000205C250B0043
:10262C0000B5DFF810B0DFF810A0FFF713FE00BD07
:0C263C00704700BF0000002004010020D7
:1023E0008500000084000000FFFFFFFF00000000E8
:1023F00000000000000000000000000000000000DD
:1024000000000000000000000000000000000000CC
:10241000000000000010000000100000000000009C
:1024200000000000000000000000000000000000AC
:10243000000000000000000000000000000000009C
:08244000000000000000000094
:10244800D5000000D4000000FFFFFFFF02000000DD
:102458000000000000000000000000000000000074
:102468000000000000000000000000000000000064
:102478000000000000100000001000000000000034
:102488000000000000000000000000000000000044
:102498000000000000000000000000000000000034
:0824A80000000000000000002C
:1024B00051120B0041120B009D0F0B008D0F0B00F2
:1024C0007D0F0B00AD0F0B00DD0F0B00CD0F0B00D0
:1024D000BD0F0B0099120B0089130B0059130B0051
:1024E000FFFFFFFFFFFFFFFFFFFFFFFFFFFFFFFFFC
:1024F000FFFFFFFFFFFFFFFFFFFFFFFFFFFFFFFFEC
:10250000FFFFFFFFFFFFFFFFFFFFFFFFFFFFFFFFDB
:1025100020202E2E2E2073797374656D20696E69CC
:102520007420646F6E65202E2E2E20200020583AD5
:102530000020593A00205A3A002E2E2E2061707049
:102540006C69636174696F6E20696E697420646F71
:092550006E65202E2E2E202000C5
:04255C0000480040F3
:0425600000440040F3
:0425640000400040F3
:04256800000000006F
:04256C00000000006B
:042570000000000067
:04257400004C0040D7
:04257800000000005F
:04257C00000000005B
:0C258000C9090B00350A0B00AD0C0B0064
:04258C00010000004A
:00000001FF
