:10000000C8EF0FF00000000000EF00F0000000005B
:0A0010000000000000000000F3D71C
:0E001C0001011AB102D08B9601D08B86120022
:0E002A0001011AB102D08B9C01D08B8C120008
:0E00380001011AB102D08B9801D08B88120002
:0E00460001011AB102D08D9601D08D861200F4
:0E00540001011AB102D0899401D089841200F2
:0E00620001011AB102D08B9A01D08B8A1200D4
:0E00700001011AB102D08B9801D08B881200CA
:0E007E0001011AB102D08B9401D08B841200C4
:0E008C0001011AB102D08B9E01D08B8E1200A2
:0E009A0001011AB102D08A9201D08A821200AE
:0E00A80001011AB102D08F9401D08F84120092
:0E00B60001011AB102D08A9401D08A8412008E
:0E00C40001011AB102D08F9201D08F8212007A
:0E00D20001011AB102D08B9801D08B88120068
:0E00E00001011AB102D08B9601D08B8612005E
:0E00EE0001011AB102D08B9601D08B86120050
:0E00FC0001011AB102D08D9401D08D84120042
:0E010A0001011AB102D08B9801D08B8812002F
:0E01180001011AB102D08F9001D08F80120029
:0E01260001011AB102D08B9A01D08B8A12000F
:0E01340001011AB102D08D9001D08D80120011
:0E01420001011AB102D08B9001D08B80120007
:0E01500001011AB102D08B9601D08B861200ED
:0E015E0001011AB102D08B9A01D08B8A1200D7
:0E016C0001011AB102D08B9801D08B881200CD
:10017A001AC16AFF016A0150000A05E1000E68B05F
:0C018A00010E016EF8D76ACF01F01200E0
:100196001AC1C9FF016A0150000A05E1000EC7B085
:0C01A600010E016EF8D7C9CF01F0120065
:0E01B200ACB202D00000FCD71AC1ADFF1200A3
:0E01C00001011AB102D0899001D0898012008D
:1001CE000F0121B302D00000FBD71AC11CFF120091
:0E01DE0001011AB102D0899201D0898212006B
:0E01EC0001011AB102D08B9801D08B8812004D
:0E01FA0001011AB102D0899801D08988120043
:0E02080001011AB102D08B9601D08B86120034
:0E02160001011AB102D08D9201D08D8212002A
:0E02240001011AB102D08A9001D08A80120026
:0E02320001011AB102D08B9201D08B82120012
:0E02400001011AB102D08B9E01D08B8E1200EC
:0E024E0001011AB102D08B9601D08B861200EE
:0E025C0001011AB102D08B9C01D08B8C1200D4
:10026A00C7B409D01F0EC514016E0150000A03E17C
:0A027A00010E006E01D0006A1200B0
:10028400F250026EF29E0500FF6A0150FE6E0050AD
:08029400FD6E02BEF28E1200A5
:10029C0068B409D01F0E6614016E0150000A03E108
:0A02AC00010E006E01D0006A12007E
:0C02B600000E0F0121B3010E006E1200BB
:0A02C200000EA4BA010E006E120037
:0A02CC00000EACB2010E006E12002D
:0A02D600000E84B0010E006E12004D
:0A02E000000E82B0010E006E120045
:0A02EA00000E80B0010E006E12003D
:1002F400AECF01F0ABA202D0AB98AB8801C000F046
:020304001200E5
:1003060062C016F163C017F164C018F165C019F137
:100316000101146B156B1551120802E114518E0878
:1003260008E3B9DF005201E004D00101144B152B9C
:10033600F2D70101120E155D02E18F0E145D03E383
:100346007B0E006E26D0668066A022D00001625128
:100356006311641165111BE0010116511711181183
:1003660019110EE1EAC0E1FFEBC0E2FF050EE66EF1
:10037600E8C000F0E9C001F082DF010E006E09D08E
:10038600010E0101165F000E175B185B195BDCD7C7
:04039600006A1200E7
:0A039A00000E82B4010E006E120086
:1003A4001DCF01F00F0122A302D02299228901C09E
:0403B40000F0120043
:0A03B800000E82BA010E006E120062
:0A03C200000E9EBA010E006E12003C
:0A03CC00000E82B6010E006E120052
:0A03D600000E80B2010E006E12004E
:0A03E000000E82B8010E006E12003C
:0A03EA00000E82B6010E006E120034
:0A03F400000E82B6010E006E12002A
:0A03FE00000E84B2010E006E120022
:0A040800000E80B8010E006E120015
:0A041200000E82B2010E006E12000F
:0A041C00000E82BA010E006E1200FD
:0A042600000E82B8010E006E1200F5
:0A043000000E82BC010E006E1200E7
:0A043A00000E82BE010E006E1200DB
:0A044400000E81B0010E006E1200E0
:10044E003AC016F13BC017F13CC018F13DC019F18E
:10045E009E96C5869EB61FD03A503B103C103D105E
:10046E0019E0010116511711181119110CE1CEC026
:10047E00E1FFCFC0E2FF030EE66ECCC000F0CDC0B0
:10048E0001F0F9DE08D0010E0101165F000E175BB8
:10049E00185B195BDFD70101C9CF15F11451000AA2
:1004AE0002E1C58A01D0C59A9E96C5883AC016F15A
:1004BE003BC017F13CC018F13DC019F19EB61FD0DC
:1004CE003A503B103C103D1019E001011651171126
:1004DE00181119110CE1CEC0E1FFCFC0E2FF030EDF
:1004EE00E66ECCC000F0CDC001F0C5DE08D0010E26
:1004FE000101165F000E175B185B195BDFD715C184
:04050E0000F01200E7
:100512009E9614C1C9FF3AC015F13BC016F13CC00A
:1005220017F13DC018F1C7A421D03A503B103C103E
:100532003D101BE0010115511611171118110EE1A2
:10054200CEC0E1FFCFC0E2FF040EE66ECCC000F0E9
:10055200CDC001F096DE010E006E3AD0010E01010F
:10056200155F000E165B175B185BDDD73AC015F1FD
:100572003BC016F13CC017F13DC018F19EB621D028
:100582003A503B103C103D101BE001011551161171
:10059200171118110EE1CEC0E1FFCFC0E2FF040E29
:1005A200E66ECCC000F0CDC001F06BDE010E006E35
:1005B2000FD0010E0101155F000E165B175B185B71
:1005C200DDD7C5BC02D0006A03D0C584020E006E1E
:0205D200120015
:1005D40062C016F163C017F164C018F165C019F167
:1005E400A19A6686A1BA20D00001625163116411F8
:1005F400651119E0010116511711181119110CE1B7
:10060400EAC0E1FFEBC0E2FF030EE66EE8C000F0D3
:10061400E9C001F035DE08D0010E0101165F000EBD
:10062400175B185B195BDED701016ACF15F1145112
:10063400000A02E1668A01D0669AA19A668862C0BD
:1006440016F163C017F164C018F165C019F1A1BABD
:1006540020D00001625163116411651119E0010198
:1006640016511711181119110CE1EAC0E1FFEBC082
:10067400E2FF030EE66EE8C000F0E9C001F000DE20
:1006840008D0010E0101165F000E175B185B195BA1
:08069400DED715C100F01200D1
:0A069C00000E86B2010E006E12007F
:1006A60014C16AFF016A0150000A05E1000E68B034
:0C06B600010E016EF8D76ACF00F01200B0
:0A06C200000E82B8010E006E120057
:0A06CC00000E86B4010E006E12004D
:1006D600A19A14C16AFF62C015F163C016F164C025
:1006E60017F165C018F168A422D0000162516311A8
:1006F600641165111BE0010115511611171118112E
:100706000EE1EAC0E1FFEBC0E2FF040EE66EE8C0D0
:1007160000F0E9C001F0B3DD010E006E3BD0010E22
:100726000101155F000E165B175B185BDCD762C014
:1007360015F163C016F164C017F165C018F1A1BACE
:1007460022D0000162516311641165111BE00101A1
:1007560015511611171118110EE1EAC0E1FFEBC091
:10076600E2FF040EE66EE8C000F0E9C001F087DDA6
:10077600010E006E0FD0010E0101155F000E165B13
:10078600175B185BDCD766BC02D0006A03D06684B0
:06079600020E006E1200CD
:10079C0062C014F163C015F164C016F165C017F1A5
:1007AC00668266A220D0000162516311641165114A
:1007BC0019E0010114511511161117110CE1EAC0C1
:1007CC00E1FFEBC0E2FF060EE66EE8C000F0E9C008
:1007DC0001F052DD08D0010E0101145F000E155B13
:0807EC00165B175BDED712005B
:0407F4006684120005
:1007F80014C1C9FF016A0150000A05E1000EC7B023
:0C080800010E016EF8D7C9CF00F01200FD
:0A081400000E82B6010E006E120005
:10081E003AC016F13BC017F13CC018F13DC019F1BA
:10082E000101146B156B1551120802E114518E085B
:10083E0008E314DD005201E004D00101144B152B26
:10084E00F2D70101120E155D02E18F0E145D03E366
:10085E007B0E006E24D0C580C5A020D03A503B1030
:10086E003C103D101AE016511711181119110EE116
:10087E00CEC0E1FFCFC0E2FF050EE66ECCC000F0A9
:10088E00CDC001F0F8DC010E006E09D0010E0101A1
:10089E00165F000E175B185B195BDED7006A12003D
:0408AE00C5841200EB
:0A08B200000E81B4010E006E12006A
:0A08BC00000E82B6010E006E12005D
:1008C6003AC014F13BC015F13CC016F13DC017F11A
:1008D600C582C5A21FD03A503B103C103D1019E00E
:1008E600010114511511161117110CE1CEC0E1FFCB
:1008F600CFC0E2FF060EE66ECCC000F0CDC001F020
:10090600BEDC08D0010E0101145F000E155B165BFC
:06091600175BDFD71200A1
:0A091C00000E80B4010E006E120000
:0A092600000E82B8010E006E1200F0
:0A093000000E81B2010E006E1200ED
:0A093A00000E82B8010E006E1200DC
:0A094400000E84B6010E006E1200D2
:0A094E00000E82B8010E006E1200C8
:0A095800000E82BA010E006E1200BC
:0A096200000E86B0010E006E1200B8
:0A096C00000E82B6010E006E1200AC
:0A097600000E82BE010E006E12009A
:0A098000000E82BC010E006E120092
:0A098A00000E84B4010E006E12008E
:10099400CE0E0001D06F010ED16F1A0ED26F010E70
:1009A400D36FA40EE46F030EE56F000EE66F000E26
:1009B400E76FC20EE06F020EE16F000EE26F000EF1
:1009C400E36FB60EDC6F020EDD6F000EDE6F000EFD
:1009D400DF6F0F01218B900E226F98849892A4AA46
:0A09E40003D01DCF00F0FBD7120076
:1009EE000101126B136B0BC110F10CC111F10AC195
:1009FE0000F00036009000809EC0E1FF9FC0E2FF35
:100A0E0000C0E6FF9CC000F09DC001F034DC005039
:100A1E0001011213000E1313010E0D5F000E0E5B7B
:100A2E000D510E1115E0C2C0E1FFC3C0E2FF010E71
:100A3E00E66EC0C000F0C1C001F01DDC10C1E1FFC8
:100A4E0011C1E2FF00C0E6FF0101104B112BE4D7EC
:100A5E00C2C0E1FFC3C0E2FFE66AC0C000F0C1C081
:100A6E0001F009DC10C1E1FF11C1E2FF00C0E6FF99
:100A7E0001010F51000A06E198C000F099C001F083
:100A8E0042EC01F001010F51010A06E1C8C000F06D
:100A9E00C9C001F042EC01F012C100F013C101F027
:020AAE00120034
:100AB000086A096A100E0C6E0134083609360450B3
:100AC000085E0550D8A0053C095ED8B007D0045098
:100AD00008260550D8B0053C0926D89000360136C6
:060AE0000C2EEAD7120003
:100AE6000AC10EF10BC10FF10CC100F00DC101F0EE
:100AF600010E01010C5F000E0D5B0050011014E0A9
:100B0600B9C0E1FFBAC0E2FF0EC1E9FF0FC1EAFFBB
:100B1600EECFE6FFB7C000F0B8C001F042EC01F03E
:0A0B260001010E4B0F2BE0D7120067
:100B300001010A6B0B6BA6C000F0A7C001F042ECEC
:100B400001F000C00AF1000E01010B6F0AC100F0B4
:060B50000BC101F01200D0
:100B5600F80E0001D86F070ED96F140EDA6F010E6A
:100B6600DB6F960ED46F010ED56F1A0ED66F010E7F
:100B7600D76F949A01010A51040A02E1948601D0C2
:100B860094969488C66AC79CC79E0A51C6120C5191
:100B9600C6120B51C7120C5305E00D51000AD8B40A
:0E0BA600C78C03D00D53D8A4C78CC68A12008A
:100BB4000101126B136B0BC110F10CC111F10AC1CD
:100BC40000F0003600909EC0E1FF9FC0E2FF00C02D
:100BD400E6FF9CC000F09DC001F042EC01F0005023
:100BE40001011213000E13130DC100F00EC101F028
:100BF400010E0D5F000E0E5B0050011018E09EC048
:100C0400E1FF9FC0E2FF10C1E9FF11C1EAFFEECF8F
:100C1400E6FF9CC000F09DC001F042EC01F00050E2
:100C240001011213000E1313104B112BDDD70F51BA
:100C3400000A06E198C000F099C001F042EC01F00E
:100C440001010F51010A06E1A6C000F0A7C001F09E
:0E0C540042EC01F012C100F013C101F01200D9
:100C6200B20E0001D06F010ED16F1A0ED26F010EBB
:100C7200D36FF40EE46F020EE56F000EE66F000E06
:100C8200E76FC20EE06F030EE16F000EE26F000E1F
:100C9200E36FCC0EDC6F020EDD6F000EDE6F000E16
:100CA200DF6FAC8A900EAB6E948E949C9EAA03D09A
:080CB200AECF00F0FBD71200E9
:100CBA000AC10EF10BC10FF10CC100F00DC101F018
:100CCA00010E01010C5F000E0D5B0050011015E0D2
:100CDA00C6C0E1FFC7C0E2FFE66AC4C000F0C5C0F3
:100CEA0001F042EC01F00EC1E1FF0FC1E2FF00C0CA
:0C0CFA00E6FF01010E4B0F2BDFD71200AC
:100D0600F6C0F6FFF7C0F7FFF8C0F8FF0900F5CF09
:100D16000AF1040E0001F625F66E000EF721F76EB5
:100D2600000EF821F86E0900F5CF0BF1080EF62536
:100D3600F66E000EF721F76E000EF821F86E090028
:100D4600F5CF0CF10C0EF625F66E000EF721F76EB8
:100D5600000EF821F86E0900F5CF0DF1F9DE000E50
:040D6600006E120009
:100D6A0021D0CF0EAF6EAC9477DF6BD0670EAF6E2B
:100D7A00AC9472DF66D0CF0EAF6EAC846DDF61D0FB
:100D8A00670EAF6EAC8468DF5CD0440EAF6EAC8485
:100D9A0063DF57D0220EAF6EAC845EDF52D0060EF0
:100DAA00006E58D00001000E006EF91908E10050DB
:100DBA00F81905E1120EF71902E1F651C00AD1E05D
:100DCA00000E006EF91908E10050F81905E1250E28
:100DDA00F71902E1F651800AC9E0000E006EF9190E
:100DEA0008E10050F81905E14B0EF71902E1F65136
:100DFA00000AC1E0000E006EF91908E10050F81966
:100E0A0005E1960EF71902E1F651000AB9E0000E63
:100E1A00006EF91908E10050F81905E1E10EF71919
:100E2A0002E1F651000AB1E0F951000A08E1F8516D
:100E3A00010A05E1F751C20A02E1F651000AAAE0E5
:100E4A00AED7B20EAE6F010EAF6F1A0EB06F010EB3
:060E5A00B16F006A1200F6
:100E6000B0C0E1FFB1C0E2FFF6C0E9FFF7C0EAFFA2
:100E7000EECFE6FFAEC000F0AFC001F042EC01F0F3
:040E8000006A1200F2
:100E8400F6C0F6FFF7C0F7FFF8C0F8FF0900F5CF8A
:100E94000AF1040E0001F625F66E000EF721F76E36
:100EA400000EF821F86E0900F5CF0BF1080EF625B7
:100EB400F66E000EF721F76E000EF821F86E0900A9
:100EC400F5CF0CF10C0EF625F66E000EF721F76E39
:100ED400000EF821F86E0900F5CF0DF13ADE000E90
:040EE400006E12008A
:100EE800F6C0F6FFF7C0F7FFF8C0F8FF0900F5CF26
:100EF8000AF1040E0001F625F66E000EF721F76ED2
:100F0800000EF821F86E0900F5CF0BF1080EF62552
:100F1800F66E000EF721F76E000EF821F86E090044
:100F2800F5CF0CF10C0EF625F66E000EF721F76ED4
:100F3800000EF821F86E0900F5CF0DF108DE000E5D
:040F4800006E120025
:100F4C0021D0CF0EAF6EAC9486DE6BD0670EAF6E39
:100F5C00AC9481DE66D0CF0EAF6EAC847CDE61D0FB
:100F6C00670EAF6EAC8477DE5CD0440EAF6EAC8493
:100F7C0072DE57D0220EAF6EAC846DDE52D0060EF0
:100F8C00006E58D00001000E006EF91908E10050F7
:100F9C00F81905E1120EF71902E1F651C00AD1E079
:100FAC00000E006EF91908E10050F81905E1250E44
:100FBC00F71902E1F651800AC9E0000E006EF9192A
:100FCC0008E10050F81905E14B0EF71902E1F65152
:100FDC00000AC1E0000E006EF91908E10050F81982
:100FEC0005E1960EF71902E1F651000AB9E0000E80
:100FFC00006EF91908E10050F81905E1E10EF71936
:10100C0002E1F651000AB1E0F951000A08E1F85189
:10101C00010A05E1F751C20A02E1F651000AAAE001
:10102C00AED7B20EAE6F010EAF6F1A0EB06F010ECF
:06103C00B16F006A120012
:1010420038D00F0120870D0E1F6F040E1E6F2185F1
:10105200A0DC7ED00F012087060E1F6F820E1E6F4E
:10106200218597DC75D00F012087030E1F6F400E7C
:101072001E6F21858EDC6CD00F012087010E1F6F41
:10108200A00E1E6F218585DC63D00F012087010E23
:101092001F6F150E1E6F21857CDC5AD00F01208731
:1010A2001F6B8A0E1E6F218574DC52D0060E006EF5
:1010B20059D0000E006E0001F91908E10050F8192C
:1010C20005E1120EF71902E1F651C00ABAE0000E6C
:1010D200006EF91908E10050F81905E1250EF7191B
:1010E20002E1F651800AB6E0000E006EF91908E13D
:1010F2000050F81905E14B0EF71902E1F651000A0A
:10110200B2E0000E006EF91908E10050F81905E18D
:10111200960EF71902E1F651000AAEE0000E006EDB
:10112200F91908E10050F81905E1E10EF71902E199
:10113200F651000AAAE0F951000A08E1F851010A41
:1011420005E1F751C20A02E1F651000AA7E0AED763
:101152000001CE0EAE6F010EAF6F1A0EB06F010E10
:06116200B16F006A1200EB
:1011680021D0CF0EAF6EAC9478DD6BD0670EAF6E2A
:10117800AC9473DD66D0CF0EAF6EAC846EDD61D0FB
:10118800670EAF6EAC8469DD5CD0440EAF6EAC8484
:1011980064DD57D0220EAF6EAC845FDD52D0060EF0
:1011A800006E58D00001000E006EF91908E10050D9
:1011B800F81905E1120EF71902E1F651C00AD1E05B
:1011C800000E006EF91908E10050F81905E1250E26
:1011D800F71902E1F651800AC9E0000E006EF9190C
:1011E80008E10050F81905E14B0EF71902E1F65134
:1011F800000AC1E0000E006EF91908E10050F81964
:1012080005E1960EF71902E1F651000AB9E0000E61
:10121800006EF91908E10050F81905E1E10EF71917
:1012280002E1F651000AB1E0F951000A08E1F8516B
:10123800010A05E1F751C20A02E1F651000AAAE0E3
:10124800AED7B20EAE6F010EAF6F1A0EB06F010EB1
:06125800B16F006A1200F4
:10125E0059D00001F7B102D0929201D092820F01C3
:10126E00259376D00001F7B102D0929801D09288E2
:10127E006FD00001F7B102D0969201D0968268D05D
:10128E000001F7B102D0949601D0948661D000018E
:10129E00F7B102D0949801D094885AD00001F7B1DA
:1012AE0002D0949A01D0948A53D00001F7B102D0A3
:1012BE00949401D094844CD00001F7B102D0939253
:1012CE0001D0938245D00001F7B102D0949E01D097
:1012DE00948E3ED00001F7B102D0949C01D0948C34
:1012EE0037D00001F7B102D0949601D0948630D059
:1012FE000001F7B102D0949801D0948829D0010E44
:10130E00006E28D00001F651000AA3E0F651010A42
:10131E00A9E0F651020AADE0F651030AB1E0F6512A
:10132E00040AB5E0F651050AB9E0F651060ABDE029
:10133E00F651070AC1E0F651080AC5E0F651090A4E
:10134E00C9E0F6510A0ACDE0F6510B0AD1E0D7D723
:06135E00000E006E1200FB
:101364000001FA6B050EFA5D0AE2FA51F825E16E06
:10137400000EF921E26E200EE66EFA2BF3D7FA5135
:10138400F825E16E000EF921E26EE66AFA07FA51D9
:10139400F825FB6F000EF921FC6F0A0E046E000E97
:1013A400056EF6C000F0F7C001F058EC05F008C077
:1013B40000F009C001F0300E0026FBC0E1FFFCC0C4
:1013C400E2FF00C0E6FF0A0E046E000E056EF6C0D2
:1013D40000F0F7C001F058EC05F000C0F6F001C0D1
:1013E400F7F0000E011802E1000E001801E102D02E
:0613F400FA07CDD712003C
:1013FA000001BF51000A49E1F6C0FAF0800EF61169
:10140A00FA6FBDC0E1FFBEC0E2FF010EE66EBBC0CF
:10141A0000F0BCC001F042EC01F0ACC0E1FFADC08D
:10142A00E2FFE66AAAC000F0ABC001F042EC01F0AC
:10143A00FA0E01010A6F000E0B6F010E0C6F000EFF
:10144A000D6F73EC05F0BDC0E1FFBEC0E2FFE66AB6
:10145A00BBC000F0BCC001F042EC01F0F7C00AF1D9
:10146A00F8C00BF1F9C00CF1000E01010D6F20DC80
:10147A00ACC0E1FFADC0E2FF010EE66EAAC000F00B
:10148A00ABC001F042EC01F033D00001BF51010AB8
:10149A002FE1F6C0FBF0800EF611FB6FACC0E1FF46
:1014AA00ADC0E2FF010EE66EAAC000F0ABC001F0CB
:1014BA0042EC01F098EC05F0B2C00AF1FB0E0B6F9A
:1014CA00000E0C6F010E0D6F000E0E6F010E0F6FE6
:1014DA00DAEC05F0B2C00AF1F7C00BF1F8C00CF172
:1014EA00F9C00DF1000E01010E6F0F6BF7EC04F05D
:0214FA001200DE
:1014FC00090E0B6E1E0E0C6EE40E0D6E0D2EFED72D
:0C150C000C2EFCD70B2EFAD700001200AA
:1015180059D00001F7B102D0929001D092800F010A
:10152800259176D00001F7B102D0949001D0948033
:101538006FD00001F7B102D0969001D0968068D0A4
:101548000001F7B102D0949601D0948661D00001D1
:10155800F7B102D0949801D094885AD00001F7B11D
:1015680002D0949A01D0948A53D00001F7B102D0E6
:10157800949201D094824CD00001F7B102D093909C
:1015880001D0938045D00001F7B102D0949E01D0DC
:10159800948E3ED00001F7B102D0949C01D0948C77
:1015A80037D00001F7B102D0949601D0948630D09C
:1015B8000001F7B102D0949801D0948829D0010E87
:1015C800006E28D00001F651000AA3E0F651010A86
:1015D800A9E0F651020AADE0F651030AB1E0F6516E
:1015E800040AB5E0F651050AB9E0F651060ABDE06D
:1015F800F651070AC1E0F651080AC5E0F651090A92
:10160800C9E0F6510A0ACDE0F6510B0AD1E0D7D766
:06161800000E006E12003E
:10161E00300E0001F625006E000EF721016E000E51
:10162E00F821026E1C0E0024F66E000E0120F76EDD
:10163E00000E0220F86E0900F5CFB3F00900F5CFC9
:10164E00B4F00900F5CFB5F00900F5CFB6F0080EED
:10165E00F625F66E000EF721F76E000EF821F86EE5
:10166E000900F5CFAAF00900F5CFABF00900F5CFD0
:10167E00ACF00900F5CFADF0040EF625F66E000EB7
:10168E00F721F76E000EF821F86E0900F5CFBBF0CA
:10169E000900F5CFBCF00900F5CFBDF00900F5CF7C
:0416AE00BEF0120078
:1016B200F6C0F6FFF7C0F7FFF8C0F8FF0900F5CF54
:1016C200B7F00900F5CFB8F00900F5CFB9F009007D
:1016D200F5CFBAF0040E0001F625F66E000EF721E2
:1016E200F76E000EF821F86E0900F5CFC4F009007C
:1016F200F5CFC5F00900F5CFC6F00900F5CFC7F068
:021702001200D3
:101704000001BF51000A61E1F6C0FAF00101016B6A
:101714000001F951010F016E026A000E0222800ECF
:10172400006E800E0218005C03E101500101015DAE
:1017340019E201010151010F006E016A000E01223C
:10174400FA0E0024E16E000E0120E26E0151000148
:10175400F725E96E000EF821EA6EEECFE6FF0101EF
:10176400012BD6D7BDC0E1FFBEC0E2FF010EE66E7D
:10177400BBC000F0BCC001F042EC01F0ACC0E1FF22
:10178400ADC0E2FFE66AAAC000F0ABC001F042ECD3
:1017940001F0FA0E01010A6F000E0B6F0001F951FE
:1017A400010F01010C6F0D6B000E0D2373EC05F09E
:1017B400ACC0E1FFADC0E2FF010EE66EAAC000F0CE
:1017C400ABC001F042EC01F054D00001BF51010A5A
:1017D40050E1F6C002F1800EF6110101026F096BAF
:1017E4000001F951010F016E026A000E0222800EFF
:1017F400006E800E0218005C03E101500101095DD6
:1018040019E201010951010F006E016A000E012263
:10181400020E0024E16E010E0120E26E0951000166
:10182400F725E96E000EF821EA6EEECFE6FF01011E
:10183400092BD6D7ACC0E1FFADC0E2FF010EE66EC6
:10184400AAC000F0ABC001F042EC01F098EC05F046
:10185400B2C00AF1020E0B6F010E0C6F0001F951B8
:10186400010F01010D6F0E6B000E0E230F6BDAECEE
:0418740005F0120069
:101878005DD00001F7B102D0929401D092840F019B
:1018880025957AD00001F7B102D0969601D09686B8
:1018980073D00001F7B102D0969401D096846CD031
:1018A8000001F7B102D0949601D0948665D000016A
:1018B800F7B102D0949801D094885ED00001F7B1B6
:1018C80002D0949A01D0948A57D00001F7B102D07F
:1018D800989001D0988050D00001F7B102D093942D
:1018E80001D0938449D00001F7B102D0989401D077
:1018F80098840F01239540D00001F7B102D0989247
:1019080001D098820F01239337D00001F7B102D09C
:10191800949601D0948630D00001F7B102D0949803
:1019280001D0948829D0010E006E28D00001F6510C
:10193800000A9FE0F651010AA5E0F651020AA9E063
:10194800F651030AADE0F651040AB1E0F651050A72
:10195800B5E0F651060AB9E0F651070ABDE0F651BE
:10196800080AC1E0F651090AC7E0F6510A0ACDE0B3
:0E197800F6510B0AD1E0D7D7000E006E120018
:101986001ED0EDC0F6F0EEC0F7F0EFC0F8F083EC35
:1019960006F020D0EDC0F6F0EEC0F7F0EFC0F8F09C
:1019A60042EC07F017D0EDC0F6F0EEC0F7F0EFC04E
:1019B600F8F074EC07F00ED0010E006E0BD00001AB
:1019C600EC51000ADEE0EC51010AE4E0EC51020AB7
:0619D600EAE0F2D7120066
:1019DC0015D0EDC0F6F0EEC0F7F098DD1AD0EDC0E2
:1019EC00F6F0EEC0F7F035DC14D0EDC0F6F0EEC03A
:1019FC00F7F03CDF0ED0010E006E0BD00001EC5165
:101A0C00000AE7E0EC51010AEAE0EC51020AEDE0D1
:041A1C00F2D71200EB
:101A2000600E0001EC6F600EF66FEC0EF76F000EAB
:101A3000F86F010EF96F66DE61DD8C0E0001EC6F50
:101A4000600EF66FEC0EF76F000EF86F010EF96F77
:101A500059DE110E0001EC6F620EF66FEC0EF76F9F
:0C1A6000000EF86F010EF96F4DDE120051
:101A6C000001F26BF36BECC0F4F0EDC0F5F0800EFE
:101A7C00ED19006E800E005C02E1000EEC5D0BE2D5
:101A8C00010EF26F000EF36FEC510008F46FEDC015
:101A9C00F5F0000EF557F4C0F6F0F5C0F7F0EEC017
:101AAC00F8F0EFC0F9F058DC060EF06F000EF16F95
:101ABC00000E006EF151005C02E1F051000819E2D9
:101ACC00F051EE25E16EF151EF21E26E010EF05D69
:101ADC00006E000EF159016E0050EE25E96E0150BA
:101AEC00EF21EA6EEECFE6FF010EF05F000EF15B28
:101AFC00DFD7EEC0E1FFEFC0E2FF200EE66EF25141
:101B0C00F3111AE0F06BF16BF051EE25E96EF15127
:101B1C00EF21EA6EEE50200A03E1F04BF12BF4D7E3
:101B2C00010EF05F000EF15BF051EE25E16EF1510C
:0A1B3C00EF21E26E2D0EE66E12009E
:101B4600680E0001F66FEE0EF76F000EF86F060EC8
:101B5600F96F50DCECC0E1FFEDC0E2FFEFC0E6FF3D
:101B6600000EE66EECC0E9FFEDC0EAFFEECF03F033
:101B7600EECF04F003C001F0006AECC0E1FFEDC057
:101B8600E2FF00C0E6FF01C0E6FFECC0E9FFEDC0E2
:101B9600EAFF0001EE51EE10006EEECF01F0000EEE
:101BA6000112ECC0E1FFEDC0E2FF00C0E6FF01C09C
:101BB600E6FF020EEC25E16E000EED21E26EF1C0AD
:101BC600E6FF000EE66E020EEC25056E000EED2118
:101BD600066E05C0E9FF06C0EAFFEECF03F0EECFC2
:101BE60004F003C001F0006A05C0E1FF06C0E2FF91
:101BF60000C0E6FF01C0E6FF020EEC25026E000EF5
:101C0600ED21036E02C0E9FF03C0EAFFF051EE10BA
:101C1600006EEECF01F0000E011202C0E1FF03C01C
:101C2600E2FF00C0E6FF01C0E6FF040EEC25E16E10
:101C3600000EED21E26EF3C0E6FF000EE66E040E26
:101C4600EC25056E000EED21066E05C0E9FF06C007
:101C5600EAFFEECF03F0EECF04F003C001F0006A16
:101C660005C0E1FF06C0E2FF00C0E6FF01C0E6FFD7
:101C7600040EEC25026E000EED21036E02C0E9FF94
:101C860003C0EAFFF251EE10006EEECF01F0000E37
:101C9600011202C0E1FF03C0E2FF00C0E6FF01C07F
:041CA600E6FF120043
:101CAA00EFC0F6F0F0C0F7F0F1C0F8F0FDDCECC0E0
:101CBA00F6F0EDC0F7F0EEC0F8F0ACDCBF6BBDC0DB
:101CCA00E1FFBEC0E2FF010EE66EBBC000F0BCC081
:081CDA0001F042EC01F01200E0
:101CE2002FD0EDC0F6F0EEC0F7F0EFC0F8F0F0C084
:101CF200F9F0A6EC07F032D0EDC0F6F0EEC0F7F046
:101D0200EFC0F8F0F0C0F9F0B4EC08F027D0EDC065
:101D1200F6F0EEC0F7F0EFC0F8F0F0C0F9F021EC09
:101D220008F01CD0EDC0F6F0EEC0F7F0EFC0F8F00E
:101D3200F0C0F9F0B5EC06F011D0010E006E0ED035
:101D42000001EC51000ACDE0EC51010AD5E0EC5162
:0E1D5200020ADDE0EC51100AE5E0EFD71200C6
:101D6000ECC0EFF0EDC0F0F00D0E0001F16F0A0EC7
:101D7000F26F3AD0EFC0F6F0F0C0F7F030EC07F0B9
:101D80003ED0EFC0E9FFF0C0EAFFEE520AE0EFC03C
:101D9000F6F0F0C0F7F030EC07F00001EF4BF02B5D
:101DA000F0D72DD0EFC0E9FFF0C0EAFFEE520AE015
:101DB000EFC0F6F0F0C0F7F030EC07F00001EF4BA9
:101DC000F02BF0D70001F10EF66F000EF76F30EC3C
:101DD00007F0F20E0001F66F000EF76F30EC07F01F
:101DE0000ED0060E006E0CD00001EE51000AC2E0CB
:101DF000EE51010AC6E0EE51020AD4E0F2D7006AC1
:021E00001200CE
:101E02000001EC6B070EED6F010EEE6FE6DD0001D7
:101E1200EC6B010EED6FEE6BE0DD0001EC6B020E80
:101E2200ED6FEE6BDADD0001EC6B4F0EED6F200E05
:101E3200EE6F000EEF6FA6DD100E0001EC6F800E4C
:101E4200ED6F250EEE6F000EEF6FF06F49DF090E9A
:101E52000B6E1E0E0C6EE40E0D6E0D2EFED70C2EAA
:101E6200FCD70B2EFAD700001D0E0001EC6F000EFE
:0A1E7200ED6F020EEE6F73DF120039
:101E7C000900F5CFE6FF0006FBE10106F9E11200CF
:101E8C009E0E0001EC6F1F0EED6F000EEE6F5F0EDD
:101E9C00EF6F200EF06F000EF16F01DF290E0B6E4D
:101EAC00960E0C6E7F0E0D6E0D2EFED70C2EFCD7E3
:101EBC000B2EFAD7AFDD3E0E0001EC6F000EED6F6E
:081ECC00020EEE6F47DF120069
:101ED400A00E0001EC6F000EED6F33DE5E0EEC6FB2
:101EE400000EED6F010EEE6F39DFA0C0ECF0A1C063
:101EF400EDF0660E0001EE6F000EEF6FB5DD660EBD
:101F0400EC6F000EED6F010EEE6F28DF150E000171
:101F1400EC6F000EED6F010EEE6F20DFA2C0ECF04F
:101F2400A3C0EDF0660E0001EE6F000EEF6F9CDDB6
:101F3400660EEC6F000EED6F010EEE6F0FDF190EE3
:101F44000001EC6F000EED6F010EEE6F07DFA4C011
:101F5400ECF0A5C0EDF0660E0001EE6F000EEF6F21
:101F640083DD660EEC6F000EED6F020EEE6FF6DE93
:101F7400090E0B6E1E0E0C6EE40E0D6E0D2EFED7AA
:0C1F84000C2EFCD70B2EFAD70000120028
:0E1F900034EC10F036DF7ADF9DDFFED7FFD78E
:1020680010EE15F0510E006E010E016EFE0EF66EAA
:0E2078001F0EF76E000EF86E3EEC0FF0120019
:101F9E00C0011A0142011A0134011A0150011A013D
:101FAE006C011A015E011A0132021A0124021A0191
:101FBE0040021A015C021A014E021A01EC011A01CA
:101FCE00EA020000E0020000D6020000CC0300008E
:101FDE00260400001C04000012040000440400004B
:101FEE003A04000030040000EA030000E0030000A1
:041FFE0020593A002C
:04200200205A3A0026
:1020060020202E2E2E2073797374656D20696E69DB
:0D2016007420646F6E65202E2E2E20200099
:0420230000000000B9
:102027002E2E2E206170706C69636174696F6E204B
:10203700696E697420646F6E65202E2E2E20200035
:0420470020583A00E3
:04204B000000000091
:10204F00020000000000000000000000010000007E
:08205F0096011A01F8071401B3
:020000040030CA
:0E00000015137F7CF98B91FFFFC0FFE0FF40DE
:00000001FF
