:10000000FCFF0020512D0000092D0000092D0000EB
:10001000092D0000092D0000092D0000092D000008
:10002000092D0000092D0000092D0000092D0000F8
:10003000092D0000092D0000092D0000092D0000E8
:10004000092D0000092D0000092D0000092D0000D8
:10005000092D0000092D0000092D0000092D0000C8
:10006000092D0000092D0000092D0000092D0000B8
:10007000092D0000092D0000092D0000092D0000A8
:10008000092D0000092D0000092D0000092D000098
:10009000092D0000092D0000092D0000092D000088
:1000A000092D0000092D0000092D0000092D000078
:1000B000092D0000092D0000092D0000092D000068
:1000C000092D0000092D0000092D0000092D000058
:1000D000092D0000092D0000092D0000092D000048
:1000E000092D0000092D0000092D0000092D000038
:1000F000092D0000092D0000092D0000092D000028
:102D500000F010F8FFF7DCFF00F0CCFBFFF7EEFF10
:102D600000F07AFBFFF79CFFFFF772FFFFF720FFF1
:042D7000FCE7FEE797
:102B340081B01CF8019B0BF8019BBBEB0A0FF8D189
:042B440001B0704725
:102B680081B04FF000094FF0000CBDEB0A0F04DCF8
:102B7800BDEB0B0F01DBD446EA464BF8049BBBEBDD
:102B88000A0FFAD1BCEB0A0F05DDE246D9F800B00E
:0A2B98000BF1040BF1E701B07047E8
:102CA00081B0CDF800E0012207210020FFF72EFEC1
:102CB000002201210020FFF729FE0022022100202E
:102CC000FFF724FE0E4801460020FFF7D3FE42F234
:102CD00080510120FFF7A4FE44F67D77C0F2120771
:102CE00000BF00BF7F1EFDD100BF00BF00BF054871
:102CF0000221FFF73FFEDDF800E001B0704700BFA2
:082D00004C1D00002C00002016
:10290C0081B0CDF800E05FFA81F95FFA82FA1DE040
:10291C005FFA8AF15FFA89F0FFF7FAFB1FE05FFAC2
:10292C008AF15FFA89F0FFF7DBFC18E05FFA8AF1B5
:10293C005FFA89F0FFF7BCFD11E05FFA8AF15FFAEC
:10294C0089F0FFF7EDFA0AE0012008E00028DFD05B
:10295C000128E4D00228E9D00328EED0F4E7DDF812
:06296C0000E001B070471D
:10211C0081B0CDF800E0A9E0012905D140F2010120
:10212C006548FFF78BFB04E040F201016348FFF7C1
:10213C00F5FBBBE0012905D140F240016048FFF7F7
:10214C007DFB04E040F240015E48FFF7E7FBADE0A9
:10215C00012905D140F201015948FFF76FFB04E05A
:10216C0040F201015748FFF7D9FB9FE0012905D147
:10217C0040F220015448FFF761FB04E040F22001DB
:10218C005248FFF7CBFB91E0012905D140F28001C9
:10219C004D48FFF753FB04E040F280014B48FFF73A
:1021AC00BDFB83E0012905D140F240014648FFF711
:1021BC0045FB04E040F240014448FFF7AFFB75E0FB
:1021CC00012905D140F280014148FFF737FB04E0BB
:1021DC0040F280013F48FFF7A1FB67E0012905D1E0
:1021EC0040F210013A48FFF729FB04E040F21001DD
:1021FC003848FFF793FB59E0012905D140F204015F
:10220C003548FFF71BFB04E040F204013348FFF7AD
:10221C0085FB4BE0012905D140F208012E48FFF760
:10222C000DFB04E040F208012C48FFF777FB3DE082
:10223C00012905D140F220011F48FFF7FFFA04E005
:10224C0040F220011D48FFF769FB2FE0012905D161
:10225C0040F210011848FFF7F1FA04E040F21001C7
:10226C001648FFF75BFB21E0012020E000283FF43B
:10227C0053AF01283FF45EAF02283FF469AF032847
:10228C003FF474AF04283FF47FAF05283FF48AAFC6
:10229C0006283FF495AF0728A0D00828ACD0092811
:1022AC00B8D00A28C4D00B28D0D0DDE70020DDF848
:1022BC0000E001B0704700BF414C0040434C00406F
:1022CC00404C0040424C0040004C0040024C00404E
:1022DC00014C0040034C0040204C0040224C00407C
:1018480081B0CDF800E0002424B240F240031BB27E
:1018580040F2040212B242EA03031BB240F2010250
:1018680012B243EA020293B2002210B4FFF732FC2C
:0A18780001B0DDF800E001B0704798
:1010DC0083B0CDF800E08DB20146D0B2BDF90C2042
:1010EC0001F0010414B12F02BFB200E0AFB28F4C7B
:1010FC000C1B640965018D4C6419A0468C4CA042F4
:10110C0007D108F10406FD43ADB234882C4034807D
:10111C0007E0884CA04204D108F104052C883C431C
:10112C002C8040F2010403EA0404A4B23CB108F19F
:10113C000606FD43ADB234882C4034800AE040F200
:10114C00020403EA0404A4B224B108F106052C88B5
:10115C003C432C8040F2040403EA0404A4B23CB1E6
:10116C0008F10806FD43ADB234882C4034800AE007
:10117C0040F2080403EA0404A4B224B108F10805FF
:10118C002C883C432C8040F2100403EA0404A4B2E3
:10119C003CB108F11806FD43ADB234882C403480C4
:1011AC000AE040F2200403EA0404A4B224B108F1DA
:1011BC0018052C883C432C8040F2400403EA0404BC
:1011CC00A4B23CB108F11A06FD43ADB234882C40F0
:1011DC0034800AE040F2800403EA0404A4B224B18F
:1011EC0008F11A052C883C432C8003F48074A4B2BB
:1011FC007CB908F10A06FD43ADB234882C4034802A
:10120C0008F10C06FD43ADB234882C40348000202C
:10121C0087E01F2A01DD012083E0FFF731FF00206A
:10122C00B9B2C7B24046102F80F07A8021FA07F489
:10123C00A4B204F00104A4B2002C00F06E8000F201
:10124C000A06CD43ADB234882C40348000F20C0633
:10125C00CD43ADB234882C40348003F48064A4B206
:10126C002CB1ADF806100024ADF808400DE003F4E5
:10127C000064A4B22CB10024ADF80640ADF80810FF
:10128C0003E0ADF80610ADF8081000F20A06358838
:10129C00BDF8064045EA0404348000F20C0635889B
:1012AC00BDF8084045EA04043480234C041B64094F
:1012BC00ADF80440214CA24218D0BDF80440E40023
:1012CC00A4B265001E4C65197C08E4B264002E19AA
:1012DC0007F00104E4B2E5002DB240F2FF04AC408B
:1012EC00A4B2E543ADB234882C403480BDF8044040
:1012FC00E400A4B26500124C65197C08E4B26400E9
:10130C002E1907F00104E4B2E5002DB294B204FAF0
:10131C0005F5ADB234882C4334807F1CFFB282E7D4
:10132C000020DDF800E003B0704700BF004C004027
:10133C000000000001000000004C00400000000014
:04134C000850004005
:10108C0081B042F65251034801800221024801808E
:0C109C0001B070470050004002500040BE
:1019280081B0CDF800E0002424B240F240031BB29D
:1019380040F2040212B242EA03031BB240F201026F
:1019480012B243EA020293B2012210B4FFF7C2FBBB
:0A19580001B0DDF800E001B07047B7
:1022EC0081B0CDF800E0A9E0012905D140F2080148
:1022FC006548FFF7A3FA04E040F208016348FFF7D2
:10230C000DFBBBE0012905D140F280016048FFF7CD
:10231C0095FA04E040F280015E48FFF7FFFAADE069
:10232C00012905D140F204015B48FFF787FA04E06C
:10233C0040F204015948FFF7F1FA9FE0012905D159
:10234C0040F220015648FFF779FA04E040F22001F0
:10235C005448FFF7E3FA91E0012905D140F28001DE
:10236C004F48FFF76BFA04E040F280014D48FFF74D
:10237C00D5FA83E0012905D140F240014848FFF726
:10238C005DFA04E040F240014648FFF7C7FA75E0F9
:10239C00012905D140F240014348FFF74FFA04E010
:1023AC0040F240014148FFF7B9FA67E0012905D135
:1023BC0040F240013648FFF741FA04E040F2400198
:1023CC003448FFF7ABFA59E0012905D140F204017A
:1023DC003548FFF733FA04E040F204013348FFF7C5
:1023EC009DFA4BE0012905D140F208012E48FFF778
:1023FC0025FA04E040F208012C48FFF78FFA3DE083
:10240C00012905D140F220012148FFF717FA04E019
:10241C0040F220011F48FFF781FA2FE0012905D176
:10242C0040F210011A48FFF709FA04E040F21001DB
:10243C001848FFF773FA21E0012020E000283FF450
:10244C0053AF01283FF45EAF02283FF469AF032875
:10245C003FF474AF04283FF47FAF05283FF48AAFF4
:10246C0006283FF495AF0728A0D00828ACD009283F
:10247C00B8D00A28C4D00B28D0D0DDE70020DDF876
:10248C0000E001B0704700BF214C0040234C0040DD
:10249C00414C0040434C0040404C0040424C0040FA
:1024AC00004C0040024C0040014C0040034C0040EA
:1024BC0081B0CDF800E0A9E0012905D140F202017C
:1024CC006548FFF7BBF904E040F202016348FFF7EF
:1024DC0025FABBE0012905D140F280016048FFF7E5
:1024EC00ADF904E040F280015E48FFF717FAADE069
:1024FC00012905D140F240015948FFF79FF904E04A
:10250C0040F240015748FFF709FA9FE0012905D135
:10251C0040F220015448FFF791F904E040F2200109
:10252C005248FFF7FBF991E0012905D140F2400137
:10253C004D48FFF783F904E040F240014B48FFF7A8
:10254C00EDF983E0012905D140F280014648FFF7FF
:10255C0075F904E040F280014448FFF7DFF975E0BB
:10256C00012905D140F220014148FFF767F904E049
:10257C0040F220013F48FFF7D1F967E0012905D16E
:10258C0040F201013C48FFF759F904E040F2010127
:10259C003A48FFF7C3F959E0012905D140F204018B
:1025AC003548FFF74BF904E040F204013348FFF7DC
:1025BC00B5F94BE0012905D140F208012E48FFF78F
:1025CC003DF904E040F208012C48FFF7A7F93DE083
:1025DC00012905D140F280012948FFF72FF904E0C9
:1025EC0040F280012748FFF799F92FE0012905D126
:1025FC0040F240012248FFF721F904E040F240018B
:10260C002048FFF78BF921E0012020E000283FF45F
:10261C0053AF01283FF45EAF02283FF469AF0328A3
:10262C003FF474AF04283FF47FAF05283FF48AAF22
:10263C0006283FF495AF0728A0D00828ACD009286D
:10264C00B8D00A28C4D00B28D0D0DDE70020DDF8A4
:10265C0000E001B0704700BF404C0040424C0040CD
:10266C00214C0040234C0040804C0040824C0040E8
:10267C00604C0040624C0040014C0040034C004058
:08268C00204C0040224C0040EC
:101F2C0081B0CDF800E0A9E0012905D140F208010B
:101F3C006548FFF783FC04E040F208016348FFF7B3
:101F4C00EDFCBBE0012905D140F220016048FFF710
:101F5C0075FC04E040F220015E48FFF7DFFCADE0C9
:101F6C00012905D140F210015948FFF767FC04E044
:101F7C0040F210015748FFF7D1FC9FE0012905D131
:101F8C0040F220015048FFF759FC04E040F22001D8
:101F9C004E48FFF7C3FC91E0012905D140F2400106
:101FAC004948FFF74BFC04E040F240014748FFF77B
:101FBC00B5FC83E0012905D140F280014248FFF7CE
:101FCC003DFC04E040F280014048FFF7A7FC75E0BF
:101FDC00012905D140F220013F48FFF72FFC04E016
:101FEC0040F220013D48FFF799FC67E0012905D13B
:101FFC0040F202013848FFF721FC04E040F20201F4
:10200C003648FFF78BFC59E0012905D140F2040159
:10201C003148FFF713FC04E040F204012F48FFF7AE
:10202C007DFC4BE0012905D140F208012A48FFF75D
:10203C0005FC04E040F208012848FFF76FFC3DE086
:10204C00012905D140F280012548FFF7F7FB04E098
:10205C0040F280012348FFF761FC2FE0012905D1F4
:10206C0040F240011E48FFF7E9FB04E040F240015A
:10207C001C48FFF753FC21E0012020E000283FF42E
:10208C0053AF01283FF45EAF02283FF469AF032839
:10209C003FF474AF04283FF47FAF05283FF48AAFB8
:1020AC0006283FF495AF0728A0D00828ACD0092803
:1020BC00B8D00A28C4D00B28D0D0DDE70020DDF83A
:1020CC0000E001B0704700BF804C0040824C0040E3
:1020DC00214C0040234C0040014C0040034C00407C
:0820EC00204C0040224C004092
:102A740081B0CDF800E011E00846FFF739FB16E01D
:102A84000846FFF73FFB12E00846FFF737FE0EE06B
:102A94000846FFF73DFE0AE0012008E00028EBD0DD
:102AA4000128EDD00228EFD00328F1D0F4E7DDF8B7
:062AB40000E001B07047D4
:1020F40081B0CDF800E0FFF7CDFC0020DDF800E072
:0421040001B070476F
:101A980081B0CDF800E0054B40F2800204490548CA
:101AA800FFF75CFDDDF800E001B070474C31000045
:081AB800A0860100002400409B
:1015640087B0CDF800E08446059106921846FFF74F
:101574007FFB6046FFF7C6FB06996046FFF7CAFB90
:10158400BCF8005040F6017445EA0404ACF800408D
:1015940001AC2046FFF7F2FB069C402C05D1059DCB
:1015A400019CB4FBF5F4A0B209E0069C802C05D1A3
:1015B400059D049CB4FBF5F4A0B200E000200CF1FE
:1015C400060420801D4CA44506D11D4D1D4C2560EC
:1015D4001D4D1E4C25601CE01D4CA44506D11D4D1F
:1015E400184C25601C4D194C256012E01B4CA44579
:1015F40006D11B4D134C25601A4D144C256008E090
:10160400194CA44505D1194D0E4C2560184D0F4CAD
:10161400256040F201016046FFF744FD6046FFF794
:1016240005FC03216046FFF725FD02216046FFF714
:1016340017FBDDF800E007B0704700BF0020004052
:1016440075130000BC00002041150000C0000020FC
:10165400002400403D170000B9100000002800409D
:101664000517000089140000002C004089170000B1
:04167400D11400008D
:100D800082B0CDF800E004462849096801F4E0612A
:100D9000090A08462549096801F0E061090E0A467A
:100DA000214601911146FFF70FFB019908601F4989
:100DB000096801F07001090908461C49096801F435
:100DC000E001090D0A4604F2080101911146FFF7FE
:100DD000FBFA019908601549096801F070010909D9
:100DE00008461249096801F0E041090F0A4604F279
:100DF0000C0101911146FFF7E7FA019908600B49D0
:100E0000096801F0070108460849096801F4E02172
:100E1000090C0A46211D01911146FFF7D5FA0199E7
:100E20000860DDF800E002B0704700BF0804014030
:1003C80081B0CDF800E002460846FFF7B7FEC3B299
:1003D80071E0424A126802F00102D2B140F2010013
:1003E800FFF796FE3D4A126802F001028AB13C4AC4
:1003F800126802F400422AB14FF4FA3292FBF3F287
:10040800104666E048F20002B2FBF3F292B290B2F4
:100418005FE0344A1268B2FBF3F2104659E02F4A03
:10042800126802F00202D2B140F20200FFF770FE39
:100438002A4A126802F002028AB1294A126802F4B2
:1004480000422AB14FF4FA3292FBF3F2104640E030
:1004580048F20002B2FBF3F292B290B239E0224ABB
:100468001268B2FBF3F2104633E0204A1268B2FB7E
:10047800F3F210462DE01A4A126802F400422AB13B
:100488004FF4FA3292FBF3F2104622E048F20002EF
:10049800B2FBF3F292B290B21BE0FFF7C3FEB0FBDF
:1004A800F3F2104615E0124A1268B2FBF3F2104656
:1004B8000FE000200DE0002A3FF48BAF052AAED0F4
:1004C800012AD2D0022AD6D0032AE6D0042AEAD0BA
:1004D800EFE7DDF800E001B0704700BF48040140D5
:1004E80030040140D8000020DC0000205C0000201F
:0404F8006000002080
:1001440081B0012109B2814009B208B201B07047FF
:1001180081B0074A07490A600749096841EA0002AD
:1001280005490A60012203490A6001B0704700BF0F
:0C0138005A69000000040140500401401E
:10022C0082B01748006800F4E02114E015480190F2
:10023C0023E01548019020E0144801901DE014487B
:10024C0001901AE01348019017E01348019014E054
:10025C000020019011E00029E8D0B1F5803FE8D0F2
:10026C00B1F5003FE8D0B1F5403FE8D0B1F5802FB3
:10027C00E8D0B1F5A02FE8D0EAE7019802B07047BA
:10028C000404014060E31600C0C62D00808D5B00A5
:0C029C00001BB70000366E01006CDC0295
:100C740081B0CDF800E040F2000A814609F1D801C4
:100C840009788A453AD20C210AFB01F109EB0101EA
:100C94008B460BF1080109781F2915D10BF10801C6
:100CA4000978CCB20BF1060109888BB20BF104016F
:100CB40009888AB2DBF80010084691B2002210B409
:100CC40000F00AFA01B014E00BF108010978CCB283
:100CD4000BF1060109888BB20BF1040109888AB271
:100CE400DBF80010084691B2FF2210B400F0F4F9CA
:100CF40001B00AF1010A5FFA8AFABFE7DDF800E001
:040D040001B0704783
:100D080081B00122018862F30001018001B07047BF
:100D180081B003884FF63F7203EA0202028002881C
:080D28000A43028001B070478C
:1010A80081B08BB2028863F30412028001B07047EA
:100E300081B00022018862F30001018001B0704797
:1010780081B000F22C04CB439BB222881A40228014
:0410880001B07047FC
:100C640081B000F22A031A880A431A8001B070473F
:1021080081B0CDF800E0FFF7C3FC0020DDF800E067
:0421180001B070475B
:1027000081B0CDF800E0FFF7A1F90020DDF800E08E
:0427100001B070475D
:101A4C0081B0CDF800E0054B40F280020449054816
:101A5C00FFF782FDDDF800E001B07047B82E000002
:081A6C00A086010000280040E3
:1027140081B0CDF800E0FFF797F90020DDF800E084
:0427240001B0704749
:102A200081B0CDF800E015E00846FFF77DFE1CE020
:102A30000846FFF72FFE18E00846FFF73DFE14E0BA
:102A40000846FFF74BFE10E00846FFF723FA0CE0BC
:102A500001200AE00028E7D00128E9D00228EBD0C5
:102A60000328EDD01028EFD0F2E7DDF800E001B048
:022A70007047AD
:1027280081B0CDF800E0FFF75DF9044A04490A607A
:102738000020DDF800E001B0704700BFE917000095
:042748006400002009
:1019EC0081B0CDF800E084460B4A0C490A600C4AE1
:1019FC000C490A600C4A0D490A600D4A0D490A60EF
:101A0C000D48FFF731F961460C48FFF743FEDDF84E
:101A1C0000E001B0704700BFE9170000E4000020AF
:101A2C00FFFFFFFFE8000020FFFFFFFFEC0000209E
:101A3C00FFFFFFFFF0000020703000000018004096
:1016A00081B0CDF800E007460C463846FFF7C2F897
:1016B00040F280013846FFF7B1F840F200013846A9
:1016C000FFF762F840F200013846FFF7E9F940F20F
:1016D00000013846FFF7BEF940F200013846FFF737
:1016E000EFF940F200013846FFF7ACFA21463846E0
:1016F000FFF7F8F93846FFF7B9F8DDF800E001B078
:02170000704730
:0E08340081B0018841F00101018001B07047E0
:10081C0081B003884FF63F7203EA0202028002881D
:08082C000A43028001B070478D
:1007880081B031B903884DF6FF7203EA0202028094
:0C07980002E002880A43028001B07047B2
:100AA00081B0B1F5006F03D102880A43028005E0EE
:100AB00003884FF2FF7203EA0202028001B070471E
:100A540081B019E0038847F6FF7203EA02020280BC
:100A640019E0028842F40042028002880A430280AC
:100A740011E0028842F40042028003884BF6FF72C0
:100A840003EA0202028006E00029E3D0B1F5804FB8
:0A0A9400E7D00029EDD001B0704753
:100AC00081B0B1F5807F04D1028842F48072028047
:100AD00005E003884FF6FF6203EA0202028001B0DC
:020AE00070475D
:100C440081B0B1F5805F03D102880A43028005E0D8
:100C540003884EF6FF7203EA0202028001B0704775
:100AE40088B0CDF800E005460E4604AA104600F092
:100AF40045F904AA11462846FFF7D4FB00EE900AF4
:100B0400F8EE600A00EE106AB8EE400A80EE800A41
:100B1400B0EE401A01AA1046FFF7E0FBDDED010A32
:100B2400FCEE600A10EE902A92B291B2414A00EEB5
:100B3400902A20EE200ABCEE400A10EE100A80B281
:100B440005F2080423884FF6FE7203EA02022280AB
:100B540010292ED905F208031A8842F001021A80DE
:100B6400B3EE000A81EE000ABCEE400A10EE102A31
:100B740092B2ADF80820B3EE000AC1EE000AB3EE5B
:100B8400000A81EE000ABCEE400A10EE102A92B26E
:100B940000EE102AB8EE400A70EEC00AB3EE000A66
:100BA40020EE800ABCEE400A10EE102A92B2ADF894
:100BB4000A2020B90022ADF80C20284616E00124B2
:100BC4002946242C11D263001B4AD2181288904261
:100BD40008D2621E12B25300184AD2181288ADF815
:100BE4000C2002E0641CE4B2EBE70846831D0022FB
:100BF4001A80841D2388BDF8082043EA020222805B
:100C040000F208031A8802F001021A8000F20804B4
:100C1400BDF80C2013029BB2BDF80A20120192B257
:100C240013439BB222881A432280DDF800E008B007
:100C3400704700BF00401C46AE330000F63300008E
:1002A80081B0028802F0C00292B2920992B290B272
:1002B8000AB900200EE0012802D10A68104609E0B8
:1002C800022802D0032800D004E001F20C021268D0
:0802D8001046FFE701B070477A
:1002E00082B08DED010A9DED010AB5EEC00AF1EE76
:1002F00010FA0ADBDDED010AB7EE000AF4EEC00ADF
:10030000F1EE10FA01DA012100E0002189B9DDEDFA
:10031000010ABFEE000AF4EEC00AF1EE10FA07DDA2
:100320009DED010AB5EEC00AF1EE10FA00DC00E026
:1003300008E04FF0000100EE101A00ED000A9DEDFC
:10034000010A23E001A90968C90D01F0FF017F3905
:1003500089B2182908D99DED010A00ED000A4FF075
:10036000000100EE101A11E09DED010ABDEE400AF9
:1003700010EE101A00EE101AB8EEC00A00ED000AD6
:1003800050ED000A9DED010A30EE600A02B07047A0
:10086C0081B002884FF6FE7102EA0101018001B0ED
:02087C007047C3
:1026940081B0CDF800E0FFF777F9044A04490A60F5
:1026A4000020DDF800E001B0704700BFFD1A000013
:0426B400640000209E
:10198C0081B0CDF800E084460B4A0C490A600C4A41
:10199C000C490A600C4A0D490A600D4A0D490A604F
:1019AC000D48FFF761F961460C48FFF773FEDDF84F
:1019BC0000E001B0704700BFFD1A0000E4000020F9
:1019CC00FFFFFFFFE8000020FFFFFFFFEC000020FF
:1019DC00FFFFFFFFF0000020283200000014004041
:1026B80081B0CDF800E0FFF765F9044A04490A60E3
:1026C8000020DDF800E001B0704700BFFD1A0000EF
:0426D800640000207A
:1026DC0081B0CDF800E0FFF753F9044A04490A60D1
:1026EC000020DDF800E001B0704700BFFD1A0000CB
:0426FC006400002056
:101E940081B0CDF800E0FFF715FD044A04490A605B
:101EA4000020DDF800E001B0704700BF191B0000FE
:041EB40064000020A6
:1018C80081B0CDF800E084460B4A0C490A600C4A06
:1018D8000C490A600C4A0D490A600D4A0D490A6014
:1018E8000D48FFF7C3F961460C48FFF7D5FEDDF850
:1018F80000E001B0704700BF191B0000E4000020A1
:10190800FFFFFFFFE8000020FFFFFFFFEC000020C3
:10191800FFFFFFFFF0000020942F000000100040A0
:1029740083B0CDF800E0024610460D228DF8082001
:102984000A228DF809201FE0FFF794FA23E0027869
:102994002AB10190FFF78EFA0198401CF7E71AE07C
:1029A40002782AB10190FFF785FA0198401CF7E7F5
:1029B40002AA1046FFF77EFA0DF109021046FFF74E
:1029C40079FA08E0062007E00029DDD00129DED0ED
:1029D4000229E5D0F6E70020DDF800E003B07047F7
:101EB80081B0CDF800E00178CCB2A0B2034C246820
:101EC800A0470020DDF800E001B070476400002062
:1019780081B0CDF800E0FFF7E7FCDDF800E001B04A
:021988007047A6
:1013500081B00649098801B1FBE7054908800349C6
:10136000098801B1FBE701B0704700BF40010242AC
:041370000E1000401B
:1019640081B0CDF800E0FFF715FDDDF800E001B02F
:021974007047BA
:1013980081B00649098801B1FBE70549088003497E
:1013A800098801B1FBE701B0704700BF40810242E4
:0413B8000E140040CF
:101AC00081B0CDF800E0FFF779FCDDF800E001B06F
:021AD00070475D
:1013BC0081B00649098801B1FBE70549088003495A
:1013CC00098801B1FBE701B0704700BF400103423F
:0413DC000E180040A7
:101B5C0081B0CDF800E0FFF7A3FCDDF800E001B0A8
:021B6C007047C0
:1014AC0081B00649098801B1FBE705490880034969
:1014BC00098801B1FBE701B0704700BF40810342CE
:0414CC000E1C0040B2
:101B480081B0CDF800E0FFF7D1FCDDF800E001B08E
:021B58007047D4
:1014F40081B00649098801B1FBE705490880034921
:10150400098801B1FBE701B0704700BF0001044244
:041514000E20004065
:101B340081B0CDF800E0FFF793FCDDF800E001B0E0
:021B44007047E8
:1014640081B00649098801B1FBE7054908800349B1
:10147400098801B1FBE701B0704700BF0081044255
:041484000E240040F2
:101AE80081B0CDF800E0FFF781FCDDF800E001B03F
:021AF800704735
:1013F40081B00649098801B1FBE705490880034922
:10140400098801B1FBE701B0704700BF0001054244
:041414000E2800405E
:101AD40081B0CDF800E0FFF7B1FCDDF800E001B023
:021AE400704749
:1014400081B00649098801B1FBE7054908800349D5
:10145000098801B1FBE701B0704700BF0081054278
:041460000E2C00400E
:101B180081B0CDF800E081B20348FFF779FCDDF829
:0C1B280000E001B0704700BF001000405A
:1014180081B0ADF800100146BDF8000001F20A02E3
:10142800128802F0010292B202B1F7E701F20E024D
:06143800108001B07047B6
:101AFC0081B0CDF800E081B20348FFF787FCDDF838
:0C1B0C0000E001B0704700BF0014004072
:1017E80081B0CDF800E081B20348FFF711FEDDF8C3
:0C17F80000E001B0704700BF0018004086
:1018040081B0CDF800E081B20348FFF703FEDDF8B4
:0C18140000E001B0704700BF001C004065
:102C500081B0CDF800E01E220C490D48FFF700FEC0
:102C600048F67D57C0F25B0700BF00BF7F1EFDD155
:102C700000BF00BF00BFFFF7B5FE06480221FFF707
:102C800079FEDDF800E001B0704700BF441D000090
:082C9000043300000C000020D9
:1028600081B0CDF800E00446094B1A700846FFF726
:10287000E7FA2046FFF728FA0124064B1C700120D6
:10288000054C2468A047DDF800E001B0704700BFA8
:0C2890004B0000204A000020AC0000209B
:0C1ED80001490870704700BF6088094293
:0C1E700001490870704700BF5888094203
:0C1E7C0001490870704700BF408809420F
:0C1E880001490870704700BF54800942F7
:0C1F080001490870704700BF5C8009426E
:0C1F140001490870704700BF5880094266
:0C1F200001490870704700BF7C80094236
:0C1EE40001490870704700BF708009427F
:0C1EF00001490870704700BF4884094297
:0C1EFC0001490870704700BF4C84094287
:0C28240001490870704700BF7488094229
:0C28300001490870704700BF7088094221
:0C283C0001490870704700BF6C8409421D
:0C28180001490870704700BF7C8809422D
:0C27F40001490870704700BF4888094286
:0C28000001490870704700BF5480094275
:0C280C0001490870704700BF5C80094261
:0C28480001490870704700BF5880094229
:0C28540001490870704700BF78800942FD
:0C277C0001490870704700BF78880942CE
:0C27880001490870704700BF68800942DA
:0C27940001490870704700BF6C800942CA
:0C27700001490870704700BF74880942DE
:0C274C0001490870704700BF7088094206
:0C27580001490870704700BF4488094226
:0C27640001490870704700BF7C840942E6
:0C27D00001490870704700BF788409427E
:0C27DC0001490870704700BF549009428A
:0C27E80001490870704700BF589009427A
:0C27C40001490870704700BF5C9009429A
:0C27A00001490870704700BF548C0942CA
:0C27AC0001490870704700BF60800942BE
:0C27B80001490870704700BF68800942AA
:0C1E640001490870704700BF6C80094203
:0C1BC40001490870704700BF5C840942B2
:0C1BB80001490870704700BF58840942C2
:0C1BAC0001490870704700BF4C900942CE
:0C1BDC0001490870704700BF7484094282
:0C1BD00001490870704700BF7084094292
:0C1B7C0001490870704700BF54900942F6
:0C1B700001490870704700BF58900942FE
:0C1B940001490870704700BF5C900942D6
:0C1BA00001490870704700BF74800942C2
:0C1B880001490870704700BF64800942EA
:0C1E280001490870704700BF6880094243
:0C1E1C0001490870704700BF6C8009424B
:0C1E340001490870704700BF5C8409423F
:0C1E580001490870704700BF588409421F
:101E4000026803490A60011D0A6802490A60704776
:081E5000A0000020A400002006
:101CC80000F230011C310A6805490A6000F2080177
:101CD8000A6804490A60011D0A6803490A607047D6
:0C1CE800A8000020AC000020B00000208C
:1029E40082B0CDF800E001A96320087001226020C4
:1029F400FFF7F8F8FFF7AAF901A98C200870012263
:102A04006020FFF7EFF801A911200870012262206D
:0C2A1400FFF7E8F8DDF800E002B07047C2
:101BE80086B0CDF800E08DF814200A46304B1B78FB
:101BF80043BB01AB187000209DF814305B1C1BB26E
:101C080098420ADA441C24B201AB1C1913181B7839
:101C18002370431CD9B2C8B2EEE70120254C2468D2
:101C2800A0470020244C2468A0479DF814305C1C71
:101C380001ABA1B21846FFF7B5FD01201E4C246880
:101C4800A04730E01A4B1B78012B2CD10DF10B0467
:101C58002070237843F080032370002011469DF8FC
:101C680014305B1C1BB298420ADA441C24B20DF1F2
:101C78000B031C190B181B782370431CD8B2EEE712
:101C880001200D4C2468A047FFF7F8FD9DF814309B
:101C98005D1C0DF10B04094B1B78AAB22146D8B282
:101CA8000123FFF7B9FDDDF800E006B0704700BF7B
:101CB8004A000020B0000020AC0000204B000020AB
:1017AC0083B0CDF800E08AB2014690B283B2421EFB
:1017BC0090B26BB10A78D4B2ADF804000291A0B229
:1017CC00054C2468A0470299BDF80400491CEDE7BC
:0C17DC00DDF800E003B07047B40000200E
:0818840040F2000000B27047C1
:1018200082B0CDF800E040F20004ADF80440054C71
:101830002468A047BDF90440044320B2DDF800E06D
:0818400002B07047A000002077
:1015400081B0CDF800E008B413460A46C1B20448A1
:10155000FFF7AAF901B0DDF800E001B0704700BF65
:041560000020004027
:1008A80087B0CDF800E08DF8041001469DF80400EB
:1008B80005920693079C07944C4CA1420AD14C4DD3
:1008C8002C6803942C46246804944A4C25684A4CA6
:1008D800256028E0494CA1420AD1494D2C6803946F
:1008E8002C4624680494474C2568434C25601AE03C
:1008F800454CA1420AD1454D2C6803942C462468E6
:100908000494434C25683C4C25600CE0414CA142C2
:1009180009D1414D2C6803942C46246804943F4C1B
:100928002568354C256001910291C1B20298FFF704
:100938002BFD01993A4C247854B9019108460121BC
:10094800FFF7D8FD019908B101204BE00D461FE0E3
:1009580001250C8865F304140C8008460588C5F346
:1009680080046CB1049C54B1039C2CB90720224C20
:100978002468A047012035E0039C641E0394EDE73A
:10098800048844F0020404800025254C257005469F
:1009980000262A463146069CA14214D2059C6418BA
:1009A800247801920291E1B21046FFF761FE0299A4
:1009B800019A20B11046FFF749FE012012E04C1CB5
:1009C80026463146E7E7079C012C07D11046FFF77A
:1009D8003DFE002801D0012004E002E00125104C72
:1009E80025700020DDF800E007B0704700200040C7
:1009F8004C000020C8000020C40000200024004053
:100A080050000020CC0000200028004054000020A6
:100A1800D0000020002C004058000020D400002006
:040A28004900002061
:1003900081B000F2140212888A420FD000F21602D5
:1003A00012888A420AD000F2180212888A4205D0C6
:1003B00000F21A0212888A4200D000E002E000F245
:0803C0002002118001B070471A
:1004FC0085B0CDF800E0CCB20146464A91420AD113
:10050C00454B1A6803921A4612680492434A1368C0
:10051C00434A136028E0434A91420AD1424B1A687D
:10052C0003921A4612680492404A13683C4A1360BC
:10053C001AE03F4A91420AD13E4B1A6803921A467E
:10054C00126804923C4A1368354A13600CE03B4A2B
:10055C00914209D13A4B1A6803921A4612680492D6
:10056C00384A13682E4A13608DF8044002910846ED
:10057C00FFF7EAFD02999DF8044008B1012044E020
:10058C00E3B20A8863F304120A800A8842F002027A
:10059C000A80012C1CD1084600F22C021388C3F3EC
:1005AC0040026AB9049A52B1039A2AB906201C4C2B
:1005BC002468A047012028E0039A521E0392EBE71F
:1005CC0000F22C040023228863F3410222801BE0FA
:1005DC00084600F22C021388C3F300026AB9049A8D
:1005EC0052B1039A2AB906200D4C2468A047012069
:1005FC000BE0039A521E0392EBE700F22C0400234B
:10060C00228863F3000222800020DDF800E005B0B0
:10061C00704700BF002000404C000020C8000020A4
:10062C00C40000200024004050000020CC0000201A
:10063C000028004054000020D0000020002C004076
:08064C0058000020D40000203A
:1001540083B0CDF800E0274988420AD1264A1168C5
:10016400019111460968029124490A6824490A60E8
:1001740028E0244988420AD1234A11680191114692
:100184000968029121490A681D490A601AE0204958
:1001940088420AD11F4A11680191114609680291E7
:1001A4001D490A6816490A600CE01C49884209D1B5
:1001B4001B4A1168019111460968029119490A689C
:1001C4000F490A6003461846FFF798FF68B9029979
:1001D40051B1019929B90520094C2468A04701208F
:1001E40004E00199491E0191EDE70020DDF800E0EB
:1001F40003B07047002000404C000020C8000020DD
:10020400C40000200024004050000020CC00002046
:100214000028004054000020D0000020002C0040A2
:0802240058000020D400002066
:1001000081B000F208010A88C2F3001181F00101F8
:08011000C9B2C8B201B070478A
:1006780083B0CDF800E0354A90420AD1344B1A686D
:1006880001921A4612680292324A1368324A13607B
:1006980028E0324A90420AD1314B1A6801921A4630
:1006A800126802922F4A13682B4A13601AE02E4AE6
:1006B80090420AD12D4B1A6801921A46126802928A
:1006C8002B4A1368244A13600CE02A4A904209D145
:1006D800294B1A6801921A4612680292274A13682F
:1006E8001D4A136000F22C021388C3F3401232B182
:1006F80000F22C040023228863F34512228000F2C2
:100708000E02118000F22C021388C3F340026AB96A
:10071800029A52B1019A2AB904200F4C2468A047C2
:1007280001200FE0019A521E0192EBE700F22C041F
:100738000023228863F34102228000F22C021388EE
:10074800C3F34010DDF800E003B07047002000401C
:100758004C000020C8000020C400002000240040F5
:1007680050000020CC000020002800405400002049
:10077800D0000020002C004058000020D4000020A9
:1006540081B0CDF800E00122018862F382010180BB
:10066400FFF776FD08B1012000E00020DDF800E08E
:0406740001B070471A
:1010B80081B0CDF800E008B413460A46C1B204482E
:1010C800FFF7EEFB01B0DDF800E001B0704700BFAC
:0410D80000240040B0
:1014880081B0CDF800E008B413460A46C1B204485A
:10149800FFF706FA01B0DDF800E001B0704700BFC1
:0414A80000280040D8
:1014D00081B0CDF800E008B413460A46C1B2044812
:1014E000FFF7E2F901B0DDF800E001B0704700BF9E
:0414F000002C00408C
:101D500044F67D77C0F2120700BF00BF7F1EFDD1A1
:081D600000BF00BF00BF704787
:102BB00081B0CDF800E01E48FFF780FF1D480121DD
:102BC000FFF7D8FE1A48B0F900001B49FFF766FE70
:102BD00001211948FFF7CEFE18480121FFF7CAFE70
:102BE0001748B0F900001449FFF758FE01211248B8
:102BF000FFF7C0FE13480121FFF7BCFE1248B0F9F1
:102C000000000D49FFF74AFE02210B48FFF7B2FE14
:102C100044F67D77C0F2120700BF00BF7F1EFDD1D2
:102C200000BF00BF00BFDDF800E001B0704700BF8B
:102C300068000020000000206E000020040000203A
:0C2C40006A000020080000206C0000204A
:102ABC0084B0CDF800E002A9019006226820FFF74F
:102ACC004DF9019802AC611C09780180B0F9001035
:102ADC00090201802278B0F9001011430180821C98
:102AEC00E11C09781180821CB2F9001009021180D6
:102AFC00831CA11C0A78B3F9001011431980021D24
:102B0C00611D09781180021DB2F9001009021180B3
:102B1C00031D211D0A78B3F9001011431980DDF84B
:062B2C0000E004B0704758
:101D680084B0CDF800E002918DF80C20254B1B784B
:101D780003BB01AC2070237843F08003237001205B
:101D8800214C2468A0470020204C2468A04701ABC0
:101D980001211846FFF706FD00201B4C2468A047C8
:101DA8009DF80C100298FFF76DFD0120174C246870
:101DB800A04722E0134B1B78012B1ED18DF805009C
:101DC80040F080038DF805300120104C2468A047AE
:101DD800FFF754FD0DF105040D4B1B780122214638
:101DE800D8B20023FFF718FD094B1B789DF80C208B
:101DF8000299D8B20123FFF739FEDDF800E004B0FC
:101E0800704700BF4A000020B0000020AC0000204E
:041E18004B0000205B
:10188C0083B0CDF800E0ADF808100190BDF8083039
:10189C00BDF80820521EADF808204BB10020064CB4
:1018AC002468A047019A1070019A521C0192EDE72E
:0C18BC00DDF800E003B07047B800002029
:1013E00081B0CDF800E0FFF721FBDDF800E001B0AF
:0213F000704744
:100A2C0081B0CDF800E000F08DFC0549098801B1DA
:100A3C00FBE704490888DDF800E001B0704700BF0F
:080A4C00400102420C100040C1
:1017600081B0CDF800E0FFF78BF8DDF800E001B0C4
:021770007047C0
:1008800081B0CDF800E000F087FD0549098801B18D
:10089000FBE704490888DDF800E001B0704700BFBD
:0808A000408102420C140040EB
:1017280081B0CDF800E0FFF789F8DDF800E001B0FE
:021738007047F8
:1008440081B0CDF800E000F0B7FD0549098801B199
:10085400FBE704490888DDF800E001B0704700BFF9
:08086400400103420C180040A2
:1017740081B0CDF800E0FFF73BF8DDF800E001B000
:021784007047AC
:1007F40081B0CDF800E000F057FE0549098801B149
:10080400FBE704490888DDF800E001B0704700BF49
:08081400408103420C1C00406E
:10168C0081B0CDF800E0FFF787F8DDF800E001B09D
:02169C00704795
:1007A40081B0CDF800E000F0A3FE0549098801B14D
:1007B400FBE704490888DDF800E001B0704700BF9A
:0807C400000104420C2000407A
:1016780081B0CDF800E0FFF7A5F8DDF800E001B093
:021688007047A9
:1007CC0081B0CDF800E000F047FE0549098801B181
:1007DC00FBE704490888DDF800E001B0704700BF72
:0807EC00008104420C240040CE
:1015180081B0CDF800E0FFF71BFCDDF800E001B07A
:0215280070470A
:100D580081B0CDF800E000F049FB0549098801B1F0
:100D6800FBE704490888DDF800E001B0704700BFE0
:080D7800000105420C280040B7
:10152C0081B0CDF800E0FFF7FDFBDDF800E001B085
:02153C007047F6
:100D300081B0CDF800E000F083FB0549098801B1DE
:100D4000FBE704490888DDF800E001B0704700BF08
:080D5000008105420C2C00405B
:101A740082B0CDF800E040F20004ADF80440044C1C
:101A84002468A047BDF90400DDF800E002B0704707
:041A9400A40000208A
:1013740081B0CDF800E008B413460A46C1B204486F
:10138400FFF75CFD01B0DDF800E001B0704700BF7D
:0413940000200040F5
:100E400087B0CDF800E08DF8041001469DF804004D
:100E5000079E7B4CA1420AD17A4D2C6805942C4602
:100E600024680694784C2568784C256028E0784CF6
:100E7000A1420AD1774D2C6805942C46246806942B
:100E8000754C2568714C25601AE0744CA1420AD15A
:100E9000734D2C6805942C4624680694714C256883
:100EA0006A4C25600CE0704CA14209D16F4D2C6852
:100EB00005942C46246806946D4C2568634C256087
:100EC000019202910391C1B20398FFF761FA02996E
:100ED000019A684C24787CB901960293039204919C
:100EE00008460021FFF70AFB0499039A029B019E22
:100EF00000B1A0E0304661E000250C8865F30414E1
:100F00000C80012B39D130460D88C5F3800464B1C3
:100F1000069C4CB1059C24B907204C4C2468A04782
:100F200089E0059C641E0594EEE7069C05940C88F8
:100F300044F002040C80019111461A4603460198C0
:100F40000588C5F3400464B1069C4CB1059C24B9E6
:100F500006203E4C2468A0476DE0059C641E059465
:100F6000EEE7069C0594048844F004040480019292
:100F70000A4601461846019B1DE001930B46304688
:100F800001991D88C5F3800464B1069C4CB1059C91
:100F900024B907202D4C2468A0474CE0059C641E12
:100FA0000594EEE7069C05941C8844F002041C801E
:100FB00001930B46019900252E4C25705C1E23469B
:100FC00001931346019A002A31DB01F22C04258893
:100FD000C5F3000464B9069C4CB1059C24B90320F8
:100FE0001A4C2468A04726E0059C641E0594ECE793
:100FF00016E001F20C0424881C705B1C15E001252E
:101000000C8865F382040C8001F20C0424881C70A7
:101010005B1C0AE001F20C0424881C705B1C04E0D9
:10102000002AE6D0012AEAD0F4E7521ECBE710B935
:101030000125104C2570DDF800E007B0704700BFB7
:10104000002000404C000020C8000020C400002008
:101050000024004050000020CC0000200028004068
:1010600054000020D0000020002C00405800002038
:08107000D4000020490000201B
:10173C0081B0CDF800E008B413460A46C1B20448A3
:10174C00FFF778FB01B0DDF800E001B0704700BF97
:04175C000024004025
:1017040081B0CDF800E008B413460A46C1B20448DB
:10171400FFF794FB01B0DDF800E001B0704700BFB3
:041724000028004059
:1017880081B0CDF800E008B413460A46C1B2044857
:10179800FFF752FB01B0DDF800E001B0704700BF71
:0417A800002C0040D1
:10289C0081B0CDF800E00E46002183B2002805DAA5
:1028AC000121404280B280B28FB201E098B28FB267
:1028BC003146FFF719FA06213446B8B2002908D977
:1028CC0063184A1E92B2A21812781A70491E89B265
:1028DC00F4E72022227070B1002081B22046421809
:1028EC001278202A02D1491C89B2F8E74A1E92B20A
:0E28FC0083182D221A70DDF800E001B070473D
:101CF40081B00A4681B200208DB21146052805D272
:101D04000B1820221A70401CC0B2F7E70B180022EF
:101D14001A70401EC0B20C180A23B5FBF3F203FB81
:101D2400125292B2303222700A22B5FBF2F292B20F
:101D340095B202B902E0401EC0B2ECE701B07047B0
:102D740083B0CDF800E0374B374C384D384E394FDF
:102D8400394845F680213948018004F007000528B8
:102D940004D004F07000502800D00BE0012252B29D
:102DA40033480280002149B232480180324802800F
:102DB40032480180802132480160019502961E4606
:102DC40025463A46029B019C2E48006800F4807018
:102DD40000B1F9E72C492D480160019511463246AE
:102DE4001D46019B2748006800F4807000B1F9E794
:102DF400274801602748016027492848016028487E
:102E0400026028480360200D00F0070028B944F050
:102E14000301254801602A4610E044F4803040F064
:102E24000301214801602A462048006830B1FFF7B9
:102E34008DFE012149B21E480160F5E700211748C3
:102E4400016042F4B44109480180DDF800E003B0B8
:102E5400704700BF000005003300000003000100BC
:102E6400840000000010000080BB00000C480040FB
:102E74004CA509428CA5094248A5094288A50942E6
:102E8400143004E00400014001005A6900000140CC
:102E940010100140141001405A6900000004014060
:102EA40004040140080401400C0401400489204248
:042EB400048A20422A
:102B500040F20907C0F2000700BF00BF7F1EFDD191
:082B600000BF00BF00BF704779
:102D3C0081B002490248016001B0704780BB0000BD
:042D4C00E000002083
:082D080081B0FEE701B0704745
:102D100081B04EF68850CEF20000016841F4700197
:102D2000016000BF00BF00BF00BFF1EE100A40F419
:0A2D30004000E1EE100A01B0704708
:1034580000B5DFF824B0DFF824A0DFF824C0FFF7B8
:1034680065FBDFF820B0DFF820A0DFF820C0FFF709
:103478005DFB00BD704700BF000000204A0000202F
:10348800643300004C000020640000204034000039
:1034F40000B5DFF810B0DFF810A0FFF733FB00BD14
:0C350400704700BF00000020F400002011
:081D4400B91000003D1700007A
:041D4C00A08601006C
:102EB800204C00404000000500000000204C00406D
:102EC8008000000500000000000000000000000075
:102ED80000000000000000000000000000000000EA
:102EE80000000000000000000000000000000000DA
:102EF80000000000000000000000000000000000CA
:102F080000000000000000000000000000000000B9
:102F180000000000000000000000000000000000A9
:102F28000000000000000000000000000000000099
:102F38000000000000000000000000000000000089
:102F48000000000000000000000000000000000079
:102F58000000000000000000000000000000000069
:102F68000000000000000000000000000000000059
:102F78000000000000000000000000000000000049
:0C2F88000000000000000000020000003B
:102F9400004C00400400050500000000004C004007
:102FA400080005050000000000000000000000000B
:102FB400000000000000000000000000000000000D
:102FC40000000000000000000000000000000000FD
:102FD40000000000000000000000000000000000ED
:102FE40000000000000000000000000000000000DD
:102FF40000000000000000000000000000000000CD
:1030040000000000000000000000000000000000BC
:1030140000000000000000000000000000000000AC
:10302400000000000000000000000000000000009C
:10303400000000000000000000000000000000008C
:10304400000000000000000000000000000000007C
:10305400000000000000000000000000000000006C
:0C3064000000000000000000020000005E
:10307000204C00400400050500000000204C0040EA
:10308000080005050000000000000000000000002E
:103090000000000000000000000000000000000030
:1030A0000000000000000000000000000000000020
:1030B0000000000000000000000000000000000010
:1030C0000000000000000000000000000000000000
:1030D00000000000000000000000000000000000F0
:1030E00000000000000000000000000000000000E0
:1030F00000000000000000000000000000000000D0
:1031000000000000000000000000000000000000BF
:1031100000000000000000000000000000000000AF
:10312000000000000000000000000000000000009F
:10313000000000000000000000000000000000008F
:0C31400000000000000000000200000081
:10314C00404C00400010000500000000404C0040C6
:10315C00002000050000000000000000000000003E
:10316C000000000000000000000000000000000053
:10317C000000000000000000000000000000000043
:10318C000000000000000000000000000000000033
:10319C000000000000000000000000000000000023
:1031AC000000000000000000000000000000000013
:1031BC000000000000000000000000000000000003
:1031CC0000000000000000000000000000000000F3
:1031DC0000000000000000000000000000000000E3
:1031EC0000000000000000000000000000000000D3
:1031FC0000000000000000000000000000000000C3
:10320C0000000000000000000000000000000000B2
:0C321C00000000000000000002000000A4
:10322800004C00400004050500000000004C004070
:103238000008050500000000000000000000000074
:103248000000000000000000000000000000000076
:103258000000000000000000000000000000000066
:103268000000000000000000000000000000000056
:103278000000000000000000000000000000000046
:103288000000000000000000000000000000000036
:103298000000000000000000000000000000000026
:1032A8000000000000000000000000000000000016
:1032B8000000000000000000000000000000000006
:1032C80000000000000000000000000000000000F6
:1032D80000000000000000000000000000000000E6
:1032E80000000000000000000000000000000000D6
:0C32F800000000000000000002000000C8
:10330400D91E0000711E00007D1E0000891E0000F1
:10331400091F0000151F0000211F0000E51E00000A
:10332400F11E0000FD1E00002528000031280000C9
:10333400FFFFFFFFFFFFFFFFFFFFFFFFFFFFFFFF99
:10334400FFFFFFFFFFFFFFFFFFFFFFFFFFFFFFFF89
:10335400FFFFFFFFFFFFFFFFFFFFFFFFFFFFFFFF79
:0433640020583A00B3
:0433680020593A00AE
:04336C00205A3A00A9
:103370002E2E2E206170706C69636174696F6E20EF
:10338000696E697420646F6E65202E2E2E202000D9
:1033900020202E2E2E2073797374656D20696E693E
:0E33A0007420646F6E65202E2E2E20200000FB
:1033AE0000001102CB024303E903E40496058606EE
:1033BE006308B008C709B80B070DF70DA90EA30FC8
:1033CE00BE101A118A13531673176E1820190B1A82
:1033DE00591BEB1B4F1DB51E441F8D2010217C2148
:0833EE002F222C23D2234824D6
:1033F6000000010002000400080010002000110077
:10340600210022004400250049004A005200920093
:1034160053005500AA006B00AD00B500B600D600FB
:10342600B700BB00DD00ED00EE00BF00DF00EF00DF
:08343600F700FB00FD00FE00A1
:043440000000000088
:043444000000000084
:043448000000000080
:04344C00000000007C
:043450001027000041
:0434540000366E01CF
:00000001FF
